{
  "contractName": "AssetGlobal",
  "abi": [
    {
      "anonymous": false,
      "inputs": [
        {
          "indexed": true,
          "internalType": "address",
          "name": "owner",
          "type": "address"
        },
        {
          "indexed": true,
          "internalType": "address",
          "name": "approved",
          "type": "address"
        },
        {
          "indexed": true,
          "internalType": "uint256",
          "name": "tokenId",
          "type": "uint256"
        }
      ],
      "name": "Approval",
      "type": "event"
    },
    {
      "anonymous": false,
      "inputs": [
        {
          "indexed": true,
          "internalType": "address",
          "name": "owner",
          "type": "address"
        },
        {
          "indexed": true,
          "internalType": "address",
          "name": "operator",
          "type": "address"
        },
        {
          "indexed": false,
          "internalType": "bool",
          "name": "approved",
          "type": "bool"
        }
      ],
      "name": "ApprovalForAll",
      "type": "event"
    },
    {
      "anonymous": false,
      "inputs": [
        {
          "indexed": true,
          "internalType": "address",
          "name": "from",
          "type": "address"
        },
        {
          "indexed": true,
          "internalType": "address",
          "name": "to",
          "type": "address"
        },
        {
          "indexed": true,
          "internalType": "uint256",
          "name": "tokenId",
          "type": "uint256"
        }
      ],
      "name": "Transfer",
      "type": "event"
    },
    {
      "inputs": [
        {
          "internalType": "address",
          "name": "to",
          "type": "address"
        },
        {
          "internalType": "uint256",
          "name": "tokenId",
          "type": "uint256"
        }
      ],
      "name": "approve",
      "outputs": [],
      "stateMutability": "nonpayable",
      "type": "function"
    },
    {
      "inputs": [
        {
          "internalType": "address",
          "name": "owner",
          "type": "address"
        }
      ],
      "name": "balanceOf",
      "outputs": [
        {
          "internalType": "uint256",
          "name": "",
          "type": "uint256"
        }
      ],
      "stateMutability": "view",
      "type": "function",
      "constant": true
    },
    {
      "inputs": [],
      "name": "baseURI",
      "outputs": [
        {
          "internalType": "string",
          "name": "",
          "type": "string"
        }
      ],
      "stateMutability": "view",
      "type": "function",
      "constant": true
    },
    {
      "inputs": [
        {
          "internalType": "bytes4",
          "name": "interfaceId",
          "type": "bytes4"
        },
        {
          "internalType": "string",
          "name": "message",
          "type": "string"
        }
      ],
      "name": "checkInterface",
      "outputs": [],
      "stateMutability": "view",
      "type": "function",
      "constant": true
    },
    {
      "inputs": [],
      "name": "description",
      "outputs": [
        {
          "internalType": "string",
          "name": "",
          "type": "string"
        }
      ],
      "stateMutability": "view",
      "type": "function",
      "constant": true
    },
    {
      "inputs": [
        {
          "internalType": "uint256",
          "name": "tokenId",
          "type": "uint256"
        }
      ],
      "name": "getApproved",
      "outputs": [
        {
          "internalType": "address",
          "name": "",
          "type": "address"
        }
      ],
      "stateMutability": "view",
      "type": "function",
      "constant": true
    },
    {
      "inputs": [],
      "name": "host",
      "outputs": [
        {
          "internalType": "contract IDAO",
          "name": "",
          "type": "address"
        }
      ],
      "stateMutability": "view",
      "type": "function",
      "constant": true
    },
    {
      "inputs": [],
      "name": "impl",
      "outputs": [
        {
          "internalType": "address",
          "name": "",
          "type": "address"
        }
      ],
      "stateMutability": "view",
      "type": "function",
      "constant": true
    },
    {
      "inputs": [
        {
          "internalType": "address",
          "name": "owner",
          "type": "address"
        },
        {
          "internalType": "address",
          "name": "operator",
          "type": "address"
        }
      ],
      "name": "isApprovedForAll",
      "outputs": [
        {
          "internalType": "bool",
          "name": "",
          "type": "bool"
        }
      ],
      "stateMutability": "view",
      "type": "function",
      "constant": true
    },
    {
      "inputs": [],
      "name": "name",
      "outputs": [
        {
          "internalType": "string",
          "name": "",
          "type": "string"
        }
      ],
      "stateMutability": "view",
      "type": "function",
      "constant": true
    },
    {
      "inputs": [],
      "name": "operator",
      "outputs": [
        {
          "internalType": "contract IVotePool",
          "name": "",
          "type": "address"
        }
      ],
      "stateMutability": "view",
      "type": "function",
      "constant": true
    },
    {
      "inputs": [
        {
          "internalType": "uint256",
          "name": "tokenId",
          "type": "uint256"
        }
      ],
      "name": "ownerOf",
      "outputs": [
        {
          "internalType": "address",
          "name": "",
          "type": "address"
        }
      ],
      "stateMutability": "view",
      "type": "function",
      "constant": true
    },
    {
      "inputs": [
        {
          "internalType": "address",
          "name": "from",
          "type": "address"
        },
        {
          "internalType": "address",
          "name": "to",
          "type": "address"
        },
        {
          "internalType": "uint256",
          "name": "tokenId",
          "type": "uint256"
        }
      ],
      "name": "safeTransferFrom",
      "outputs": [],
      "stateMutability": "nonpayable",
      "type": "function"
    },
    {
      "inputs": [
        {
          "internalType": "address",
          "name": "from",
          "type": "address"
        },
        {
          "internalType": "address",
          "name": "to",
          "type": "address"
        },
        {
          "internalType": "uint256",
          "name": "tokenId",
          "type": "uint256"
        },
        {
          "internalType": "bytes",
          "name": "_data",
          "type": "bytes"
        }
      ],
      "name": "safeTransferFrom",
      "outputs": [],
      "stateMutability": "nonpayable",
      "type": "function"
    },
    {
      "inputs": [
        {
          "internalType": "address",
          "name": "operator",
          "type": "address"
        },
        {
          "internalType": "bool",
          "name": "approved",
          "type": "bool"
        }
      ],
      "name": "setApprovalForAll",
      "outputs": [],
      "stateMutability": "nonpayable",
      "type": "function"
    },
    {
      "inputs": [
        {
          "internalType": "address",
          "name": "vote",
          "type": "address"
        }
      ],
      "name": "setOperator",
      "outputs": [],
      "stateMutability": "nonpayable",
      "type": "function"
    },
    {
      "inputs": [
        {
          "internalType": "bytes4",
          "name": "interfaceId",
          "type": "bytes4"
        }
      ],
      "name": "supportsInterface",
      "outputs": [
        {
          "internalType": "bool",
          "name": "",
          "type": "bool"
        }
      ],
      "stateMutability": "view",
      "type": "function",
      "constant": true
    },
    {
      "inputs": [],
      "name": "symbol",
      "outputs": [
        {
          "internalType": "string",
          "name": "",
          "type": "string"
        }
      ],
      "stateMutability": "view",
      "type": "function",
      "constant": true
    },
    {
      "inputs": [
        {
          "internalType": "uint256",
          "name": "index",
          "type": "uint256"
        }
      ],
      "name": "tokenByIndex",
      "outputs": [
        {
          "internalType": "uint256",
          "name": "",
          "type": "uint256"
        }
      ],
      "stateMutability": "view",
      "type": "function",
      "constant": true
    },
    {
      "inputs": [
        {
          "internalType": "address",
          "name": "owner",
          "type": "address"
        },
        {
          "internalType": "uint256",
          "name": "index",
          "type": "uint256"
        }
      ],
      "name": "tokenOfOwnerByIndex",
      "outputs": [
        {
          "internalType": "uint256",
          "name": "",
          "type": "uint256"
        }
      ],
      "stateMutability": "view",
      "type": "function",
      "constant": true
    },
    {
      "inputs": [
        {
          "internalType": "uint256",
          "name": "tokenId",
          "type": "uint256"
        }
      ],
      "name": "tokenURI",
      "outputs": [
        {
          "internalType": "string",
          "name": "",
          "type": "string"
        }
      ],
      "stateMutability": "view",
      "type": "function",
      "constant": true
    },
    {
      "inputs": [],
      "name": "totalSupply",
      "outputs": [
        {
          "internalType": "uint256",
          "name": "",
          "type": "uint256"
        }
      ],
      "stateMutability": "view",
      "type": "function",
      "constant": true
    },
    {
      "inputs": [
        {
          "internalType": "address",
          "name": "from",
          "type": "address"
        },
        {
          "internalType": "address",
          "name": "to",
          "type": "address"
        },
        {
          "internalType": "uint256",
          "name": "tokenId",
          "type": "uint256"
        }
      ],
      "name": "transferFrom",
      "outputs": [],
      "stateMutability": "nonpayable",
      "type": "function"
    },
    {
      "inputs": [
        {
          "internalType": "address",
          "name": "impl",
          "type": "address"
        }
      ],
      "name": "upgrade",
      "outputs": [],
      "stateMutability": "nonpayable",
      "type": "function"
    },
    {
      "inputs": [
        {
          "internalType": "address",
          "name": "host",
          "type": "address"
        },
        {
          "internalType": "string",
          "name": "description",
          "type": "string"
        },
        {
          "internalType": "address",
          "name": "operator",
          "type": "address"
        },
        {
          "internalType": "string",
          "name": "contractURI",
          "type": "string"
        }
      ],
      "name": "initAssetGlobal",
      "outputs": [],
      "stateMutability": "nonpayable",
      "type": "function"
    },
    {
      "inputs": [
        {
          "internalType": "address",
          "name": "operator",
          "type": "address"
        },
        {
          "internalType": "address",
          "name": "from",
          "type": "address"
        },
        {
          "internalType": "uint256",
          "name": "tokenId",
          "type": "uint256"
        },
        {
          "internalType": "bytes",
          "name": "data",
          "type": "bytes"
        }
      ],
      "name": "onERC721Received",
      "outputs": [
        {
          "internalType": "bytes4",
          "name": "",
          "type": "bytes4"
        }
      ],
      "stateMutability": "nonpayable",
      "type": "function"
    },
    {
      "inputs": [
        {
          "internalType": "address",
          "name": "operator",
          "type": "address"
        },
        {
          "internalType": "address",
          "name": "from",
          "type": "address"
        },
        {
          "internalType": "uint256",
          "name": "tokenId",
          "type": "uint256"
        },
        {
          "internalType": "bytes",
          "name": "data",
          "type": "bytes"
        }
      ],
      "name": "onERC721LockReceived",
      "outputs": [
        {
          "internalType": "bytes4",
          "name": "",
          "type": "bytes4"
        }
      ],
      "stateMutability": "nonpayable",
      "type": "function"
    },
    {
      "inputs": [
        {
          "internalType": "address",
          "name": "metaToken",
          "type": "address"
        },
        {
          "internalType": "uint256",
          "name": "metaTokenId",
          "type": "uint256"
        }
      ],
      "name": "convertTokenID",
      "outputs": [
        {
          "internalType": "uint256",
          "name": "",
          "type": "uint256"
        }
      ],
      "stateMutability": "pure",
      "type": "function",
      "constant": true
    },
    {
      "inputs": [
        {
          "internalType": "uint256",
          "name": "tokenId",
          "type": "uint256"
        }
      ],
      "name": "assetMeta",
      "outputs": [
        {
          "components": [
            {
              "internalType": "address",
              "name": "token",
              "type": "address"
            },
            {
              "internalType": "uint256",
              "name": "tokenId",
              "type": "uint256"
            },
            {
              "internalType": "enum IAssetGlobal.Kind",
              "name": "kind",
              "type": "uint8"
            }
          ],
          "internalType": "struct IAssetGlobal.AssetID",
          "name": "",
          "type": "tuple"
        }
      ],
      "stateMutability": "view",
      "type": "function",
      "constant": true
    },
    {
      "inputs": [
        {
          "internalType": "address",
          "name": "metaToken",
          "type": "address"
        },
        {
          "internalType": "uint256",
          "name": "metaTokenId",
          "type": "uint256"
        }
      ],
      "name": "unlock",
      "outputs": [],
      "stateMutability": "nonpayable",
      "type": "function"
    },
    {
      "inputs": [
        {
          "internalType": "uint256",
          "name": "tokenId",
          "type": "uint256"
        }
      ],
      "name": "withdraw",
      "outputs": [],
      "stateMutability": "nonpayable",
      "type": "function"
    },
    {
      "inputs": [],
      "name": "contractURI",
      "outputs": [
        {
          "internalType": "string",
          "name": "",
          "type": "string"
        }
      ],
      "stateMutability": "view",
      "type": "function",
      "constant": true
    },
    {
      "inputs": [
        {
          "internalType": "string",
          "name": "uri",
          "type": "string"
        }
      ],
      "name": "setContractURI",
      "outputs": [],
      "stateMutability": "nonpayable",
      "type": "function"
    }
  ],
  "bytecode": "0x608060405234801561001057600080fd5b5061314f806100206000396000f3fe608060405234801561001057600080fd5b50600436106101fb5760003560e01c80637284e4161161011a578063a58f8059116100ad578063c87b56dd1161007c578063c87b56dd14610413578063e8a3d48514610426578063e985e9c51461042e578063f437bc5914610441578063f9b62b7a14610449576101fb565b8063a58f8059146103c7578063b3ab15fb146103da578063b88d4fde146103ed578063c64df69d14610400576101fb565b806391d81889116100e957806391d8188914610386578063938e3d7b1461039957806395d89b41146103ac578063a22cb465146103b4576101fb565b80637284e416146103505780637e154325146103585780637eee288d1461036b5780638abf60771461037e576101fb565b80632e1a7d4d11610192578063570ca73511610161578063570ca7351461031a5780636352211e146103225780636c0360eb1461033557806370a082311461033d576101fb565b80632e1a7d4d146102ce5780632f745c59146102e157806342842e0e146102f45780634f6ccce714610307576101fb565b8063095ea7b3116101ce578063095ea7b314610273578063150b7a021461028657806318160ddd146102a657806323b872dd146102bb576101fb565b806301ffc9a71461020057806306fdde0314610229578063081812fc1461023e5780630900f0101461025e575b600080fd5b61021361020e36600461240f565b610469565b6040516102209190612676565b60405180910390f35b610231610488565b604051610220919061276b565b61025161024c366004612557565b61051f565b60405161022091906125d9565b61027161026c366004612221565b61056b565b005b6102716102813660046123c8565b6105b1565b6102996102943660046122b5565b610649565b6040516102209190612681565b6102ae61071f565b6040516102209190612f66565b6102716102c9366004612275565b610730565b6102716102dc366004612557565b610778565b6102ae6102ef3660046123c8565b61088d565b610271610302366004612275565b6108b8565b6102ae610315366004612557565b6108d3565b6102516108e9565b610251610330366004612557565b6108f8565b610231610920565b6102ae61034b366004612221565b610981565b6102316109ca565b6102996103663660046122b5565b610a2b565b6102716103793660046123c8565b610af9565b610251610be4565b6102ae6103943660046123c8565b610bf3565b6102716103a73660046124b1565b610c27565b610231610c3e565b6102716103c236600461231f565b610c9f565b6102716103d536600461234c565b610d6d565b6102716103e8366004612221565b610dc2565b6102716103fb3660046122b5565b610df2565b61027161040e366004612447565b610e2b565b610231610421366004612557565b610e53565b610231610e5e565b61021361043c36600461223d565b610ebf565b610251610eed565b61045c610457366004612557565b610efc565b6040516102209190612f2e565b6001600160e01b03191660009081526001602052604090205460ff1690565b600a8054604080516020601f60026000196101006001881615020190951694909404938401819004810282018101909252828152606093909290918301828280156105145780601f106104e957610100808354040283529160200191610514565b820191906000526020600020905b8154815290600101906020018083116104f757829003601f168201915b505050505090505b90565b600061052a82610f8c565b61054f5760405162461bcd60e51b815260040161054690612cb8565b60405180910390fd5b506000908152600860205260409020546001600160a01b031690565b610573610f99565b61058f5760405162461bcd60e51b815260040161054690612815565b600080546001600160a01b0319166001600160a01b0392909216919091179055565b60006105bc826108f8565b9050806001600160a01b0316836001600160a01b031614156105f05760405162461bcd60e51b815260040161054690612d9b565b806001600160a01b03166106026110f8565b6001600160a01b0316148061061e575061061e8161043c6110f8565b61063a5760405162461bcd60e51b815260040161054690612b49565b6106448383611102565b505050565b60008061065c610657611170565b611174565b9050600061066a8286610bf3565b6000818152600f602052604090208054919250906001600160a01b0316156106a45760405162461bcd60e51b815260040161054690612868565b6001600160a01b0387163014156106cd5760405162461bcd60e51b815260040161054690612c32565b80546001600160a01b0319166001600160a01b038416178155600180820187905560028201805460ff19168280021790555061070987836111a0565b50630a85bd0160e11b925050505b949350505050565b600061072b6006611274565b905090565b61074161073b6110f8565b8261127f565b61075d5760405162461bcd60e51b815260040161054690612ddc565b610644838383604051806020016040528060008152506112fc565b6000818152600f6020526040902080546001600160a01b03166107ad5760405162461bcd60e51b815260040161054690612917565b6001600282015460ff1660018111156107c257fe5b146107df5760405162461bcd60e51b81526004016105469061277e565b60006107ea836108f8565b82546001840154604051632142170760e11b81529293506001600160a01b03909116916342842e0e916108239130918691600401612615565b600060405180830381600087803b15801561083d57600080fd5b505af1158015610851573d6000803e3d6000fd5b5050506000848152600f6020526040812080546001600160a01b03191681556001810191909155600201805460ff19169055506106448361140c565b6001600160a01b03821660009081526005602052604081206108af90836114e9565b90505b92915050565b61064483838360405180602001604052806000815250610df2565b6000806108e16006846114f5565b509392505050565b6002546001600160a01b031690565b60006108b2826040518060600160405280602981526020016130a66029913960069190611511565b600d8054604080516020601f60026000196101006001881615020190951694909404938401819004810282018101909252828152606093909290918301828280156105145780601f106104e957610100808354040283529160200191610514565b60006001600160a01b0382166109a95760405162461bcd60e51b815260040161054690612ba6565b6001600160a01b03821660009081526005602052604090206108b290611274565b60048054604080516020601f60026000196101006001881615020190951694909404938401819004810282018101909252828152606093909290918301828280156105145780601f106104e957610100808354040283529160200191610514565b600080610a3e610a39611170565b611528565b90506000610a4c8286610bf3565b6000818152600f602052604090208054919250906001600160a01b031615610a865760405162461bcd60e51b815260040161054690612aec565b6001600160a01b038716301415610aaf5760405162461bcd60e51b815260040161054690612e2d565b80546001600160a01b0319166001600160a01b0384161781556001810186905560028101805460ff19169055610ae587836111a0565b50637e15432560e01b979650505050505050565b6000610b058383610bf3565b6000818152600f602052604090208054919250906001600160a01b0316610b3e5760405162461bcd60e51b815260040161054690612a52565b8054600182015460405163c792f45d60e01b81526001600160a01b039092169163c792f45d91610b7491600091906004016125ed565b600060405180830381600087803b158015610b8e57600080fd5b505af1158015610ba2573d6000803e3d6000fd5b5050506000838152600f6020526040812080546001600160a01b03191681556001810191909155600201805460ff1916905550610bde8261140c565b50505050565b6000546001600160a01b031690565b60008282604051602001610c0892919061259b565b60408051601f1981840301815291905280516020909101209392505050565b8051610c3a90600e9060208401906120dd565b5050565b600b8054604080516020601f60026000196101006001881615020190951694909404938401819004810282018101909252828152606093909290918301828280156105145780601f106104e957610100808354040283529160200191610514565b610ca76110f8565b6001600160a01b0316826001600160a01b03161415610cd85760405162461bcd60e51b815260040161054690612a1b565b8060096000610ce56110f8565b6001600160a01b03908116825260208083019390935260409182016000908120918716808252919093529120805460ff191692151592909217909155610d296110f8565b6001600160a01b03167f17307eab39ab6107e8899845ad3d59bd9653f200f220920489ca2b5937696c3183604051610d619190612676565b60405180910390a35050565b610d78848484611554565b610d88631c47318b60e21b611605565b610d98630a85bd0160e11b611605565b610da8637e15432560e01b611605565b8051610dbb90600e9060208401906120dd565b5050505050565b610dca610f99565b610de65760405162461bcd60e51b815260040161054690612815565b610def81611657565b50565b610e03610dfd6110f8565b8361127f565b610e1f5760405162461bcd60e51b815260040161054690612ddc565b610bde84848484611703565b610e3482610469565b81906106445760405162461bcd60e51b8152600401610546919061276b565b60606108b282611737565b600e8054604080516020601f60026000196101006001881615020190951694909404938401819004810282018101909252828152606093909290918301828280156105145780601f106104e957610100808354040283529160200191610514565b6001600160a01b03918216600090815260096020908152604080832093909416825291909152205460ff1690565b6003546001600160a01b031690565b610f0461215b565b6000828152600f6020526040902080546001600160a01b0316610f395760405162461bcd60e51b815260040161054690612a52565b6040805160608101825282546001600160a01b0316815260018084015460208301526002840154919284929084019160ff90911690811115610f7757fe5b6001811115610f8257fe5b9052509392505050565b60006108b26006836117d3565b60025460009033906001600160a01b031681146110f057600360009054906101000a90046001600160a01b03166001600160a01b031663570ca7356040518163ffffffff1660e01b815260040160206040518083038186803b158015610ffe57600080fd5b505afa158015611012573d6000803e3d6000fd5b505050506040513d601f19601f820116820180604052508101906110369190612495565b6001600160a01b0316816001600160a01b0316146110f057600360009054906101000a90046001600160a01b03166001600160a01b031663ebf0c7176040518163ffffffff1660e01b815260040160206040518083038186803b15801561109c57600080fd5b505afa1580156110b0573d6000803e3d6000fd5b505050506040513d601f19601f820116820180604052508101906110d49190612495565b6001600160a01b0316816001600160a01b03161491505061051c565b600191505090565b600061072b611170565b600081815260086020526040902080546001600160a01b0319166001600160a01b0384169081179091558190611137826108f8565b6001600160a01b03167f8c5be1e5ebec7d5bd14f71427d1e84f3dd0314c0f7b2291e5b200ac8c7c3b92560405160405180910390a45050565b3390565b60006108b2826380ac58cd60e01b6040518060800160405280604b81526020016130cf604b91396117df565b6001600160a01b0382166111c65760405162461bcd60e51b815260040161054690612c83565b6111cf81610f8c565b156111ec5760405162461bcd60e51b8152600401610546906129a0565b61120860008383604051806020016040528060008152506118b3565b6001600160a01b038216600090815260056020526040902061122a9082611999565b50611237600682846119a5565b5060405181906001600160a01b038416906000907fddf252ad1be2c89b69c2b068fc378daa952ba7f163c4a11628f55a4df523b3ef908290a45050565b60006108b2826119bb565b600061128a82610f8c565b6112a65760405162461bcd60e51b815260040161054690612aa0565b60006112b1836108f8565b9050806001600160a01b0316846001600160a01b031614806112ec5750836001600160a01b03166112e18461051f565b6001600160a01b0316145b8061071757506107178185610ebf565b836001600160a01b031661130f836108f8565b6001600160a01b0316146113355760405162461bcd60e51b815260040161054690612d52565b6001600160a01b03831661135b5760405162461bcd60e51b8152600401610546906129d7565b611367848484846118b3565b611372600083611102565b6001600160a01b038416600090815260056020526040902061139490836119bf565b506001600160a01b03831660009081526005602052604090206113b79083611999565b506113c4600683856119a5565b5081836001600160a01b0316856001600160a01b03167fddf252ad1be2c89b69c2b068fc378daa952ba7f163c4a11628f55a4df523b3ef60405160405180910390a450505050565b6000611417826108f8565b905061143581600084604051806020016040528060008152506118b3565b611440600083611102565b6000828152600c6020526040902054600260001961010060018416150201909116041561147e576000828152600c6020526040812061147e91612179565b6001600160a01b03811660009081526005602052604090206114a090836119bf565b506114ac6006836119cb565b5060405182906000906001600160a01b038416907fddf252ad1be2c89b69c2b068fc378daa952ba7f163c4a11628f55a4df523b3ef908390a45050565b60006108af83836119d7565b60008080806115048686611a1c565b9097909650945050505050565b600061151e848484611a78565b90505b9392505050565b60006108b28263473eac9060e01b604051806080016040528060548152602001613052605491396117df565b600054600160a81b900460ff168061156f575061156f611ad7565b806115845750600054600160a01b900460ff16155b6115a05760405162461bcd60e51b815260040161054690612d04565b600054600160a81b900460ff161580156115d7576000805460ff60a01b1960ff60a81b19909116600160a81b1716600160a01b1790555b6115e2848484611add565b6115ec8384611b90565b8015610bde576000805460ff60a81b1916905550505050565b6001600160e01b0319808216141561162f5760405162461bcd60e51b815260040161054690612969565b6001600160e01b0319166000908152600160208190526040909120805460ff19169091179055565b6001600160a01b038116156116e157611678816001600160a01b0316611be8565b156116e15760405163c64df69d60e01b81526001600160a01b0382169063c64df69d906116b090630ddf27bf60e01b906004016126fb565b60006040518083038186803b1580156116c857600080fd5b505afa1580156116dc573d6000803e3d6000fd5b505050505b600280546001600160a01b0319166001600160a01b0392909216919091179055565b61170f848484846112fc565b61171b84848484611c21565b610bde5760405162461bcd60e51b8152600401610546906128c5565b606061174161215b565b61174a83610efc565b8051602082015160405163c87b56dd60e01b81529293506001600160a01b039091169163c87b56dd9161177f91600401612f66565b60006040518083038186803b15801561179757600080fd5b505afa1580156117ab573d6000803e3d6000fd5b505050506040513d6000823e601f3d908101601f1916820160405261152191908101906124e4565b60006108af8383611ce8565b60006117f3846001600160a01b0316611be8565b61180f5760405162461bcd60e51b815260040161054690612e82565b6040516301ffc9a760e01b81526001600160a01b038516906301ffc9a79061183b908690600401612681565b60206040518083038186803b15801561185357600080fd5b505afa158015611867573d6000803e3d6000fd5b505050506040513d601f19601f8201168201806040525081019061188b91906123f3565b82906118aa5760405162461bcd60e51b8152600401610546919061276b565b50929392505050565b6001600160a01b038416158015906118d357506001600160a01b03831615155b15610bde576000828152600f6020526040902080546001600160a01b031661190d5760405162461bcd60e51b815260040161054690612ed1565b6000600282015460ff16600181111561192257fe5b1415610dbb5780546001820154604051635c46a7ef60e11b81526001600160a01b039092169163b88d4fde9161196091899189918890600401612639565b600060405180830381600087803b15801561197a57600080fd5b505af115801561198e573d6000803e3d6000fd5b505050505050505050565b60006108af8383611d00565b600061151e84846001600160a01b038516611d4a565b5490565b60006108af8383611de1565b60006108af8383611ea7565b815460009082106119fa5760405162461bcd60e51b8152600401610546906127d3565b826000018281548110611a0957fe5b9060005260206000200154905092915050565b815460009081908310611a415760405162461bcd60e51b815260040161054690612bf0565b6000846000018481548110611a5257fe5b906000526020600020906002020190508060000154816001015492509250509250929050565b60008281526001840160205260408120548281611aa85760405162461bcd60e51b8152600401610546919061276b565b50846000016001820381548110611abb57fe5b9060005260206000209060020201600101549150509392505050565b303b1590565b611ae5611f7b565b611af56336c6362d60e01b611605565b60405163c64df69d60e01b81526001600160a01b0384169063c64df69d90611b28906363daa99b60e11b90600401612696565b60006040518083038186803b158015611b4057600080fd5b505afa158015611b54573d6000803e3d6000fd5b5050600380546001600160a01b0319166001600160a01b03871617905550508151611b869060049060208501906120dd565b5061064481611657565b8151611ba390600a9060208501906120dd565b508051611bb790600b9060208401906120dd565b50611bc86380ac58cd60e01b612024565b611bd8635b5e139f60e01b612024565b610c3a63780e9d6360e01b612024565b6000813f7fc5d2460186f7233c927e7db2dcc703c0e500b653ca82273b7bfad8045d85a470818114801590610717575050151592915050565b6000611c35846001600160a01b0316611be8565b611c4157506001610717565b6060630a85bd0160e11b611c536110f8565b878686604051602401611c699493929190612639565b604051602081830303815290604052906001600160e01b0319166020820180516001600160e01b038381831617835250505050905063150b7a0260e01b6001600160e01b031916611cd386836040518060600160405280603281526020016130206032913961202d565b6001600160e01b031916149695505050505050565b60009081526001919091016020526040902054151590565b6000611d0c8383611ce8565b611d42575081546001818101845560008481526020808220909301849055845484825282860190935260409020919091556108b2565b5060006108b2565b600082815260018401602052604081205480611daf575050604080518082018252838152602080820184815286546001818101895560008981528481209551600290930290950191825591519082015586548684528188019092529290912055611521565b82856000016001830381548110611dc257fe5b9060005260206000209060020201600101819055506000915050611521565b60008181526001830160205260408120548015611e9d5783546000198083019190810190600090879083908110611e1457fe5b9060005260206000200154905080876000018481548110611e3157fe5b600091825260208083209091019290925582815260018981019092526040902090840190558654879080611e6157fe5b600190038181906000526020600020016000905590558660010160008781526020019081526020016000206000905560019450505050506108b2565b60009150506108b2565b60008181526001830160205260408120548015611e9d5783546000198083019190810190600090879083908110611eda57fe5b9060005260206000209060020201905080876000018481548110611efa57fe5b600091825260208083208454600290930201918255600193840154918401919091558354825289830190526040902090840190558654879080611f3957fe5b60008281526020808220600260001990940193840201828155600190810183905592909355888152898201909252604082209190915594506108b29350505050565b600054600160a81b900460ff1680611f965750611f96611ad7565b80611fab5750600054600160a01b900460ff16155b611fc75760405162461bcd60e51b815260040161054690612d04565b600054600160a81b900460ff16158015611ffe576000805460ff60a01b1960ff60a81b19909116600160a81b1716600160a01b1790555b61200e6301ffc9a760e01b611605565b8015610def576000805460ff60a81b1916905550565b610def81611605565b6000806060856001600160a01b03168560405161204a91906125bd565b6000604051808303816000865af19150503d8060008114612087576040519150601f19603f3d011682016040523d82523d6000602084013e61208c565b606091505b5091509150816120c0578051156120a65780518082602001fd5b8360405162461bcd60e51b8152600401610546919061276b565b808060200190518101906120d4919061242b565b92505050611521565b828054600181600116156101000203166002900490600052602060002090601f016020900481019282601f1061211e57805160ff191683800117855561214b565b8280016001018555821561214b579182015b8281111561214b578251825591602001919060010190612130565b506121579291506121b9565b5090565b60408051606081018252600080825260208201819052909182015290565b50805460018160011615610100020316600290046000825580601f1061219f5750610def565b601f016020900490600052602060002090810190610def91905b5b8082111561215757600081556001016121ba565b600082601f8301126121de578081fd5b81356121f16121ec82612f96565b612f6f565b915080825283602082850101111561220857600080fd5b8060208401602084013760009082016020015292915050565b600060208284031215612232578081fd5b813561152181612fe6565b6000806040838503121561224f578081fd5b823561225a81612fe6565b9150602083013561226a81612fe6565b809150509250929050565b600080600060608486031215612289578081fd5b833561229481612fe6565b925060208401356122a481612fe6565b929592945050506040919091013590565b600080600080608085870312156122ca578081fd5b84356122d581612fe6565b935060208501356122e581612fe6565b925060408501359150606085013567ffffffffffffffff811115612307578182fd5b612313878288016121ce565b91505092959194509250565b60008060408385031215612331578182fd5b823561233c81612fe6565b9150602083013561226a81612ffb565b60008060008060808587031215612361578384fd5b843561236c81612fe6565b9350602085013567ffffffffffffffff80821115612388578485fd5b612394888389016121ce565b9450604087013591506123a682612fe6565b909250606086013590808211156123bb578283fd5b50612313878288016121ce565b600080604083850312156123da578182fd5b82356123e581612fe6565b946020939093013593505050565b600060208284031215612404578081fd5b815161152181612ffb565b600060208284031215612420578081fd5b813561152181613009565b60006020828403121561243c578081fd5b815161152181613009565b60008060408385031215612459578182fd5b823561246481613009565b9150602083013567ffffffffffffffff81111561247f578182fd5b61248b858286016121ce565b9150509250929050565b6000602082840312156124a6578081fd5b815161152181612fe6565b6000602082840312156124c2578081fd5b813567ffffffffffffffff8111156124d8578182fd5b610717848285016121ce565b6000602082840312156124f5578081fd5b815167ffffffffffffffff81111561250b578182fd5b8201601f8101841361251b578182fd5b80516125296121ec82612f96565b81815285602083850101111561253d578384fd5b61254e826020830160208601612fba565b95945050505050565b600060208284031215612568578081fd5b5035919050565b60008151808452612587816020860160208601612fba565b601f01601f19169290920160200192915050565b60609290921b6bffffffffffffffffffffffff19168252601482015260340190565b600082516125cf818460208701612fba565b9190910192915050565b6001600160a01b0391909116815260200190565b6001600160a01b03929092168252602082015260606040820181905260009082015260800190565b6001600160a01b039384168152919092166020820152604081019190915260600190565b6001600160a01b038581168252841660208201526040810183905260806060820181905260009061266c9083018461256f565b9695505050505050565b901515815260200190565b6001600160e01b031991909116815260200190565b6001600160e01b03199190911681526040602082018190526032908201527f234465706172746d656e7423696e69744465706172746d656e742064616f20686060820152710dee6e840e8f2e0ca40dcdee840dac2e8c6d60731b608082015260a00190565b6001600160e01b03199190911681526040602082018190526038908201527f234465706172746d656e74237365744f70657261746f725f696e7465726e616c60608201527f206f70657261746f722074797065206e6f74206d617463680000000000000000608082015260a00190565b6000602082526108af602083018461256f565b60208082526035908201527f234173736574476c6f62616c237769746864726177207769746864726177206f6040820152740cc40c2e6e6cae840d6d2dcc840dcde40dac2e8c6d605b1b606082015260800190565b60208082526022908201527f456e756d657261626c655365743a20696e646578206f7574206f6620626f756e604082015261647360f01b606082015260800190565b60208082526033908201527f234465706172746d656e74234f6e6c7944414f2063616c6c657220646f6573206040820152723737ba103430bb32903832b936b4b9b9b4b7b760691b606082015260800190565b6020808252603a908201527f234173736574476c6f62616c236f6e4552433732315265636569766564206d6960408201527f6e74206f6620617373657420616c726561647920657869737473000000000000606082015260800190565b60208082526032908201527f4552433732313a207472616e7366657220746f206e6f6e20455243373231526560408201527131b2b4bb32b91034b6b83632b6b2b73a32b960711b606082015260800190565b60208082526032908201527f234173736574476c6f62616c237769746864726177207769746864726177206f60408201527166206173736574206e6f6e2065786973747360701b606082015260800190565b6020808252601c908201527f4552433136353a20696e76616c696420696e7465726661636520696400000000604082015260600190565b6020808252601c908201527f4552433732313a20746f6b656e20616c7265616479206d696e74656400000000604082015260600190565b60208082526024908201527f4552433732313a207472616e7366657220746f20746865207a65726f206164646040820152637265737360e01b606082015260800190565b60208082526019908201527f4552433732313a20617070726f766520746f2063616c6c657200000000000000604082015260600190565b6020808252602e908201527f234173736574476c6f62616c23756e6c6f636b20756e6c6f636b206f6620617360408201526d736574206e6f6e2065786973747360901b606082015260800190565b6020808252602c908201527f4552433732313a206f70657261746f7220717565727920666f72206e6f6e657860408201526b34b9ba32b73a103a37b5b2b760a11b606082015260800190565b6020808252603e908201527f234173736574476c6f62616c236f6e4552433732314c6f636b5265636569766560408201527f64206d696e74206f6620617373657420616c7265616479206578697374730000606082015260800190565b60208082526038908201527f4552433732313a20617070726f76652063616c6c6572206973206e6f74206f7760408201527f6e6572206e6f7220617070726f76656420666f7220616c6c0000000000000000606082015260800190565b6020808252602a908201527f4552433732313a2062616c616e636520717565727920666f7220746865207a65604082015269726f206164647265737360b01b606082015260800190565b60208082526022908201527f456e756d657261626c654d61703a20696e646578206f7574206f6620626f756e604082015261647360f01b606082015260800190565b60208082526031908201527f234173736574476c6f62616c236f6e455243373231526563656976656420667260408201527037b6903737ba103337b91036bcb9b2b63360791b606082015260800190565b6020808252818101527f4552433732313a206d696e7420746f20746865207a65726f2061646472657373604082015260600190565b6020808252602c908201527f4552433732313a20617070726f76656420717565727920666f72206e6f6e657860408201526b34b9ba32b73a103a37b5b2b760a11b606082015260800190565b6020808252602e908201527f436f6e747261637420696e7374616e63652068617320616c726561647920626560408201526d195b881a5b9a5d1a585b1a5e995960921b606082015260800190565b60208082526029908201527f4552433732313a207472616e73666572206f6620746f6b656e2074686174206960408201526839903737ba1037bbb760b91b606082015260800190565b60208082526021908201527f4552433732313a20617070726f76616c20746f2063757272656e74206f776e656040820152603960f91b606082015260800190565b60208082526031908201527f4552433732313a207472616e736665722063616c6c6572206973206e6f74206f6040820152701ddb995c881b9bdc88185c1c1c9bdd9959607a1b606082015260800190565b60208082526035908201527f234173736574476c6f62616c236f6e4552433732314c6f636b526563656976656040820152743210333937b6903737ba103337b91036bcb9b2b63360591b606082015260800190565b6020808252602f908201527f234173736574476c6f62616c2361734552433732313a20494e564c4941445f4360408201526e4f4e54524143545f4144445245535360881b606082015260800190565b6020808252603e908201527f234173736574476c6f62616c235f6265666f7265546f6b656e5472616e73666560408201527f72207472616e73666572206f66206173736574206e6f6e206578697374730000606082015260800190565b81516001600160a01b03168152602080830151908201526040820151606082019060028110612f5957fe5b8060408401525092915050565b90815260200190565b60405181810167ffffffffffffffff81118282101715612f8e57600080fd5b604052919050565b600067ffffffffffffffff821115612fac578081fd5b50601f01601f191660200190565b60005b83811015612fd5578181015183820152602001612fbd565b83811115610bde5750506000910152565b6001600160a01b0381168114610def57600080fd5b8015158114610def57600080fd5b6001600160e01b031981168114610def57600080fdfe4552433732313a207472616e7366657220746f206e6f6e20455243373231526563656976657220696d706c656d656e746572234173736574476c6f62616c2361734552433732314c6f636b20546865204e465420636f6e74726163742068617320616e20696e76616c696420455243373231204c6f636b20696d706c656d656e746174696f6e4552433732313a206f776e657220717565727920666f72206e6f6e6578697374656e7420746f6b656e234173736574476c6f62616c23617345524337323120546865204e465420636f6e74726163742068617320616e20696e76616c69642045524337323120696d706c656d656e746174696f6ea264697066735822122027de3a2537d7ee0d3fd512c0a4146ddfda32bc5028eee6f5c6c924711956710964736f6c634300060c0033",
  "immutableReferences": {},
  "source": "\npragma solidity >=0.6.0 <=0.8.15;\n\npragma experimental ABIEncoderV2;\n\nimport \"./Department.sol\";\nimport \"./ERC721.sol\";\n\ncontract AssetGlobal is IAssetGlobal, ERC721 {\n\n\tbytes4 private constant _ERC721_RECEIVED = 0x150b7a02;\n\tbytes4 private constant _ERC721_LOCK_RECEIVED = 0x7e154325;\n\tbytes4 private constant _INTERFACE_ID_ERC721 = 0x80ac58cd;\n\tbytes4 private constant _INTERFACE_ID_ERC721_LOCK = 0x473eac90;\n\n\tstring private _contractURI;// = \"https://smart-dao.stars-mine.com/service-api/utils/getOpenseaContractJSON?\";\n\n\tmapping(uint256 => AssetID) private _assetsMeta;\n\n\tfunction initAssetGlobal(address host, string memory description, address operator, string memory contractURI) external {\n\t\tinitERC721(host, description, operator);\n\t\t_registerInterface(AssetGlobal_ID);\n\t\t_registerInterface(_ERC721_RECEIVED);\n\t\t_registerInterface(_ERC721_LOCK_RECEIVED);\n\t\t_contractURI = contractURI;\n\t}\n\n\t// @dev convert addr to standard ERC721 NFT,will be revered if add is invalid.\n\tfunction checkERC721(address addr, bytes4 id, string memory message) internal returns (IERC721) {\n\t\trequire(addr.isContract(), \"#AssetGlobal#asERC721: INVLIAD_CONTRACT_ADDRESS\");\n\t\trequire(IERC721(addr).supportsInterface(id), message);\n\t\treturn IERC721(addr);\n\t}\n\n\tfunction asERC721(address addr) internal returns (IERC721) {\n\t\treturn checkERC721(addr, _INTERFACE_ID_ERC721, \"#AssetGlobal#asERC721 The NFT contract has an invalid ERC721 implementation\");\n\t}\n\n\tfunction asERC721Lock(address addr) internal returns (IERC721) {\n\t\treturn checkERC721(addr, _INTERFACE_ID_ERC721_LOCK, \"#AssetGlobal#asERC721Lock The NFT contract has an invalid ERC721 Lock implementation\");\n\t}\n\n\tfunction onERC721Received(\n\t\taddress operator, address from, uint256 tokenId, bytes memory data\n\t) external override returns (bytes4) {\n\t\tIERC721 token = asERC721(_msgSender());\n\t\tuint256 id = convertTokenID(address(token), tokenId);\n\t\tAssetID storage asset = _assetsMeta[id];\n\t\trequire(asset.token == address(0), \"#AssetGlobal#onERC721Received mint of asset already exists\");\n\t\trequire(from != address(this), \"#AssetGlobal#onERC721Received from not for myself\");\n\n\t\tasset.token = address(token);\n\t\tasset.tokenId = tokenId;\n\t\tasset.kind = Kind.Owner;\n\n\t\t_mint(from, id);\n\n\t\treturn _ERC721_RECEIVED;\n\t}\n\n\tfunction onERC721LockReceived(\n\t\taddress operator, address from, uint256 tokenId, bytes memory data\n\t) external override returns (bytes4) {\n\t\tIERC721 token = asERC721Lock(_msgSender());\n\t\tuint256 id = convertTokenID(address(token), tokenId);\n\t\tAssetID storage asset = _assetsMeta[id];\n\t\trequire(asset.token == address(0), \"#AssetGlobal#onERC721LockReceived mint of asset already exists\");\n\t\trequire(from != address(this), \"#AssetGlobal#onERC721LockReceived from not for myself\");\n\n\t\tasset.token = address(token);\n\t\tasset.tokenId = tokenId;\n\t\tasset.kind = Kind.Lock;\n\n\t\t_mint(from, id);\n\n\t\treturn _ERC721_LOCK_RECEIVED;\n\t}\n\n\tfunction _beforeTokenTransfer(address from, address to, uint256 tokenId, bytes memory _data) internal virtual override {\n\t\tif (from != address(0) && to != address(0)) {\n\t\t\tAssetID storage asset = _assetsMeta[tokenId];\n\t\t\trequire(asset.token != address(0), \"#AssetGlobal#_beforeTokenTransfer transfer of asset non exists\");\n\t\t\tif (asset.kind == Kind.Lock) {\n\t\t\t\tIERC721(asset.token).safeTransferFrom(from, to, asset.tokenId, _data);\n\t\t\t}\n\t\t}\n\t}\n\n\tfunction convertTokenID(address metaToken, uint256 metaTokenId) pure public returns (uint256) {\n\t\treturn uint256(keccak256(abi.encodePacked(metaToken, metaTokenId)));\n\t}\n\n\tfunction _tokenURI(uint256 tokenId) internal view override returns (string memory) {\n\t\tAssetID memory id = assetMeta(tokenId);\n\t\treturn IERC721Metadata(id.token).tokenURI(id.tokenId);\n\t}\n\n\tfunction assetMeta(uint256 tokenId) view public override returns (AssetID memory) {\n\t\tAssetID storage asset = _assetsMeta[tokenId];\n\t\trequire(asset.token != address(0), \"#AssetGlobal#unlock unlock of asset non exists\");\n\t\treturn asset;\n\t}\n\n\tfunction unlock(address metaToken, uint256 metaTokenId) external override {\n\t\tuint256 id = convertTokenID(metaToken, metaTokenId);\n\t\tAssetID storage asset = _assetsMeta[id];\n\t\trequire(asset.token != address(0), \"#AssetGlobal#unlock unlock of asset non exists\");\n\t\tIERC721Lock(asset.token).lock(address(0), asset.tokenId, \"\");\n\t\tdelete _assetsMeta[id];\n\t\t_burn(id);\n\t}\n\n\tfunction withdraw(uint256 tokenId) external override {\n\t\tAssetID storage asset = _assetsMeta[tokenId];\n\t\trequire(asset.token != address(0), \"#AssetGlobal#withdraw withdraw of asset non exists\");\n\t\trequire(asset.kind == Kind.Owner, \"#AssetGlobal#withdraw withdraw of asset kind no match\");\n\t\taddress owner = ownerOf(tokenId);\n\t\tIERC721(asset.token).safeTransferFrom(address(this), owner, asset.tokenId);\n\t\tdelete _assetsMeta[tokenId];\n\t\t_burn(tokenId);\n\t}\n\n\tfunction contractURI() public view returns (string memory) {\n\t\t/*{\n\t\t\t\"name\": \"OpenSea Creatures\",\n\t\t\t\"description\": \"OpenSea Creatures are adorable aquatic beings primarily for demonstrating what can be done using the OpenSea platform. Adopt one today to try out all the OpenSea buying, selling, and bidding feature set.\",\n\t\t\t\"image\": \"external-link-url/image.png\",\n\t\t\t\"external_link\": \"external-link-url\",\n\t\t\t\"seller_fee_basis_points\": 100, # Indicates a 1% seller fee.\n\t\t\t\"fee_recipient\": \"0xA97F337c39cccE66adfeCB2BF99C1DdC54C2D721\" # Where seller fees will be paid to.\n\t\t}*/\n\n\t\treturn _contractURI;\n\t}\n\n\tfunction setContractURI(string memory uri) public {\n\t\t_contractURI = uri;\n\t}\n\n}\n",
  "sourcePath": "/Users/louis/Project/hc/NFTSwap/SmartHolder/contracts/AssetGlobal.sol",
  "compiler": {
    "name": "solc",
    "version": "0.6.12+commit.27d51765.Emscripten.clang"
  },
  "schemaVersion": "3.4.8",
  "updatedAt": "2022-08-15T05:13:53.599Z",
  "networkType": "ethereum",
  "devdoc": {
    "kind": "dev",
    "methods": {
      "approve(address,uint256)": {
        "details": "Approves another address to transfer the given token ID The zero address indicates there is no approved address. There can only be one approved address per token at a given time. Can only be called by the token owner or an approved operator.",
        "params": {
          "to": "address to be approved for the given token ID",
          "tokenId": "uint256 ID of the token to be approved"
        }
      },
      "balanceOf(address)": {
        "details": "Gets the balance of the specified address.",
        "params": {
          "owner": "address to query the balance of"
        },
        "returns": {
          "_0": "uint256 representing the amount owned by the passed address"
        }
      },
      "baseURI()": {
        "details": "Returns the base URI set via {_setBaseURI}. This will be automatically added as a prefix in {tokenURI} to each token's URI, or to the token ID if no specific URI is set for that token ID."
      },
      "getApproved(uint256)": {
        "details": "Gets the approved address for a token ID, or zero if no address set Reverts if the token ID does not exist.",
        "params": {
          "tokenId": "uint256 ID of the token to query the approval of"
        },
        "returns": {
          "_0": "address currently approved for the given token ID"
        }
      },
      "isApprovedForAll(address,address)": {
        "details": "Tells whether an operator is approved by a given owner.",
        "params": {
          "operator": "operator address which you want to query the approval of",
          "owner": "owner address which you want to query the approval of"
        },
        "returns": {
          "_0": "bool whether the given operator is approved by the given owner"
        }
      },
      "name()": {
        "details": "Gets the token name.",
        "returns": {
          "_0": "string representing the token name"
        }
      },
      "onERC721Received(address,address,uint256,bytes)": {
        "details": "The ERC721 smart contract calls this function on the recipient after a {IERC721-safeTransferFrom}. This function MUST return the function selector, otherwise the caller will revert the transaction. The selector to be returned can be obtained as `this.onERC721Received.selector`. This function MAY throw to revert and reject the transfer. Note: the ERC721 contract address is always the message sender.",
        "params": {
          "data": "Additional data with no specified format",
          "from": "The address which previously owned the token",
          "operator": "The address which called `safeTransferFrom` function",
          "tokenId": "The NFT identifier which is being transferred"
        },
        "returns": {
          "_0": "bytes4 `bytes4(keccak256(\"onERC721Received(address,address,uint256,bytes)\"))`"
        }
      },
      "ownerOf(uint256)": {
        "details": "Gets the owner of the specified token ID.",
        "params": {
          "tokenId": "uint256 ID of the token to query the owner of"
        },
        "returns": {
          "_0": "address currently marked as the owner of the given token ID"
        }
      },
      "safeTransferFrom(address,address,uint256)": {
        "details": "Safely transfers the ownership of a given token ID to another address If the target address is a contract, it must implement {IERC721Receiver-onERC721Received}, which is called upon a safe transfer, and return the magic value `bytes4(keccak256(\"onERC721Received(address,address,uint256,bytes)\"))`; otherwise, the transfer is reverted. Requires the msg.sender to be the owner, approved, or operator",
        "params": {
          "from": "current owner of the token",
          "to": "address to receive the ownership of the given token ID",
          "tokenId": "uint256 ID of the token to be transferred"
        }
      },
      "safeTransferFrom(address,address,uint256,bytes)": {
        "details": "Safely transfers the ownership of a given token ID to another address If the target address is a contract, it must implement {IERC721Receiver-onERC721Received}, which is called upon a safe transfer, and return the magic value `bytes4(keccak256(\"onERC721Received(address,address,uint256,bytes)\"))`; otherwise, the transfer is reverted. Requires the _msgSender() to be the owner, approved, or operator",
        "params": {
          "_data": "bytes data to send along with a safe transfer check",
          "from": "current owner of the token",
          "to": "address to receive the ownership of the given token ID",
          "tokenId": "uint256 ID of the token to be transferred"
        }
      },
      "setApprovalForAll(address,bool)": {
        "details": "Sets or unsets the approval of a given operator An operator is allowed to transfer all tokens of the sender on their behalf.",
        "params": {
          "approved": "representing the status of the approval to be set",
          "operator": "operator address to set the approval"
        }
      },
      "supportsInterface(bytes4)": {
        "details": "See {IERC165-supportsInterface}. Time complexity O(1), guaranteed to always use less than 30 000 gas."
      },
      "symbol()": {
        "details": "Gets the token symbol.",
        "returns": {
          "_0": "string representing the token symbol"
        }
      },
      "tokenByIndex(uint256)": {
        "details": "Gets the token ID at a given index of all the tokens in this contract Reverts if the index is greater or equal to the total number of tokens.",
        "params": {
          "index": "uint256 representing the index to be accessed of the tokens list"
        },
        "returns": {
          "_0": "uint256 token ID at the given index of the tokens list"
        }
      },
      "tokenOfOwnerByIndex(address,uint256)": {
        "details": "Gets the token ID at a given index of the tokens list of the requested owner.",
        "params": {
          "index": "uint256 representing the index to be accessed of the requested tokens list",
          "owner": "address owning the tokens list to be accessed"
        },
        "returns": {
          "_0": "uint256 token ID at the given index of the tokens list owned by the requested address"
        }
      },
      "totalSupply()": {
        "details": "Gets the total amount of tokens stored by the contract.",
        "returns": {
          "_0": "uint256 representing the total amount of tokens"
        }
      },
      "transferFrom(address,address,uint256)": {
        "details": "Transfers the ownership of a given token ID to another address. Usage of this method is discouraged, use {safeTransferFrom} whenever possible. Requires the msg.sender to be the owner, approved, or operator.",
        "params": {
          "from": "current owner of the token",
          "to": "address to receive the ownership of the given token ID",
          "tokenId": "uint256 ID of the token to be transferred"
        }
      }
    },
    "version": 1
  },
  "userdoc": {
    "kind": "user",
    "methods": {
      "onERC721Received(address,address,uint256,bytes)": {
        "notice": "Handle the receipt of an NFT"
      }
    },
    "version": 1
  }
}