{
  "contractName": "Asset",
  "abi": [
    {
      "anonymous": false,
      "inputs": [
        {
          "indexed": true,
          "internalType": "address",
          "name": "owner",
          "type": "address"
        },
        {
          "indexed": true,
          "internalType": "address",
          "name": "approved",
          "type": "address"
        },
        {
          "indexed": true,
          "internalType": "uint256",
          "name": "tokenId",
          "type": "uint256"
        }
      ],
      "name": "Approval",
      "type": "event"
    },
    {
      "anonymous": false,
      "inputs": [
        {
          "indexed": true,
          "internalType": "address",
          "name": "owner",
          "type": "address"
        },
        {
          "indexed": true,
          "internalType": "address",
          "name": "operator",
          "type": "address"
        },
        {
          "indexed": false,
          "internalType": "bool",
          "name": "approved",
          "type": "bool"
        }
      ],
      "name": "ApprovalForAll",
      "type": "event"
    },
    {
      "anonymous": false,
      "inputs": [
        {
          "indexed": true,
          "internalType": "uint256",
          "name": "tokenId",
          "type": "uint256"
        },
        {
          "indexed": false,
          "internalType": "address",
          "name": "owner",
          "type": "address"
        },
        {
          "indexed": false,
          "internalType": "address",
          "name": "to",
          "type": "address"
        }
      ],
      "name": "Lock",
      "type": "event"
    },
    {
      "anonymous": false,
      "inputs": [
        {
          "indexed": true,
          "internalType": "address",
          "name": "owner",
          "type": "address"
        },
        {
          "indexed": true,
          "internalType": "address",
          "name": "locked",
          "type": "address"
        },
        {
          "indexed": true,
          "internalType": "uint256",
          "name": "tokenId",
          "type": "uint256"
        }
      ],
      "name": "Lock",
      "type": "event"
    },
    {
      "anonymous": false,
      "inputs": [
        {
          "indexed": true,
          "internalType": "address",
          "name": "from",
          "type": "address"
        },
        {
          "indexed": true,
          "internalType": "address",
          "name": "to",
          "type": "address"
        },
        {
          "indexed": true,
          "internalType": "uint256",
          "name": "tokenId",
          "type": "uint256"
        }
      ],
      "name": "Transfer",
      "type": "event"
    },
    {
      "inputs": [
        {
          "internalType": "address",
          "name": "to",
          "type": "address"
        },
        {
          "internalType": "uint256",
          "name": "tokenId",
          "type": "uint256"
        }
      ],
      "name": "approve",
      "outputs": [],
      "stateMutability": "nonpayable",
      "type": "function"
    },
    {
      "inputs": [
        {
          "internalType": "address",
          "name": "owner",
          "type": "address"
        }
      ],
      "name": "balanceOf",
      "outputs": [
        {
          "internalType": "uint256",
          "name": "",
          "type": "uint256"
        }
      ],
      "stateMutability": "view",
      "type": "function",
      "constant": true
    },
    {
      "inputs": [],
      "name": "baseURI",
      "outputs": [
        {
          "internalType": "string",
          "name": "",
          "type": "string"
        }
      ],
      "stateMutability": "view",
      "type": "function",
      "constant": true
    },
    {
      "inputs": [
        {
          "internalType": "bytes4",
          "name": "interfaceId",
          "type": "bytes4"
        },
        {
          "internalType": "string",
          "name": "message",
          "type": "string"
        }
      ],
      "name": "checkInterface",
      "outputs": [],
      "stateMutability": "view",
      "type": "function",
      "constant": true
    },
    {
      "inputs": [],
      "name": "describe",
      "outputs": [
        {
          "internalType": "string",
          "name": "",
          "type": "string"
        }
      ],
      "stateMutability": "view",
      "type": "function",
      "constant": true
    },
    {
      "inputs": [
        {
          "internalType": "uint256",
          "name": "tokenId",
          "type": "uint256"
        }
      ],
      "name": "getApproved",
      "outputs": [
        {
          "internalType": "address",
          "name": "",
          "type": "address"
        }
      ],
      "stateMutability": "view",
      "type": "function",
      "constant": true
    },
    {
      "inputs": [],
      "name": "host",
      "outputs": [
        {
          "internalType": "contract IDAO",
          "name": "",
          "type": "address"
        }
      ],
      "stateMutability": "view",
      "type": "function",
      "constant": true
    },
    {
      "inputs": [],
      "name": "impl",
      "outputs": [
        {
          "internalType": "address",
          "name": "",
          "type": "address"
        }
      ],
      "stateMutability": "view",
      "type": "function",
      "constant": true
    },
    {
      "inputs": [
        {
          "internalType": "address",
          "name": "owner",
          "type": "address"
        },
        {
          "internalType": "address",
          "name": "operator",
          "type": "address"
        }
      ],
      "name": "isApprovedForAll",
      "outputs": [
        {
          "internalType": "bool",
          "name": "",
          "type": "bool"
        }
      ],
      "stateMutability": "view",
      "type": "function",
      "constant": true
    },
    {
      "inputs": [],
      "name": "name",
      "outputs": [
        {
          "internalType": "string",
          "name": "",
          "type": "string"
        }
      ],
      "stateMutability": "view",
      "type": "function",
      "constant": true
    },
    {
      "inputs": [],
      "name": "operator",
      "outputs": [
        {
          "internalType": "contract IVotePool",
          "name": "",
          "type": "address"
        }
      ],
      "stateMutability": "view",
      "type": "function",
      "constant": true
    },
    {
      "inputs": [
        {
          "internalType": "uint256",
          "name": "tokenId",
          "type": "uint256"
        }
      ],
      "name": "ownerOf",
      "outputs": [
        {
          "internalType": "address",
          "name": "",
          "type": "address"
        }
      ],
      "stateMutability": "view",
      "type": "function",
      "constant": true
    },
    {
      "inputs": [
        {
          "internalType": "address",
          "name": "from",
          "type": "address"
        },
        {
          "internalType": "address",
          "name": "to",
          "type": "address"
        },
        {
          "internalType": "uint256",
          "name": "tokenId",
          "type": "uint256"
        }
      ],
      "name": "safeTransferFrom",
      "outputs": [],
      "stateMutability": "nonpayable",
      "type": "function"
    },
    {
      "inputs": [
        {
          "internalType": "address",
          "name": "from",
          "type": "address"
        },
        {
          "internalType": "address",
          "name": "to",
          "type": "address"
        },
        {
          "internalType": "uint256",
          "name": "tokenId",
          "type": "uint256"
        },
        {
          "internalType": "bytes",
          "name": "_data",
          "type": "bytes"
        }
      ],
      "name": "safeTransferFrom",
      "outputs": [],
      "stateMutability": "nonpayable",
      "type": "function"
    },
    {
      "inputs": [
        {
          "internalType": "address",
          "name": "operator",
          "type": "address"
        },
        {
          "internalType": "bool",
          "name": "approved",
          "type": "bool"
        }
      ],
      "name": "setApprovalForAll",
      "outputs": [],
      "stateMutability": "nonpayable",
      "type": "function"
    },
    {
      "inputs": [
        {
          "internalType": "address",
          "name": "vote",
          "type": "address"
        }
      ],
      "name": "setOperator",
      "outputs": [],
      "stateMutability": "nonpayable",
      "type": "function"
    },
    {
      "inputs": [
        {
          "internalType": "bytes4",
          "name": "interfaceId",
          "type": "bytes4"
        }
      ],
      "name": "supportsInterface",
      "outputs": [
        {
          "internalType": "bool",
          "name": "",
          "type": "bool"
        }
      ],
      "stateMutability": "view",
      "type": "function",
      "constant": true
    },
    {
      "inputs": [],
      "name": "symbol",
      "outputs": [
        {
          "internalType": "string",
          "name": "",
          "type": "string"
        }
      ],
      "stateMutability": "view",
      "type": "function",
      "constant": true
    },
    {
      "inputs": [
        {
          "internalType": "uint256",
          "name": "index",
          "type": "uint256"
        }
      ],
      "name": "tokenByIndex",
      "outputs": [
        {
          "internalType": "uint256",
          "name": "",
          "type": "uint256"
        }
      ],
      "stateMutability": "view",
      "type": "function",
      "constant": true
    },
    {
      "inputs": [
        {
          "internalType": "address",
          "name": "owner",
          "type": "address"
        },
        {
          "internalType": "uint256",
          "name": "index",
          "type": "uint256"
        }
      ],
      "name": "tokenOfOwnerByIndex",
      "outputs": [
        {
          "internalType": "uint256",
          "name": "",
          "type": "uint256"
        }
      ],
      "stateMutability": "view",
      "type": "function",
      "constant": true
    },
    {
      "inputs": [
        {
          "internalType": "uint256",
          "name": "tokenId",
          "type": "uint256"
        }
      ],
      "name": "tokenURI",
      "outputs": [
        {
          "internalType": "string",
          "name": "",
          "type": "string"
        }
      ],
      "stateMutability": "view",
      "type": "function",
      "constant": true
    },
    {
      "inputs": [],
      "name": "totalSupply",
      "outputs": [
        {
          "internalType": "uint256",
          "name": "",
          "type": "uint256"
        }
      ],
      "stateMutability": "view",
      "type": "function",
      "constant": true
    },
    {
      "inputs": [
        {
          "internalType": "address",
          "name": "from",
          "type": "address"
        },
        {
          "internalType": "address",
          "name": "to",
          "type": "address"
        },
        {
          "internalType": "uint256",
          "name": "tokenId",
          "type": "uint256"
        }
      ],
      "name": "transferFrom",
      "outputs": [],
      "stateMutability": "nonpayable",
      "type": "function"
    },
    {
      "inputs": [
        {
          "internalType": "address",
          "name": "impl",
          "type": "address"
        }
      ],
      "name": "upgrade",
      "outputs": [],
      "stateMutability": "nonpayable",
      "type": "function"
    },
    {
      "inputs": [
        {
          "internalType": "address",
          "name": "host",
          "type": "address"
        },
        {
          "internalType": "string",
          "name": "describe",
          "type": "string"
        },
        {
          "internalType": "address",
          "name": "operator",
          "type": "address"
        }
      ],
      "name": "initAsset",
      "outputs": [],
      "stateMutability": "nonpayable",
      "type": "function"
    },
    {
      "inputs": [
        {
          "internalType": "address",
          "name": "to",
          "type": "address"
        },
        {
          "internalType": "uint256",
          "name": "tokenId",
          "type": "uint256"
        },
        {
          "internalType": "bytes",
          "name": "data",
          "type": "bytes"
        }
      ],
      "name": "lock",
      "outputs": [],
      "stateMutability": "nonpayable",
      "type": "function"
    }
  ],
  "bytecode": "0x608060405234801561001057600080fd5b50612ac0806100206000396000f3fe608060405234801561001057600080fd5b506004361061018e5760003560e01c80636c0360eb116100de578063b6f00dcf11610097578063c792f45d11610071578063c792f45d1461069e578063c87b56dd14610721578063e985e9c51461073e578063f437bc591461076c5761018e565b8063b6f00dcf14610466578063b88d4fde14610525578063c64df69d146105e95761018e565b80636c0360eb146103d457806370a08231146103dc5780638abf60771461040257806395d89b411461040a578063a22cb46514610412578063b3ab15fb146104405761018e565b80631ad184ff1161014b57806342842e0e1161012557806342842e0e1461035c5780634f6ccce714610392578063570ca735146103af5780636352211e146103b75761018e565b80631ad184ff146102f257806323b872dd146102fa5780632f745c59146103305761018e565b806301ffc9a71461019357806306fdde03146101ce578063081812fc1461024b5780630900f01014610284578063095ea7b3146102ac57806318160ddd146102d8575b600080fd5b6101ba600480360360208110156101a957600080fd5b50356001600160e01b031916610774565b604080519115158252519081900360200190f35b6101d6610797565b6040805160208082528351818301528351919283929083019185019080838360005b838110156102105781810151838201526020016101f8565b50505050905090810190601f16801561023d5780820380516001836020036101000a031916815260200191505b509250505060405180910390f35b6102686004803603602081101561026157600080fd5b503561082d565b604080516001600160a01b039092168252519081900360200190f35b6102aa6004803603602081101561029a57600080fd5b50356001600160a01b031661088f565b005b6102aa600480360360408110156102c257600080fd5b506001600160a01b038135169060200135610a15565b6102e0610af0565b60408051918252519081900360200190f35b6101d6610b01565b6102aa6004803603606081101561031057600080fd5b506001600160a01b03813581169160208101359091169060400135610b62565b6102e06004803603604081101561034657600080fd5b506001600160a01b038135169060200135610bc9565b6102aa6004803603606081101561037257600080fd5b506001600160a01b03813581169160208101359091169060400135610bf4565b6102e0600480360360208110156103a857600080fd5b5035610c0f565b610268610c25565b610268600480360360208110156103cd57600080fd5b5035610c34565b6101d6610c5c565b6102e0600480360360208110156103f257600080fd5b50356001600160a01b0316610cbd565b610268610d25565b6101d6610d34565b6102aa6004803603604081101561042857600080fd5b506001600160a01b0381351690602001351515610d95565b6102aa6004803603602081101561045657600080fd5b50356001600160a01b0316610e9a565b6102aa6004803603606081101561047c57600080fd5b6001600160a01b038235169190810190604081016020820135600160201b8111156104a657600080fd5b8201836020820111156104b857600080fd5b803590602001918460018302840111600160201b831117156104d957600080fd5b91908080601f016020809104026020016040519081016040528093929190818152602001838380828437600092019190915250929550505090356001600160a01b0316915061100a9050565b6102aa6004803603608081101561053b57600080fd5b6001600160a01b03823581169260208101359091169160408201359190810190608081016060820135600160201b81111561057557600080fd5b82018360208201111561058757600080fd5b803590602001918460018302840111600160201b831117156105a857600080fd5b91908080601f016020809104026020016040519081016040528093929190818152602001838380828437600092019190915250929550611035945050505050565b6102aa600480360360408110156105ff57600080fd5b6001600160e01b03198235169190810190604081016020820135600160201b81111561062a57600080fd5b82018360208201111561063c57600080fd5b803590602001918460018302840111600160201b8311171561065d57600080fd5b91908080601f016020809104026020016040519081016040528093929190818152602001838380828437600092019190915250929550611093945050505050565b6102aa600480360360608110156106b457600080fd5b6001600160a01b0382351691602081013591810190606081016040820135600160201b8111156106e357600080fd5b8201836020820111156106f557600080fd5b803590602001918460018302840111600160201b8311171561071657600080fd5b509092509050611126565b6101d66004803603602081101561073757600080fd5b50356113c3565b6101ba6004803603604081101561075457600080fd5b506001600160a01b03813581169160200135166113ce565b6102686113fc565b6001600160e01b0319811660009081526001602052604090205460ff165b919050565b600a8054604080516020601f60026000196101006001881615020190951694909404938401819004810282018101909252828152606093909290918301828280156108235780601f106107f857610100808354040283529160200191610823565b820191906000526020600020905b81548152906001019060200180831161080657829003601f168201915b5050505050905090565b60006108388261140b565b6108735760405162461bcd60e51b815260040180806020018281038252602c8152602001806128b4602c913960400191505060405180910390fd5b506000908152600860205260409020546001600160a01b031690565b60025433906001600160a01b031681146109f257600360009054906101000a90046001600160a01b03166001600160a01b031663570ca7356040518163ffffffff1660e01b815260040160206040518083038186803b1580156108f157600080fd5b505afa158015610905573d6000803e3d6000fd5b505050506040513d602081101561091b57600080fd5b50516001600160a01b038281169116146109f257600360009054906101000a90046001600160a01b03166001600160a01b031663ebf0c7176040518163ffffffff1660e01b815260040160206040518083038186803b15801561097d57600080fd5b505afa158015610991573d6000803e3d6000fd5b505050506040513d60208110156109a757600080fd5b50516001600160a01b038281169116146109f25760405162461bcd60e51b815260040180806020018281038252603081526020018061273e6030913960400191505060405180910390fd5b50600080546001600160a01b0319166001600160a01b0392909216919091179055565b6000610a2082610c34565b9050806001600160a01b0316836001600160a01b03161415610a735760405162461bcd60e51b815260040180806020018281038252602181526020018061299e6021913960400191505060405180910390fd5b806001600160a01b0316610a85611418565b6001600160a01b03161480610aa65750610aa681610aa1611418565b6113ce565b610ae15760405162461bcd60e51b81526004018080602001828103825260388152602001806127c46038913960400191505060405180910390fd5b610aeb8383611422565b505050565b6000610afc6006611490565b905090565b60048054604080516020601f60026000196101006001881615020190951694909404938401819004810282018101909252828152606093909290918301828280156108235780601f106107f857610100808354040283529160200191610823565b610b73610b6d611418565b8261149b565b610bae5760405162461bcd60e51b81526004018080602001828103825260318152602001806129bf6031913960400191505060405180910390fd5b610aeb8383836040518060200160405280600081525061157f565b6001600160a01b0382166000908152600560205260408120610beb90836116cd565b90505b92915050565b610aeb83838360405180602001604052806000815250611035565b600080610c1d6006846116d9565b509392505050565b6002546001600160a01b031690565b6000610bee8260405180606001604052806029815260200161286960299139600691906116f5565b600d8054604080516020601f60026000196101006001881615020190951694909404938401819004810282018101909252828152606093909290918301828280156108235780601f106107f857610100808354040283529160200191610823565b60006001600160a01b038216610d045760405162461bcd60e51b815260040180806020018281038252602a81526020018061283f602a913960400191505060405180910390fd5b6001600160a01b0382166000908152600560205260409020610bee90611490565b6000546001600160a01b031690565b600b8054604080516020601f60026000196101006001881615020190951694909404938401819004810282018101909252828152606093909290918301828280156108235780601f106107f857610100808354040283529160200191610823565b610d9d611418565b6001600160a01b0316826001600160a01b03161415610e03576040805162461bcd60e51b815260206004820152601960248201527f4552433732313a20617070726f766520746f2063616c6c657200000000000000604482015290519081900360640190fd5b8060096000610e10611418565b6001600160a01b03908116825260208083019390935260409182016000908120918716808252919093529120805460ff191692151592909217909155610e54611418565b6001600160a01b03167f17307eab39ab6107e8899845ad3d59bd9653f200f220920489ca2b5937696c318360405180821515815260200191505060405180910390a35050565b60025433906001600160a01b03168114610ffd57600360009054906101000a90046001600160a01b03166001600160a01b031663570ca7356040518163ffffffff1660e01b815260040160206040518083038186803b158015610efc57600080fd5b505afa158015610f10573d6000803e3d6000fd5b505050506040513d6020811015610f2657600080fd5b50516001600160a01b03828116911614610ffd57600360009054906101000a90046001600160a01b03166001600160a01b031663ebf0c7176040518163ffffffff1660e01b815260040160206040518083038186803b158015610f8857600080fd5b505afa158015610f9c573d6000803e3d6000fd5b505050506040513d6020811015610fb257600080fd5b50516001600160a01b03828116911614610ffd5760405162461bcd60e51b815260040180806020018281038252603081526020018061273e6030913960400191505060405180910390fd5b6110068261170c565b5050565b6110158383836117d7565b61102563b6f00dcf60e01b6118a7565b610aeb630473eac960e41b6118a7565b611046611040611418565b8361149b565b6110815760405162461bcd60e51b81526004018080602001828103825260318152602001806129bf6031913960400191505060405180910390fd5b61108d8484848461192e565b50505050565b61109c82610774565b8190610aeb5760405162461bcd60e51b81526004018080602001828103825283818151815260200191508051906020019080838360005b838110156110eb5781810151838201526020016110d3565b50505050905090810190601f1680156111185780820380516001836020036101000a031916815260200191505b509250505060405180910390fd5b6000838152600e60205260409020546001600160a01b03908116908516811415611150575061108d565b600061115b85610c34565b9050856001600160a01b0316816001600160a01b031614156111c4576040805162461bcd60e51b815260206004820152601d60248201527f4552433732313a206c6f636b20746f2063757272656e74206f776e6572000000604482015290519081900360640190fd5b6001600160a01b038616611260576111da611981565b6001600160a01b0316826001600160a01b03161461123f576040805162461bcd60e51b815260206004820152601c60248201527f4552433732313a20756e6c6f636b206e6f207065726d697373696f6e00000000604482015290519081900360640190fd5b6000858152600e6020526040902080546001600160a01b031916905561136e565b611268611981565b6001600160a01b0316816001600160a01b0316148061128e575061128e81610aa1611981565b6112c95760405162461bcd60e51b8152600401808060200182810382526033815260200180612a586033913960400191505060405180910390fd5b6000858152600e602090815260409182902080546001600160a01b0319166001600160a01b038a161790558151601f860182900482028101820190925284825261133391839189918991899089908190840183828082843760009201919091525061198592505050565b61136e5760405162461bcd60e51b8152600401808060200182810382526036815260200180612a226036913960400191505060405180910390fd5b847f42c1e6002dbcaf45b718b520a86c5d84d0f3d892580ea422f0486fdf73daf85c61139987610c34565b604080516001600160a01b039283168152918a1660208301528051918290030190a2505050505050565b6060610bee82611ad4565b6001600160a01b03918216600090815260096020908152604080832093909416825291909152205460ff1690565b6003546001600160a01b031690565b6000610bee600683611d7b565b6000610afc611981565b600081815260086020526040902080546001600160a01b0319166001600160a01b038416908117909155819061145782610c34565b6001600160a01b03167f8c5be1e5ebec7d5bd14f71427d1e84f3dd0314c0f7b2291e5b200ac8c7c3b92560405160405180910390a45050565b6000610bee82611d87565b60006114a68261140b565b6114e15760405162461bcd60e51b81526004018080602001828103825260438152602001806127fc6043913960600191505060405180910390fd5b6000828152600e60205260409020546001600160a01b03161561152157506000818152600e60205260409020546001600160a01b03838116911614610bee565b600061152c83610c34565b9050806001600160a01b0316846001600160a01b031614806115675750836001600160a01b031661155c8461082d565b6001600160a01b0316145b80611577575061157781856113ce565b915050610bee565b836001600160a01b031661159283610c34565b6001600160a01b0316146115d75760405162461bcd60e51b81526004018080602001828103825260298152602001806129466029913960400191505060405180910390fd5b6001600160a01b03831661161c5760405162461bcd60e51b815260040180806020018281038252602481526020018061276e6024913960400191505060405180910390fd5b6116288484848461108d565b611633600083611422565b6001600160a01b03841660009081526005602052604090206116559083611d8b565b506001600160a01b03831660009081526005602052604090206116789083611d97565b5061168560068385611da3565b5081836001600160a01b0316856001600160a01b03167fddf252ad1be2c89b69c2b068fc378daa952ba7f163c4a11628f55a4df523b3ef60405160405180910390a450505050565b6000610beb8383611db9565b60008080806116e88686611e1d565b9097909650945050505050565b6000611702848484611e98565b90505b9392505050565b6001600160a01b038116156117b55761172d816001600160a01b0316611f25565b156117b5576040805163c64df69d60e01b8152630ddf27bf60e01b60048201818152602483019384526038604484018190526001600160a01b0386169463c64df69d9490916064909101906128e082396040019250505060006040518083038186803b15801561179c57600080fd5b505afa1580156117b0573d6000803e3d6000fd5b505050505b600280546001600160a01b0319166001600160a01b0392909216919091179055565b600054600160a81b900460ff16806117f257506117f2611f5e565b806118075750600054600160a01b900460ff16155b6118425760405162461bcd60e51b815260040180806020018281038252602e815260200180612918602e913960400191505060405180910390fd5b600054600160a81b900460ff16158015611879576000805460ff60a01b1960ff60a81b19909116600160a81b1716600160a01b1790555b611884848484611f64565b61188e8384612036565b801561108d576000805460ff60a81b1916905550505050565b6001600160e01b03198082161415611906576040805162461bcd60e51b815260206004820152601c60248201527f4552433136353a20696e76616c696420696e7465726661636520696400000000604482015290519081900360640190fd5b6001600160e01b0319166000908152600160208190526040909120805460ff19169091179055565b61193a8484848461157f565b6119468484848461208e565b61108d5760405162461bcd60e51b815260040180806020018281038252603281526020018061270c6032913960400191505060405180910390fd5b3390565b6000611999846001600160a01b0316611f25565b6119a557506001611acc565b6060630a85bd0160e11b6119b7611981565b87868660405160240180856001600160a01b03168152602001846001600160a01b0316815260200183815260200180602001828103825283818151815260200191508051906020019080838360005b83811015611a1e578181015183820152602001611a06565b50505050905090810190601f168015611a4b5780820380516001836020036101000a031916815260200191505b5095505050505050604051602081830303815290604052906001600160e01b0319166020820180516001600160e01b0383818316178352505050509050637e15432560e01b6001600160e01b031916611abd86836040518060600160405280603281526020016129f0603291396121c2565b6001600160e01b031916149150505b949350505050565b6060611adf8261140b565b611b1a5760405162461bcd60e51b815260040180806020018281038252602f81526020018061296f602f913960400191505060405180910390fd5b6000828152600c602090815260409182902080548351601f6002600019610100600186161502019093169290920491820184900484028101840190945280845260609392830182828015611baf5780601f10611b8457610100808354040283529160200191611baf565b820191906000526020600020905b815481529060010190602001808311611b9257829003601f168201915b5050600d5493945050505060026000196101006001841615020190911604611bd8579050610792565b805115611ca957600d816040516020018083805460018160011615610100020316600290048015611c405780601f10611c1e576101008083540402835291820191611c40565b820191906000526020600020905b815481529060010190602001808311611c2c575b5050825160208401908083835b60208310611c6c5780518252601f199092019160209182019101611c4d565b6001836020036101000a03801982511681845116808217855250505050505090500192505050604051602081830303815290604052915050610792565b600d611cb4846122ea565b6040516020018083805460018160011615610100020316600290048015611d125780601f10611cf0576101008083540402835291820191611d12565b820191906000526020600020905b815481529060010190602001808311611cfe575b5050825160208401908083835b60208310611d3e5780518252601f199092019160209182019101611d1f565b6001836020036101000a03801982511681845116808217855250505050505090500192505050604051602081830303815290604052915050919050565b6000610beb83836123c5565b5490565b6000610beb83836123dd565b6000610beb83836124a3565b600061170284846001600160a01b0385166124ed565b81546000908210611dfb5760405162461bcd60e51b81526004018080602001828103825260228152602001806126ea6022913960400191505060405180910390fd5b826000018281548110611e0a57fe5b9060005260206000200154905092915050565b815460009081908310611e615760405162461bcd60e51b81526004018080602001828103825260228152602001806128926022913960400191505060405180910390fd5b6000846000018481548110611e7257fe5b906000526020600020906002020190508060000154816001015492509250509250929050565b60008281526001840160205260408120548281611ef65760405162461bcd60e51b81526020600482018181528351602484015283519092839260449091019190850190808383600083156110eb5781810151838201526020016110d3565b50846000016001820381548110611f0957fe5b9060005260206000209060020201600101549150509392505050565b6000813f7fc5d2460186f7233c927e7db2dcc703c0e500b653ca82273b7bfad8045d85a470818114801590611acc575050151592915050565b303b1590565b611f6c612584565b611f7c6336c6362d60e01b6118a7565b6040805163c64df69d60e01b81526363daa99b60e11b60048201818152602483019384526032604484018190526001600160a01b0388169463c64df69d94909160649091019061279282396040019250505060006040518083038186803b158015611fe657600080fd5b505afa158015611ffa573d6000803e3d6000fd5b5050600380546001600160a01b0319166001600160a01b0387161790555050815161202c906004906020850190612656565b50610aeb8161170c565b815161204990600a906020850190612656565b50805161205d90600b906020840190612656565b5061206e6380ac58cd60e01b61264d565b61207e635b5e139f60e01b61264d565b61100663780e9d6360e01b61264d565b60006120a2846001600160a01b0316611f25565b6120ae57506001611acc565b6060630a85bd0160e11b6120c0611418565b87868660405160240180856001600160a01b03168152602001846001600160a01b0316815260200183815260200180602001828103825283818151815260200191508051906020019080838360005b8381101561212757818101518382015260200161210f565b50505050905090810190601f1680156121545780820380516001836020036101000a031916815260200191505b5095505050505050604051602081830303815290604052906001600160e01b0319166020820180516001600160e01b038381831617835250505050905063150b7a0260e01b6001600160e01b031916611abd868360405180606001604052806032815260200161270c603291395b6000806060856001600160a01b0316856040518082805190602001908083835b602083106122015780518252601f1990920191602091820191016121e2565b6001836020036101000a0380198251168184511680821785525050505050509050019150506000604051808303816000865af19150503d8060008114612263576040519150601f19603f3d011682016040523d82523d6000602084013e612268565b606091505b5091509150816122c9578051156122825780518082602001fd5b60405162461bcd60e51b81526020600482018181528651602484015286518793919283926044019190850190808383600083156110eb5781810151838201526020016110d3565b8080602001905160208110156122de57600080fd5b50519250611705915050565b60608161230f57506040805180820190915260018152600360fc1b6020820152610792565b8160005b811561232757600101600a82049150612313565b60608167ffffffffffffffff8111801561234057600080fd5b506040519080825280601f01601f19166020018201604052801561236b576020820181803683370190505b50859350905060001982015b83156123bc57600a840660300160f81b8282806001900393508151811061239a57fe5b60200101906001600160f81b031916908160001a905350600a84049350612377565b50949350505050565b60009081526001919091016020526040902054151590565b60008181526001830160205260408120548015612499578354600019808301919081019060009087908390811061241057fe5b906000526020600020015490508087600001848154811061242d57fe5b60009182526020808320909101929092558281526001898101909252604090209084019055865487908061245d57fe5b60019003818190600052602060002001600090559055866001016000878152602001908152602001600020600090556001945050505050610bee565b6000915050610bee565b60006124af83836123c5565b6124e557508154600181810184556000848152602080822090930184905584548482528286019093526040902091909155610bee565b506000610bee565b600082815260018401602052604081205480612552575050604080518082018252838152602080820184815286546001818101895560008981528481209551600290930290950191825591519082015586548684528188019092529290912055611705565b8285600001600183038154811061256557fe5b9060005260206000209060020201600101819055506000915050611705565b600054600160a81b900460ff168061259f575061259f611f5e565b806125b45750600054600160a01b900460ff16155b6125ef5760405162461bcd60e51b815260040180806020018281038252602e815260200180612918602e913960400191505060405180910390fd5b600054600160a81b900460ff16158015612626576000805460ff60a01b1960ff60a81b19909116600160a81b1716600160a01b1790555b6126366301ffc9a760e01b6118a7565b801561264a576000805460ff60a81b191690555b50565b61264a816118a7565b828054600181600116156101000203166002900490600052602060002090601f016020900481019282601f1061269757805160ff19168380011785556126c4565b828001600101855582156126c4579182015b828111156126c45782518255916020019190600101906126a9565b506126d09291506126d4565b5090565b5b808211156126d057600081556001016126d556fe456e756d657261626c655365743a20696e646578206f7574206f6620626f756e64734552433732313a207472616e7366657220746f206e6f6e20455243373231526563656976657220696d706c656d656e7465722355706772616465234f6e6c7944414f2063616c6c657220646f6573206e6f742068617665207065726d697373696f6e4552433732313a207472616e7366657220746f20746865207a65726f2061646472657373234465706172746d656e7423696e69744465706172746d656e742064616f20686f73742074797065206e6f74206d617463684552433732313a20617070726f76652063616c6c6572206973206e6f74206f776e6572206e6f7220617070726f76656420666f7220616c6c23455243373231235f697343616e5472616e73666572204552433732313a206f70657261746f7220717565727920666f72206e6f6e6578697374656e7420746f6b656e4552433732313a2062616c616e636520717565727920666f7220746865207a65726f20616464726573734552433732313a206f776e657220717565727920666f72206e6f6e6578697374656e7420746f6b656e456e756d657261626c654d61703a20696e646578206f7574206f6620626f756e64734552433732313a20617070726f76656420717565727920666f72206e6f6e6578697374656e7420746f6b656e234465706172746d656e74237365744f70657261746f725f696e7465726e616c206f70657261746f722074797065206e6f74206d61746368436f6e747261637420696e7374616e63652068617320616c7265616479206265656e20696e697469616c697a65644552433732313a207472616e73666572206f6620746f6b656e2074686174206973206e6f74206f776e4552433732314d657461646174613a2055524920717565727920666f72206e6f6e6578697374656e7420746f6b656e4552433732313a20617070726f76616c20746f2063757272656e74206f776e65724552433732313a207472616e736665722063616c6c6572206973206e6f74206f776e6572206e6f7220617070726f7665644552433732313a206c6f636b20746f206e6f6e204552433732314c6f636b526563656976657220696d706c656d656e7465724552433732313a207472616e7366657220746f206e6f6e204552433732314c6f636b526563656976657220696d706c656d656e7465724552433732313a206c6f636b2063616c6c6572206973206e6f74206f776e6572206e6f72206c6f636b656420666f7220616c6ca26469706673582212206492c8e07ae85a3b42421883bf84dbef6e763acf14116cd025f01aecb64be9da64736f6c634300060c0033",
  "immutableReferences": {},
  "source": "\npragma solidity >=0.6.12 <=0.8.15;\n\nimport \"./ERC721.sol\";\n\ncontract Asset is IAsset, ERC721 {\n\n\t// Equals to `bytes4(keccak256(\"onERC721LockReceived(address,address,uint256,bytes)\"))`\n\tbytes4 private constant _ERC721_LOCK_RECEIVED = 0x7e154325;\n\n\t/*\n\t *  bytes4(keccak256('lock(address,uint256,bytes)')) == 0xb88d4fde\n\t *\n\t *  => 0x80ac58cd ^ 0xc792f45d == 0x473eac90\n\t */\n\tbytes4 private constant _INTERFACE_ID_ERC721_LOCK = 0x473eac90;\n\n\t// Mapping from token ID to lock address\n\tmapping (uint256 => address) private _tokenLocks;\n\n\tfunction initAsset(address host, string memory describe, address operator) external {\n\t\tinitERC721(host, describe, operator);\n\t\t_registerInterface(Asset_ID);\n\t\t_registerInterface(_INTERFACE_ID_ERC721_LOCK);\n\t}\n\n\tfunction _burn(uint256 tokenId) internal virtual override {\n\t\t// NOOP\n\t}\n\n\tfunction lock(address to, uint256 tokenId, bytes calldata data) public virtual override {\n\t\taddress locked = _tokenLocks[tokenId];\n\t\tif (locked == to) {\n\t\t\treturn;\n\t\t}\n\n\t\taddress owner = ownerOf(tokenId);\n\t\trequire(owner != to, \"ERC721: lock to current owner\");\n\n\t\tif (to == address(0)) {\n\t\t\trequire(locked == _msgSender(), \"ERC721: unlock no permission\");\n\t\t\tdelete _tokenLocks[tokenId];\n\t\t} else {\n\t\t\trequire(owner == _msgSender() || isApprovedForAll(owner, _msgSender()), \"ERC721: lock caller is not owner nor locked for all\");\n\t\t\t_tokenLocks[tokenId] = to;\n\t\t\trequire(_checkOnERC721LockReceived(owner, to, tokenId, data), \"ERC721: transfer to non ERC721LockReceiver implementer\");\n\t\t}\n\t\temit Lock(tokenId, ownerOf(tokenId), to);\n\t}\n\n\tfunction _isCanTransfer(address spender, uint256 tokenId) internal view virtual override returns (bool) {\n\t\trequire(_exists(tokenId), \"#ERC721#_isCanTransfer ERC721: operator query for nonexistent token\");\n\t\tif (_tokenLocks[tokenId] != address(0)) {\n\t\t\treturn _tokenLocks[tokenId] == spender;\n\t\t} else {\n\t\t\taddress owner = ownerOf(tokenId);\n\t\t\treturn (spender == owner || getApproved(tokenId) == spender || isApprovedForAll(owner, spender));\n\t\t}\n\t}\n\n\tfunction _checkOnERC721LockReceived(address from, address to, uint256 tokenId, bytes memory _data) private returns (bool) {\n\t\tif (!to.isContract()) return true;\n\t\tbytes memory data = abi.encodeWithSelector(\n\t\t\tIERC721Receiver(to).onERC721Received.selector, _msgSender(), from, tokenId, _data\n\t\t);\n\t\treturn checkCall(to, data, \"ERC721: lock to non ERC721LockReceiver implementer\") == _ERC721_LOCK_RECEIVED;\n\t}\n\n}\n",
  "sourcePath": "/Users/louis/Project/hc/NFTSwap/SmartHolder/contracts/Asset.sol",
  "compiler": {
    "name": "solc",
    "version": "0.6.12+commit.27d51765.Emscripten.clang"
  },
  "schemaVersion": "3.4.8",
  "updatedAt": "2022-07-18T02:17:43.324Z",
  "networkType": "ethereum",
  "devdoc": {
    "kind": "dev",
    "methods": {
      "approve(address,uint256)": {
        "details": "Approves another address to transfer the given token ID The zero address indicates there is no approved address. There can only be one approved address per token at a given time. Can only be called by the token owner or an approved operator.",
        "params": {
          "to": "address to be approved for the given token ID",
          "tokenId": "uint256 ID of the token to be approved"
        }
      },
      "balanceOf(address)": {
        "details": "Gets the balance of the specified address.",
        "params": {
          "owner": "address to query the balance of"
        },
        "returns": {
          "_0": "uint256 representing the amount owned by the passed address"
        }
      },
      "baseURI()": {
        "details": "Returns the base URI set via {_setBaseURI}. This will be automatically added as a prefix in {tokenURI} to each token's URI, or to the token ID if no specific URI is set for that token ID."
      },
      "getApproved(uint256)": {
        "details": "Gets the approved address for a token ID, or zero if no address set Reverts if the token ID does not exist.",
        "params": {
          "tokenId": "uint256 ID of the token to query the approval of"
        },
        "returns": {
          "_0": "address currently approved for the given token ID"
        }
      },
      "isApprovedForAll(address,address)": {
        "details": "Tells whether an operator is approved by a given owner.",
        "params": {
          "operator": "operator address which you want to query the approval of",
          "owner": "owner address which you want to query the approval of"
        },
        "returns": {
          "_0": "bool whether the given operator is approved by the given owner"
        }
      },
      "name()": {
        "details": "Gets the token name.",
        "returns": {
          "_0": "string representing the token name"
        }
      },
      "ownerOf(uint256)": {
        "details": "Gets the owner of the specified token ID.",
        "params": {
          "tokenId": "uint256 ID of the token to query the owner of"
        },
        "returns": {
          "_0": "address currently marked as the owner of the given token ID"
        }
      },
      "safeTransferFrom(address,address,uint256)": {
        "details": "Safely transfers the ownership of a given token ID to another address If the target address is a contract, it must implement {IERC721Receiver-onERC721Received}, which is called upon a safe transfer, and return the magic value `bytes4(keccak256(\"onERC721Received(address,address,uint256,bytes)\"))`; otherwise, the transfer is reverted. Requires the msg.sender to be the owner, approved, or operator",
        "params": {
          "from": "current owner of the token",
          "to": "address to receive the ownership of the given token ID",
          "tokenId": "uint256 ID of the token to be transferred"
        }
      },
      "safeTransferFrom(address,address,uint256,bytes)": {
        "details": "Safely transfers the ownership of a given token ID to another address If the target address is a contract, it must implement {IERC721Receiver-onERC721Received}, which is called upon a safe transfer, and return the magic value `bytes4(keccak256(\"onERC721Received(address,address,uint256,bytes)\"))`; otherwise, the transfer is reverted. Requires the _msgSender() to be the owner, approved, or operator",
        "params": {
          "_data": "bytes data to send along with a safe transfer check",
          "from": "current owner of the token",
          "to": "address to receive the ownership of the given token ID",
          "tokenId": "uint256 ID of the token to be transferred"
        }
      },
      "setApprovalForAll(address,bool)": {
        "details": "Sets or unsets the approval of a given operator An operator is allowed to transfer all tokens of the sender on their behalf.",
        "params": {
          "approved": "representing the status of the approval to be set",
          "operator": "operator address to set the approval"
        }
      },
      "supportsInterface(bytes4)": {
        "details": "See {IERC165-supportsInterface}. Time complexity O(1), guaranteed to always use less than 30 000 gas."
      },
      "symbol()": {
        "details": "Gets the token symbol.",
        "returns": {
          "_0": "string representing the token symbol"
        }
      },
      "tokenByIndex(uint256)": {
        "details": "Gets the token ID at a given index of all the tokens in this contract Reverts if the index is greater or equal to the total number of tokens.",
        "params": {
          "index": "uint256 representing the index to be accessed of the tokens list"
        },
        "returns": {
          "_0": "uint256 token ID at the given index of the tokens list"
        }
      },
      "tokenOfOwnerByIndex(address,uint256)": {
        "details": "Gets the token ID at a given index of the tokens list of the requested owner.",
        "params": {
          "index": "uint256 representing the index to be accessed of the requested tokens list",
          "owner": "address owning the tokens list to be accessed"
        },
        "returns": {
          "_0": "uint256 token ID at the given index of the tokens list owned by the requested address"
        }
      },
      "totalSupply()": {
        "details": "Gets the total amount of tokens stored by the contract.",
        "returns": {
          "_0": "uint256 representing the total amount of tokens"
        }
      },
      "transferFrom(address,address,uint256)": {
        "details": "Transfers the ownership of a given token ID to another address. Usage of this method is discouraged, use {safeTransferFrom} whenever possible. Requires the msg.sender to be the owner, approved, or operator.",
        "params": {
          "from": "current owner of the token",
          "to": "address to receive the ownership of the given token ID",
          "tokenId": "uint256 ID of the token to be transferred"
        }
      }
    },
    "version": 1
  },
  "userdoc": {
    "kind": "user",
    "methods": {},
    "version": 1
  }
}