{
  "contractName": "Asset",
  "abi": [
    {
      "anonymous": false,
      "inputs": [
        {
          "indexed": true,
          "internalType": "address",
          "name": "owner",
          "type": "address"
        },
        {
          "indexed": true,
          "internalType": "address",
          "name": "approved",
          "type": "address"
        },
        {
          "indexed": true,
          "internalType": "uint256",
          "name": "tokenId",
          "type": "uint256"
        }
      ],
      "name": "Approval",
      "type": "event"
    },
    {
      "anonymous": false,
      "inputs": [
        {
          "indexed": true,
          "internalType": "address",
          "name": "owner",
          "type": "address"
        },
        {
          "indexed": true,
          "internalType": "address",
          "name": "operator",
          "type": "address"
        },
        {
          "indexed": false,
          "internalType": "bool",
          "name": "approved",
          "type": "bool"
        }
      ],
      "name": "ApprovalForAll",
      "type": "event"
    },
    {
      "anonymous": false,
      "inputs": [
        {
          "indexed": true,
          "internalType": "uint256",
          "name": "tokenId",
          "type": "uint256"
        },
        {
          "indexed": false,
          "internalType": "address",
          "name": "owner",
          "type": "address"
        },
        {
          "indexed": false,
          "internalType": "address",
          "name": "to",
          "type": "address"
        }
      ],
      "name": "Lock",
      "type": "event"
    },
    {
      "anonymous": false,
      "inputs": [
        {
          "indexed": true,
          "internalType": "address",
          "name": "owner",
          "type": "address"
        },
        {
          "indexed": true,
          "internalType": "address",
          "name": "locked",
          "type": "address"
        },
        {
          "indexed": true,
          "internalType": "uint256",
          "name": "tokenId",
          "type": "uint256"
        }
      ],
      "name": "Lock",
      "type": "event"
    },
    {
      "anonymous": false,
      "inputs": [
        {
          "indexed": true,
          "internalType": "address",
          "name": "from",
          "type": "address"
        },
        {
          "indexed": true,
          "internalType": "address",
          "name": "to",
          "type": "address"
        },
        {
          "indexed": true,
          "internalType": "uint256",
          "name": "tokenId",
          "type": "uint256"
        }
      ],
      "name": "Transfer",
      "type": "event"
    },
    {
      "inputs": [
        {
          "internalType": "address",
          "name": "to",
          "type": "address"
        },
        {
          "internalType": "uint256",
          "name": "tokenId",
          "type": "uint256"
        }
      ],
      "name": "approve",
      "outputs": [],
      "stateMutability": "nonpayable",
      "type": "function"
    },
    {
      "inputs": [
        {
          "internalType": "address",
          "name": "owner",
          "type": "address"
        }
      ],
      "name": "balanceOf",
      "outputs": [
        {
          "internalType": "uint256",
          "name": "",
          "type": "uint256"
        }
      ],
      "stateMutability": "view",
      "type": "function",
      "constant": true
    },
    {
      "inputs": [],
      "name": "baseURI",
      "outputs": [
        {
          "internalType": "string",
          "name": "",
          "type": "string"
        }
      ],
      "stateMutability": "view",
      "type": "function",
      "constant": true
    },
    {
      "inputs": [
        {
          "internalType": "bytes4",
          "name": "interfaceId",
          "type": "bytes4"
        },
        {
          "internalType": "string",
          "name": "message",
          "type": "string"
        }
      ],
      "name": "checkInterface",
      "outputs": [],
      "stateMutability": "view",
      "type": "function",
      "constant": true
    },
    {
      "inputs": [],
      "name": "description",
      "outputs": [
        {
          "internalType": "string",
          "name": "",
          "type": "string"
        }
      ],
      "stateMutability": "view",
      "type": "function",
      "constant": true
    },
    {
      "inputs": [
        {
          "internalType": "uint256",
          "name": "tokenId",
          "type": "uint256"
        }
      ],
      "name": "getApproved",
      "outputs": [
        {
          "internalType": "address",
          "name": "",
          "type": "address"
        }
      ],
      "stateMutability": "view",
      "type": "function",
      "constant": true
    },
    {
      "inputs": [],
      "name": "host",
      "outputs": [
        {
          "internalType": "contract IDAO",
          "name": "",
          "type": "address"
        }
      ],
      "stateMutability": "view",
      "type": "function",
      "constant": true
    },
    {
      "inputs": [],
      "name": "impl",
      "outputs": [
        {
          "internalType": "address",
          "name": "",
          "type": "address"
        }
      ],
      "stateMutability": "view",
      "type": "function",
      "constant": true
    },
    {
      "inputs": [
        {
          "internalType": "address",
          "name": "owner",
          "type": "address"
        },
        {
          "internalType": "address",
          "name": "operator",
          "type": "address"
        }
      ],
      "name": "isApprovedForAll",
      "outputs": [
        {
          "internalType": "bool",
          "name": "",
          "type": "bool"
        }
      ],
      "stateMutability": "view",
      "type": "function",
      "constant": true
    },
    {
      "inputs": [],
      "name": "name",
      "outputs": [
        {
          "internalType": "string",
          "name": "",
          "type": "string"
        }
      ],
      "stateMutability": "view",
      "type": "function",
      "constant": true
    },
    {
      "inputs": [],
      "name": "operator",
      "outputs": [
        {
          "internalType": "contract IVotePool",
          "name": "",
          "type": "address"
        }
      ],
      "stateMutability": "view",
      "type": "function",
      "constant": true
    },
    {
      "inputs": [
        {
          "internalType": "uint256",
          "name": "tokenId",
          "type": "uint256"
        }
      ],
      "name": "ownerOf",
      "outputs": [
        {
          "internalType": "address",
          "name": "",
          "type": "address"
        }
      ],
      "stateMutability": "view",
      "type": "function",
      "constant": true
    },
    {
      "inputs": [
        {
          "internalType": "address",
          "name": "from",
          "type": "address"
        },
        {
          "internalType": "address",
          "name": "to",
          "type": "address"
        },
        {
          "internalType": "uint256",
          "name": "tokenId",
          "type": "uint256"
        }
      ],
      "name": "safeTransferFrom",
      "outputs": [],
      "stateMutability": "nonpayable",
      "type": "function"
    },
    {
      "inputs": [
        {
          "internalType": "address",
          "name": "from",
          "type": "address"
        },
        {
          "internalType": "address",
          "name": "to",
          "type": "address"
        },
        {
          "internalType": "uint256",
          "name": "tokenId",
          "type": "uint256"
        },
        {
          "internalType": "bytes",
          "name": "_data",
          "type": "bytes"
        }
      ],
      "name": "safeTransferFrom",
      "outputs": [],
      "stateMutability": "nonpayable",
      "type": "function"
    },
    {
      "inputs": [
        {
          "internalType": "address",
          "name": "operator",
          "type": "address"
        },
        {
          "internalType": "bool",
          "name": "approved",
          "type": "bool"
        }
      ],
      "name": "setApprovalForAll",
      "outputs": [],
      "stateMutability": "nonpayable",
      "type": "function"
    },
    {
      "inputs": [
        {
          "internalType": "address",
          "name": "vote",
          "type": "address"
        }
      ],
      "name": "setOperator",
      "outputs": [],
      "stateMutability": "nonpayable",
      "type": "function"
    },
    {
      "inputs": [
        {
          "internalType": "bytes4",
          "name": "interfaceId",
          "type": "bytes4"
        }
      ],
      "name": "supportsInterface",
      "outputs": [
        {
          "internalType": "bool",
          "name": "",
          "type": "bool"
        }
      ],
      "stateMutability": "view",
      "type": "function",
      "constant": true
    },
    {
      "inputs": [],
      "name": "symbol",
      "outputs": [
        {
          "internalType": "string",
          "name": "",
          "type": "string"
        }
      ],
      "stateMutability": "view",
      "type": "function",
      "constant": true
    },
    {
      "inputs": [
        {
          "internalType": "uint256",
          "name": "index",
          "type": "uint256"
        }
      ],
      "name": "tokenByIndex",
      "outputs": [
        {
          "internalType": "uint256",
          "name": "",
          "type": "uint256"
        }
      ],
      "stateMutability": "view",
      "type": "function",
      "constant": true
    },
    {
      "inputs": [
        {
          "internalType": "address",
          "name": "owner",
          "type": "address"
        },
        {
          "internalType": "uint256",
          "name": "index",
          "type": "uint256"
        }
      ],
      "name": "tokenOfOwnerByIndex",
      "outputs": [
        {
          "internalType": "uint256",
          "name": "",
          "type": "uint256"
        }
      ],
      "stateMutability": "view",
      "type": "function",
      "constant": true
    },
    {
      "inputs": [
        {
          "internalType": "uint256",
          "name": "tokenId",
          "type": "uint256"
        }
      ],
      "name": "tokenURI",
      "outputs": [
        {
          "internalType": "string",
          "name": "",
          "type": "string"
        }
      ],
      "stateMutability": "view",
      "type": "function",
      "constant": true
    },
    {
      "inputs": [],
      "name": "totalSupply",
      "outputs": [
        {
          "internalType": "uint256",
          "name": "",
          "type": "uint256"
        }
      ],
      "stateMutability": "view",
      "type": "function",
      "constant": true
    },
    {
      "inputs": [
        {
          "internalType": "address",
          "name": "from",
          "type": "address"
        },
        {
          "internalType": "address",
          "name": "to",
          "type": "address"
        },
        {
          "internalType": "uint256",
          "name": "tokenId",
          "type": "uint256"
        }
      ],
      "name": "transferFrom",
      "outputs": [],
      "stateMutability": "nonpayable",
      "type": "function"
    },
    {
      "inputs": [
        {
          "internalType": "address",
          "name": "impl",
          "type": "address"
        }
      ],
      "name": "upgrade",
      "outputs": [],
      "stateMutability": "nonpayable",
      "type": "function"
    },
    {
      "inputs": [
        {
          "internalType": "address",
          "name": "host",
          "type": "address"
        },
        {
          "internalType": "string",
          "name": "description",
          "type": "string"
        },
        {
          "internalType": "address",
          "name": "operator",
          "type": "address"
        }
      ],
      "name": "initAsset",
      "outputs": [],
      "stateMutability": "nonpayable",
      "type": "function"
    },
    {
      "inputs": [
        {
          "internalType": "address",
          "name": "to",
          "type": "address"
        },
        {
          "internalType": "uint256",
          "name": "tokenId",
          "type": "uint256"
        },
        {
          "internalType": "string",
          "name": "_tokenURI",
          "type": "string"
        },
        {
          "internalType": "address",
          "name": "lock",
          "type": "address"
        },
        {
          "internalType": "bytes",
          "name": "_data",
          "type": "bytes"
        }
      ],
      "name": "safeMint",
      "outputs": [],
      "stateMutability": "nonpayable",
      "type": "function"
    },
    {
      "inputs": [
        {
          "internalType": "uint256",
          "name": "tokenId",
          "type": "uint256"
        },
        {
          "internalType": "string",
          "name": "_tokenURI",
          "type": "string"
        }
      ],
      "name": "setTokenURI",
      "outputs": [],
      "stateMutability": "nonpayable",
      "type": "function"
    },
    {
      "inputs": [
        {
          "internalType": "address",
          "name": "to",
          "type": "address"
        },
        {
          "internalType": "uint256",
          "name": "tokenId",
          "type": "uint256"
        },
        {
          "internalType": "bytes",
          "name": "data",
          "type": "bytes"
        }
      ],
      "name": "lock",
      "outputs": [],
      "stateMutability": "nonpayable",
      "type": "function"
    }
  ],
  "bytecode": "0x608060405234801561001057600080fd5b50613014806100206000396000f3fe608060405234801561001057600080fd5b50600436106101c45760003560e01c80636f7307c9116100f9578063b6f00dcf11610097578063c792f45d11610071578063c792f45d14610898578063c87b56dd1461091b578063e985e9c514610938578063f437bc5914610966576101c4565b8063b6f00dcf14610660578063b88d4fde1461071f578063c64df69d146107e3576101c4565b80638abf6077116100d35780638abf6077146105fc57806395d89b4114610604578063a22cb4651461060c578063b3ab15fb1461063a576101c4565b80636f7307c9146104b557806370a08231146105ce5780637284e416146105f4576101c4565b806323b872dd116101665780634f6ccce7116101405780634f6ccce71461046b578063570ca735146104885780636352211e146104905780636c0360eb146104ad576101c4565b806323b872dd146103d35780632f745c591461040957806342842e0e14610435576101c4565b80630900f010116101a25780630900f010146102ba578063095ea7b3146102e2578063162094c41461030e57806318160ddd146103b9576101c4565b806301ffc9a7146101c957806306fdde0314610204578063081812fc14610281575b600080fd5b6101f0600480360360208110156101df57600080fd5b50356001600160e01b03191661096e565b604080519115158252519081900360200190f35b61020c610991565b6040805160208082528351818301528351919283929083019185019080838360005b8381101561024657818101518382015260200161022e565b50505050905090810190601f1680156102735780820380516001836020036101000a031916815260200191505b509250505060405180910390f35b61029e6004803603602081101561029757600080fd5b5035610a27565b604080516001600160a01b039092168252519081900360200190f35b6102e0600480360360208110156102d057600080fd5b50356001600160a01b0316610a89565b005b6102e0600480360360408110156102f857600080fd5b506001600160a01b038135169060200135610c0f565b6102e06004803603604081101561032457600080fd5b81359190810190604081016020820135600160201b81111561034557600080fd5b82018360208201111561035757600080fd5b803590602001918460018302840111600160201b8311171561037857600080fd5b91908080601f016020809104026020016040519081016040528093929190818152602001838380828437600092019190915250929550610cea945050505050565b6103c1610d44565b60408051918252519081900360200190f35b6102e0600480360360608110156103e957600080fd5b506001600160a01b03813581169160208101359091169060400135610d55565b6103c16004803603604081101561041f57600080fd5b506001600160a01b038135169060200135610dbc565b6102e06004803603606081101561044b57600080fd5b506001600160a01b03813581169160208101359091169060400135610de7565b6103c16004803603602081101561048157600080fd5b5035610e02565b61029e610e18565b61029e600480360360208110156104a657600080fd5b5035610e27565b61020c610e4f565b6102e0600480360360a08110156104cb57600080fd5b6001600160a01b0382351691602081013591810190606081016040820135600160201b8111156104fa57600080fd5b82018360208201111561050c57600080fd5b803590602001918460018302840111600160201b8311171561052d57600080fd5b91908080601f01602080910402602001604051908101604052809392919081815260200183838082843760009201919091525092956001600160a01b03853516959094909350604081019250602001359050600160201b81111561059057600080fd5b8201836020820111156105a257600080fd5b803590602001918460018302840111600160201b831117156105c357600080fd5b509092509050610eb0565b6103c1600480360360208110156105e457600080fd5b50356001600160a01b0316610f1e565b61020c610f86565b61029e610fe7565b61020c610ff6565b6102e06004803603604081101561062257600080fd5b506001600160a01b0381351690602001351515611057565b6102e06004803603602081101561065057600080fd5b50356001600160a01b031661115c565b6102e06004803603606081101561067657600080fd5b6001600160a01b038235169190810190604081016020820135600160201b8111156106a057600080fd5b8201836020820111156106b257600080fd5b803590602001918460018302840111600160201b831117156106d357600080fd5b91908080601f016020809104026020016040519081016040528093929190818152602001838380828437600092019190915250929550505090356001600160a01b031691506112c89050565b6102e06004803603608081101561073557600080fd5b6001600160a01b03823581169260208101359091169160408201359190810190608081016060820135600160201b81111561076f57600080fd5b82018360208201111561078157600080fd5b803590602001918460018302840111600160201b831117156107a257600080fd5b91908080601f0160208091040260200160405190810160405280939291908181526020018383808284376000920191909152509295506112f3945050505050565b6102e0600480360360408110156107f957600080fd5b6001600160e01b03198235169190810190604081016020820135600160201b81111561082457600080fd5b82018360208201111561083657600080fd5b803590602001918460018302840111600160201b8311171561085757600080fd5b91908080601f01602080910402602001604051908101604052809392919081815260200183838082843760009201919091525092955061134b945050505050565b6102e0600480360360608110156108ae57600080fd5b6001600160a01b0382351691602081013591810190606081016040820135600160201b8111156108dd57600080fd5b8201836020820111156108ef57600080fd5b803590602001918460018302840111600160201b8311171561091057600080fd5b5090925090506113de565b61020c6004803603602081101561093157600080fd5b50356115d5565b6101f06004803603604081101561094e57600080fd5b506001600160a01b03813581169160200135166115e0565b61029e61160e565b6001600160e01b0319811660009081526001602052604090205460ff165b919050565b600a8054604080516020601f6002600019610100600188161502019095169490940493840181900481028201810190925282815260609390929091830182828015610a1d5780601f106109f257610100808354040283529160200191610a1d565b820191906000526020600020905b815481529060010190602001808311610a0057829003601f168201915b5050505050905090565b6000610a328261161d565b610a6d5760405162461bcd60e51b815260040180806020018281038252602c815260200180612ddc602c913960400191505060405180910390fd5b506000908152600860205260409020546001600160a01b031690565b60025433906001600160a01b03168114610bec57600360009054906101000a90046001600160a01b03166001600160a01b031663570ca7356040518163ffffffff1660e01b815260040160206040518083038186803b158015610aeb57600080fd5b505afa158015610aff573d6000803e3d6000fd5b505050506040513d6020811015610b1557600080fd5b50516001600160a01b03828116911614610bec57600360009054906101000a90046001600160a01b03166001600160a01b031663ebf0c7176040518163ffffffff1660e01b815260040160206040518083038186803b158015610b7757600080fd5b505afa158015610b8b573d6000803e3d6000fd5b505050506040513d6020811015610ba157600080fd5b50516001600160a01b03828116911614610bec5760405162461bcd60e51b8152600401808060200182810382526033815260200180612c0f6033913960400191505060405180910390fd5b50600080546001600160a01b0319166001600160a01b0392909216919091179055565b6000610c1a82610e27565b9050806001600160a01b0316836001600160a01b03161415610c6d5760405162461bcd60e51b8152600401808060200182810382526021815260200180612ef26021913960400191505060405180910390fd5b806001600160a01b0316610c7f61162a565b6001600160a01b03161480610ca05750610ca081610c9b61162a565b6115e0565b610cdb5760405162461bcd60e51b8152600401808060200182810382526038815260200180612d0e6038913960400191505060405180910390fd5b610ce58383611634565b505050565b610cfb610cf56116a2565b836116a6565b610d365760405162461bcd60e51b8152600401808060200182810382526021815260200180612d466021913960400191505060405180910390fd5b610d40828261178a565b5050565b6000610d5060066117ed565b905090565b610d66610d6061162a565b826116a6565b610da15760405162461bcd60e51b8152600401808060200182810382526031815260200180612f136031913960400191505060405180910390fd5b610ce5838383604051806020016040528060008152506117f8565b6001600160a01b0382166000908152600560205260408120610dde9083611946565b90505b92915050565b610ce5838383604051806020016040528060008152506112f3565b600080610e10600684611952565b509392505050565b6002546001600160a01b031690565b6000610de182604051806060016040528060298152602001612d91602991396006919061196e565b600d8054604080516020601f6002600019610100600188161502019095169490940493840181900481028201810190925282815260609390929091830182828015610a1d5780601f106109f257610100808354040283529160200191610a1d565b610ef1868684848080601f01602080910402602001604051908101604052809392919081815260200183838082843760009201919091525061198592505050565b610efb858561178a565b6001600160a01b03831615610f1657610f16838684846119d7565b505050505050565b60006001600160a01b038216610f655760405162461bcd60e51b815260040180806020018281038252602a815260200180612d67602a913960400191505060405180910390fd5b6001600160a01b0382166000908152600560205260409020610de1906117ed565b60048054604080516020601f6002600019610100600188161502019095169490940493840181900481028201810190925282815260609390929091830182828015610a1d5780601f106109f257610100808354040283529160200191610a1d565b6000546001600160a01b031690565b600b8054604080516020601f6002600019610100600188161502019095169490940493840181900481028201810190925282815260609390929091830182828015610a1d5780601f106109f257610100808354040283529160200191610a1d565b61105f61162a565b6001600160a01b0316826001600160a01b031614156110c5576040805162461bcd60e51b815260206004820152601960248201527f4552433732313a20617070726f766520746f2063616c6c657200000000000000604482015290519081900360640190fd5b80600960006110d261162a565b6001600160a01b03908116825260208083019390935260409182016000908120918716808252919093529120805460ff19169215159290921790915561111661162a565b6001600160a01b03167f17307eab39ab6107e8899845ad3d59bd9653f200f220920489ca2b5937696c318360405180821515815260200191505060405180910390a35050565b60025433906001600160a01b031681146112bf57600360009054906101000a90046001600160a01b03166001600160a01b031663570ca7356040518163ffffffff1660e01b815260040160206040518083038186803b1580156111be57600080fd5b505afa1580156111d2573d6000803e3d6000fd5b505050506040513d60208110156111e857600080fd5b50516001600160a01b038281169116146112bf57600360009054906101000a90046001600160a01b03166001600160a01b031663ebf0c7176040518163ffffffff1660e01b815260040160206040518083038186803b15801561124a57600080fd5b505afa15801561125e573d6000803e3d6000fd5b505050506040513d602081101561127457600080fd5b50516001600160a01b038281169116146112bf5760405162461bcd60e51b8152600401808060200182810382526033815260200180612c0f6033913960400191505060405180910390fd5b610d4082611ad1565b6112d3838383611b9c565b6112e363b6f00dcf60e01b611c6c565b610ce5630473eac960e41b611c6c565b6112fe610cf561162a565b6113395760405162461bcd60e51b8152600401808060200182810382526031815260200180612f136031913960400191505060405180910390fd5b61134584848484611cf3565b50505050565b6113548261096e565b8190610ce55760405162461bcd60e51b81526004018080602001828103825283818151815260200191508051906020019080838360005b838110156113a357818101518382015260200161138b565b50505050905090810190601f1680156113d05780820380516001836020036101000a031916815260200191505b509250505060405180910390fd5b6000838152600e60205260409020546001600160a01b039081169085168114156114085750611345565b600061141385610e27565b9050856001600160a01b0316816001600160a01b0316141561147c576040805162461bcd60e51b815260206004820152601d60248201527f4552433732313a206c6f636b20746f2063757272656e74206f776e6572000000604482015290519081900360640190fd5b6001600160a01b038616611560576114926116a2565b6001600160a01b0316826001600160a01b0316146114f7576040805162461bcd60e51b815260206004820152601c60248201527f4552433732313a20756e6c6f636b206e6f207065726d697373696f6e00000000604482015290519081900360640190fd5b6000858152600e602090815260409182902080546001600160a01b031916905581516001600160a01b038481168252891691810191909152815187927f42c1e6002dbcaf45b718b520a86c5d84d0f3d892580ea422f0486fdf73daf85c928290030190a2610f16565b6115686116a2565b6001600160a01b0316816001600160a01b0316148061158e575061158e81610c9b6116a2565b6115c95760405162461bcd60e51b8152600401808060200182810382526033815260200180612fac6033913960400191505060405180910390fd5b610f16868686866119d7565b6060610de182611d46565b6001600160a01b03918216600090815260096020908152604080832093909416825291909152205460ff1690565b6003546001600160a01b031690565b6000610de1600683611fed565b6000610d506116a2565b600081815260086020526040902080546001600160a01b0319166001600160a01b038416908117909155819061166982610e27565b6001600160a01b03167f8c5be1e5ebec7d5bd14f71427d1e84f3dd0314c0f7b2291e5b200ac8c7c3b92560405160405180910390a45050565b3390565b60006116b18261161d565b6116ec5760405162461bcd60e51b8152600401808060200182810382526044815260200180612c746044913960600191505060405180910390fd5b6000828152600e60205260409020546001600160a01b03161561172c57506000818152600e60205260409020546001600160a01b03838116911614610de1565b600061173783610e27565b9050806001600160a01b0316846001600160a01b031614806117725750836001600160a01b031661176784610a27565b6001600160a01b0316145b80611782575061178281856115e0565b915050610de1565b6117938261161d565b6117ce5760405162461bcd60e51b815260040180806020018281038252602c815260200180612e08602c913960400191505060405180910390fd5b6000828152600c602090815260409091208251610ce592840190612b59565b6000610de182611ff9565b836001600160a01b031661180b83610e27565b6001600160a01b0316146118505760405162461bcd60e51b8152600401808060200182810382526029815260200180612e9a6029913960400191505060405180910390fd5b6001600160a01b0383166118955760405162461bcd60e51b8152600401808060200182810382526024815260200180612cb86024913960400191505060405180910390fd5b6118a184848484611345565b6118ac600083611634565b6001600160a01b03841660009081526005602052604090206118ce9083611ffd565b506001600160a01b03831660009081526005602052604090206118f19083612009565b506118fe60068385612015565b5081836001600160a01b0316856001600160a01b03167fddf252ad1be2c89b69c2b068fc378daa952ba7f163c4a11628f55a4df523b3ef60405160405180910390a450505050565b6000610dde838361202b565b6000808080611961868661208f565b9097909650945050505050565b600061197b84848461210a565b90505b9392505050565b61198f8383612197565b61199c60008484846122d5565b610ce55760405162461bcd60e51b8152600401808060200182810382526032815260200180612c426032913960400191505060405180910390fd5b6000838152600e6020526040812080546001600160a01b0319166001600160a01b038716179055611a0784610e27565b9050611a4b81868686868080601f01602080910402602001604051908101604052809392919081815260200183838082843760009201919091525061242492505050565b611a865760405162461bcd60e51b8152600401808060200182810382526036815260200180612f766036913960400191505060405180910390fd5b604080516001600160a01b03808416825287166020820152815186927f42c1e6002dbcaf45b718b520a86c5d84d0f3d892580ea422f0486fdf73daf85c928290030190a25050505050565b6001600160a01b03811615611b7a57611af2816001600160a01b031661255c565b15611b7a576040805163c64df69d60e01b8152630ddf27bf60e01b60048201818152602483019384526038604484018190526001600160a01b0386169463c64df69d949091606490910190612e3482396040019250505060006040518083038186803b158015611b6157600080fd5b505afa158015611b75573d6000803e3d6000fd5b505050505b600280546001600160a01b0319166001600160a01b0392909216919091179055565b600054600160a81b900460ff1680611bb75750611bb7612595565b80611bcc5750600054600160a01b900460ff16155b611c075760405162461bcd60e51b815260040180806020018281038252602e815260200180612e6c602e913960400191505060405180910390fd5b600054600160a81b900460ff16158015611c3e576000805460ff60a01b1960ff60a81b19909116600160a81b1716600160a01b1790555b611c4984848461259b565b611c53838461266d565b8015611345576000805460ff60a81b1916905550505050565b6001600160e01b03198082161415611ccb576040805162461bcd60e51b815260206004820152601c60248201527f4552433136353a20696e76616c696420696e7465726661636520696400000000604482015290519081900360640190fd5b6001600160e01b0319166000908152600160208190526040909120805460ff19169091179055565b611cff848484846117f8565b611d0b848484846122d5565b6113455760405162461bcd60e51b8152600401808060200182810382526032815260200180612c426032913960400191505060405180910390fd5b6060611d518261161d565b611d8c5760405162461bcd60e51b815260040180806020018281038252602f815260200180612ec3602f913960400191505060405180910390fd5b6000828152600c602090815260409182902080548351601f6002600019610100600186161502019093169290920491820184900484028101840190945280845260609392830182828015611e215780601f10611df657610100808354040283529160200191611e21565b820191906000526020600020905b815481529060010190602001808311611e0457829003601f168201915b5050600d5493945050505060026000196101006001841615020190911604611e4a57905061098c565b805115611f1b57600d816040516020018083805460018160011615610100020316600290048015611eb25780601f10611e90576101008083540402835291820191611eb2565b820191906000526020600020905b815481529060010190602001808311611e9e575b5050825160208401908083835b60208310611ede5780518252601f199092019160209182019101611ebf565b6001836020036101000a0380198251168184511680821785525050505050509050019250505060405160208183030381529060405291505061098c565b600d611f26846126c5565b6040516020018083805460018160011615610100020316600290048015611f845780601f10611f62576101008083540402835291820191611f84565b820191906000526020600020905b815481529060010190602001808311611f70575b5050825160208401908083835b60208310611fb05780518252601f199092019160209182019101611f91565b6001836020036101000a03801982511681845116808217855250505050505090500192505050604051602081830303815290604052915050919050565b6000610dde83836127a0565b5490565b6000610dde83836127b8565b6000610dde838361287e565b600061197b84846001600160a01b0385166128c8565b8154600090821061206d5760405162461bcd60e51b8152600401808060200182810382526022815260200180612bed6022913960400191505060405180910390fd5b82600001828154811061207c57fe5b9060005260206000200154905092915050565b8154600090819083106120d35760405162461bcd60e51b8152600401808060200182810382526022815260200180612dba6022913960400191505060405180910390fd5b60008460000184815481106120e457fe5b906000526020600020906002020190508060000154816001015492509250509250929050565b600082815260018401602052604081205482816121685760405162461bcd60e51b81526020600482018181528351602484015283519092839260449091019190850190808383600083156113a357818101518382015260200161138b565b5084600001600182038154811061217b57fe5b9060005260206000209060020201600101549150509392505050565b6001600160a01b0382166121f2576040805162461bcd60e51b815260206004820181905260248201527f4552433732313a206d696e7420746f20746865207a65726f2061646472657373604482015290519081900360640190fd5b6121fb8161161d565b1561224d576040805162461bcd60e51b815260206004820152601c60248201527f4552433732313a20746f6b656e20616c7265616479206d696e74656400000000604482015290519081900360640190fd5b6122696000838360405180602001604052806000815250611345565b6001600160a01b038216600090815260056020526040902061228b9082612009565b5061229860068284612015565b5060405181906001600160a01b038416906000907fddf252ad1be2c89b69c2b068fc378daa952ba7f163c4a11628f55a4df523b3ef908290a45050565b60006122e9846001600160a01b031661255c565b6122f55750600161241c565b6060630a85bd0160e11b61230761162a565b87868660405160240180856001600160a01b03168152602001846001600160a01b0316815260200183815260200180602001828103825283818151815260200191508051906020019080838360005b8381101561236e578181015183820152602001612356565b50505050905090810190601f16801561239b5780820380516001836020036101000a031916815260200191505b5095505050505050604051602081830303815290604052906001600160e01b0319166020820180516001600160e01b038381831617835250505050905063150b7a0260e01b6001600160e01b03191661240d8683604051806060016040528060328152602001612c426032913961295f565b6001600160e01b031916149150505b949350505050565b6000612438846001600160a01b031661255c565b6124445750600161241c565b6060637e15432560e01b6124566116a2565b87868660405160240180856001600160a01b03168152602001846001600160a01b0316815260200183815260200180602001828103825283818151815260200191508051906020019080838360005b838110156124bd5781810151838201526020016124a5565b50505050905090810190601f1680156124ea5780820380516001836020036101000a031916815260200191505b5095505050505050604051602081830303815290604052906001600160e01b0319166020820180516001600160e01b0383818316178352505050509050637e15432560e01b6001600160e01b03191661240d8683604051806060016040528060328152602001612f446032913961295f565b6000813f7fc5d2460186f7233c927e7db2dcc703c0e500b653ca82273b7bfad8045d85a47081811480159061241c575050151592915050565b303b1590565b6125a3612a87565b6125b36336c6362d60e01b611c6c565b6040805163c64df69d60e01b81526363daa99b60e11b60048201818152602483019384526032604484018190526001600160a01b0388169463c64df69d949091606490910190612cdc82396040019250505060006040518083038186803b15801561261d57600080fd5b505afa158015612631573d6000803e3d6000fd5b5050600380546001600160a01b0319166001600160a01b03871617905550508151612663906004906020850190612b59565b50610ce581611ad1565b815161268090600a906020850190612b59565b50805161269490600b906020840190612b59565b506126a56380ac58cd60e01b612b50565b6126b5635b5e139f60e01b612b50565b610d4063780e9d6360e01b612b50565b6060816126ea57506040805180820190915260018152600360fc1b602082015261098c565b8160005b811561270257600101600a820491506126ee565b60608167ffffffffffffffff8111801561271b57600080fd5b506040519080825280601f01601f191660200182016040528015612746576020820181803683370190505b50859350905060001982015b831561279757600a840660300160f81b8282806001900393508151811061277557fe5b60200101906001600160f81b031916908160001a905350600a84049350612752565b50949350505050565b60009081526001919091016020526040902054151590565b6000818152600183016020526040812054801561287457835460001980830191908101906000908790839081106127eb57fe5b906000526020600020015490508087600001848154811061280857fe5b60009182526020808320909101929092558281526001898101909252604090209084019055865487908061283857fe5b60019003818190600052602060002001600090559055866001016000878152602001908152602001600020600090556001945050505050610de1565b6000915050610de1565b600061288a83836127a0565b6128c057508154600181810184556000848152602080822090930184905584548482528286019093526040902091909155610de1565b506000610de1565b60008281526001840160205260408120548061292d57505060408051808201825283815260208082018481528654600181810189556000898152848120955160029093029095019182559151908201558654868452818801909252929091205561197e565b8285600001600183038154811061294057fe5b906000526020600020906002020160010181905550600091505061197e565b6000806060856001600160a01b0316856040518082805190602001908083835b6020831061299e5780518252601f19909201916020918201910161297f565b6001836020036101000a0380198251168184511680821785525050505050509050019150506000604051808303816000865af19150503d8060008114612a00576040519150601f19603f3d011682016040523d82523d6000602084013e612a05565b606091505b509150915081612a6657805115612a1f5780518082602001fd5b60405162461bcd60e51b81526020600482018181528651602484015286518793919283926044019190850190808383600083156113a357818101518382015260200161138b565b808060200190516020811015612a7b57600080fd5b5051925061197e915050565b600054600160a81b900460ff1680612aa25750612aa2612595565b80612ab75750600054600160a01b900460ff16155b612af25760405162461bcd60e51b815260040180806020018281038252602e815260200180612e6c602e913960400191505060405180910390fd5b600054600160a81b900460ff16158015612b29576000805460ff60a01b1960ff60a81b19909116600160a81b1716600160a01b1790555b612b396301ffc9a760e01b611c6c565b8015612b4d576000805460ff60a81b191690555b50565b612b4d81611c6c565b828054600181600116156101000203166002900490600052602060002090601f016020900481019282601f10612b9a57805160ff1916838001178555612bc7565b82800160010185558215612bc7579182015b82811115612bc7578251825591602001919060010190612bac565b50612bd3929150612bd7565b5090565b5b80821115612bd35760008155600101612bd856fe456e756d657261626c655365743a20696e646578206f7574206f6620626f756e6473234465706172746d656e74234f6e6c7944414f2063616c6c657220646f6573206e6f742068617665207065726d697373696f6e4552433732313a207472616e7366657220746f206e6f6e20455243373231526563656976657220696d706c656d656e74657223455243373231235f686176655065726d697373696f6e204552433732313a206f70657261746f7220717565727920666f72206e6f6e6578697374656e7420746f6b656e4552433732313a207472616e7366657220746f20746865207a65726f2061646472657373234465706172746d656e7423696e69744465706172746d656e742064616f20686f73742074797065206e6f74206d617463684552433732313a20617070726f76652063616c6c6572206973206e6f74206f776e6572206e6f7220617070726f76656420666f7220616c6c234e46547323736574546f6b656e5552493a206f776e6572206e6f206d617463684552433732313a2062616c616e636520717565727920666f7220746865207a65726f20616464726573734552433732313a206f776e657220717565727920666f72206e6f6e6578697374656e7420746f6b656e456e756d657261626c654d61703a20696e646578206f7574206f6620626f756e64734552433732313a20617070726f76656420717565727920666f72206e6f6e6578697374656e7420746f6b656e4552433732314d657461646174613a2055524920736574206f66206e6f6e6578697374656e7420746f6b656e234465706172746d656e74237365744f70657261746f725f696e7465726e616c206f70657261746f722074797065206e6f74206d61746368436f6e747261637420696e7374616e63652068617320616c7265616479206265656e20696e697469616c697a65644552433732313a207472616e73666572206f6620746f6b656e2074686174206973206e6f74206f776e4552433732314d657461646174613a2055524920717565727920666f72206e6f6e6578697374656e7420746f6b656e4552433732313a20617070726f76616c20746f2063757272656e74206f776e65724552433732313a207472616e736665722063616c6c6572206973206e6f74206f776e6572206e6f7220617070726f7665644552433732313a206c6f636b20746f206e6f6e204552433732314c6f636b526563656976657220696d706c656d656e7465724552433732313a207472616e7366657220746f206e6f6e204552433732314c6f636b526563656976657220696d706c656d656e7465724552433732313a206c6f636b2063616c6c6572206973206e6f74206f776e6572206e6f72206c6f636b656420666f7220616c6ca2646970667358221220f3f35a20f416194b40c6433d9275ee96e4ee98af251260cbfe97f6ec2ae160b064736f6c634300060c0033",
  "immutableReferences": {},
  "source": "\npragma solidity >=0.6.12 <=0.8.15;\n\nimport \"./ERC721.sol\";\n\ncontract Asset is IAsset, ERC721 {\n\n\t// Equals to `bytes4(keccak256(\"onERC721LockReceived(address,address,uint256,bytes)\"))`\n\tbytes4 private constant _ERC721_LOCK_RECEIVED = 0x7e154325;\n\n\t/*\n\t *  bytes4(keccak256('lock(address,uint256,bytes)')) == 0xb88d4fde\n\t *\n\t *  => 0x80ac58cd ^ 0xc792f45d == 0x473eac90\n\t */\n\tbytes4 private constant _INTERFACE_ID_ERC721_LOCK = 0x473eac90;\n\n\t// Mapping from token ID to lock address\n\tmapping (uint256 => address) private _tokenLocks;\n\n\tfunction initAsset(address host, string memory description, address operator) external {\n\t\tinitERC721(host, description, operator);\n\t\t_registerInterface(Asset_ID);\n\t\t_registerInterface(_INTERFACE_ID_ERC721_LOCK);\n\t}\n\n\tfunction safeMint(address to, uint256 tokenId, string memory _tokenURI, address lock, bytes calldata _data) public {\n\t\t_safeMint(to, tokenId, _data);\n\t\t_setTokenURI(tokenId, _tokenURI);\n\n\t\tif (lock != address(0)) {\n\t\t\t_lock(lock, tokenId, _data);\n\t\t}\n\t}\n\n\tfunction _burn(uint256 tokenId) internal virtual override {\n\t\t// NOOP\n\t}\n\n\tfunction setTokenURI(uint256 tokenId, string memory _tokenURI) public {\n\t\trequire(_havePermission(_msgSender(), tokenId), \"#NFTs#setTokenURI: owner no match\");\n\t\t_setTokenURI(tokenId, _tokenURI);\n\t}\n\n\tfunction lock(address to, uint256 tokenId, bytes calldata data) public virtual override {\n\t\taddress locked = _tokenLocks[tokenId];\n\t\tif (locked == to) {\n\t\t\treturn;\n\t\t}\n\n\t\taddress owner = ownerOf(tokenId);\n\t\trequire(owner != to, \"ERC721: lock to current owner\");\n\n\t\tif (to == address(0)) {\n\t\t\trequire(locked == _msgSender(), \"ERC721: unlock no permission\");\n\t\t\tdelete _tokenLocks[tokenId];\n\t\t\temit Lock(tokenId, owner, to);\n\t\t} else {\n\t\t\trequire(owner == _msgSender() || isApprovedForAll(owner, _msgSender()), \"ERC721: lock caller is not owner nor locked for all\");\n\t\t\t_lock(to, tokenId, data);\n\t\t}\n\t}\n\n\tfunction _lock(address to, uint256 tokenId, bytes calldata data) internal {\n\t\t_tokenLocks[tokenId] = to;\n\t\taddress owner = ownerOf(tokenId);\n\t\trequire(_checkOnERC721LockReceived(owner, to, tokenId, data), \"ERC721: transfer to non ERC721LockReceiver implementer\");\n\t\temit Lock(tokenId, owner, to);\n\t}\n\n\tfunction _havePermission(address spender, uint256 tokenId) internal view virtual override returns (bool) {\n\t\trequire(_exists(tokenId), \"#ERC721#_havePermission ERC721: operator query for nonexistent token\");\n\t\tif (_tokenLocks[tokenId] != address(0)) {\n\t\t\treturn _tokenLocks[tokenId] == spender;\n\t\t} else {\n\t\t\taddress owner = ownerOf(tokenId);\n\t\t\treturn (spender == owner || getApproved(tokenId) == spender || isApprovedForAll(owner, spender));\n\t\t}\n\t}\n\n\tfunction _checkOnERC721LockReceived(address from, address to, uint256 tokenId, bytes memory _data) private returns (bool) {\n\t\tif (!to.isContract()) return true;\n\t\tbytes memory data = abi.encodeWithSelector(\n\t\t\tIERC721LockReceiver(to).onERC721LockReceived.selector, _msgSender(), from, tokenId, _data\n\t\t);\n\t\treturn checkCall(to, data, \"ERC721: lock to non ERC721LockReceiver implementer\") == _ERC721_LOCK_RECEIVED;\n\t}\n\n}\n",
  "sourcePath": "/Users/louis/Project/hc/NFTSwap/SmartHolder/contracts/Asset.sol",
  "compiler": {
    "name": "solc",
    "version": "0.6.12+commit.27d51765.Emscripten.clang"
  },
  "schemaVersion": "3.4.8",
  "updatedAt": "2022-08-11T08:04:52.662Z",
  "networkType": "ethereum",
  "devdoc": {
    "kind": "dev",
    "methods": {
      "approve(address,uint256)": {
        "details": "Approves another address to transfer the given token ID The zero address indicates there is no approved address. There can only be one approved address per token at a given time. Can only be called by the token owner or an approved operator.",
        "params": {
          "to": "address to be approved for the given token ID",
          "tokenId": "uint256 ID of the token to be approved"
        }
      },
      "balanceOf(address)": {
        "details": "Gets the balance of the specified address.",
        "params": {
          "owner": "address to query the balance of"
        },
        "returns": {
          "_0": "uint256 representing the amount owned by the passed address"
        }
      },
      "baseURI()": {
        "details": "Returns the base URI set via {_setBaseURI}. This will be automatically added as a prefix in {tokenURI} to each token's URI, or to the token ID if no specific URI is set for that token ID."
      },
      "getApproved(uint256)": {
        "details": "Gets the approved address for a token ID, or zero if no address set Reverts if the token ID does not exist.",
        "params": {
          "tokenId": "uint256 ID of the token to query the approval of"
        },
        "returns": {
          "_0": "address currently approved for the given token ID"
        }
      },
      "isApprovedForAll(address,address)": {
        "details": "Tells whether an operator is approved by a given owner.",
        "params": {
          "operator": "operator address which you want to query the approval of",
          "owner": "owner address which you want to query the approval of"
        },
        "returns": {
          "_0": "bool whether the given operator is approved by the given owner"
        }
      },
      "name()": {
        "details": "Gets the token name.",
        "returns": {
          "_0": "string representing the token name"
        }
      },
      "ownerOf(uint256)": {
        "details": "Gets the owner of the specified token ID.",
        "params": {
          "tokenId": "uint256 ID of the token to query the owner of"
        },
        "returns": {
          "_0": "address currently marked as the owner of the given token ID"
        }
      },
      "safeTransferFrom(address,address,uint256)": {
        "details": "Safely transfers the ownership of a given token ID to another address If the target address is a contract, it must implement {IERC721Receiver-onERC721Received}, which is called upon a safe transfer, and return the magic value `bytes4(keccak256(\"onERC721Received(address,address,uint256,bytes)\"))`; otherwise, the transfer is reverted. Requires the msg.sender to be the owner, approved, or operator",
        "params": {
          "from": "current owner of the token",
          "to": "address to receive the ownership of the given token ID",
          "tokenId": "uint256 ID of the token to be transferred"
        }
      },
      "safeTransferFrom(address,address,uint256,bytes)": {
        "details": "Safely transfers the ownership of a given token ID to another address If the target address is a contract, it must implement {IERC721Receiver-onERC721Received}, which is called upon a safe transfer, and return the magic value `bytes4(keccak256(\"onERC721Received(address,address,uint256,bytes)\"))`; otherwise, the transfer is reverted. Requires the _msgSender() to be the owner, approved, or operator",
        "params": {
          "_data": "bytes data to send along with a safe transfer check",
          "from": "current owner of the token",
          "to": "address to receive the ownership of the given token ID",
          "tokenId": "uint256 ID of the token to be transferred"
        }
      },
      "setApprovalForAll(address,bool)": {
        "details": "Sets or unsets the approval of a given operator An operator is allowed to transfer all tokens of the sender on their behalf.",
        "params": {
          "approved": "representing the status of the approval to be set",
          "operator": "operator address to set the approval"
        }
      },
      "supportsInterface(bytes4)": {
        "details": "See {IERC165-supportsInterface}. Time complexity O(1), guaranteed to always use less than 30 000 gas."
      },
      "symbol()": {
        "details": "Gets the token symbol.",
        "returns": {
          "_0": "string representing the token symbol"
        }
      },
      "tokenByIndex(uint256)": {
        "details": "Gets the token ID at a given index of all the tokens in this contract Reverts if the index is greater or equal to the total number of tokens.",
        "params": {
          "index": "uint256 representing the index to be accessed of the tokens list"
        },
        "returns": {
          "_0": "uint256 token ID at the given index of the tokens list"
        }
      },
      "tokenOfOwnerByIndex(address,uint256)": {
        "details": "Gets the token ID at a given index of the tokens list of the requested owner.",
        "params": {
          "index": "uint256 representing the index to be accessed of the requested tokens list",
          "owner": "address owning the tokens list to be accessed"
        },
        "returns": {
          "_0": "uint256 token ID at the given index of the tokens list owned by the requested address"
        }
      },
      "totalSupply()": {
        "details": "Gets the total amount of tokens stored by the contract.",
        "returns": {
          "_0": "uint256 representing the total amount of tokens"
        }
      },
      "transferFrom(address,address,uint256)": {
        "details": "Transfers the ownership of a given token ID to another address. Usage of this method is discouraged, use {safeTransferFrom} whenever possible. Requires the msg.sender to be the owner, approved, or operator.",
        "params": {
          "from": "current owner of the token",
          "to": "address to receive the ownership of the given token ID",
          "tokenId": "uint256 ID of the token to be transferred"
        }
      }
    },
    "version": 1
  },
  "userdoc": {
    "kind": "user",
    "methods": {},
    "version": 1
  }
}