{
  "contractName": "AssetGlobal",
  "abi": [
    {
      "anonymous": false,
      "inputs": [
        {
          "indexed": true,
          "internalType": "address",
          "name": "owner",
          "type": "address"
        },
        {
          "indexed": true,
          "internalType": "address",
          "name": "approved",
          "type": "address"
        },
        {
          "indexed": true,
          "internalType": "uint256",
          "name": "tokenId",
          "type": "uint256"
        }
      ],
      "name": "Approval",
      "type": "event"
    },
    {
      "anonymous": false,
      "inputs": [
        {
          "indexed": true,
          "internalType": "address",
          "name": "owner",
          "type": "address"
        },
        {
          "indexed": true,
          "internalType": "address",
          "name": "operator",
          "type": "address"
        },
        {
          "indexed": false,
          "internalType": "bool",
          "name": "approved",
          "type": "bool"
        }
      ],
      "name": "ApprovalForAll",
      "type": "event"
    },
    {
      "anonymous": false,
      "inputs": [
        {
          "indexed": true,
          "internalType": "address",
          "name": "from",
          "type": "address"
        },
        {
          "indexed": true,
          "internalType": "address",
          "name": "to",
          "type": "address"
        },
        {
          "indexed": true,
          "internalType": "uint256",
          "name": "tokenId",
          "type": "uint256"
        }
      ],
      "name": "Transfer",
      "type": "event"
    },
    {
      "inputs": [
        {
          "internalType": "address",
          "name": "to",
          "type": "address"
        },
        {
          "internalType": "uint256",
          "name": "tokenId",
          "type": "uint256"
        }
      ],
      "name": "approve",
      "outputs": [],
      "stateMutability": "nonpayable",
      "type": "function"
    },
    {
      "inputs": [
        {
          "internalType": "address",
          "name": "owner",
          "type": "address"
        }
      ],
      "name": "balanceOf",
      "outputs": [
        {
          "internalType": "uint256",
          "name": "",
          "type": "uint256"
        }
      ],
      "stateMutability": "view",
      "type": "function",
      "constant": true
    },
    {
      "inputs": [],
      "name": "baseURI",
      "outputs": [
        {
          "internalType": "string",
          "name": "",
          "type": "string"
        }
      ],
      "stateMutability": "view",
      "type": "function",
      "constant": true
    },
    {
      "inputs": [
        {
          "internalType": "bytes4",
          "name": "interfaceId",
          "type": "bytes4"
        },
        {
          "internalType": "string",
          "name": "message",
          "type": "string"
        }
      ],
      "name": "checkInterface",
      "outputs": [],
      "stateMutability": "view",
      "type": "function",
      "constant": true
    },
    {
      "inputs": [],
      "name": "describe",
      "outputs": [
        {
          "internalType": "string",
          "name": "",
          "type": "string"
        }
      ],
      "stateMutability": "view",
      "type": "function",
      "constant": true
    },
    {
      "inputs": [
        {
          "internalType": "uint256",
          "name": "tokenId",
          "type": "uint256"
        }
      ],
      "name": "getApproved",
      "outputs": [
        {
          "internalType": "address",
          "name": "",
          "type": "address"
        }
      ],
      "stateMutability": "view",
      "type": "function",
      "constant": true
    },
    {
      "inputs": [],
      "name": "host",
      "outputs": [
        {
          "internalType": "contract IDAO",
          "name": "",
          "type": "address"
        }
      ],
      "stateMutability": "view",
      "type": "function",
      "constant": true
    },
    {
      "inputs": [],
      "name": "impl",
      "outputs": [
        {
          "internalType": "address",
          "name": "",
          "type": "address"
        }
      ],
      "stateMutability": "view",
      "type": "function",
      "constant": true
    },
    {
      "inputs": [
        {
          "internalType": "address",
          "name": "owner",
          "type": "address"
        },
        {
          "internalType": "address",
          "name": "operator",
          "type": "address"
        }
      ],
      "name": "isApprovedForAll",
      "outputs": [
        {
          "internalType": "bool",
          "name": "",
          "type": "bool"
        }
      ],
      "stateMutability": "view",
      "type": "function",
      "constant": true
    },
    {
      "inputs": [],
      "name": "name",
      "outputs": [
        {
          "internalType": "string",
          "name": "",
          "type": "string"
        }
      ],
      "stateMutability": "view",
      "type": "function",
      "constant": true
    },
    {
      "inputs": [],
      "name": "operator",
      "outputs": [
        {
          "internalType": "contract IVotePool",
          "name": "",
          "type": "address"
        }
      ],
      "stateMutability": "view",
      "type": "function",
      "constant": true
    },
    {
      "inputs": [
        {
          "internalType": "uint256",
          "name": "tokenId",
          "type": "uint256"
        }
      ],
      "name": "ownerOf",
      "outputs": [
        {
          "internalType": "address",
          "name": "",
          "type": "address"
        }
      ],
      "stateMutability": "view",
      "type": "function",
      "constant": true
    },
    {
      "inputs": [
        {
          "internalType": "address",
          "name": "from",
          "type": "address"
        },
        {
          "internalType": "address",
          "name": "to",
          "type": "address"
        },
        {
          "internalType": "uint256",
          "name": "tokenId",
          "type": "uint256"
        }
      ],
      "name": "safeTransferFrom",
      "outputs": [],
      "stateMutability": "nonpayable",
      "type": "function"
    },
    {
      "inputs": [
        {
          "internalType": "address",
          "name": "from",
          "type": "address"
        },
        {
          "internalType": "address",
          "name": "to",
          "type": "address"
        },
        {
          "internalType": "uint256",
          "name": "tokenId",
          "type": "uint256"
        },
        {
          "internalType": "bytes",
          "name": "_data",
          "type": "bytes"
        }
      ],
      "name": "safeTransferFrom",
      "outputs": [],
      "stateMutability": "nonpayable",
      "type": "function"
    },
    {
      "inputs": [
        {
          "internalType": "address",
          "name": "operator",
          "type": "address"
        },
        {
          "internalType": "bool",
          "name": "approved",
          "type": "bool"
        }
      ],
      "name": "setApprovalForAll",
      "outputs": [],
      "stateMutability": "nonpayable",
      "type": "function"
    },
    {
      "inputs": [
        {
          "internalType": "address",
          "name": "vote",
          "type": "address"
        }
      ],
      "name": "setOperator",
      "outputs": [],
      "stateMutability": "nonpayable",
      "type": "function"
    },
    {
      "inputs": [
        {
          "internalType": "bytes4",
          "name": "interfaceId",
          "type": "bytes4"
        }
      ],
      "name": "supportsInterface",
      "outputs": [
        {
          "internalType": "bool",
          "name": "",
          "type": "bool"
        }
      ],
      "stateMutability": "view",
      "type": "function",
      "constant": true
    },
    {
      "inputs": [],
      "name": "symbol",
      "outputs": [
        {
          "internalType": "string",
          "name": "",
          "type": "string"
        }
      ],
      "stateMutability": "view",
      "type": "function",
      "constant": true
    },
    {
      "inputs": [
        {
          "internalType": "uint256",
          "name": "index",
          "type": "uint256"
        }
      ],
      "name": "tokenByIndex",
      "outputs": [
        {
          "internalType": "uint256",
          "name": "",
          "type": "uint256"
        }
      ],
      "stateMutability": "view",
      "type": "function",
      "constant": true
    },
    {
      "inputs": [
        {
          "internalType": "address",
          "name": "owner",
          "type": "address"
        },
        {
          "internalType": "uint256",
          "name": "index",
          "type": "uint256"
        }
      ],
      "name": "tokenOfOwnerByIndex",
      "outputs": [
        {
          "internalType": "uint256",
          "name": "",
          "type": "uint256"
        }
      ],
      "stateMutability": "view",
      "type": "function",
      "constant": true
    },
    {
      "inputs": [
        {
          "internalType": "uint256",
          "name": "tokenId",
          "type": "uint256"
        }
      ],
      "name": "tokenURI",
      "outputs": [
        {
          "internalType": "string",
          "name": "",
          "type": "string"
        }
      ],
      "stateMutability": "view",
      "type": "function",
      "constant": true
    },
    {
      "inputs": [],
      "name": "totalSupply",
      "outputs": [
        {
          "internalType": "uint256",
          "name": "",
          "type": "uint256"
        }
      ],
      "stateMutability": "view",
      "type": "function",
      "constant": true
    },
    {
      "inputs": [
        {
          "internalType": "address",
          "name": "from",
          "type": "address"
        },
        {
          "internalType": "address",
          "name": "to",
          "type": "address"
        },
        {
          "internalType": "uint256",
          "name": "tokenId",
          "type": "uint256"
        }
      ],
      "name": "transferFrom",
      "outputs": [],
      "stateMutability": "nonpayable",
      "type": "function"
    },
    {
      "inputs": [
        {
          "internalType": "address",
          "name": "impl",
          "type": "address"
        }
      ],
      "name": "upgrade",
      "outputs": [],
      "stateMutability": "nonpayable",
      "type": "function"
    },
    {
      "inputs": [
        {
          "internalType": "address",
          "name": "host",
          "type": "address"
        },
        {
          "internalType": "string",
          "name": "describe",
          "type": "string"
        },
        {
          "internalType": "address",
          "name": "operator",
          "type": "address"
        }
      ],
      "name": "initAssetGlobal",
      "outputs": [],
      "stateMutability": "nonpayable",
      "type": "function"
    },
    {
      "inputs": [
        {
          "internalType": "address",
          "name": "operator",
          "type": "address"
        },
        {
          "internalType": "address",
          "name": "from",
          "type": "address"
        },
        {
          "internalType": "uint256",
          "name": "tokenId",
          "type": "uint256"
        },
        {
          "internalType": "bytes",
          "name": "data",
          "type": "bytes"
        }
      ],
      "name": "onERC721Received",
      "outputs": [
        {
          "internalType": "bytes4",
          "name": "",
          "type": "bytes4"
        }
      ],
      "stateMutability": "nonpayable",
      "type": "function"
    },
    {
      "inputs": [
        {
          "internalType": "address",
          "name": "operator",
          "type": "address"
        },
        {
          "internalType": "address",
          "name": "from",
          "type": "address"
        },
        {
          "internalType": "uint256",
          "name": "tokenId",
          "type": "uint256"
        },
        {
          "internalType": "bytes",
          "name": "data",
          "type": "bytes"
        }
      ],
      "name": "onERC721LockReceived",
      "outputs": [
        {
          "internalType": "bytes4",
          "name": "",
          "type": "bytes4"
        }
      ],
      "stateMutability": "nonpayable",
      "type": "function"
    },
    {
      "inputs": [
        {
          "internalType": "address",
          "name": "metaToken",
          "type": "address"
        },
        {
          "internalType": "uint256",
          "name": "metaTokenId",
          "type": "uint256"
        }
      ],
      "name": "convertTokenID",
      "outputs": [
        {
          "internalType": "uint256",
          "name": "",
          "type": "uint256"
        }
      ],
      "stateMutability": "pure",
      "type": "function",
      "constant": true
    },
    {
      "inputs": [
        {
          "internalType": "uint256",
          "name": "tokenId",
          "type": "uint256"
        }
      ],
      "name": "assetMeta",
      "outputs": [
        {
          "components": [
            {
              "internalType": "address",
              "name": "token",
              "type": "address"
            },
            {
              "internalType": "uint256",
              "name": "tokenId",
              "type": "uint256"
            },
            {
              "internalType": "enum IAssetGlobal.Kind",
              "name": "kind",
              "type": "uint8"
            }
          ],
          "internalType": "struct IAssetGlobal.AssetID",
          "name": "",
          "type": "tuple"
        }
      ],
      "stateMutability": "view",
      "type": "function",
      "constant": true
    },
    {
      "inputs": [
        {
          "internalType": "address",
          "name": "metaToken",
          "type": "address"
        },
        {
          "internalType": "uint256",
          "name": "metaTokenId",
          "type": "uint256"
        }
      ],
      "name": "unlock",
      "outputs": [],
      "stateMutability": "nonpayable",
      "type": "function"
    },
    {
      "inputs": [
        {
          "internalType": "uint256",
          "name": "tokenId",
          "type": "uint256"
        }
      ],
      "name": "withdraw",
      "outputs": [],
      "stateMutability": "nonpayable",
      "type": "function"
    }
  ],
  "bytecode": "0x608060405234801561001057600080fd5b5061316c806100206000396000f3fe608060405234801561001057600080fd5b50600436106101e55760003560e01c80636c0360eb1161010f578063a22cb465116100a2578063c87b56dd11610071578063c87b56dd146103ea578063e985e9c5146103fd578063f437bc5914610410578063f9b62b7a14610418576101e5565b8063a22cb4651461039e578063b3ab15fb146103b1578063b88d4fde146103c4578063c64df69d146103d7576101e5565b80637eee288d116100de5780637eee288d146103685780638abf60771461037b57806391d818891461038357806395d89b4114610396576101e5565b80636c0360eb1461032757806370a082311461032f578063711cc62c146103425780637e15432514610355576101e5565b80631ad184ff1161018757806342842e0e1161015657806342842e0e146102e65780634f6ccce7146102f9578063570ca7351461030c5780636352211e14610314576101e5565b80631ad184ff146102a557806323b872dd146102ad5780632e1a7d4d146102c05780632f745c59146102d3576101e5565b80630900f010116101c35780630900f01014610248578063095ea7b31461025d578063150b7a021461027057806318160ddd14610290576101e5565b806301ffc9a7146101ea57806306fdde0314610213578063081812fc14610228575b600080fd5b6101fd6101f8366004612462565b610438565b60405161020a9190612696565b60405180910390f35b61021b610457565b60405161020a919061278b565b61023b610236366004612577565b6104ed565b60405161020a91906125f9565b61025b61025636600461228e565b610539565b005b61025b61026b36600461241b565b6106c4565b61028361027e366004612322565b61075c565b60405161020a91906126a1565b610298610832565b60405161020a9190612f83565b61021b610843565b61025b6102bb3660046122e2565b6108a4565b61025b6102ce366004612577565b6108ec565b6102986102e136600461241b565b610a01565b61025b6102f43660046122e2565b610a2c565b610298610307366004612577565b610a47565b61023b610a5d565b61023b610322366004612577565b610a6c565b61021b610a94565b61029861033d36600461228e565b610af5565b61025b6103503660046123b9565b610b3e565b610283610363366004612322565b610b79565b61025b61037636600461241b565b610c47565b61023b610d32565b61029861039136600461241b565b610d41565b61021b610d75565b61025b6103ac36600461238c565b610dd6565b61025b6103bf36600461228e565b610ea4565b61025b6103d2366004612322565b611019565b61025b6103e536600461249a565b611052565b61021b6103f8366004612577565b61107a565b6101fd61040b3660046122aa565b611085565b61023b6110b3565b61042b610426366004612577565b6110c2565b60405161020a9190612f4b565b6001600160e01b03191660009081526001602052604090205460ff1690565b600a8054604080516020601f60026000196101006001881615020190951694909404938401819004810282018101909252828152606093909290918301828280156104e35780601f106104b8576101008083540402835291602001916104e3565b820191906000526020600020905b8154815290600101906020018083116104c657829003601f168201915b5050505050905090565b60006104f882611152565b61051d5760405162461bcd60e51b815260040161051490612cd5565b60405180910390fd5b506000908152600860205260409020546001600160a01b031690565b60025433906001600160a01b031681146106a157600360009054906101000a90046001600160a01b03166001600160a01b031663570ca7356040518163ffffffff1660e01b815260040160206040518083038186803b15801561059b57600080fd5b505afa1580156105af573d6000803e3d6000fd5b505050506040513d601f19601f820116820180604052508101906105d391906124e8565b6001600160a01b0316816001600160a01b0316146106a157600360009054906101000a90046001600160a01b03166001600160a01b031663ebf0c7176040518163ffffffff1660e01b815260040160206040518083038186803b15801561063957600080fd5b505afa15801561064d573d6000803e3d6000fd5b505050506040513d601f19601f8201168201806040525081019061067191906124e8565b6001600160a01b0316816001600160a01b0316146106a15760405162461bcd60e51b8152600401610514906128e4565b50600080546001600160a01b0319166001600160a01b0392909216919091179055565b60006106cf82610a6c565b9050806001600160a01b0316836001600160a01b031614156107035760405162461bcd60e51b815260040161051490612db8565b806001600160a01b031661071561115f565b6001600160a01b0316148061073157506107318161040b61115f565b61074d5760405162461bcd60e51b815260040161051490612b66565b6107578383611169565b505050565b60008061076f61076a6111d7565b6111db565b9050600061077d8286610d41565b6000818152600e602052604090208054919250906001600160a01b0316156107b75760405162461bcd60e51b815260040161051490612835565b6001600160a01b0387163014156107e05760405162461bcd60e51b815260040161051490612c4f565b80546001600160a01b0319166001600160a01b038416178155600180820187905560028201805460ff19168280021790555061081c8783611207565b50630a85bd0160e11b925050505b949350505050565b600061083e60066112db565b905090565b60048054604080516020601f60026000196101006001881615020190951694909404938401819004810282018101909252828152606093909290918301828280156104e35780601f106104b8576101008083540402835291602001916104e3565b6108b56108af61115f565b826112e6565b6108d15760405162461bcd60e51b815260040161051490612df9565b61075783838360405180602001604052806000815250611363565b6000818152600e6020526040902080546001600160a01b03166109215760405162461bcd60e51b815260040161051490612934565b6001600282015460ff16600181111561093657fe5b146109535760405162461bcd60e51b81526004016105149061279e565b600061095e83610a6c565b82546001840154604051632142170760e11b81529293506001600160a01b03909116916342842e0e916109979130918691600401612635565b600060405180830381600087803b1580156109b157600080fd5b505af11580156109c5573d6000803e3d6000fd5b5050506000848152600e6020526040812080546001600160a01b03191681556001810191909155600201805460ff191690555061075783611473565b6001600160a01b0382166000908152600560205260408120610a239083611550565b90505b92915050565b61075783838360405180602001604052806000815250611019565b600080610a5560068461155c565b509392505050565b6002546001600160a01b031690565b6000610a26826040518060600160405280602981526020016130c36029913960069190611578565b600d8054604080516020601f60026000196101006001881615020190951694909404938401819004810282018101909252828152606093909290918301828280156104e35780601f106104b8576101008083540402835291602001916104e3565b60006001600160a01b038216610b1d5760405162461bcd60e51b815260040161051490612bc3565b6001600160a01b0382166000908152600560205260409020610a26906112db565b610b4983838361158f565b610b59631c47318b60e21b611640565b610b69630a85bd0160e11b611640565b610757637e15432560e01b611640565b600080610b8c610b876111d7565b611692565b90506000610b9a8286610d41565b6000818152600e602052604090208054919250906001600160a01b031615610bd45760405162461bcd60e51b815260040161051490612b09565b6001600160a01b038716301415610bfd5760405162461bcd60e51b815260040161051490612e4a565b80546001600160a01b0319166001600160a01b0384161781556001810186905560028101805460ff19169055610c338783611207565b50637e15432560e01b979650505050505050565b6000610c538383610d41565b6000838152600e602052604090208054919250906001600160a01b0316610c8c5760405162461bcd60e51b815260040161051490612a6f565b8054600182015460405163c792f45d60e01b81526001600160a01b039092169163c792f45d91610cc2916000919060040161260d565b600060405180830381600087803b158015610cdc57600080fd5b505af1158015610cf0573d6000803e3d6000fd5b5050506000838152600e6020526040812080546001600160a01b03191681556001810191909155600201805460ff1916905550610d2c82611473565b50505050565b6000546001600160a01b031690565b60008282604051602001610d569291906125bb565b60408051601f1981840301815291905280516020909101209392505050565b600b8054604080516020601f60026000196101006001881615020190951694909404938401819004810282018101909252828152606093909290918301828280156104e35780601f106104b8576101008083540402835291602001916104e3565b610dde61115f565b6001600160a01b0316826001600160a01b03161415610e0f5760405162461bcd60e51b815260040161051490612a38565b8060096000610e1c61115f565b6001600160a01b03908116825260208083019390935260409182016000908120918716808252919093529120805460ff191692151592909217909155610e6061115f565b6001600160a01b03167f17307eab39ab6107e8899845ad3d59bd9653f200f220920489ca2b5937696c3183604051610e989190612696565b60405180910390a35050565b60025433906001600160a01b0316811461100c57600360009054906101000a90046001600160a01b03166001600160a01b031663570ca7356040518163ffffffff1660e01b815260040160206040518083038186803b158015610f0657600080fd5b505afa158015610f1a573d6000803e3d6000fd5b505050506040513d601f19601f82011682018060405250810190610f3e91906124e8565b6001600160a01b0316816001600160a01b03161461100c57600360009054906101000a90046001600160a01b03166001600160a01b031663ebf0c7176040518163ffffffff1660e01b815260040160206040518083038186803b158015610fa457600080fd5b505afa158015610fb8573d6000803e3d6000fd5b505050506040513d601f19601f82011682018060405250810190610fdc91906124e8565b6001600160a01b0316816001600160a01b03161461100c5760405162461bcd60e51b8152600401610514906128e4565b611015826116be565b5050565b61102a61102461115f565b836112e6565b6110465760405162461bcd60e51b815260040161051490612df9565b610d2c8484848461176a565b61105b82610438565b81906107575760405162461bcd60e51b8152600401610514919061278b565b6060610a268261179e565b6001600160a01b03918216600090815260096020908152604080832093909416825291909152205460ff1690565b6003546001600160a01b031690565b6110ca612146565b6000828152600e6020526040902080546001600160a01b03166110ff5760405162461bcd60e51b815260040161051490612a6f565b6040805160608101825282546001600160a01b0316815260018084015460208301526002840154919284929084019160ff9091169081111561113d57fe5b600181111561114857fe5b9052509392505050565b6000610a2660068361183a565b600061083e6111d7565b600081815260086020526040902080546001600160a01b0319166001600160a01b038416908117909155819061119e82610a6c565b6001600160a01b03167f8c5be1e5ebec7d5bd14f71427d1e84f3dd0314c0f7b2291e5b200ac8c7c3b92560405160405180910390a45050565b3390565b6000610a26826380ac58cd60e01b6040518060800160405280604b81526020016130ec604b9139611846565b6001600160a01b03821661122d5760405162461bcd60e51b815260040161051490612ca0565b61123681611152565b156112535760405162461bcd60e51b8152600401610514906129bd565b61126f600083836040518060200160405280600081525061191a565b6001600160a01b03821660009081526005602052604090206112919082611a01565b5061129e60068284611a0d565b5060405181906001600160a01b038416906000907fddf252ad1be2c89b69c2b068fc378daa952ba7f163c4a11628f55a4df523b3ef908290a45050565b6000610a2682611a23565b60006112f182611152565b61130d5760405162461bcd60e51b815260040161051490612abd565b600061131883610a6c565b9050806001600160a01b0316846001600160a01b031614806113535750836001600160a01b0316611348846104ed565b6001600160a01b0316145b8061082a575061082a8185611085565b836001600160a01b031661137683610a6c565b6001600160a01b03161461139c5760405162461bcd60e51b815260040161051490612d6f565b6001600160a01b0383166113c25760405162461bcd60e51b8152600401610514906129f4565b6113ce8484848461191a565b6113d9600083611169565b6001600160a01b03841660009081526005602052604090206113fb9083611a27565b506001600160a01b038316600090815260056020526040902061141e9083611a01565b5061142b60068385611a0d565b5081836001600160a01b0316856001600160a01b03167fddf252ad1be2c89b69c2b068fc378daa952ba7f163c4a11628f55a4df523b3ef60405160405180910390a450505050565b600061147e82610a6c565b905061149c816000846040518060200160405280600081525061191a565b6114a7600083611169565b6000828152600c602052604090205460026000196101006001841615020190911604156114e5576000828152600c602052604081206114e591612164565b6001600160a01b03811660009081526005602052604090206115079083611a27565b50611513600683611a33565b5060405182906000906001600160a01b038416907fddf252ad1be2c89b69c2b068fc378daa952ba7f163c4a11628f55a4df523b3ef908390a45050565b6000610a238383611a3f565b600080808061156b8686611a84565b9097909650945050505050565b6000611585848484611ae0565b90505b9392505050565b600054600160a81b900460ff16806115aa57506115aa611b3f565b806115bf5750600054600160a01b900460ff16155b6115db5760405162461bcd60e51b815260040161051490612d21565b600054600160a81b900460ff16158015611612576000805460ff60a01b1960ff60a81b19909116600160a81b1716600160a01b1790555b61161d848484611b45565b6116278384611bf8565b8015610d2c576000805460ff60a81b1916905550505050565b6001600160e01b0319808216141561166a5760405162461bcd60e51b815260040161051490612986565b6001600160e01b0319166000908152600160208190526040909120805460ff19169091179055565b6000610a268263473eac9060e01b60405180608001604052806054815260200161306f60549139611846565b6001600160a01b03811615611748576116df816001600160a01b0316611c50565b156117485760405163c64df69d60e01b81526001600160a01b0382169063c64df69d9061171790630ddf27bf60e01b9060040161271b565b60006040518083038186803b15801561172f57600080fd5b505afa158015611743573d6000803e3d6000fd5b505050505b600280546001600160a01b0319166001600160a01b0392909216919091179055565b61177684848484611363565b61178284848484611c89565b610d2c5760405162461bcd60e51b815260040161051490612892565b60606117a8612146565b6117b1836110c2565b8051602082015160405163c87b56dd60e01b81529293506001600160a01b039091169163c87b56dd916117e691600401612f83565b60006040518083038186803b1580156117fe57600080fd5b505afa158015611812573d6000803e3d6000fd5b505050506040513d6000823e601f3d908101601f191682016040526115889190810190612504565b6000610a238383611d50565b600061185a846001600160a01b0316611c50565b6118765760405162461bcd60e51b815260040161051490612e9f565b6040516301ffc9a760e01b81526001600160a01b038516906301ffc9a7906118a29086906004016126a1565b60206040518083038186803b1580156118ba57600080fd5b505afa1580156118ce573d6000803e3d6000fd5b505050506040513d601f19601f820116820180604052508101906118f29190612446565b82906119115760405162461bcd60e51b8152600401610514919061278b565b50929392505050565b6001600160a01b0384161580159061193a57506001600160a01b03831615155b15610d2c576000828152600e6020526040902080546001600160a01b03166119745760405162461bcd60e51b815260040161051490612eee565b6000600282015460ff16600181111561198957fe5b14156119fa5780546001820154604051635c46a7ef60e11b81526001600160a01b039092169163b88d4fde916119c791899189918890600401612659565b600060405180830381600087803b1580156119e157600080fd5b505af11580156119f5573d6000803e3d6000fd5b505050505b5050505050565b6000610a238383611d68565b600061158584846001600160a01b038516611db2565b5490565b6000610a238383611e49565b6000610a238383611f0f565b81546000908210611a625760405162461bcd60e51b8152600401610514906127f3565b826000018281548110611a7157fe5b9060005260206000200154905092915050565b815460009081908310611aa95760405162461bcd60e51b815260040161051490612c0d565b6000846000018481548110611aba57fe5b906000526020600020906002020190508060000154816001015492509250509250929050565b60008281526001840160205260408120548281611b105760405162461bcd60e51b8152600401610514919061278b565b50846000016001820381548110611b2357fe5b9060005260206000209060020201600101549150509392505050565b303b1590565b611b4d611fe3565b611b5d6336c6362d60e01b611640565b60405163c64df69d60e01b81526001600160a01b0384169063c64df69d90611b90906363daa99b60e11b906004016126b6565b60006040518083038186803b158015611ba857600080fd5b505afa158015611bbc573d6000803e3d6000fd5b5050600380546001600160a01b0319166001600160a01b03871617905550508151611bee9060049060208501906121a8565b50610757816116be565b8151611c0b90600a9060208501906121a8565b508051611c1f90600b9060208401906121a8565b50611c306380ac58cd60e01b61208d565b611c40635b5e139f60e01b61208d565b61101563780e9d6360e01b61208d565b6000813f7fc5d2460186f7233c927e7db2dcc703c0e500b653ca82273b7bfad8045d85a47081811480159061082a575050151592915050565b6000611c9d846001600160a01b0316611c50565b611ca95750600161082a565b6060630a85bd0160e11b611cbb61115f565b878686604051602401611cd19493929190612659565b604051602081830303815290604052906001600160e01b0319166020820180516001600160e01b038381831617835250505050905063150b7a0260e01b6001600160e01b031916611d3b868360405180606001604052806032815260200161303d60329139612096565b6001600160e01b031916149695505050505050565b60009081526001919091016020526040902054151590565b6000611d748383611d50565b611daa57508154600181810184556000848152602080822090930184905584548482528286019093526040902091909155610a26565b506000610a26565b600082815260018401602052604081205480611e17575050604080518082018252838152602080820184815286546001818101895560008981528481209551600290930290950191825591519082015586548684528188019092529290912055611588565b82856000016001830381548110611e2a57fe5b9060005260206000209060020201600101819055506000915050611588565b60008181526001830160205260408120548015611f055783546000198083019190810190600090879083908110611e7c57fe5b9060005260206000200154905080876000018481548110611e9957fe5b600091825260208083209091019290925582815260018981019092526040902090840190558654879080611ec957fe5b60019003818190600052602060002001600090559055866001016000878152602001908152602001600020600090556001945050505050610a26565b6000915050610a26565b60008181526001830160205260408120548015611f055783546000198083019190810190600090879083908110611f4257fe5b9060005260206000209060020201905080876000018481548110611f6257fe5b600091825260208083208454600290930201918255600193840154918401919091558354825289830190526040902090840190558654879080611fa157fe5b6000828152602080822060026000199094019384020182815560019081018390559290935588815289820190925260408220919091559450610a269350505050565b600054600160a81b900460ff1680611ffe5750611ffe611b3f565b806120135750600054600160a01b900460ff16155b61202f5760405162461bcd60e51b815260040161051490612d21565b600054600160a81b900460ff16158015612066576000805460ff60a01b1960ff60a81b19909116600160a81b1716600160a01b1790555b6120766301ffc9a760e01b611640565b801561208a576000805460ff60a81b191690555b50565b61208a81611640565b6000806060856001600160a01b0316856040516120b391906125dd565b6000604051808303816000865af19150503d80600081146120f0576040519150601f19603f3d011682016040523d82523d6000602084013e6120f5565b606091505b5091509150816121295780511561210f5780518082602001fd5b8360405162461bcd60e51b8152600401610514919061278b565b8080602001905181019061213d919061247e565b92505050611588565b60408051606081018252600080825260208201819052909182015290565b50805460018160011615610100020316600290046000825580601f1061218a575061208a565b601f01602090049060005260206000209081019061208a9190612226565b828054600181600116156101000203166002900490600052602060002090601f016020900481019282601f106121e957805160ff1916838001178555612216565b82800160010185558215612216579182015b828111156122165782518255916020019190600101906121fb565b50612222929150612226565b5090565b5b808211156122225760008155600101612227565b600082601f83011261224b578081fd5b813561225e61225982612fb3565b612f8c565b915080825283602082850101111561227557600080fd5b8060208401602084013760009082016020015292915050565b60006020828403121561229f578081fd5b813561158881613003565b600080604083850312156122bc578081fd5b82356122c781613003565b915060208301356122d781613003565b809150509250929050565b6000806000606084860312156122f6578081fd5b833561230181613003565b9250602084013561231181613003565b929592945050506040919091013590565b60008060008060808587031215612337578081fd5b843561234281613003565b9350602085013561235281613003565b925060408501359150606085013567ffffffffffffffff811115612374578182fd5b6123808782880161223b565b91505092959194509250565b6000806040838503121561239e578182fd5b82356123a981613003565b915060208301356122d781613018565b6000806000606084860312156123cd578283fd5b83356123d881613003565b9250602084013567ffffffffffffffff8111156123f3578283fd5b6123ff8682870161223b565b925050604084013561241081613003565b809150509250925092565b6000806040838503121561242d578182fd5b823561243881613003565b946020939093013593505050565b600060208284031215612457578081fd5b815161158881613018565b600060208284031215612473578081fd5b813561158881613026565b60006020828403121561248f578081fd5b815161158881613026565b600080604083850312156124ac578182fd5b82356124b781613026565b9150602083013567ffffffffffffffff8111156124d2578182fd5b6124de8582860161223b565b9150509250929050565b6000602082840312156124f9578081fd5b815161158881613003565b600060208284031215612515578081fd5b815167ffffffffffffffff81111561252b578182fd5b8201601f8101841361253b578182fd5b805161254961225982612fb3565b81815285602083850101111561255d578384fd5b61256e826020830160208601612fd7565b95945050505050565b600060208284031215612588578081fd5b5035919050565b600081518084526125a7816020860160208601612fd7565b601f01601f19169290920160200192915050565b60609290921b6bffffffffffffffffffffffff19168252601482015260340190565b600082516125ef818460208701612fd7565b9190910192915050565b6001600160a01b0391909116815260200190565b6001600160a01b03929092168252602082015260606040820181905260009082015260800190565b6001600160a01b039384168152919092166020820152604081019190915260600190565b6001600160a01b038581168252841660208201526040810183905260806060820181905260009061268c9083018461258f565b9695505050505050565b901515815260200190565b6001600160e01b031991909116815260200190565b6001600160e01b03199190911681526040602082018190526032908201527f234465706172746d656e7423696e69744465706172746d656e742064616f20686060820152710dee6e840e8f2e0ca40dcdee840dac2e8c6d60731b608082015260a00190565b6001600160e01b03199190911681526040602082018190526038908201527f234465706172746d656e74237365744f70657261746f725f696e7465726e616c60608201527f206f70657261746f722074797065206e6f74206d617463680000000000000000608082015260a00190565b600060208252610a23602083018461258f565b60208082526035908201527f234173736574476c6f62616c237769746864726177207769746864726177206f6040820152740cc40c2e6e6cae840d6d2dcc840dcde40dac2e8c6d605b1b606082015260800190565b60208082526022908201527f456e756d657261626c655365743a20696e646578206f7574206f6620626f756e604082015261647360f01b606082015260800190565b6020808252603a908201527f234173736574476c6f62616c236f6e4552433732315265636569766564206d6960408201527f6e74206f6620617373657420616c726561647920657869737473000000000000606082015260800190565b60208082526032908201527f4552433732313a207472616e7366657220746f206e6f6e20455243373231526560408201527131b2b4bb32b91034b6b83632b6b2b73a32b960711b606082015260800190565b60208082526030908201527f2355706772616465234f6e6c7944414f2063616c6c657220646f6573206e6f7460408201526f103430bb32903832b936b4b9b9b4b7b760811b606082015260800190565b60208082526032908201527f234173736574476c6f62616c237769746864726177207769746864726177206f60408201527166206173736574206e6f6e2065786973747360701b606082015260800190565b6020808252601c908201527f4552433136353a20696e76616c696420696e7465726661636520696400000000604082015260600190565b6020808252601c908201527f4552433732313a20746f6b656e20616c7265616479206d696e74656400000000604082015260600190565b60208082526024908201527f4552433732313a207472616e7366657220746f20746865207a65726f206164646040820152637265737360e01b606082015260800190565b60208082526019908201527f4552433732313a20617070726f766520746f2063616c6c657200000000000000604082015260600190565b6020808252602e908201527f234173736574476c6f62616c23756e6c6f636b20756e6c6f636b206f6620617360408201526d736574206e6f6e2065786973747360901b606082015260800190565b6020808252602c908201527f4552433732313a206f70657261746f7220717565727920666f72206e6f6e657860408201526b34b9ba32b73a103a37b5b2b760a11b606082015260800190565b6020808252603e908201527f234173736574476c6f62616c236f6e4552433732314c6f636b5265636569766560408201527f64206d696e74206f6620617373657420616c7265616479206578697374730000606082015260800190565b60208082526038908201527f4552433732313a20617070726f76652063616c6c6572206973206e6f74206f7760408201527f6e6572206e6f7220617070726f76656420666f7220616c6c0000000000000000606082015260800190565b6020808252602a908201527f4552433732313a2062616c616e636520717565727920666f7220746865207a65604082015269726f206164647265737360b01b606082015260800190565b60208082526022908201527f456e756d657261626c654d61703a20696e646578206f7574206f6620626f756e604082015261647360f01b606082015260800190565b60208082526031908201527f234173736574476c6f62616c236f6e455243373231526563656976656420667260408201527037b6903737ba103337b91036bcb9b2b63360791b606082015260800190565b6020808252818101527f4552433732313a206d696e7420746f20746865207a65726f2061646472657373604082015260600190565b6020808252602c908201527f4552433732313a20617070726f76656420717565727920666f72206e6f6e657860408201526b34b9ba32b73a103a37b5b2b760a11b606082015260800190565b6020808252602e908201527f436f6e747261637420696e7374616e63652068617320616c726561647920626560408201526d195b881a5b9a5d1a585b1a5e995960921b606082015260800190565b60208082526029908201527f4552433732313a207472616e73666572206f6620746f6b656e2074686174206960408201526839903737ba1037bbb760b91b606082015260800190565b60208082526021908201527f4552433732313a20617070726f76616c20746f2063757272656e74206f776e656040820152603960f91b606082015260800190565b60208082526031908201527f4552433732313a207472616e736665722063616c6c6572206973206e6f74206f6040820152701ddb995c881b9bdc88185c1c1c9bdd9959607a1b606082015260800190565b60208082526035908201527f234173736574476c6f62616c236f6e4552433732314c6f636b526563656976656040820152743210333937b6903737ba103337b91036bcb9b2b63360591b606082015260800190565b6020808252602f908201527f234173736574476c6f62616c2361734552433732313a20494e564c4941445f4360408201526e4f4e54524143545f4144445245535360881b606082015260800190565b6020808252603e908201527f234173736574476c6f62616c235f6265666f7265546f6b656e5472616e73666560408201527f72207472616e73666572206f66206173736574206e6f6e206578697374730000606082015260800190565b81516001600160a01b03168152602080830151908201526040820151606082019060028110612f7657fe5b8060408401525092915050565b90815260200190565b60405181810167ffffffffffffffff81118282101715612fab57600080fd5b604052919050565b600067ffffffffffffffff821115612fc9578081fd5b50601f01601f191660200190565b60005b83811015612ff2578181015183820152602001612fda565b83811115610d2c5750506000910152565b6001600160a01b038116811461208a57600080fd5b801515811461208a57600080fd5b6001600160e01b03198116811461208a57600080fdfe4552433732313a207472616e7366657220746f206e6f6e20455243373231526563656976657220696d706c656d656e746572234173736574476c6f62616c2361734552433732314c6f636b20546865204e465420636f6e74726163742068617320616e20696e76616c696420455243373231204c6f636b20696d706c656d656e746174696f6e4552433732313a206f776e657220717565727920666f72206e6f6e6578697374656e7420746f6b656e234173736574476c6f62616c23617345524337323120546865204e465420636f6e74726163742068617320616e20696e76616c69642045524337323120696d706c656d656e746174696f6ea26469706673582212200a45221b0f8ebc423072a8bd95a57d23e302c80c419652dc356f47cf3fc6562464736f6c634300060c0033",
  "immutableReferences": {},
  "source": "\npragma solidity >=0.6.0 <=0.8.15;\n\npragma experimental ABIEncoderV2;\n\nimport \"./Department.sol\";\nimport \"./ERC721.sol\";\n\ncontract AssetGlobal is IAssetGlobal, ERC721 {\n\n\tbytes4 private constant _ERC721_RECEIVED = 0x150b7a02;\n\tbytes4 private constant _ERC721_LOCK_RECEIVED = 0x7e154325;\n\tbytes4 private constant _INTERFACE_ID_ERC721 = 0x80ac58cd;\n\tbytes4 private constant _INTERFACE_ID_ERC721_LOCK = 0x473eac90;\n\n\tmapping(uint256 => AssetID) private _assetsMeta;\n\n\tfunction initAssetGlobal(address host, string memory describe, address operator) external {\n\t\tinitERC721(host, describe, operator);\n\t\t_registerInterface(AssetGlobal_ID);\n\t\t_registerInterface(_ERC721_RECEIVED);\n\t\t_registerInterface(_ERC721_LOCK_RECEIVED);\n\t}\n\n\t// @dev convert addr to standard ERC721 NFT,will be revered if add is invalid.\n\tfunction checkERC721(address addr, bytes4 id, string memory message) internal returns (IERC721) {\n\t\trequire(addr.isContract(), \"#AssetGlobal#asERC721: INVLIAD_CONTRACT_ADDRESS\");\n\t\trequire(IERC721(addr).supportsInterface(id), message);\n\t\treturn IERC721(addr);\n\t}\n\n\tfunction asERC721(address addr) internal returns (IERC721) {\n\t\treturn checkERC721(addr, _INTERFACE_ID_ERC721, \"#AssetGlobal#asERC721 The NFT contract has an invalid ERC721 implementation\");\n\t}\n\n\tfunction asERC721Lock(address addr) internal returns (IERC721) {\n\t\treturn checkERC721(addr, _INTERFACE_ID_ERC721_LOCK, \"#AssetGlobal#asERC721Lock The NFT contract has an invalid ERC721 Lock implementation\");\n\t}\n\n\tfunction onERC721Received(\n\t\taddress operator, address from, uint256 tokenId, bytes memory data\n\t) external override returns (bytes4) {\n\t\tIERC721 token = asERC721(_msgSender());\n\t\tuint256 id = convertTokenID(address(token), tokenId);\n\t\tAssetID storage asset = _assetsMeta[id];\n\t\trequire(asset.token == address(0), \"#AssetGlobal#onERC721Received mint of asset already exists\");\n\t\trequire(from != address(this), \"#AssetGlobal#onERC721Received from not for myself\");\n\n\t\tasset.token = address(token);\n\t\tasset.tokenId = tokenId;\n\t\tasset.kind = Kind.Owner;\n\n\t\t_mint(from, id);\n\n\t\treturn _ERC721_RECEIVED;\n\t}\n\n\tfunction onERC721LockReceived(\n\t\taddress operator, address from, uint256 tokenId, bytes memory data\n\t) external override returns (bytes4) {\n\t\tIERC721 token = asERC721Lock(_msgSender());\n\t\tuint256 id = convertTokenID(address(token), tokenId);\n\t\tAssetID storage asset = _assetsMeta[id];\n\t\trequire(asset.token == address(0), \"#AssetGlobal#onERC721LockReceived mint of asset already exists\");\n\t\trequire(from != address(this), \"#AssetGlobal#onERC721LockReceived from not for myself\");\n\n\t\tasset.token = address(token);\n\t\tasset.tokenId = tokenId;\n\t\tasset.kind = Kind.Lock;\n\n\t\t_mint(from, id);\n\n\t\treturn _ERC721_LOCK_RECEIVED;\n\t}\n\n\tfunction _beforeTokenTransfer(address from, address to, uint256 tokenId, bytes memory _data) internal virtual override {\n\t\tif (from != address(0) && to != address(0)) {\n\t\t\tAssetID storage asset = _assetsMeta[tokenId];\n\t\t\trequire(asset.token != address(0), \"#AssetGlobal#_beforeTokenTransfer transfer of asset non exists\");\n\t\t\tif (asset.kind == Kind.Lock) {\n\t\t\t\tIERC721(asset.token).safeTransferFrom(from, to, asset.tokenId, _data);\n\t\t\t}\n\t\t}\n\t}\n\n\tfunction convertTokenID(address metaToken, uint256 metaTokenId) pure public returns (uint256) {\n\t\treturn uint256(keccak256(abi.encodePacked(metaToken, metaTokenId)));\n\t}\n\n\tfunction _tokenURI(uint256 tokenId) internal view override returns (string memory) {\n\t\tAssetID memory id = assetMeta(tokenId);\n\t\treturn IERC721Metadata(id.token).tokenURI(id.tokenId);\n\t}\n\n\tfunction assetMeta(uint256 tokenId) view public override returns (AssetID memory) {\n\t\tAssetID storage asset = _assetsMeta[tokenId];\n\t\trequire(asset.token != address(0), \"#AssetGlobal#unlock unlock of asset non exists\");\n\t\treturn asset;\n\t}\n\n\tfunction unlock(address metaToken, uint256 metaTokenId) external override {\n\t\tuint256 id = convertTokenID(metaToken, metaTokenId);\n\t\tAssetID storage asset = _assetsMeta[metaTokenId];\n\t\trequire(asset.token != address(0), \"#AssetGlobal#unlock unlock of asset non exists\");\n\t\tIERC721Lock(asset.token).lock(address(0), asset.tokenId, \"\");\n\t\tdelete _assetsMeta[id];\n\t\t_burn(id);\n\t}\n\n\tfunction withdraw(uint256 tokenId) external override {\n\t\tAssetID storage asset = _assetsMeta[tokenId];\n\t\trequire(asset.token != address(0), \"#AssetGlobal#withdraw withdraw of asset non exists\");\n\t\trequire(asset.kind == Kind.Owner, \"#AssetGlobal#withdraw withdraw of asset kind no match\");\n\t\taddress owner = ownerOf(tokenId);\n\t\tIERC721(asset.token).safeTransferFrom(address(this), owner, asset.tokenId);\n\t\tdelete _assetsMeta[tokenId];\n\t\t_burn(tokenId);\n\t}\n}",
  "sourcePath": "/Users/louis/Project/hc/NFTSwap/SmartHolder/contracts/AssetGlobal.sol",
  "compiler": {
    "name": "solc",
    "version": "0.6.12+commit.27d51765.Emscripten.clang"
  },
  "schemaVersion": "3.4.8",
  "updatedAt": "2022-07-18T02:17:43.329Z",
  "networkType": "ethereum",
  "devdoc": {
    "kind": "dev",
    "methods": {
      "approve(address,uint256)": {
        "details": "Approves another address to transfer the given token ID The zero address indicates there is no approved address. There can only be one approved address per token at a given time. Can only be called by the token owner or an approved operator.",
        "params": {
          "to": "address to be approved for the given token ID",
          "tokenId": "uint256 ID of the token to be approved"
        }
      },
      "balanceOf(address)": {
        "details": "Gets the balance of the specified address.",
        "params": {
          "owner": "address to query the balance of"
        },
        "returns": {
          "_0": "uint256 representing the amount owned by the passed address"
        }
      },
      "baseURI()": {
        "details": "Returns the base URI set via {_setBaseURI}. This will be automatically added as a prefix in {tokenURI} to each token's URI, or to the token ID if no specific URI is set for that token ID."
      },
      "getApproved(uint256)": {
        "details": "Gets the approved address for a token ID, or zero if no address set Reverts if the token ID does not exist.",
        "params": {
          "tokenId": "uint256 ID of the token to query the approval of"
        },
        "returns": {
          "_0": "address currently approved for the given token ID"
        }
      },
      "isApprovedForAll(address,address)": {
        "details": "Tells whether an operator is approved by a given owner.",
        "params": {
          "operator": "operator address which you want to query the approval of",
          "owner": "owner address which you want to query the approval of"
        },
        "returns": {
          "_0": "bool whether the given operator is approved by the given owner"
        }
      },
      "name()": {
        "details": "Gets the token name.",
        "returns": {
          "_0": "string representing the token name"
        }
      },
      "onERC721Received(address,address,uint256,bytes)": {
        "details": "The ERC721 smart contract calls this function on the recipient after a {IERC721-safeTransferFrom}. This function MUST return the function selector, otherwise the caller will revert the transaction. The selector to be returned can be obtained as `this.onERC721Received.selector`. This function MAY throw to revert and reject the transfer. Note: the ERC721 contract address is always the message sender.",
        "params": {
          "data": "Additional data with no specified format",
          "from": "The address which previously owned the token",
          "operator": "The address which called `safeTransferFrom` function",
          "tokenId": "The NFT identifier which is being transferred"
        },
        "returns": {
          "_0": "bytes4 `bytes4(keccak256(\"onERC721Received(address,address,uint256,bytes)\"))`"
        }
      },
      "ownerOf(uint256)": {
        "details": "Gets the owner of the specified token ID.",
        "params": {
          "tokenId": "uint256 ID of the token to query the owner of"
        },
        "returns": {
          "_0": "address currently marked as the owner of the given token ID"
        }
      },
      "safeTransferFrom(address,address,uint256)": {
        "details": "Safely transfers the ownership of a given token ID to another address If the target address is a contract, it must implement {IERC721Receiver-onERC721Received}, which is called upon a safe transfer, and return the magic value `bytes4(keccak256(\"onERC721Received(address,address,uint256,bytes)\"))`; otherwise, the transfer is reverted. Requires the msg.sender to be the owner, approved, or operator",
        "params": {
          "from": "current owner of the token",
          "to": "address to receive the ownership of the given token ID",
          "tokenId": "uint256 ID of the token to be transferred"
        }
      },
      "safeTransferFrom(address,address,uint256,bytes)": {
        "details": "Safely transfers the ownership of a given token ID to another address If the target address is a contract, it must implement {IERC721Receiver-onERC721Received}, which is called upon a safe transfer, and return the magic value `bytes4(keccak256(\"onERC721Received(address,address,uint256,bytes)\"))`; otherwise, the transfer is reverted. Requires the _msgSender() to be the owner, approved, or operator",
        "params": {
          "_data": "bytes data to send along with a safe transfer check",
          "from": "current owner of the token",
          "to": "address to receive the ownership of the given token ID",
          "tokenId": "uint256 ID of the token to be transferred"
        }
      },
      "setApprovalForAll(address,bool)": {
        "details": "Sets or unsets the approval of a given operator An operator is allowed to transfer all tokens of the sender on their behalf.",
        "params": {
          "approved": "representing the status of the approval to be set",
          "operator": "operator address to set the approval"
        }
      },
      "supportsInterface(bytes4)": {
        "details": "See {IERC165-supportsInterface}. Time complexity O(1), guaranteed to always use less than 30 000 gas."
      },
      "symbol()": {
        "details": "Gets the token symbol.",
        "returns": {
          "_0": "string representing the token symbol"
        }
      },
      "tokenByIndex(uint256)": {
        "details": "Gets the token ID at a given index of all the tokens in this contract Reverts if the index is greater or equal to the total number of tokens.",
        "params": {
          "index": "uint256 representing the index to be accessed of the tokens list"
        },
        "returns": {
          "_0": "uint256 token ID at the given index of the tokens list"
        }
      },
      "tokenOfOwnerByIndex(address,uint256)": {
        "details": "Gets the token ID at a given index of the tokens list of the requested owner.",
        "params": {
          "index": "uint256 representing the index to be accessed of the requested tokens list",
          "owner": "address owning the tokens list to be accessed"
        },
        "returns": {
          "_0": "uint256 token ID at the given index of the tokens list owned by the requested address"
        }
      },
      "totalSupply()": {
        "details": "Gets the total amount of tokens stored by the contract.",
        "returns": {
          "_0": "uint256 representing the total amount of tokens"
        }
      },
      "transferFrom(address,address,uint256)": {
        "details": "Transfers the ownership of a given token ID to another address. Usage of this method is discouraged, use {safeTransferFrom} whenever possible. Requires the msg.sender to be the owner, approved, or operator.",
        "params": {
          "from": "current owner of the token",
          "to": "address to receive the ownership of the given token ID",
          "tokenId": "uint256 ID of the token to be transferred"
        }
      }
    },
    "version": 1
  },
  "userdoc": {
    "kind": "user",
    "methods": {
      "onERC721Received(address,address,uint256,bytes)": {
        "notice": "Handle the receipt of an NFT"
      }
    },
    "version": 1
  }
}