{
  "contractName": "DAO",
  "abi": [
    {
      "anonymous": false,
      "inputs": [
        {
          "indexed": false,
          "internalType": "string",
          "name": "tag",
          "type": "string"
        }
      ],
      "name": "Change",
      "type": "event"
    },
    {
      "inputs": [
        {
          "internalType": "bytes4",
          "name": "interfaceId",
          "type": "bytes4"
        },
        {
          "internalType": "string",
          "name": "message",
          "type": "string"
        }
      ],
      "name": "checkInterface",
      "outputs": [],
      "stateMutability": "view",
      "type": "function",
      "constant": true
    },
    {
      "inputs": [],
      "name": "describe",
      "outputs": [
        {
          "internalType": "string",
          "name": "",
          "type": "string"
        }
      ],
      "stateMutability": "view",
      "type": "function",
      "constant": true
    },
    {
      "inputs": [],
      "name": "host",
      "outputs": [
        {
          "internalType": "contract IDAO",
          "name": "",
          "type": "address"
        }
      ],
      "stateMutability": "view",
      "type": "function",
      "constant": true
    },
    {
      "inputs": [],
      "name": "impl",
      "outputs": [
        {
          "internalType": "address",
          "name": "",
          "type": "address"
        }
      ],
      "stateMutability": "view",
      "type": "function",
      "constant": true
    },
    {
      "inputs": [],
      "name": "operator",
      "outputs": [
        {
          "internalType": "contract IVotePool",
          "name": "",
          "type": "address"
        }
      ],
      "stateMutability": "view",
      "type": "function",
      "constant": true
    },
    {
      "inputs": [
        {
          "internalType": "address",
          "name": "vote",
          "type": "address"
        }
      ],
      "name": "setOperator",
      "outputs": [],
      "stateMutability": "nonpayable",
      "type": "function"
    },
    {
      "inputs": [
        {
          "internalType": "bytes4",
          "name": "interfaceId",
          "type": "bytes4"
        }
      ],
      "name": "supportsInterface",
      "outputs": [
        {
          "internalType": "bool",
          "name": "",
          "type": "bool"
        }
      ],
      "stateMutability": "view",
      "type": "function",
      "constant": true
    },
    {
      "inputs": [
        {
          "internalType": "address",
          "name": "impl",
          "type": "address"
        }
      ],
      "name": "upgrade",
      "outputs": [],
      "stateMutability": "nonpayable",
      "type": "function"
    },
    {
      "inputs": [],
      "name": "root",
      "outputs": [
        {
          "internalType": "contract IVotePool",
          "name": "",
          "type": "address"
        }
      ],
      "stateMutability": "view",
      "type": "function",
      "constant": true
    },
    {
      "inputs": [],
      "name": "member",
      "outputs": [
        {
          "internalType": "contract IMember",
          "name": "",
          "type": "address"
        }
      ],
      "stateMutability": "view",
      "type": "function",
      "constant": true
    },
    {
      "inputs": [],
      "name": "ledger",
      "outputs": [
        {
          "internalType": "contract ILedger",
          "name": "",
          "type": "address"
        }
      ],
      "stateMutability": "view",
      "type": "function",
      "constant": true
    },
    {
      "inputs": [],
      "name": "assetGlobal",
      "outputs": [
        {
          "internalType": "contract IAssetGlobal",
          "name": "",
          "type": "address"
        }
      ],
      "stateMutability": "view",
      "type": "function",
      "constant": true
    },
    {
      "inputs": [],
      "name": "asset",
      "outputs": [
        {
          "internalType": "contract IAsset",
          "name": "",
          "type": "address"
        }
      ],
      "stateMutability": "view",
      "type": "function",
      "constant": true
    },
    {
      "inputs": [],
      "name": "initInterfaceID",
      "outputs": [],
      "stateMutability": "nonpayable",
      "type": "function"
    },
    {
      "inputs": [
        {
          "internalType": "string",
          "name": "describe",
          "type": "string"
        },
        {
          "internalType": "address",
          "name": "operator",
          "type": "address"
        },
        {
          "internalType": "address",
          "name": "root",
          "type": "address"
        },
        {
          "internalType": "address",
          "name": "member",
          "type": "address"
        },
        {
          "internalType": "address",
          "name": "ledger",
          "type": "address"
        },
        {
          "internalType": "address",
          "name": "assetGlobal",
          "type": "address"
        },
        {
          "internalType": "address",
          "name": "asset",
          "type": "address"
        }
      ],
      "name": "initDAO",
      "outputs": [],
      "stateMutability": "nonpayable",
      "type": "function"
    },
    {
      "inputs": [
        {
          "internalType": "address",
          "name": "addr",
          "type": "address"
        }
      ],
      "name": "setLedger",
      "outputs": [],
      "stateMutability": "nonpayable",
      "type": "function"
    },
    {
      "inputs": [
        {
          "internalType": "address",
          "name": "addr",
          "type": "address"
        }
      ],
      "name": "setAssetGlobal",
      "outputs": [],
      "stateMutability": "nonpayable",
      "type": "function"
    },
    {
      "inputs": [
        {
          "internalType": "address",
          "name": "addr",
          "type": "address"
        }
      ],
      "name": "setAsset",
      "outputs": [],
      "stateMutability": "nonpayable",
      "type": "function"
    },
    {
      "inputs": [
        {
          "internalType": "address",
          "name": "addr",
          "type": "address"
        },
        {
          "internalType": "bool",
          "name": "isDel",
          "type": "bool"
        }
      ],
      "name": "setDepartments",
      "outputs": [],
      "stateMutability": "nonpayable",
      "type": "function"
    }
  ],
  "bytecode": "0x608060405234801561001057600080fd5b50611db8806100206000396000f3fe608060405234801561001057600080fd5b50600436106101215760003560e01c80638abf6077116100ad578063c7b5533611610071578063c7b55336146103a9578063d0d552dd14610480578063e3f6b544146104a6578063ebf0c717146104ae578063f437bc59146104b657610121565b80638abf607714610296578063b3ab15fb1461029e578063bc3ae11f146102c4578063c3cf91f5146102cc578063c64df69d146102f257610121565b8063369dc27d116100f4578063369dc27d1461022c57806338d52e0f1461023457806356397c3514610258578063570ca7351461026057806372acc1961461026857610121565b806301ffc9a7146101265780630900f010146101615780631ad184ff146101895780633246887d14610206575b600080fd5b61014d6004803603602081101561013c57600080fd5b50356001600160e01b0319166104be565b604080519115158252519081900360200190f35b6101876004803603602081101561017757600080fd5b50356001600160a01b03166104dd565b005b610191610663565b6040805160208082528351818301528351919283929083019185019080838360005b838110156101cb5781810151838201526020016101b3565b50505050905090810190601f1680156101f85780820380516001836020036101000a031916815260200191505b509250505060405180910390f35b6101876004803603602081101561021c57600080fd5b50356001600160a01b03166106f9565b61018761094c565b61023c6109c0565b604080516001600160a01b039092168252519081900360200190f35b61023c6109cf565b61023c6109de565b6101876004803603604081101561027e57600080fd5b506001600160a01b03813516906020013515156109ed565b61023c610c55565b610187600480360360208110156102b457600080fd5b50356001600160a01b0316610c64565b61023c610dd4565b610187600480360360208110156102e257600080fd5b50356001600160a01b0316610de3565b6101876004803603604081101561030857600080fd5b6001600160e01b0319823516919081019060408101602082013564010000000081111561033457600080fd5b82018360208201111561034657600080fd5b8035906020019184600183028401116401000000008311171561036857600080fd5b91908080601f016020809104026020016040519081016040528093929190818152602001838380828437600092019190915250929550611024945050505050565b610187600480360360e08110156103bf57600080fd5b8101906020810181356401000000008111156103da57600080fd5b8201836020820111156103ec57600080fd5b8035906020019184600183028401116401000000008311171561040e57600080fd5b91908080601f016020809104026020016040519081016040528093929190818152602001838380828437600092019190915250929550505081356001600160a01b03908116935060208301358116926040810135821692506060810135821691608082013581169160a00135166110bc565b6101876004803603602081101561049657600080fd5b50356001600160a01b0316611419565b61023c61166b565b61023c61167a565b61023c611689565b6001600160e01b03191660009081526001602052604090205460ff1690565b60025433906001600160a01b0316811461064057600360009054906101000a90046001600160a01b03166001600160a01b031663570ca7356040518163ffffffff1660e01b815260040160206040518083038186803b15801561053f57600080fd5b505afa158015610553573d6000803e3d6000fd5b505050506040513d602081101561056957600080fd5b50516001600160a01b0382811691161461064057600360009054906101000a90046001600160a01b03166001600160a01b031663ebf0c7176040518163ffffffff1660e01b815260040160206040518083038186803b1580156105cb57600080fd5b505afa1580156105df573d6000803e3d6000fd5b505050506040513d60208110156105f557600080fd5b50516001600160a01b038281169116146106405760405162461bcd60e51b8152600401808060200182810382526030815260200180611bcb6030913960400191505060405180910390fd5b50600080546001600160a01b0319166001600160a01b0392909216919091179055565b60048054604080516020601f60026000196101006001881615020190951694909404938401819004810282018101909252828152606093909290918301828280156106ef5780601f106106c4576101008083540402835291602001916106ef565b820191906000526020600020905b8154815290600101906020018083116106d257829003601f168201915b5050505050905090565b60025433906001600160a01b0316811461085c57600360009054906101000a90046001600160a01b03166001600160a01b031663570ca7356040518163ffffffff1660e01b815260040160206040518083038186803b15801561075b57600080fd5b505afa15801561076f573d6000803e3d6000fd5b505050506040513d602081101561078557600080fd5b50516001600160a01b0382811691161461085c57600360009054906101000a90046001600160a01b03166001600160a01b031663ebf0c7176040518163ffffffff1660e01b815260040160206040518083038186803b1580156107e757600080fd5b505afa1580156107fb573d6000803e3d6000fd5b505050506040513d602081101561081157600080fd5b50516001600160a01b0382811691161461085c5760405162461bcd60e51b8152600401808060200182810382526030815260200180611bcb6030913960400191505060405180910390fd5b6040805163c64df69d60e01b815263f4c38e5160e01b600482015260248101829052601d60448201527f2344414f237365744c65646765722074797065206e6f74206d61746368000000606482015290516001600160a01b0384169163c64df69d916084808301926000929190829003018186803b1580156108dd57600080fd5b505afa1580156108f1573d6000803e3d6000fd5b5050600780546001600160a01b0319166001600160a01b0386161790555050604080516020808252600690820152652632b233b2b960d11b818301529051600080516020611d3c833981519152916060908290030190a15050565b61095c6363daa99b60e11b6104be565b156109ae576040805162461bcd60e51b815260206004820152601760248201527f43616e206f6e6c792062652063616c6c6564206f6e6365000000000000000000604482015290519081900360640190fd5b6109be6363daa99b60e11b611698565b565b6009546001600160a01b031690565b6007546001600160a01b031690565b6002546001600160a01b031690565b60025433906001600160a01b03168114610b5057600360009054906101000a90046001600160a01b03166001600160a01b031663570ca7356040518163ffffffff1660e01b815260040160206040518083038186803b158015610a4f57600080fd5b505afa158015610a63573d6000803e3d6000fd5b505050506040513d6020811015610a7957600080fd5b50516001600160a01b03828116911614610b5057600360009054906101000a90046001600160a01b03166001600160a01b031663ebf0c7176040518163ffffffff1660e01b815260040160206040518083038186803b158015610adb57600080fd5b505afa158015610aef573d6000803e3d6000fd5b505050506040513d6020811015610b0557600080fd5b50516001600160a01b03828116911614610b505760405162461bcd60e51b8152600401808060200182810382526030815260200180611bcb6030913960400191505060405180910390fd5b6040805163c64df69d60e01b81526336c6362d60e01b60048201818152602483019384526022604484018190526001600160a01b0388169463c64df69d949091606490910190611c4f82396040019250505060006040518083038186803b158015610bba57600080fd5b505afa158015610bce573d6000803e3d6000fd5b50505050610be683600b61171f90919063ffffffff16565b15610c03578115610bfe57610bfc600b8461173d565b505b610c15565b81610c1557610c13600b84611752565b505b604080516020808252600a908201526911195c185c9d1b595b9d60b21b818301529051600080516020611d3c8339815191529181900360600190a1505050565b6000546001600160a01b031690565b60025433906001600160a01b03168114610dc757600360009054906101000a90046001600160a01b03166001600160a01b031663570ca7356040518163ffffffff1660e01b815260040160206040518083038186803b158015610cc657600080fd5b505afa158015610cda573d6000803e3d6000fd5b505050506040513d6020811015610cf057600080fd5b50516001600160a01b03828116911614610dc757600360009054906101000a90046001600160a01b03166001600160a01b031663ebf0c7176040518163ffffffff1660e01b815260040160206040518083038186803b158015610d5257600080fd5b505afa158015610d66573d6000803e3d6000fd5b505050506040513d6020811015610d7c57600080fd5b50516001600160a01b03828116911614610dc75760405162461bcd60e51b8152600401808060200182810382526030815260200180611bcb6030913960400191505060405180910390fd5b610dd082611767565b5050565b6008546001600160a01b031690565b60025433906001600160a01b03168114610f4657600360009054906101000a90046001600160a01b03166001600160a01b031663570ca7356040518163ffffffff1660e01b815260040160206040518083038186803b158015610e4557600080fd5b505afa158015610e59573d6000803e3d6000fd5b505050506040513d6020811015610e6f57600080fd5b50516001600160a01b03828116911614610f4657600360009054906101000a90046001600160a01b03166001600160a01b031663ebf0c7176040518163ffffffff1660e01b815260040160206040518083038186803b158015610ed157600080fd5b505afa158015610ee5573d6000803e3d6000fd5b505050506040513d6020811015610efb57600080fd5b50516001600160a01b03828116911614610f465760405162461bcd60e51b8152600401808060200182810382526030815260200180611bcb6030913960400191505060405180910390fd5b6040805163c64df69d60e01b8152631c47318b60e21b60048201818152602483019384526022604484018190526001600160a01b0387169463c64df69d949091606490910190611bfb82396040019250505060006040518083038186803b158015610fb057600080fd5b505afa158015610fc4573d6000803e3d6000fd5b5050600880546001600160a01b0319166001600160a01b0386161790555050604080516020808252600b908201526a105cdcd95d11db1bd8985b60aa1b818301529051600080516020611d3c833981519152916060908290030190a15050565b61102d826104be565b81906110b75760405162461bcd60e51b81526004018080602001828103825283818151815260200191508051906020019080838360005b8381101561107c578181015183820152602001611064565b50505050905090810190601f1680156110a95780820380516001836020036101000a031916815260200191505b509250505060405180910390fd5b505050565b6110c7308888611832565b6040805163c64df69d60e01b8152630ddf27bf60e01b600482015260248101829052602060448201527f2344414f23696e697444414f20726f6f742074797065206e6f74206d61746368606482015290516001600160a01b0387169163c64df69d916084808301926000929190829003018186803b15801561114857600080fd5b505afa15801561115c573d6000803e3d6000fd5b50505050836001600160a01b031663c64df69d6323fc76b960e01b6040518263ffffffff1660e01b815260040180826001600160e01b03191681526020018060200182810382526022815260200180611cf8602291396040019250505060006040518083038186803b1580156111d157600080fd5b505afa1580156111e5573d6000803e3d6000fd5b50505050826001600160a01b031663c64df69d63f4c38e5160e01b6040518263ffffffff1660e01b815260040180826001600160e01b03191681526020018060200182810382526022815260200180611d1a602291396040019250505060006040518083038186803b15801561125a57600080fd5b505afa15801561126e573d6000803e3d6000fd5b50505050816001600160a01b031663c64df69d63711cc62c60e01b6040518263ffffffff1660e01b815260040180826001600160e01b03191681526020018060200182810382526027815260200180611d5c602791396040019250505060006040518083038186803b1580156112e357600080fd5b505afa1580156112f7573d6000803e3d6000fd5b50505050806001600160a01b031663c64df69d63b6f00dcf60e01b6040518263ffffffff1660e01b815260040180826001600160e01b03191681526020018060200182810382526021815260200180611c71602191396040019250505060006040518083038186803b15801561136c57600080fd5b505afa158015611380573d6000803e3d6000fd5b5050600580546001600160a01b03808a166001600160a01b0319928316179092556006805489841690831617905560078054888416908316179055600880548784169083161790556009805492861692909116919091179055505060408051602080825260049082015263125b9a5d60e21b818301529051600080516020611d3c8339815191529181900360600190a150505050505050565b60025433906001600160a01b0316811461157c57600360009054906101000a90046001600160a01b03166001600160a01b031663570ca7356040518163ffffffff1660e01b815260040160206040518083038186803b15801561147b57600080fd5b505afa15801561148f573d6000803e3d6000fd5b505050506040513d60208110156114a557600080fd5b50516001600160a01b0382811691161461157c57600360009054906101000a90046001600160a01b03166001600160a01b031663ebf0c7176040518163ffffffff1660e01b815260040160206040518083038186803b15801561150757600080fd5b505afa15801561151b573d6000803e3d6000fd5b505050506040513d602081101561153157600080fd5b50516001600160a01b0382811691161461157c5760405162461bcd60e51b8152600401808060200182810382526030815260200180611bcb6030913960400191505060405180910390fd5b6040805163c64df69d60e01b815263b6f00dcf60e01b600482015260248101829052601c60448201527f2344414f2373657441737365742074797065206e6f74206d6174636800000000606482015290516001600160a01b0384169163c64df69d916084808301926000929190829003018186803b1580156115fd57600080fd5b505afa158015611611573d6000803e3d6000fd5b5050600980546001600160a01b0319166001600160a01b038616179055505060408051602080825260059082015264105cdcd95d60da1b818301529051600080516020611d3c833981519152916060908290030190a15050565b6006546001600160a01b031690565b6005546001600160a01b031690565b6003546001600160a01b031690565b6001600160e01b031980821614156116f7576040805162461bcd60e51b815260206004820152601c60248201527f4552433136353a20696e76616c696420696e7465726661636520696400000000604482015290519081900360640190fd5b6001600160e01b0319166000908152600160208190526040909120805460ff19169091179055565b6000611734836001600160a01b038416611904565b90505b92915050565b6000611734836001600160a01b03841661191c565b6000611734836001600160a01b0384166119e2565b6001600160a01b0381161561181057611788816001600160a01b0316611a2c565b15611810576040805163c64df69d60e01b8152630ddf27bf60e01b60048201818152602483019384526038604484018190526001600160a01b0386169463c64df69d949091606490910190611c9282396040019250505060006040518083038186803b1580156117f757600080fd5b505afa15801561180b573d6000803e3d6000fd5b505050505b600280546001600160a01b0319166001600160a01b0392909216919091179055565b61183a611a68565b61184a6336c6362d60e01b611698565b6040805163c64df69d60e01b81526363daa99b60e11b60048201818152602483019384526032604484018190526001600160a01b0388169463c64df69d949091606490910190611c1d82396040019250505060006040518083038186803b1580156118b457600080fd5b505afa1580156118c8573d6000803e3d6000fd5b5050600380546001600160a01b0319166001600160a01b038716179055505081516118fa906004906020850190611b37565b506110b781611767565b60009081526001919091016020526040902054151590565b600081815260018301602052604081205480156119d8578354600019808301919081019060009087908390811061194f57fe5b906000526020600020015490508087600001848154811061196c57fe5b60009182526020808320909101929092558281526001898101909252604090209084019055865487908061199c57fe5b60019003818190600052602060002001600090559055866001016000878152602001908152602001600020600090556001945050505050611737565b6000915050611737565b60006119ee8383611904565b611a2457508154600181810184556000848152602080822090930184905584548482528286019093526040902091909155611737565b506000611737565b6000813f7fc5d2460186f7233c927e7db2dcc703c0e500b653ca82273b7bfad8045d85a470818114801590611a6057508115155b949350505050565b600054600160a81b900460ff1680611a835750611a83611b31565b80611a985750600054600160a01b900460ff16155b611ad35760405162461bcd60e51b815260040180806020018281038252602e815260200180611cca602e913960400191505060405180910390fd5b600054600160a81b900460ff16158015611b0a576000805460ff60a01b1960ff60a81b19909116600160a81b1716600160a01b1790555b611b1a6301ffc9a760e01b611698565b8015611b2e576000805460ff60a81b191690555b50565b303b1590565b828054600181600116156101000203166002900490600052602060002090601f016020900481019282601f10611b7857805160ff1916838001178555611ba5565b82800160010185558215611ba5579182015b82811115611ba5578251825591602001919060010190611b8a565b50611bb1929150611bb5565b5090565b5b80821115611bb15760008155600101611bb656fe2355706772616465234f6e6c7944414f2063616c6c657220646f6573206e6f742068617665207065726d697373696f6e2344414f237365744173736574476c6f62616c2074797065206e6f74206d61746368234465706172746d656e7423696e69744465706172746d656e742064616f20686f73742074797065206e6f74206d617463682344414f237365744465706172746d656e74732074797065206e6f74206d617463682344414f23696e697444414f2061737365742074797065206e6f74206d61746368234465706172746d656e74237365744f70657261746f725f696e7465726e616c206f70657261746f722074797065206e6f74206d61746368436f6e747261637420696e7374616e63652068617320616c7265616479206265656e20696e697469616c697a65642344414f23696e697444414f206d656d6265722074797065206e6f74206d617463682344414f23696e697444414f206c65646765722074797065206e6f74206d617463686545debb088bd81af091fb3bbd8a005c9f7a28af228177ba1b794fbffd33fe472344414f23696e697444414f206173736574476c6f62616c2074797065206e6f74206d61746368a2646970667358221220dd45df84ce717e2e7d1b3daf908253ecc4c0a58c26f0ac9c4e3ea2f1c866179f64736f6c634300060c0033",
  "immutableReferences": {},
  "source": "\npragma solidity >=0.6.0 <=0.8.15;\n\nimport \"./Department.sol\";\nimport \"../openzeppelin/contracts-ethereum-package/contracts/utils/EnumerableSet.sol\";\n\ncontract DAO is IDAO, Department {\n\tusing EnumerableSet for EnumerableSet.AddressSet;\n\n\tIVotePool private _root;\n\tIMember private _member;\n\tILedger private _ledger;\n\tIAssetGlobal private _assetGlobal;\n\tIAsset private _asset;\n\taddress private __exchange;\n\tEnumerableSet.AddressSet private _departments;\n\tuint256[50] private __gap;\n\n\tfunction root() view external override returns (IVotePool) { return _root; }\n\tfunction member() view external override returns (IMember) { return _member; }\n\tfunction ledger() view external override returns (ILedger) { return _ledger; }\n\tfunction assetGlobal() view external override returns (IAssetGlobal) { return _assetGlobal; }\n\tfunction asset() view external override returns (IAsset) { return _asset; }\n\n\tfunction initInterfaceID() external {\n\t\trequire(!supportsInterface(DAO_ID), \"Can only be called once\");\n\t\t_registerInterface(DAO_ID);\n\t}\n\n\tfunction initDAO(\n\t\tstring memory describe,\n\t\taddress operator, address root,\n\t\taddress member, address ledger,\n\t\taddress assetGlobal, address asset\n\t) external {\n\t\tinitDepartment(address(this), describe, operator);\n\n\t\tERC165(root).checkInterface(VotePool_ID, \"#DAO#initDAO root type not match\");\n\t\tERC165(member).checkInterface(Member_ID, \"#DAO#initDAO member type not match\");\n\t\tERC165(ledger).checkInterface(Ledger_ID, \"#DAO#initDAO ledger type not match\");\n\t\tERC165(assetGlobal).checkInterface(AssetGlobal_ID, \"#DAO#initDAO assetGlobal type not match\");\n\t\tERC165(asset).checkInterface(Asset_ID, \"#DAO#initDAO asset type not match\");\n\n\t\t_root = IVotePool(root);\n\t\t_member = IMember(member);\n\t\t_ledger = ILedger(ledger);\n\t\t_assetGlobal = IAssetGlobal(assetGlobal);\n\t\t_asset = IAsset(asset);\n\n\t\temit Change(\"Init\");\n\t}\n\n\tfunction setLedger(address addr) external OnlyDAO {\n\t\tERC165(addr).checkInterface(Ledger_ID, \"#DAO#setLedger type not match\");\n\t\t_ledger = ILedger(addr);\n\t\temit Change(\"Ledger\");\n\t}\n\n\tfunction setAssetGlobal(address addr) external OnlyDAO {\n\t\tERC165(addr).checkInterface(AssetGlobal_ID, \"#DAO#setAssetGlobal type not match\");\n\t\t_assetGlobal = IAssetGlobal(addr);\n\t\temit Change(\"AssetGlobal\");\n\t}\n\n\tfunction setAsset(address addr) external OnlyDAO {\n\t\tERC165(addr).checkInterface(Asset_ID, \"#DAO#setAsset type not match\");\n\t\t_asset = IAsset(addr);\n\t\temit Change(\"Asset\");\n\t}\n\n\tfunction setDepartments(address addr, bool isDel) external OnlyDAO {\n\t\tERC165(addr).checkInterface(Department_ID, \"#DAO#setDepartments type not match\");\n\n\t\tif (_departments.contains(addr)) {\n\t\t\tif (isDel) _departments.remove(addr);\n\t\t} else {\n\t\t\tif (!isDel) _departments.add(addr);\n\t\t}\n\t\temit Change(\"Department\");\n\t}\n\n}",
  "sourcePath": "/Users/louis/Project/hc/NFTSwap/SmartHolder/contracts/DAO.sol",
  "compiler": {
    "name": "solc",
    "version": "0.6.12+commit.27d51765.Emscripten.clang"
  },
  "schemaVersion": "3.4.8",
  "updatedAt": "2022-07-18T02:17:43.316Z",
  "networkType": "ethereum",
  "devdoc": {
    "kind": "dev",
    "methods": {
      "supportsInterface(bytes4)": {
        "details": "See {IERC165-supportsInterface}. Time complexity O(1), guaranteed to always use less than 30 000 gas."
      }
    },
    "version": 1
  },
  "userdoc": {
    "kind": "user",
    "methods": {},
    "version": 1
  }
}