{
  "contractName": "DAO",
  "abi": [
    {
      "anonymous": false,
      "inputs": [
        {
          "indexed": false,
          "internalType": "string",
          "name": "tag",
          "type": "string"
        }
      ],
      "name": "Change",
      "type": "event"
    },
    {
      "inputs": [
        {
          "internalType": "bytes4",
          "name": "interfaceId",
          "type": "bytes4"
        },
        {
          "internalType": "string",
          "name": "message",
          "type": "string"
        }
      ],
      "name": "checkInterface",
      "outputs": [],
      "stateMutability": "view",
      "type": "function",
      "constant": true
    },
    {
      "inputs": [],
      "name": "description",
      "outputs": [
        {
          "internalType": "string",
          "name": "",
          "type": "string"
        }
      ],
      "stateMutability": "view",
      "type": "function",
      "constant": true
    },
    {
      "inputs": [],
      "name": "host",
      "outputs": [
        {
          "internalType": "contract IDAO",
          "name": "",
          "type": "address"
        }
      ],
      "stateMutability": "view",
      "type": "function",
      "constant": true
    },
    {
      "inputs": [],
      "name": "impl",
      "outputs": [
        {
          "internalType": "address",
          "name": "",
          "type": "address"
        }
      ],
      "stateMutability": "view",
      "type": "function",
      "constant": true
    },
    {
      "inputs": [],
      "name": "operator",
      "outputs": [
        {
          "internalType": "contract IVotePool",
          "name": "",
          "type": "address"
        }
      ],
      "stateMutability": "view",
      "type": "function",
      "constant": true
    },
    {
      "inputs": [
        {
          "internalType": "address",
          "name": "vote",
          "type": "address"
        }
      ],
      "name": "setOperator",
      "outputs": [],
      "stateMutability": "nonpayable",
      "type": "function"
    },
    {
      "inputs": [
        {
          "internalType": "bytes4",
          "name": "interfaceId",
          "type": "bytes4"
        }
      ],
      "name": "supportsInterface",
      "outputs": [
        {
          "internalType": "bool",
          "name": "",
          "type": "bool"
        }
      ],
      "stateMutability": "view",
      "type": "function",
      "constant": true
    },
    {
      "inputs": [
        {
          "internalType": "address",
          "name": "impl",
          "type": "address"
        }
      ],
      "name": "upgrade",
      "outputs": [],
      "stateMutability": "nonpayable",
      "type": "function"
    },
    {
      "inputs": [],
      "name": "name",
      "outputs": [
        {
          "internalType": "string",
          "name": "",
          "type": "string"
        }
      ],
      "stateMutability": "view",
      "type": "function",
      "constant": true
    },
    {
      "inputs": [],
      "name": "mission",
      "outputs": [
        {
          "internalType": "string",
          "name": "",
          "type": "string"
        }
      ],
      "stateMutability": "view",
      "type": "function",
      "constant": true
    },
    {
      "inputs": [],
      "name": "root",
      "outputs": [
        {
          "internalType": "contract IVotePool",
          "name": "",
          "type": "address"
        }
      ],
      "stateMutability": "view",
      "type": "function",
      "constant": true
    },
    {
      "inputs": [],
      "name": "member",
      "outputs": [
        {
          "internalType": "contract IMember",
          "name": "",
          "type": "address"
        }
      ],
      "stateMutability": "view",
      "type": "function",
      "constant": true
    },
    {
      "inputs": [],
      "name": "ledger",
      "outputs": [
        {
          "internalType": "contract ILedger",
          "name": "",
          "type": "address"
        }
      ],
      "stateMutability": "view",
      "type": "function",
      "constant": true
    },
    {
      "inputs": [],
      "name": "assetGlobal",
      "outputs": [
        {
          "internalType": "contract IAssetGlobal",
          "name": "",
          "type": "address"
        }
      ],
      "stateMutability": "view",
      "type": "function",
      "constant": true
    },
    {
      "inputs": [],
      "name": "asset",
      "outputs": [
        {
          "internalType": "contract IAsset",
          "name": "",
          "type": "address"
        }
      ],
      "stateMutability": "view",
      "type": "function",
      "constant": true
    },
    {
      "inputs": [],
      "name": "initInterfaceID",
      "outputs": [],
      "stateMutability": "nonpayable",
      "type": "function"
    },
    {
      "inputs": [
        {
          "internalType": "string",
          "name": "name",
          "type": "string"
        },
        {
          "internalType": "string",
          "name": "mission",
          "type": "string"
        },
        {
          "internalType": "string",
          "name": "description",
          "type": "string"
        },
        {
          "internalType": "address",
          "name": "operator",
          "type": "address"
        },
        {
          "internalType": "address",
          "name": "root",
          "type": "address"
        },
        {
          "internalType": "address",
          "name": "member",
          "type": "address"
        },
        {
          "internalType": "address",
          "name": "ledger",
          "type": "address"
        },
        {
          "internalType": "address",
          "name": "assetGlobal",
          "type": "address"
        },
        {
          "internalType": "address",
          "name": "asset",
          "type": "address"
        }
      ],
      "name": "initDAO",
      "outputs": [],
      "stateMutability": "nonpayable",
      "type": "function"
    },
    {
      "inputs": [
        {
          "internalType": "string",
          "name": "mission",
          "type": "string"
        },
        {
          "internalType": "string",
          "name": "description",
          "type": "string"
        }
      ],
      "name": "setMissionAndDesc",
      "outputs": [],
      "stateMutability": "nonpayable",
      "type": "function"
    },
    {
      "inputs": [
        {
          "internalType": "address",
          "name": "addr",
          "type": "address"
        }
      ],
      "name": "setLedger",
      "outputs": [],
      "stateMutability": "nonpayable",
      "type": "function"
    },
    {
      "inputs": [
        {
          "internalType": "address",
          "name": "addr",
          "type": "address"
        }
      ],
      "name": "setAssetGlobal",
      "outputs": [],
      "stateMutability": "nonpayable",
      "type": "function"
    },
    {
      "inputs": [
        {
          "internalType": "address",
          "name": "addr",
          "type": "address"
        }
      ],
      "name": "setAsset",
      "outputs": [],
      "stateMutability": "nonpayable",
      "type": "function"
    },
    {
      "inputs": [
        {
          "internalType": "address",
          "name": "addr",
          "type": "address"
        }
      ],
      "name": "setMember",
      "outputs": [],
      "stateMutability": "nonpayable",
      "type": "function"
    },
    {
      "inputs": [
        {
          "internalType": "address",
          "name": "addr",
          "type": "address"
        },
        {
          "internalType": "bool",
          "name": "isDel",
          "type": "bool"
        }
      ],
      "name": "setDepartments",
      "outputs": [],
      "stateMutability": "nonpayable",
      "type": "function"
    }
  ],
  "bytecode": "0x608060405234801561001057600080fd5b50611d89806100206000396000f3fe608060405234801561001057600080fd5b506004361061014d5760003560e01c806378adfe95116100c3578063c3cf91f51161007c578063c3cf91f514610637578063c64df69d1461065d578063d0d552dd14610712578063e3f6b54414610738578063ebf0c71714610740578063f437bc59146107485761014d565b806378adfe95146102d25780638abf6077146104b2578063923e51d5146104ba578063b3ab15fb146104e0578063b4f1013614610506578063bc3ae11f1461062f5761014d565b8063369dc27d11610115578063369dc27d1461026057806338d52e0f1461026857806356397c351461028c578063570ca735146102945780637284e4161461029c57806372acc196146102a45761014d565b806301ffc9a71461015257806306fdde031461018d5780630900f0101461020a57806317701ee6146102325780633246887d1461023a575b600080fd5b6101796004803603602081101561016857600080fd5b50356001600160e01b031916610750565b604080519115158252519081900360200190f35b61019561076f565b6040805160208082528351818301528351919283929083019185019080838360005b838110156101cf5781810151838201526020016101b7565b50505050905090810190601f1680156101fc5780820380516001836020036101000a031916815260200191505b509250505060405180910390f35b6102306004803603602081101561022057600080fd5b50356001600160a01b0316610806565b005b61019561086b565b6102306004803603602081101561025057600080fd5b50356001600160a01b03166108cc565b6102306109fe565b610270610a72565b604080516001600160a01b039092168252519081900360200190f35b610270610a81565b610270610a90565b610195610a9f565b610230600480360360408110156102ba57600080fd5b506001600160a01b0381351690602001351515610b00565b61023060048036036101208110156102e957600080fd5b810190602081018135600160201b81111561030357600080fd5b82018360208201111561031557600080fd5b803590602001918460018302840111600160201b8311171561033657600080fd5b91908080601f0160208091040260200160405190810160405280939291908181526020018383808284376000920191909152509295949360208101935035915050600160201b81111561038857600080fd5b82018360208201111561039a57600080fd5b803590602001918460018302840111600160201b831117156103bb57600080fd5b91908080601f0160208091040260200160405190810160405280939291908181526020018383808284376000920191909152509295949360208101935035915050600160201b81111561040d57600080fd5b82018360208201111561041f57600080fd5b803590602001918460018302840111600160201b8311171561044057600080fd5b91908080601f016020809104026020016040519081016040528093929190818152602001838380828437600092019190915250929550505081356001600160a01b03908116935060208301358116926040810135821692506060810135821691608082013581169160a0013516610c47565b610270610fce565b610230600480360360208110156104d057600080fd5b50356001600160a01b0316610fdd565b610230600480360360208110156104f657600080fd5b50356001600160a01b031661110f565b6102306004803603604081101561051c57600080fd5b810190602081018135600160201b81111561053657600080fd5b82018360208201111561054857600080fd5b803590602001918460018302840111600160201b8311171561056957600080fd5b91908080601f0160208091040260200160405190810160405280939291908181526020018383808284376000920191909152509295949360208101935035915050600160201b8111156105bb57600080fd5b8201836020820111156105cd57600080fd5b803590602001918460018302840111600160201b831117156105ee57600080fd5b91908080601f01602080910402602001604051908101604052809392919081815260200183838082843760009201919091525092955061115e945050505050565b61027061120c565b6102306004803603602081101561064d57600080fd5b50356001600160a01b031661121b565b6102306004803603604081101561067357600080fd5b6001600160e01b03198235169190810190604081016020820135600160201b81111561069e57600080fd5b8201836020820111156106b057600080fd5b803590602001918460018302840111600160201b831117156106d157600080fd5b91908080601f01602080910402602001604051908101604052809392919081815260200183838082843760009201919091525092955061133b945050505050565b6102306004803603602081101561072857600080fd5b50356001600160a01b03166113d3565b610270611504565b610270611513565b610270611522565b6001600160e01b03191660009081526001602052604090205460ff1690565b60058054604080516020601f60026000196101006001881615020190951694909404938401819004810282018101909252828152606093909290918301828280156107fb5780601f106107d0576101008083540402835291602001916107fb565b820191906000526020600020905b8154815290600101906020018083116107de57829003601f168201915b505050505090505b90565b61080e611531565b6108495760405162461bcd60e51b8152600401808060200182810382526033815260200180611b996033913960400191505060405180910390fd5b600080546001600160a01b0319166001600160a01b0392909216919091179055565b60068054604080516020601f60026000196101006001881615020190951694909404938401819004810282018101909252828152606093909290918301828280156107fb5780601f106107d0576101008083540402835291602001916107fb565b6108d4611531565b61090f5760405162461bcd60e51b8152600401808060200182810382526033815260200180611b996033913960400191505060405180910390fd5b6040805163c64df69d60e01b815263f4c38e5160e01b600482015260248101829052601d60448201527f2344414f237365744c65646765722074797065206e6f74206d61746368000000606482015290516001600160a01b0383169163c64df69d916084808301926000929190829003018186803b15801561099057600080fd5b505afa1580156109a4573d6000803e3d6000fd5b5050600980546001600160a01b0319166001600160a01b0385161790555050604080516020808252600690820152652632b233b2b960d11b818301529051600080516020611d0d833981519152916060908290030190a150565b610a0e6363daa99b60e11b610750565b15610a60576040805162461bcd60e51b815260206004820152601760248201527f43616e206f6e6c792062652063616c6c6564206f6e6365000000000000000000604482015290519081900360640190fd5b610a706363daa99b60e11b61166b565b565b600b546001600160a01b031690565b6009546001600160a01b031690565b6002546001600160a01b031690565b60048054604080516020601f60026000196101006001881615020190951694909404938401819004810282018101909252828152606093909290918301828280156107fb5780601f106107d0576101008083540402835291602001916107fb565b610b08611531565b610b435760405162461bcd60e51b8152600401808060200182810382526033815260200180611b996033913960400191505060405180910390fd5b6040805163c64df69d60e01b81526336c6362d60e01b60048201818152602483019384526022604484018190526001600160a01b0387169463c64df69d949091606490910190611c2082396040019250505060006040518083038186803b158015610bad57600080fd5b505afa158015610bc1573d6000803e3d6000fd5b50505050610bd982600d6116f290919063ffffffff16565b15610bf6578015610bf157610bef600d83611710565b505b610c08565b80610c0857610c06600d83611725565b505b604080516020808252600a908201526911195c185c9d1b595b9d60b21b818301529051600080516020611d0d8339815191529181900360600190a15050565b610c5230888861173a565b6040805163c64df69d60e01b8152630ddf27bf60e01b600482015260248101829052602060448201527f2344414f23696e697444414f20726f6f742074797065206e6f74206d61746368606482015290516001600160a01b0387169163c64df69d916084808301926000929190829003018186803b158015610cd357600080fd5b505afa158015610ce7573d6000803e3d6000fd5b50505050836001600160a01b031663c64df69d6323fc76b960e01b6040518263ffffffff1660e01b815260040180826001600160e01b03191681526020018060200182810382526022815260200180611cc9602291396040019250505060006040518083038186803b158015610d5c57600080fd5b505afa158015610d70573d6000803e3d6000fd5b50505050826001600160a01b031663c64df69d63f4c38e5160e01b6040518263ffffffff1660e01b815260040180826001600160e01b03191681526020018060200182810382526022815260200180611ceb602291396040019250505060006040518083038186803b158015610de557600080fd5b505afa158015610df9573d6000803e3d6000fd5b50505050816001600160a01b031663c64df69d63711cc62c60e01b6040518263ffffffff1660e01b815260040180826001600160e01b03191681526020018060200182810382526027815260200180611d2d602791396040019250505060006040518083038186803b158015610e6e57600080fd5b505afa158015610e82573d6000803e3d6000fd5b50505050806001600160a01b031663c64df69d63b6f00dcf60e01b6040518263ffffffff1660e01b815260040180826001600160e01b03191681526020018060200182810382526021815260200180611c42602191396040019250505060006040518083038186803b158015610ef757600080fd5b505afa158015610f0b573d6000803e3d6000fd5b50508a51610f2292506005915060208c0190611b05565b508751610f369060069060208b0190611b05565b50600780546001600160a01b038088166001600160a01b0319928316179092556008805487841690831617905560098054868416908316179055600a8054858416908316179055600b80549284169290911691909117905560408051602080825260049082015263125b9a5d60e21b818301529051600080516020611d0d8339815191529181900360600190a1505050505050505050565b6000546001600160a01b031690565b610fe5611531565b6110205760405162461bcd60e51b8152600401808060200182810382526033815260200180611b996033913960400191505060405180910390fd5b6040805163c64df69d60e01b81526323fc76b960e01b600482015260248101829052601c60448201527f2344414f2373657441737365742074797065206e6f74206d6174636800000000606482015290516001600160a01b0383169163c64df69d916084808301926000929190829003018186803b1580156110a157600080fd5b505afa1580156110b5573d6000803e3d6000fd5b5050600880546001600160a01b0319166001600160a01b03851617905550506040805160208082526006908201526526b2b6b132b960d11b818301529051600080516020611d0d833981519152916060908290030190a150565b611117611531565b6111525760405162461bcd60e51b8152600401808060200182810382526033815260200180611b996033913960400191505060405180910390fd5b61115b81611808565b50565b611166611531565b6111a15760405162461bcd60e51b8152600401808060200182810382526033815260200180611b996033913960400191505060405180910390fd5b80516111b4906004906020840190611b05565b5081516111c8906006906020850190611b05565b50604080516020808252600e908201526d4d697373696f6e416e644465736360901b818301529051600080516020611d0d8339815191529181900360600190a15050565b600a546001600160a01b031690565b611223611531565b61125e5760405162461bcd60e51b8152600401808060200182810382526033815260200180611b996033913960400191505060405180910390fd5b6040805163c64df69d60e01b8152631c47318b60e21b60048201818152602483019384526022604484018190526001600160a01b0386169463c64df69d949091606490910190611bcc82396040019250505060006040518083038186803b1580156112c857600080fd5b505afa1580156112dc573d6000803e3d6000fd5b5050600a80546001600160a01b0319166001600160a01b0385161790555050604080516020808252600b908201526a105cdcd95d11db1bd8985b60aa1b818301529051600080516020611d0d833981519152916060908290030190a150565b61134482610750565b81906113ce5760405162461bcd60e51b81526004018080602001828103825283818151815260200191508051906020019080838360005b8381101561139357818101518382015260200161137b565b50505050905090810190601f1680156113c05780820380516001836020036101000a031916815260200191505b509250505060405180910390fd5b505050565b6113db611531565b6114165760405162461bcd60e51b8152600401808060200182810382526033815260200180611b996033913960400191505060405180910390fd5b6040805163c64df69d60e01b815263b6f00dcf60e01b600482015260248101829052601c60448201527f2344414f2373657441737365742074797065206e6f74206d6174636800000000606482015290516001600160a01b0383169163c64df69d916084808301926000929190829003018186803b15801561149757600080fd5b505afa1580156114ab573d6000803e3d6000fd5b5050600b80546001600160a01b0319166001600160a01b038516179055505060408051602080825260059082015264105cdcd95d60da1b818301529051600080516020611d0d833981519152916060908290030190a150565b6008546001600160a01b031690565b6007546001600160a01b031690565b6003546001600160a01b031690565b60025460009033906001600160a01b0316811461166357600360009054906101000a90046001600160a01b03166001600160a01b031663570ca7356040518163ffffffff1660e01b815260040160206040518083038186803b15801561159657600080fd5b505afa1580156115aa573d6000803e3d6000fd5b505050506040513d60208110156115c057600080fd5b50516001600160a01b0382811691161461166357600360009054906101000a90046001600160a01b03166001600160a01b031663ebf0c7176040518163ffffffff1660e01b815260040160206040518083038186803b15801561162257600080fd5b505afa158015611636573d6000803e3d6000fd5b505050506040513d602081101561164c57600080fd5b50516001600160a01b039182169116149050610803565b600191505090565b6001600160e01b031980821614156116ca576040805162461bcd60e51b815260206004820152601c60248201527f4552433136353a20696e76616c696420696e7465726661636520696400000000604482015290519081900360640190fd5b6001600160e01b0319166000908152600160208190526040909120805460ff19169091179055565b6000611707836001600160a01b0384166118d3565b90505b92915050565b6000611707836001600160a01b0384166118eb565b6000611707836001600160a01b0384166119b1565b6117426119fb565b6117526336c6362d60e01b61166b565b6040805163c64df69d60e01b81526363daa99b60e11b60048201818152602483019384526032604484018190526001600160a01b0388169463c64df69d949091606490910190611bee82396040019250505060006040518083038186803b1580156117bc57600080fd5b505afa1580156117d0573d6000803e3d6000fd5b5050600380546001600160a01b0319166001600160a01b03871617905550508151611802906004906020850190611b05565b506113ce815b6001600160a01b038116156118b157611829816001600160a01b0316611ac3565b156118b1576040805163c64df69d60e01b8152630ddf27bf60e01b60048201818152602483019384526038604484018190526001600160a01b0386169463c64df69d949091606490910190611c6382396040019250505060006040518083038186803b15801561189857600080fd5b505afa1580156118ac573d6000803e3d6000fd5b505050505b600280546001600160a01b0319166001600160a01b0392909216919091179055565b60009081526001919091016020526040902054151590565b600081815260018301602052604081205480156119a7578354600019808301919081019060009087908390811061191e57fe5b906000526020600020015490508087600001848154811061193b57fe5b60009182526020808320909101929092558281526001898101909252604090209084019055865487908061196b57fe5b6001900381819060005260206000200160009055905586600101600087815260200190815260200160002060009055600194505050505061170a565b600091505061170a565b60006119bd83836118d3565b6119f35750815460018181018455600084815260208082209093018490558454848252828601909352604090209190915561170a565b50600061170a565b600054600160a81b900460ff1680611a165750611a16611aff565b80611a2b5750600054600160a01b900460ff16155b611a665760405162461bcd60e51b815260040180806020018281038252602e815260200180611c9b602e913960400191505060405180910390fd5b600054600160a81b900460ff16158015611a9d576000805460ff60a01b1960ff60a81b19909116600160a81b1716600160a01b1790555b611aad6301ffc9a760e01b61166b565b801561115b576000805460ff60a81b1916905550565b6000813f7fc5d2460186f7233c927e7db2dcc703c0e500b653ca82273b7bfad8045d85a470818114801590611af757508115155b949350505050565b303b1590565b828054600181600116156101000203166002900490600052602060002090601f016020900481019282601f10611b4657805160ff1916838001178555611b73565b82800160010185558215611b73579182015b82811115611b73578251825591602001919060010190611b58565b50611b7f929150611b83565b5090565b5b80821115611b7f5760008155600101611b8456fe234465706172746d656e74234f6e6c7944414f2063616c6c657220646f6573206e6f742068617665207065726d697373696f6e2344414f237365744173736574476c6f62616c2074797065206e6f74206d61746368234465706172746d656e7423696e69744465706172746d656e742064616f20686f73742074797065206e6f74206d617463682344414f237365744465706172746d656e74732074797065206e6f74206d617463682344414f23696e697444414f2061737365742074797065206e6f74206d61746368234465706172746d656e74237365744f70657261746f725f696e7465726e616c206f70657261746f722074797065206e6f74206d61746368436f6e747261637420696e7374616e63652068617320616c7265616479206265656e20696e697469616c697a65642344414f23696e697444414f206d656d6265722074797065206e6f74206d617463682344414f23696e697444414f206c65646765722074797065206e6f74206d617463686545debb088bd81af091fb3bbd8a005c9f7a28af228177ba1b794fbffd33fe472344414f23696e697444414f206173736574476c6f62616c2074797065206e6f74206d61746368a26469706673582212204ec62a2aecd999245068072c54a7b66bcc9e04b93be68718be261e048a159ee364736f6c634300060c0033",
  "immutableReferences": {},
  "source": "\npragma solidity >=0.6.0 <=0.8.15;\n\nimport \"./Department.sol\";\nimport \"../openzeppelin/contracts-ethereum-package/contracts/utils/EnumerableSet.sol\";\n\ncontract DAO is IDAO, Department {\n\tusing EnumerableSet for EnumerableSet.AddressSet;\n\n\tstring internal _name;\n\tstring internal _mission;\n\tIVotePool private _root;\n\tIMember private _member;\n\tILedger private _ledger;\n\tIAssetGlobal private _assetGlobal;\n\tIAsset private _asset;\n\taddress private __exchange;\n\tEnumerableSet.AddressSet private _departments;\n\tuint256[50] private __gap;\n\n\tfunction name() view external returns (string memory) { return _name; }\n\tfunction mission() view external returns (string memory) { return _mission; }\n\tfunction root() view external override returns (IVotePool) { return _root; }\n\tfunction member() view external override returns (IMember) { return _member; }\n\tfunction ledger() view external override returns (ILedger) { return _ledger; }\n\tfunction assetGlobal() view external override returns (IAssetGlobal) { return _assetGlobal; }\n\tfunction asset() view external override returns (IAsset) { return _asset; }\n\n\tfunction initInterfaceID() external {\n\t\trequire(!supportsInterface(DAO_ID), \"Can only be called once\");\n\t\t_registerInterface(DAO_ID);\n\t}\n\n\tfunction initDAO(\n\t\tstring memory name,\n\t\tstring memory mission,\n\t\tstring memory description,\n\t\taddress operator, address root,\n\t\taddress member, address ledger,\n\t\taddress assetGlobal, address asset\n\t) external {\n\t\tinitDepartment(address(this), description, operator);\n\n\t\tERC165(root).checkInterface(VotePool_ID, \"#DAO#initDAO root type not match\");\n\t\tERC165(member).checkInterface(Member_ID, \"#DAO#initDAO member type not match\");\n\t\tERC165(ledger).checkInterface(Ledger_ID, \"#DAO#initDAO ledger type not match\");\n\t\tERC165(assetGlobal).checkInterface(AssetGlobal_ID, \"#DAO#initDAO assetGlobal type not match\");\n\t\tERC165(asset).checkInterface(Asset_ID, \"#DAO#initDAO asset type not match\");\n\n\t\t_name = name;\n\t\t_mission = mission;\n\t\t_root = IVotePool(root);\n\t\t_member = IMember(member);\n\t\t_ledger = ILedger(ledger);\n\t\t_assetGlobal = IAssetGlobal(assetGlobal);\n\t\t_asset = IAsset(asset);\n\n\t\temit Change(\"Init\");\n\t}\n\n\tfunction setMissionAndDesc(string memory mission, string memory description) external OnlyDAO {\n\t\t_description = description;\n\t\t_mission = mission;\n\t\temit Change(\"MissionAndDesc\");\n\t}\n\n\tfunction setLedger(address addr) external OnlyDAO {\n\t\tERC165(addr).checkInterface(Ledger_ID, \"#DAO#setLedger type not match\");\n\t\t_ledger = ILedger(addr);\n\t\temit Change(\"Ledger\");\n\t}\n\n\tfunction setAssetGlobal(address addr) external OnlyDAO {\n\t\tERC165(addr).checkInterface(AssetGlobal_ID, \"#DAO#setAssetGlobal type not match\");\n\t\t_assetGlobal = IAssetGlobal(addr);\n\t\temit Change(\"AssetGlobal\");\n\t}\n\n\tfunction setAsset(address addr) external OnlyDAO {\n\t\tERC165(addr).checkInterface(Asset_ID, \"#DAO#setAsset type not match\");\n\t\t_asset = IAsset(addr);\n\t\temit Change(\"Asset\");\n\t}\n\n\tfunction setMember(address addr) external OnlyDAO {\n\t\tERC165(addr).checkInterface(Member_ID, \"#DAO#setAsset type not match\");\n\t\t_member = IMember(addr);\n\t\temit Change(\"Member\");\n\t}\n\n\tfunction setDepartments(address addr, bool isDel) external OnlyDAO {\n\t\tERC165(addr).checkInterface(Department_ID, \"#DAO#setDepartments type not match\");\n\n\t\tif (_departments.contains(addr)) {\n\t\t\tif (isDel) _departments.remove(addr);\n\t\t} else {\n\t\t\tif (!isDel) _departments.add(addr);\n\t\t}\n\t\temit Change(\"Department\");\n\t}\n\n}",
  "sourcePath": "/Users/louis/Project/hc/NFTSwap/SmartHolder/contracts/DAO.sol",
  "compiler": {
    "name": "solc",
    "version": "0.6.12+commit.27d51765.Emscripten.clang"
  },
  "schemaVersion": "3.4.8",
  "updatedAt": "2022-08-15T05:13:53.592Z",
  "networkType": "ethereum",
  "devdoc": {
    "kind": "dev",
    "methods": {
      "supportsInterface(bytes4)": {
        "details": "See {IERC165-supportsInterface}. Time complexity O(1), guaranteed to always use less than 30 000 gas."
      }
    },
    "version": 1
  },
  "userdoc": {
    "kind": "user",
    "methods": {},
    "version": 1
  }
}