{
  "contractName": "DAO",
  "abi": [
    {
      "anonymous": false,
      "inputs": [
        {
          "indexed": false,
          "internalType": "string",
          "name": "tag",
          "type": "string"
        }
      ],
      "name": "Change",
      "type": "event"
    },
    {
      "inputs": [
        {
          "internalType": "bytes4",
          "name": "interfaceId",
          "type": "bytes4"
        },
        {
          "internalType": "string",
          "name": "message",
          "type": "string"
        }
      ],
      "name": "checkInterface",
      "outputs": [],
      "stateMutability": "view",
      "type": "function"
    },
    {
      "inputs": [],
      "name": "description",
      "outputs": [
        {
          "internalType": "string",
          "name": "",
          "type": "string"
        }
      ],
      "stateMutability": "view",
      "type": "function"
    },
    {
      "inputs": [],
      "name": "host",
      "outputs": [
        {
          "internalType": "contract IDAO",
          "name": "",
          "type": "address"
        }
      ],
      "stateMutability": "view",
      "type": "function"
    },
    {
      "inputs": [],
      "name": "impl",
      "outputs": [
        {
          "internalType": "address",
          "name": "",
          "type": "address"
        }
      ],
      "stateMutability": "view",
      "type": "function"
    },
    {
      "inputs": [],
      "name": "operator",
      "outputs": [
        {
          "internalType": "contract IVotePool",
          "name": "",
          "type": "address"
        }
      ],
      "stateMutability": "view",
      "type": "function"
    },
    {
      "inputs": [
        {
          "internalType": "address",
          "name": "vote",
          "type": "address"
        }
      ],
      "name": "setOperator",
      "outputs": [],
      "stateMutability": "nonpayable",
      "type": "function"
    },
    {
      "inputs": [
        {
          "internalType": "bytes4",
          "name": "interfaceId",
          "type": "bytes4"
        }
      ],
      "name": "supportsInterface",
      "outputs": [
        {
          "internalType": "bool",
          "name": "",
          "type": "bool"
        }
      ],
      "stateMutability": "view",
      "type": "function"
    },
    {
      "inputs": [
        {
          "internalType": "address",
          "name": "impl",
          "type": "address"
        }
      ],
      "name": "upgrade",
      "outputs": [],
      "stateMutability": "nonpayable",
      "type": "function"
    },
    {
      "inputs": [],
      "name": "name",
      "outputs": [
        {
          "internalType": "string",
          "name": "",
          "type": "string"
        }
      ],
      "stateMutability": "view",
      "type": "function"
    },
    {
      "inputs": [],
      "name": "mission",
      "outputs": [
        {
          "internalType": "string",
          "name": "",
          "type": "string"
        }
      ],
      "stateMutability": "view",
      "type": "function"
    },
    {
      "inputs": [],
      "name": "root",
      "outputs": [
        {
          "internalType": "contract IVotePool",
          "name": "",
          "type": "address"
        }
      ],
      "stateMutability": "view",
      "type": "function"
    },
    {
      "inputs": [],
      "name": "member",
      "outputs": [
        {
          "internalType": "contract IMember",
          "name": "",
          "type": "address"
        }
      ],
      "stateMutability": "view",
      "type": "function"
    },
    {
      "inputs": [],
      "name": "ledger",
      "outputs": [
        {
          "internalType": "contract ILedger",
          "name": "",
          "type": "address"
        }
      ],
      "stateMutability": "view",
      "type": "function"
    },
    {
      "inputs": [],
      "name": "assetGlobal",
      "outputs": [
        {
          "internalType": "contract IAssetGlobal",
          "name": "",
          "type": "address"
        }
      ],
      "stateMutability": "view",
      "type": "function"
    },
    {
      "inputs": [],
      "name": "asset",
      "outputs": [
        {
          "internalType": "contract IAsset",
          "name": "",
          "type": "address"
        }
      ],
      "stateMutability": "view",
      "type": "function"
    },
    {
      "inputs": [],
      "name": "initInterfaceID",
      "outputs": [],
      "stateMutability": "nonpayable",
      "type": "function"
    },
    {
      "inputs": [
        {
          "internalType": "string",
          "name": "name",
          "type": "string"
        },
        {
          "internalType": "string",
          "name": "mission",
          "type": "string"
        },
        {
          "internalType": "string",
          "name": "description",
          "type": "string"
        },
        {
          "internalType": "address",
          "name": "operator",
          "type": "address"
        },
        {
          "internalType": "address",
          "name": "root",
          "type": "address"
        },
        {
          "internalType": "address",
          "name": "member",
          "type": "address"
        },
        {
          "internalType": "address",
          "name": "ledger",
          "type": "address"
        },
        {
          "internalType": "address",
          "name": "assetGlobal",
          "type": "address"
        },
        {
          "internalType": "address",
          "name": "asset",
          "type": "address"
        }
      ],
      "name": "initDAO",
      "outputs": [],
      "stateMutability": "nonpayable",
      "type": "function"
    },
    {
      "inputs": [
        {
          "internalType": "string",
          "name": "mission",
          "type": "string"
        },
        {
          "internalType": "string",
          "name": "description",
          "type": "string"
        }
      ],
      "name": "setMissionAndDesc",
      "outputs": [],
      "stateMutability": "nonpayable",
      "type": "function"
    },
    {
      "inputs": [
        {
          "internalType": "address",
          "name": "addr",
          "type": "address"
        }
      ],
      "name": "setLedger",
      "outputs": [],
      "stateMutability": "nonpayable",
      "type": "function"
    },
    {
      "inputs": [
        {
          "internalType": "address",
          "name": "addr",
          "type": "address"
        }
      ],
      "name": "setAssetGlobal",
      "outputs": [],
      "stateMutability": "nonpayable",
      "type": "function"
    },
    {
      "inputs": [
        {
          "internalType": "address",
          "name": "addr",
          "type": "address"
        }
      ],
      "name": "setAsset",
      "outputs": [],
      "stateMutability": "nonpayable",
      "type": "function"
    },
    {
      "inputs": [
        {
          "internalType": "address",
          "name": "addr",
          "type": "address"
        }
      ],
      "name": "setMember",
      "outputs": [],
      "stateMutability": "nonpayable",
      "type": "function"
    },
    {
      "inputs": [
        {
          "internalType": "address",
          "name": "addr",
          "type": "address"
        },
        {
          "internalType": "bool",
          "name": "isDel",
          "type": "bool"
        }
      ],
      "name": "setDepartments",
      "outputs": [],
      "stateMutability": "nonpayable",
      "type": "function"
    }
  ],
  "bytecode": "0x608060405234801561001057600080fd5b50612554806100206000396000f3fe608060405234801561001057600080fd5b506004361061014d5760003560e01c806378adfe95116100c3578063c3cf91f51161007c578063c3cf91f514610637578063c64df69d1461065d578063d0d552dd14610712578063e3f6b54414610738578063ebf0c71714610740578063f437bc59146107485761014d565b806378adfe95146102d25780638abf6077146104b2578063923e51d5146104ba578063b3ab15fb146104e0578063b4f1013614610506578063bc3ae11f1461062f5761014d565b8063369dc27d11610115578063369dc27d1461026057806338d52e0f1461026857806356397c351461028c578063570ca735146102945780637284e4161461029c57806372acc196146102a45761014d565b806301ffc9a71461015257806306fdde031461018d5780630900f0101461020a57806317701ee6146102325780633246887d1461023a575b600080fd5b6101796004803603602081101561016857600080fd5b50356001600160e01b031916610750565b604080519115158252519081900360200190f35b61019561076f565b6040805160208082528351818301528351919283929083019185019080838360005b838110156101cf5781810151838201526020016101b7565b50505050905090810190601f1680156101fc5780820380516001836020036101000a031916815260200191505b509250505060405180910390f35b6102306004803603602081101561022057600080fd5b50356001600160a01b0316610805565b005b61019561098b565b6102306004803603602081101561025057600080fd5b50356001600160a01b03166109ec565b610230610c3f565b610270610cb3565b604080516001600160a01b039092168252519081900360200190f35b610270610cc2565b610270610cd1565b610195610ce0565b610230600480360360408110156102ba57600080fd5b506001600160a01b0381351690602001351515610d41565b61023060048036036101208110156102e957600080fd5b810190602081018135600160201b81111561030357600080fd5b82018360208201111561031557600080fd5b803590602001918460018302840111600160201b8311171561033657600080fd5b91908080601f0160208091040260200160405190810160405280939291908181526020018383808284376000920191909152509295949360208101935035915050600160201b81111561038857600080fd5b82018360208201111561039a57600080fd5b803590602001918460018302840111600160201b831117156103bb57600080fd5b91908080601f0160208091040260200160405190810160405280939291908181526020018383808284376000920191909152509295949360208101935035915050600160201b81111561040d57600080fd5b82018360208201111561041f57600080fd5b803590602001918460018302840111600160201b8311171561044057600080fd5b91908080601f016020809104026020016040519081016040528093929190818152602001838380828437600092019190915250929550505081356001600160a01b03908116935060208301358116926040810135821692506060810135821691608082013581169160a0013516610fa9565b610270611330565b610230600480360360208110156104d057600080fd5b50356001600160a01b031661133f565b610230600480360360208110156104f657600080fd5b50356001600160a01b0316611592565b6102306004803603604081101561051c57600080fd5b810190602081018135600160201b81111561053657600080fd5b82018360208201111561054857600080fd5b803590602001918460018302840111600160201b8311171561056957600080fd5b91908080601f0160208091040260200160405190810160405280939291908181526020018383808284376000920191909152509295949360208101935035915050600160201b8111156105bb57600080fd5b8201836020820111156105cd57600080fd5b803590602001918460018302840111600160201b831117156105ee57600080fd5b91908080601f016020809104026020016040519081016040528093929190818152602001838380828437600092019190915250929550611702945050505050565b6102706118d1565b6102306004803603602081101561064d57600080fd5b50356001600160a01b03166118e0565b6102306004803603604081101561067357600080fd5b6001600160e01b03198235169190810190604081016020820135600160201b81111561069e57600080fd5b8201836020820111156106b057600080fd5b803590602001918460018302840111600160201b831117156106d157600080fd5b91908080601f016020809104026020016040519081016040528093929190818152602001838380828437600092019190915250929550611b21945050505050565b6102306004803603602081101561072857600080fd5b50356001600160a01b0316611bb9565b610270611e0b565b610270611e1a565b610270611e29565b6001600160e01b03191660009081526001602052604090205460ff1690565b60058054604080516020601f60026000196101006001881615020190951694909404938401819004810282018101909252828152606093909290918301828280156107fb5780601f106107d0576101008083540402835291602001916107fb565b820191906000526020600020905b8154815290600101906020018083116107de57829003601f168201915b5050505050905090565b60025433906001600160a01b0316811461096857600360009054906101000a90046001600160a01b03166001600160a01b031663570ca7356040518163ffffffff1660e01b815260040160206040518083038186803b15801561086757600080fd5b505afa15801561087b573d6000803e3d6000fd5b505050506040513d602081101561089157600080fd5b50516001600160a01b0382811691161461096857600360009054906101000a90046001600160a01b03166001600160a01b031663ebf0c7176040518163ffffffff1660e01b815260040160206040518083038186803b1580156108f357600080fd5b505afa158015610907573d6000803e3d6000fd5b505050506040513d602081101561091d57600080fd5b50516001600160a01b038281169116146109685760405162461bcd60e51b81526004018080602001828103825260308152602001806123676030913960400191505060405180910390fd5b50600080546001600160a01b0319166001600160a01b0392909216919091179055565b60068054604080516020601f60026000196101006001881615020190951694909404938401819004810282018101909252828152606093909290918301828280156107fb5780601f106107d0576101008083540402835291602001916107fb565b60025433906001600160a01b03168114610b4f57600360009054906101000a90046001600160a01b03166001600160a01b031663570ca7356040518163ffffffff1660e01b815260040160206040518083038186803b158015610a4e57600080fd5b505afa158015610a62573d6000803e3d6000fd5b505050506040513d6020811015610a7857600080fd5b50516001600160a01b03828116911614610b4f57600360009054906101000a90046001600160a01b03166001600160a01b031663ebf0c7176040518163ffffffff1660e01b815260040160206040518083038186803b158015610ada57600080fd5b505afa158015610aee573d6000803e3d6000fd5b505050506040513d6020811015610b0457600080fd5b50516001600160a01b03828116911614610b4f5760405162461bcd60e51b81526004018080602001828103825260308152602001806123676030913960400191505060405180910390fd5b6040805163c64df69d60e01b815263f4c38e5160e01b600482015260248101829052601d60448201527f2344414f237365744c65646765722074797065206e6f74206d61746368000000606482015290516001600160a01b0384169163c64df69d916084808301926000929190829003018186803b158015610bd057600080fd5b505afa158015610be4573d6000803e3d6000fd5b5050600980546001600160a01b0319166001600160a01b0386161790555050604080516020808252600690820152652632b233b2b960d11b8183015290516000805160206124d8833981519152916060908290030190a15050565b610c4f6363daa99b60e11b610750565b15610ca1576040805162461bcd60e51b815260206004820152601760248201527f43616e206f6e6c792062652063616c6c6564206f6e6365000000000000000000604482015290519081900360640190fd5b610cb16363daa99b60e11b611e38565b565b600b546001600160a01b031690565b6009546001600160a01b031690565b6002546001600160a01b031690565b60048054604080516020601f60026000196101006001881615020190951694909404938401819004810282018101909252828152606093909290918301828280156107fb5780601f106107d0576101008083540402835291602001916107fb565b60025433906001600160a01b03168114610ea457600360009054906101000a90046001600160a01b03166001600160a01b031663570ca7356040518163ffffffff1660e01b815260040160206040518083038186803b158015610da357600080fd5b505afa158015610db7573d6000803e3d6000fd5b505050506040513d6020811015610dcd57600080fd5b50516001600160a01b03828116911614610ea457600360009054906101000a90046001600160a01b03166001600160a01b031663ebf0c7176040518163ffffffff1660e01b815260040160206040518083038186803b158015610e2f57600080fd5b505afa158015610e43573d6000803e3d6000fd5b505050506040513d6020811015610e5957600080fd5b50516001600160a01b03828116911614610ea45760405162461bcd60e51b81526004018080602001828103825260308152602001806123676030913960400191505060405180910390fd5b6040805163c64df69d60e01b81526336c6362d60e01b60048201818152602483019384526022604484018190526001600160a01b0388169463c64df69d9490916064909101906123eb82396040019250505060006040518083038186803b158015610f0e57600080fd5b505afa158015610f22573d6000803e3d6000fd5b50505050610f3a83600d611ebf90919063ffffffff16565b15610f57578115610f5257610f50600d84611edd565b505b610f69565b81610f6957610f67600d84611ef2565b505b604080516020808252600a908201526911195c185c9d1b595b9d60b21b8183015290516000805160206124d88339815191529181900360600190a1505050565b610fb4308888611f07565b6040805163c64df69d60e01b8152630ddf27bf60e01b600482015260248101829052602060448201527f2344414f23696e697444414f20726f6f742074797065206e6f74206d61746368606482015290516001600160a01b0387169163c64df69d916084808301926000929190829003018186803b15801561103557600080fd5b505afa158015611049573d6000803e3d6000fd5b50505050836001600160a01b031663c64df69d6323fc76b960e01b6040518263ffffffff1660e01b815260040180826001600160e01b03191681526020018060200182810382526022815260200180612494602291396040019250505060006040518083038186803b1580156110be57600080fd5b505afa1580156110d2573d6000803e3d6000fd5b50505050826001600160a01b031663c64df69d63f4c38e5160e01b6040518263ffffffff1660e01b815260040180826001600160e01b031916815260200180602001828103825260228152602001806124b6602291396040019250505060006040518083038186803b15801561114757600080fd5b505afa15801561115b573d6000803e3d6000fd5b50505050816001600160a01b031663c64df69d63711cc62c60e01b6040518263ffffffff1660e01b815260040180826001600160e01b031916815260200180602001828103825260278152602001806124f8602791396040019250505060006040518083038186803b1580156111d057600080fd5b505afa1580156111e4573d6000803e3d6000fd5b50505050806001600160a01b031663c64df69d63b6f00dcf60e01b6040518263ffffffff1660e01b815260040180826001600160e01b0319168152602001806020018281038252602181526020018061240d602191396040019250505060006040518083038186803b15801561125957600080fd5b505afa15801561126d573d6000803e3d6000fd5b50508a5161128492506005915060208c01906122d3565b5087516112989060069060208b01906122d3565b50600780546001600160a01b038088166001600160a01b0319928316179092556008805487841690831617905560098054868416908316179055600a8054858416908316179055600b80549284169290911691909117905560408051602080825260049082015263125b9a5d60e21b8183015290516000805160206124d88339815191529181900360600190a1505050505050505050565b6000546001600160a01b031690565b60025433906001600160a01b031681146114a257600360009054906101000a90046001600160a01b03166001600160a01b031663570ca7356040518163ffffffff1660e01b815260040160206040518083038186803b1580156113a157600080fd5b505afa1580156113b5573d6000803e3d6000fd5b505050506040513d60208110156113cb57600080fd5b50516001600160a01b038281169116146114a257600360009054906101000a90046001600160a01b03166001600160a01b031663ebf0c7176040518163ffffffff1660e01b815260040160206040518083038186803b15801561142d57600080fd5b505afa158015611441573d6000803e3d6000fd5b505050506040513d602081101561145757600080fd5b50516001600160a01b038281169116146114a25760405162461bcd60e51b81526004018080602001828103825260308152602001806123676030913960400191505060405180910390fd5b6040805163c64df69d60e01b81526323fc76b960e01b600482015260248101829052601c60448201527f2344414f2373657441737365742074797065206e6f74206d6174636800000000606482015290516001600160a01b0384169163c64df69d916084808301926000929190829003018186803b15801561152357600080fd5b505afa158015611537573d6000803e3d6000fd5b5050600880546001600160a01b0319166001600160a01b03861617905550506040805160208082526006908201526526b2b6b132b960d11b8183015290516000805160206124d8833981519152916060908290030190a15050565b60025433906001600160a01b031681146116f557600360009054906101000a90046001600160a01b03166001600160a01b031663570ca7356040518163ffffffff1660e01b815260040160206040518083038186803b1580156115f457600080fd5b505afa158015611608573d6000803e3d6000fd5b505050506040513d602081101561161e57600080fd5b50516001600160a01b038281169116146116f557600360009054906101000a90046001600160a01b03166001600160a01b031663ebf0c7176040518163ffffffff1660e01b815260040160206040518083038186803b15801561168057600080fd5b505afa158015611694573d6000803e3d6000fd5b505050506040513d60208110156116aa57600080fd5b50516001600160a01b038281169116146116f55760405162461bcd60e51b81526004018080602001828103825260308152602001806123676030913960400191505060405180910390fd5b6116fe82611fd5565b5050565b60025433906001600160a01b0316811461186557600360009054906101000a90046001600160a01b03166001600160a01b031663570ca7356040518163ffffffff1660e01b815260040160206040518083038186803b15801561176457600080fd5b505afa158015611778573d6000803e3d6000fd5b505050506040513d602081101561178e57600080fd5b50516001600160a01b0382811691161461186557600360009054906101000a90046001600160a01b03166001600160a01b031663ebf0c7176040518163ffffffff1660e01b815260040160206040518083038186803b1580156117f057600080fd5b505afa158015611804573d6000803e3d6000fd5b505050506040513d602081101561181a57600080fd5b50516001600160a01b038281169116146118655760405162461bcd60e51b81526004018080602001828103825260308152602001806123676030913960400191505060405180910390fd5b81516118789060049060208501906122d3565b50825161188c9060069060208601906122d3565b50604080516020808252600e908201526d4d697373696f6e416e644465736360901b8183015290516000805160206124d88339815191529181900360600190a1505050565b600a546001600160a01b031690565b60025433906001600160a01b03168114611a4357600360009054906101000a90046001600160a01b03166001600160a01b031663570ca7356040518163ffffffff1660e01b815260040160206040518083038186803b15801561194257600080fd5b505afa158015611956573d6000803e3d6000fd5b505050506040513d602081101561196c57600080fd5b50516001600160a01b03828116911614611a4357600360009054906101000a90046001600160a01b03166001600160a01b031663ebf0c7176040518163ffffffff1660e01b815260040160206040518083038186803b1580156119ce57600080fd5b505afa1580156119e2573d6000803e3d6000fd5b505050506040513d60208110156119f857600080fd5b50516001600160a01b03828116911614611a435760405162461bcd60e51b81526004018080602001828103825260308152602001806123676030913960400191505060405180910390fd5b6040805163c64df69d60e01b8152631c47318b60e21b60048201818152602483019384526022604484018190526001600160a01b0387169463c64df69d94909160649091019061239782396040019250505060006040518083038186803b158015611aad57600080fd5b505afa158015611ac1573d6000803e3d6000fd5b5050600a80546001600160a01b0319166001600160a01b0386161790555050604080516020808252600b908201526a105cdcd95d11db1bd8985b60aa1b8183015290516000805160206124d8833981519152916060908290030190a15050565b611b2a82610750565b8190611bb45760405162461bcd60e51b81526004018080602001828103825283818151815260200191508051906020019080838360005b83811015611b79578181015183820152602001611b61565b50505050905090810190601f168015611ba65780820380516001836020036101000a031916815260200191505b509250505060405180910390fd5b505050565b60025433906001600160a01b03168114611d1c57600360009054906101000a90046001600160a01b03166001600160a01b031663570ca7356040518163ffffffff1660e01b815260040160206040518083038186803b158015611c1b57600080fd5b505afa158015611c2f573d6000803e3d6000fd5b505050506040513d6020811015611c4557600080fd5b50516001600160a01b03828116911614611d1c57600360009054906101000a90046001600160a01b03166001600160a01b031663ebf0c7176040518163ffffffff1660e01b815260040160206040518083038186803b158015611ca757600080fd5b505afa158015611cbb573d6000803e3d6000fd5b505050506040513d6020811015611cd157600080fd5b50516001600160a01b03828116911614611d1c5760405162461bcd60e51b81526004018080602001828103825260308152602001806123676030913960400191505060405180910390fd5b6040805163c64df69d60e01b815263b6f00dcf60e01b600482015260248101829052601c60448201527f2344414f2373657441737365742074797065206e6f74206d6174636800000000606482015290516001600160a01b0384169163c64df69d916084808301926000929190829003018186803b158015611d9d57600080fd5b505afa158015611db1573d6000803e3d6000fd5b5050600b80546001600160a01b0319166001600160a01b038616179055505060408051602080825260059082015264105cdcd95d60da1b8183015290516000805160206124d8833981519152916060908290030190a15050565b6008546001600160a01b031690565b6007546001600160a01b031690565b6003546001600160a01b031690565b6001600160e01b03198082161415611e97576040805162461bcd60e51b815260206004820152601c60248201527f4552433136353a20696e76616c696420696e7465726661636520696400000000604482015290519081900360640190fd5b6001600160e01b0319166000908152600160208190526040909120805460ff19169091179055565b6000611ed4836001600160a01b0384166120a0565b90505b92915050565b6000611ed4836001600160a01b0384166120b8565b6000611ed4836001600160a01b03841661217e565b611f0f6121c8565b611f1f6336c6362d60e01b611e38565b6040805163c64df69d60e01b81526363daa99b60e11b60048201818152602483019384526032604484018190526001600160a01b0388169463c64df69d9490916064909101906123b982396040019250505060006040518083038186803b158015611f8957600080fd5b505afa158015611f9d573d6000803e3d6000fd5b5050600380546001600160a01b0319166001600160a01b03871617905550508151611fcf9060049060208501906122d3565b50611bb4815b6001600160a01b0381161561207e57611ff6816001600160a01b0316612291565b1561207e576040805163c64df69d60e01b8152630ddf27bf60e01b60048201818152602483019384526038604484018190526001600160a01b0386169463c64df69d94909160649091019061242e82396040019250505060006040518083038186803b15801561206557600080fd5b505afa158015612079573d6000803e3d6000fd5b505050505b600280546001600160a01b0319166001600160a01b0392909216919091179055565b60009081526001919091016020526040902054151590565b6000818152600183016020526040812054801561217457835460001980830191908101906000908790839081106120eb57fe5b906000526020600020015490508087600001848154811061210857fe5b60009182526020808320909101929092558281526001898101909252604090209084019055865487908061213857fe5b60019003818190600052602060002001600090559055866001016000878152602001908152602001600020600090556001945050505050611ed7565b6000915050611ed7565b600061218a83836120a0565b6121c057508154600181810184556000848152602080822090930184905584548482528286019093526040902091909155611ed7565b506000611ed7565b600054600160a81b900460ff16806121e357506121e36122cd565b806121f85750600054600160a01b900460ff16155b6122335760405162461bcd60e51b815260040180806020018281038252602e815260200180612466602e913960400191505060405180910390fd5b600054600160a81b900460ff1615801561226a576000805460ff60a01b1960ff60a81b19909116600160a81b1716600160a01b1790555b61227a6301ffc9a760e01b611e38565b801561228e576000805460ff60a81b191690555b50565b6000813f7fc5d2460186f7233c927e7db2dcc703c0e500b653ca82273b7bfad8045d85a4708181148015906122c557508115155b949350505050565b303b1590565b828054600181600116156101000203166002900490600052602060002090601f016020900481019282601f1061231457805160ff1916838001178555612341565b82800160010185558215612341579182015b82811115612341578251825591602001919060010190612326565b5061234d929150612351565b5090565b5b8082111561234d576000815560010161235256fe2355706772616465234f6e6c7944414f2063616c6c657220646f6573206e6f742068617665207065726d697373696f6e2344414f237365744173736574476c6f62616c2074797065206e6f74206d61746368234465706172746d656e7423696e69744465706172746d656e742064616f20686f73742074797065206e6f74206d617463682344414f237365744465706172746d656e74732074797065206e6f74206d617463682344414f23696e697444414f2061737365742074797065206e6f74206d61746368234465706172746d656e74237365744f70657261746f725f696e7465726e616c206f70657261746f722074797065206e6f74206d61746368436f6e747261637420696e7374616e63652068617320616c7265616479206265656e20696e697469616c697a65642344414f23696e697444414f206d656d6265722074797065206e6f74206d617463682344414f23696e697444414f206c65646765722074797065206e6f74206d617463686545debb088bd81af091fb3bbd8a005c9f7a28af228177ba1b794fbffd33fe472344414f23696e697444414f206173736574476c6f62616c2074797065206e6f74206d61746368a264697066735822122047a8c6dfd20b96d9625243afd2543dfd71adfc98d021ba090e46f39e1f379c4d64736f6c634300060c0033",
  "immutableReferences": {},
  "source": "\npragma solidity >=0.6.0 <=0.8.15;\n\nimport \"./Department.sol\";\nimport \"../openzeppelin/contracts-ethereum-package/contracts/utils/EnumerableSet.sol\";\n\ncontract DAO is IDAO, Department {\n\tusing EnumerableSet for EnumerableSet.AddressSet;\n\n\tstring internal _name;\n\tstring internal _mission;\n\tIVotePool private _root;\n\tIMember private _member;\n\tILedger private _ledger;\n\tIAssetGlobal private _assetGlobal;\n\tIAsset private _asset;\n\taddress private __exchange;\n\tEnumerableSet.AddressSet private _departments;\n\tuint256[50] private __gap;\n\n\tfunction name() view external returns (string memory) { return _name; }\n\tfunction mission() view external returns (string memory) { return _mission; }\n\tfunction root() view external override returns (IVotePool) { return _root; }\n\tfunction member() view external override returns (IMember) { return _member; }\n\tfunction ledger() view external override returns (ILedger) { return _ledger; }\n\tfunction assetGlobal() view external override returns (IAssetGlobal) { return _assetGlobal; }\n\tfunction asset() view external override returns (IAsset) { return _asset; }\n\n\tfunction initInterfaceID() external {\n\t\trequire(!supportsInterface(DAO_ID), \"Can only be called once\");\n\t\t_registerInterface(DAO_ID);\n\t}\n\n\tfunction initDAO(\n\t\tstring memory name,\n\t\tstring memory mission,\n\t\tstring memory description,\n\t\taddress operator, address root,\n\t\taddress member, address ledger,\n\t\taddress assetGlobal, address asset\n\t) external {\n\t\tinitDepartment(address(this), description, operator);\n\n\t\tERC165(root).checkInterface(VotePool_ID, \"#DAO#initDAO root type not match\");\n\t\tERC165(member).checkInterface(Member_ID, \"#DAO#initDAO member type not match\");\n\t\tERC165(ledger).checkInterface(Ledger_ID, \"#DAO#initDAO ledger type not match\");\n\t\tERC165(assetGlobal).checkInterface(AssetGlobal_ID, \"#DAO#initDAO assetGlobal type not match\");\n\t\tERC165(asset).checkInterface(Asset_ID, \"#DAO#initDAO asset type not match\");\n\n\t\t_name = name;\n\t\t_mission = mission;\n\t\t_root = IVotePool(root);\n\t\t_member = IMember(member);\n\t\t_ledger = ILedger(ledger);\n\t\t_assetGlobal = IAssetGlobal(assetGlobal);\n\t\t_asset = IAsset(asset);\n\n\t\temit Change(\"Init\");\n\t}\n\n\tfunction setMissionAndDesc(string memory mission, string memory description) external OnlyDAO {\n\t\t_description = description;\n\t\t_mission = mission;\n\t\temit Change(\"MissionAndDesc\");\n\t}\n\n\tfunction setLedger(address addr) external OnlyDAO {\n\t\tERC165(addr).checkInterface(Ledger_ID, \"#DAO#setLedger type not match\");\n\t\t_ledger = ILedger(addr);\n\t\temit Change(\"Ledger\");\n\t}\n\n\tfunction setAssetGlobal(address addr) external OnlyDAO {\n\t\tERC165(addr).checkInterface(AssetGlobal_ID, \"#DAO#setAssetGlobal type not match\");\n\t\t_assetGlobal = IAssetGlobal(addr);\n\t\temit Change(\"AssetGlobal\");\n\t}\n\n\tfunction setAsset(address addr) external OnlyDAO {\n\t\tERC165(addr).checkInterface(Asset_ID, \"#DAO#setAsset type not match\");\n\t\t_asset = IAsset(addr);\n\t\temit Change(\"Asset\");\n\t}\n\n\tfunction setMember(address addr) external OnlyDAO {\n\t\tERC165(addr).checkInterface(Member_ID, \"#DAO#setAsset type not match\");\n\t\t_member = IMember(addr);\n\t\temit Change(\"Member\");\n\t}\n\n\tfunction setDepartments(address addr, bool isDel) external OnlyDAO {\n\t\tERC165(addr).checkInterface(Department_ID, \"#DAO#setDepartments type not match\");\n\n\t\tif (_departments.contains(addr)) {\n\t\t\tif (isDel) _departments.remove(addr);\n\t\t} else {\n\t\t\tif (!isDel) _departments.add(addr);\n\t\t}\n\t\temit Change(\"Department\");\n\t}\n\n}",
  "sourcePath": "/Users/louis/Project/hc/NFTSwap/SmartHolder/contracts/DAO.sol",
  "compiler": {
    "name": "solc",
    "version": "0.6.12+commit.27d51765.Emscripten.clang"
  },
  "schemaVersion": "3.4.8",
  "updatedAt": "2022-08-04T14:54:53.037Z",
  "devdoc": {
    "kind": "dev",
    "methods": {
      "supportsInterface(bytes4)": {
        "details": "See {IERC165-supportsInterface}. Time complexity O(1), guaranteed to always use less than 30 000 gas."
      }
    },
    "version": 1
  },
  "userdoc": {
    "kind": "user",
    "methods": {},
    "version": 1
  }
}