{
  "contractName": "DAO",
  "abi": [
    {
      "anonymous": false,
      "inputs": [
        {
          "indexed": false,
          "internalType": "string",
          "name": "tag",
          "type": "string"
        }
      ],
      "name": "Change",
      "type": "event"
    },
    {
      "inputs": [
        {
          "internalType": "bytes4",
          "name": "interfaceId",
          "type": "bytes4"
        },
        {
          "internalType": "string",
          "name": "message",
          "type": "string"
        }
      ],
      "name": "checkInterface",
      "outputs": [],
      "stateMutability": "view",
      "type": "function"
    },
    {
      "inputs": [],
      "name": "description",
      "outputs": [
        {
          "internalType": "string",
          "name": "",
          "type": "string"
        }
      ],
      "stateMutability": "view",
      "type": "function"
    },
    {
      "inputs": [],
      "name": "host",
      "outputs": [
        {
          "internalType": "contract IDAO",
          "name": "",
          "type": "address"
        }
      ],
      "stateMutability": "view",
      "type": "function"
    },
    {
      "inputs": [],
      "name": "impl",
      "outputs": [
        {
          "internalType": "address",
          "name": "",
          "type": "address"
        }
      ],
      "stateMutability": "view",
      "type": "function"
    },
    {
      "inputs": [],
      "name": "operator",
      "outputs": [
        {
          "internalType": "contract IVotePool",
          "name": "",
          "type": "address"
        }
      ],
      "stateMutability": "view",
      "type": "function"
    },
    {
      "inputs": [
        {
          "internalType": "address",
          "name": "vote",
          "type": "address"
        }
      ],
      "name": "setOperator",
      "outputs": [],
      "stateMutability": "nonpayable",
      "type": "function"
    },
    {
      "inputs": [
        {
          "internalType": "bytes4",
          "name": "interfaceId",
          "type": "bytes4"
        }
      ],
      "name": "supportsInterface",
      "outputs": [
        {
          "internalType": "bool",
          "name": "",
          "type": "bool"
        }
      ],
      "stateMutability": "view",
      "type": "function"
    },
    {
      "inputs": [
        {
          "internalType": "address",
          "name": "impl",
          "type": "address"
        }
      ],
      "name": "upgrade",
      "outputs": [],
      "stateMutability": "nonpayable",
      "type": "function"
    },
    {
      "inputs": [],
      "name": "name",
      "outputs": [
        {
          "internalType": "string",
          "name": "",
          "type": "string"
        }
      ],
      "stateMutability": "view",
      "type": "function"
    },
    {
      "inputs": [],
      "name": "mission",
      "outputs": [
        {
          "internalType": "string",
          "name": "",
          "type": "string"
        }
      ],
      "stateMutability": "view",
      "type": "function"
    },
    {
      "inputs": [],
      "name": "root",
      "outputs": [
        {
          "internalType": "contract IVotePool",
          "name": "",
          "type": "address"
        }
      ],
      "stateMutability": "view",
      "type": "function"
    },
    {
      "inputs": [],
      "name": "member",
      "outputs": [
        {
          "internalType": "contract IMember",
          "name": "",
          "type": "address"
        }
      ],
      "stateMutability": "view",
      "type": "function"
    },
    {
      "inputs": [],
      "name": "ledger",
      "outputs": [
        {
          "internalType": "contract ILedger",
          "name": "",
          "type": "address"
        }
      ],
      "stateMutability": "view",
      "type": "function"
    },
    {
      "inputs": [],
      "name": "assetGlobal",
      "outputs": [
        {
          "internalType": "contract IAssetGlobal",
          "name": "",
          "type": "address"
        }
      ],
      "stateMutability": "view",
      "type": "function"
    },
    {
      "inputs": [],
      "name": "asset",
      "outputs": [
        {
          "internalType": "contract IAsset",
          "name": "",
          "type": "address"
        }
      ],
      "stateMutability": "view",
      "type": "function"
    },
    {
      "inputs": [],
      "name": "initInterfaceID",
      "outputs": [],
      "stateMutability": "nonpayable",
      "type": "function"
    },
    {
      "inputs": [
        {
          "internalType": "string",
          "name": "name",
          "type": "string"
        },
        {
          "internalType": "string",
          "name": "mission",
          "type": "string"
        },
        {
          "internalType": "string",
          "name": "description",
          "type": "string"
        },
        {
          "internalType": "address",
          "name": "operator",
          "type": "address"
        },
        {
          "internalType": "address",
          "name": "root",
          "type": "address"
        },
        {
          "internalType": "address",
          "name": "member",
          "type": "address"
        },
        {
          "internalType": "address",
          "name": "ledger",
          "type": "address"
        },
        {
          "internalType": "address",
          "name": "assetGlobal",
          "type": "address"
        },
        {
          "internalType": "address",
          "name": "asset",
          "type": "address"
        }
      ],
      "name": "initDAO",
      "outputs": [],
      "stateMutability": "nonpayable",
      "type": "function"
    },
    {
      "inputs": [
        {
          "internalType": "string",
          "name": "mission",
          "type": "string"
        },
        {
          "internalType": "string",
          "name": "description",
          "type": "string"
        }
      ],
      "name": "setMissionAndDesc",
      "outputs": [],
      "stateMutability": "nonpayable",
      "type": "function"
    },
    {
      "inputs": [
        {
          "internalType": "address",
          "name": "addr",
          "type": "address"
        }
      ],
      "name": "setLedger",
      "outputs": [],
      "stateMutability": "nonpayable",
      "type": "function"
    },
    {
      "inputs": [
        {
          "internalType": "address",
          "name": "addr",
          "type": "address"
        }
      ],
      "name": "setAssetGlobal",
      "outputs": [],
      "stateMutability": "nonpayable",
      "type": "function"
    },
    {
      "inputs": [
        {
          "internalType": "address",
          "name": "addr",
          "type": "address"
        }
      ],
      "name": "setAsset",
      "outputs": [],
      "stateMutability": "nonpayable",
      "type": "function"
    },
    {
      "inputs": [
        {
          "internalType": "address",
          "name": "addr",
          "type": "address"
        },
        {
          "internalType": "bool",
          "name": "isDel",
          "type": "bool"
        }
      ],
      "name": "setDepartments",
      "outputs": [],
      "stateMutability": "nonpayable",
      "type": "function"
    }
  ],
  "bytecode": "0x608060405234801561001057600080fd5b506122d0806100206000396000f3fe608060405234801561001057600080fd5b50600436106101425760003560e01c806378adfe95116100b8578063c3cf91f51161007c578063c3cf91f514610606578063c64df69d1461062c578063d0d552dd146106e1578063e3f6b54414610707578063ebf0c7171461070f578063f437bc591461071757610142565b806378adfe95146102c75780638abf6077146104a7578063b3ab15fb146104af578063b4f10136146104d5578063bc3ae11f146105fe57610142565b8063369dc27d1161010a578063369dc27d1461025557806338d52e0f1461025d57806356397c3514610281578063570ca735146102895780637284e4161461029157806372acc1961461029957610142565b806301ffc9a71461014757806306fdde03146101825780630900f010146101ff57806317701ee6146102275780633246887d1461022f575b600080fd5b61016e6004803603602081101561015d57600080fd5b50356001600160e01b03191661071f565b604080519115158252519081900360200190f35b61018a61073e565b6040805160208082528351818301528351919283929083019185019080838360005b838110156101c45781810151838201526020016101ac565b50505050905090810190601f1680156101f15780820380516001836020036101000a031916815260200191505b509250505060405180910390f35b6102256004803603602081101561021557600080fd5b50356001600160a01b03166107d4565b005b61018a61095a565b6102256004803603602081101561024557600080fd5b50356001600160a01b03166109bb565b610225610c0e565b610265610c82565b604080516001600160a01b039092168252519081900360200190f35b610265610c91565b610265610ca0565b61018a610caf565b610225600480360360408110156102af57600080fd5b506001600160a01b0381351690602001351515610d10565b61022560048036036101208110156102de57600080fd5b810190602081018135600160201b8111156102f857600080fd5b82018360208201111561030a57600080fd5b803590602001918460018302840111600160201b8311171561032b57600080fd5b91908080601f0160208091040260200160405190810160405280939291908181526020018383808284376000920191909152509295949360208101935035915050600160201b81111561037d57600080fd5b82018360208201111561038f57600080fd5b803590602001918460018302840111600160201b831117156103b057600080fd5b91908080601f0160208091040260200160405190810160405280939291908181526020018383808284376000920191909152509295949360208101935035915050600160201b81111561040257600080fd5b82018360208201111561041457600080fd5b803590602001918460018302840111600160201b8311171561043557600080fd5b91908080601f016020809104026020016040519081016040528093929190818152602001838380828437600092019190915250929550505081356001600160a01b03908116935060208301358116926040810135821692506060810135821691608082013581169160a0013516610f78565b6102656112ff565b610225600480360360208110156104c557600080fd5b50356001600160a01b031661130e565b610225600480360360408110156104eb57600080fd5b810190602081018135600160201b81111561050557600080fd5b82018360208201111561051757600080fd5b803590602001918460018302840111600160201b8311171561053857600080fd5b91908080601f0160208091040260200160405190810160405280939291908181526020018383808284376000920191909152509295949360208101935035915050600160201b81111561058a57600080fd5b82018360208201111561059c57600080fd5b803590602001918460018302840111600160201b831117156105bd57600080fd5b91908080601f01602080910402602001604051908101604052809392919081815260200183838082843760009201919091525092955061147e945050505050565b61026561164d565b6102256004803603602081101561061c57600080fd5b50356001600160a01b031661165c565b6102256004803603604081101561064257600080fd5b6001600160e01b03198235169190810190604081016020820135600160201b81111561066d57600080fd5b82018360208201111561067f57600080fd5b803590602001918460018302840111600160201b831117156106a057600080fd5b91908080601f01602080910402602001604051908101604052809392919081815260200183838082843760009201919091525092955061189d945050505050565b610225600480360360208110156106f757600080fd5b50356001600160a01b0316611935565b610265611b87565b610265611b96565b610265611ba5565b6001600160e01b03191660009081526001602052604090205460ff1690565b60058054604080516020601f60026000196101006001881615020190951694909404938401819004810282018101909252828152606093909290918301828280156107ca5780601f1061079f576101008083540402835291602001916107ca565b820191906000526020600020905b8154815290600101906020018083116107ad57829003601f168201915b5050505050905090565b60025433906001600160a01b0316811461093757600360009054906101000a90046001600160a01b03166001600160a01b031663570ca7356040518163ffffffff1660e01b815260040160206040518083038186803b15801561083657600080fd5b505afa15801561084a573d6000803e3d6000fd5b505050506040513d602081101561086057600080fd5b50516001600160a01b0382811691161461093757600360009054906101000a90046001600160a01b03166001600160a01b031663ebf0c7176040518163ffffffff1660e01b815260040160206040518083038186803b1580156108c257600080fd5b505afa1580156108d6573d6000803e3d6000fd5b505050506040513d60208110156108ec57600080fd5b50516001600160a01b038281169116146109375760405162461bcd60e51b81526004018080602001828103825260308152602001806120e36030913960400191505060405180910390fd5b50600080546001600160a01b0319166001600160a01b0392909216919091179055565b60068054604080516020601f60026000196101006001881615020190951694909404938401819004810282018101909252828152606093909290918301828280156107ca5780601f1061079f576101008083540402835291602001916107ca565b60025433906001600160a01b03168114610b1e57600360009054906101000a90046001600160a01b03166001600160a01b031663570ca7356040518163ffffffff1660e01b815260040160206040518083038186803b158015610a1d57600080fd5b505afa158015610a31573d6000803e3d6000fd5b505050506040513d6020811015610a4757600080fd5b50516001600160a01b03828116911614610b1e57600360009054906101000a90046001600160a01b03166001600160a01b031663ebf0c7176040518163ffffffff1660e01b815260040160206040518083038186803b158015610aa957600080fd5b505afa158015610abd573d6000803e3d6000fd5b505050506040513d6020811015610ad357600080fd5b50516001600160a01b03828116911614610b1e5760405162461bcd60e51b81526004018080602001828103825260308152602001806120e36030913960400191505060405180910390fd5b6040805163c64df69d60e01b815263f4c38e5160e01b600482015260248101829052601d60448201527f2344414f237365744c65646765722074797065206e6f74206d61746368000000606482015290516001600160a01b0384169163c64df69d916084808301926000929190829003018186803b158015610b9f57600080fd5b505afa158015610bb3573d6000803e3d6000fd5b5050600980546001600160a01b0319166001600160a01b0386161790555050604080516020808252600690820152652632b233b2b960d11b818301529051600080516020612254833981519152916060908290030190a15050565b610c1e6363daa99b60e11b61071f565b15610c70576040805162461bcd60e51b815260206004820152601760248201527f43616e206f6e6c792062652063616c6c6564206f6e6365000000000000000000604482015290519081900360640190fd5b610c806363daa99b60e11b611bb4565b565b600b546001600160a01b031690565b6009546001600160a01b031690565b6002546001600160a01b031690565b60048054604080516020601f60026000196101006001881615020190951694909404938401819004810282018101909252828152606093909290918301828280156107ca5780601f1061079f576101008083540402835291602001916107ca565b60025433906001600160a01b03168114610e7357600360009054906101000a90046001600160a01b03166001600160a01b031663570ca7356040518163ffffffff1660e01b815260040160206040518083038186803b158015610d7257600080fd5b505afa158015610d86573d6000803e3d6000fd5b505050506040513d6020811015610d9c57600080fd5b50516001600160a01b03828116911614610e7357600360009054906101000a90046001600160a01b03166001600160a01b031663ebf0c7176040518163ffffffff1660e01b815260040160206040518083038186803b158015610dfe57600080fd5b505afa158015610e12573d6000803e3d6000fd5b505050506040513d6020811015610e2857600080fd5b50516001600160a01b03828116911614610e735760405162461bcd60e51b81526004018080602001828103825260308152602001806120e36030913960400191505060405180910390fd5b6040805163c64df69d60e01b81526336c6362d60e01b60048201818152602483019384526022604484018190526001600160a01b0388169463c64df69d94909160649091019061216782396040019250505060006040518083038186803b158015610edd57600080fd5b505afa158015610ef1573d6000803e3d6000fd5b50505050610f0983600d611c3b90919063ffffffff16565b15610f26578115610f2157610f1f600d84611c59565b505b610f38565b81610f3857610f36600d84611c6e565b505b604080516020808252600a908201526911195c185c9d1b595b9d60b21b8183015290516000805160206122548339815191529181900360600190a1505050565b610f83308888611c83565b6040805163c64df69d60e01b8152630ddf27bf60e01b600482015260248101829052602060448201527f2344414f23696e697444414f20726f6f742074797065206e6f74206d61746368606482015290516001600160a01b0387169163c64df69d916084808301926000929190829003018186803b15801561100457600080fd5b505afa158015611018573d6000803e3d6000fd5b50505050836001600160a01b031663c64df69d6323fc76b960e01b6040518263ffffffff1660e01b815260040180826001600160e01b03191681526020018060200182810382526022815260200180612210602291396040019250505060006040518083038186803b15801561108d57600080fd5b505afa1580156110a1573d6000803e3d6000fd5b50505050826001600160a01b031663c64df69d63f4c38e5160e01b6040518263ffffffff1660e01b815260040180826001600160e01b03191681526020018060200182810382526022815260200180612232602291396040019250505060006040518083038186803b15801561111657600080fd5b505afa15801561112a573d6000803e3d6000fd5b50505050816001600160a01b031663c64df69d63711cc62c60e01b6040518263ffffffff1660e01b815260040180826001600160e01b03191681526020018060200182810382526027815260200180612274602791396040019250505060006040518083038186803b15801561119f57600080fd5b505afa1580156111b3573d6000803e3d6000fd5b50505050806001600160a01b031663c64df69d63b6f00dcf60e01b6040518263ffffffff1660e01b815260040180826001600160e01b03191681526020018060200182810382526021815260200180612189602191396040019250505060006040518083038186803b15801561122857600080fd5b505afa15801561123c573d6000803e3d6000fd5b50508a5161125392506005915060208c019061204f565b5087516112679060069060208b019061204f565b50600780546001600160a01b038088166001600160a01b0319928316179092556008805487841690831617905560098054868416908316179055600a8054858416908316179055600b80549284169290911691909117905560408051602080825260049082015263125b9a5d60e21b8183015290516000805160206122548339815191529181900360600190a1505050505050505050565b6000546001600160a01b031690565b60025433906001600160a01b0316811461147157600360009054906101000a90046001600160a01b03166001600160a01b031663570ca7356040518163ffffffff1660e01b815260040160206040518083038186803b15801561137057600080fd5b505afa158015611384573d6000803e3d6000fd5b505050506040513d602081101561139a57600080fd5b50516001600160a01b0382811691161461147157600360009054906101000a90046001600160a01b03166001600160a01b031663ebf0c7176040518163ffffffff1660e01b815260040160206040518083038186803b1580156113fc57600080fd5b505afa158015611410573d6000803e3d6000fd5b505050506040513d602081101561142657600080fd5b50516001600160a01b038281169116146114715760405162461bcd60e51b81526004018080602001828103825260308152602001806120e36030913960400191505060405180910390fd5b61147a82611d51565b5050565b60025433906001600160a01b031681146115e157600360009054906101000a90046001600160a01b03166001600160a01b031663570ca7356040518163ffffffff1660e01b815260040160206040518083038186803b1580156114e057600080fd5b505afa1580156114f4573d6000803e3d6000fd5b505050506040513d602081101561150a57600080fd5b50516001600160a01b038281169116146115e157600360009054906101000a90046001600160a01b03166001600160a01b031663ebf0c7176040518163ffffffff1660e01b815260040160206040518083038186803b15801561156c57600080fd5b505afa158015611580573d6000803e3d6000fd5b505050506040513d602081101561159657600080fd5b50516001600160a01b038281169116146115e15760405162461bcd60e51b81526004018080602001828103825260308152602001806120e36030913960400191505060405180910390fd5b81516115f490600490602085019061204f565b50825161160890600690602086019061204f565b50604080516020808252600e908201526d4d697373696f6e416e644465736360901b8183015290516000805160206122548339815191529181900360600190a1505050565b600a546001600160a01b031690565b60025433906001600160a01b031681146117bf57600360009054906101000a90046001600160a01b03166001600160a01b031663570ca7356040518163ffffffff1660e01b815260040160206040518083038186803b1580156116be57600080fd5b505afa1580156116d2573d6000803e3d6000fd5b505050506040513d60208110156116e857600080fd5b50516001600160a01b038281169116146117bf57600360009054906101000a90046001600160a01b03166001600160a01b031663ebf0c7176040518163ffffffff1660e01b815260040160206040518083038186803b15801561174a57600080fd5b505afa15801561175e573d6000803e3d6000fd5b505050506040513d602081101561177457600080fd5b50516001600160a01b038281169116146117bf5760405162461bcd60e51b81526004018080602001828103825260308152602001806120e36030913960400191505060405180910390fd5b6040805163c64df69d60e01b8152631c47318b60e21b60048201818152602483019384526022604484018190526001600160a01b0387169463c64df69d94909160649091019061211382396040019250505060006040518083038186803b15801561182957600080fd5b505afa15801561183d573d6000803e3d6000fd5b5050600a80546001600160a01b0319166001600160a01b0386161790555050604080516020808252600b908201526a105cdcd95d11db1bd8985b60aa1b818301529051600080516020612254833981519152916060908290030190a15050565b6118a68261071f565b81906119305760405162461bcd60e51b81526004018080602001828103825283818151815260200191508051906020019080838360005b838110156118f55781810151838201526020016118dd565b50505050905090810190601f1680156119225780820380516001836020036101000a031916815260200191505b509250505060405180910390fd5b505050565b60025433906001600160a01b03168114611a9857600360009054906101000a90046001600160a01b03166001600160a01b031663570ca7356040518163ffffffff1660e01b815260040160206040518083038186803b15801561199757600080fd5b505afa1580156119ab573d6000803e3d6000fd5b505050506040513d60208110156119c157600080fd5b50516001600160a01b03828116911614611a9857600360009054906101000a90046001600160a01b03166001600160a01b031663ebf0c7176040518163ffffffff1660e01b815260040160206040518083038186803b158015611a2357600080fd5b505afa158015611a37573d6000803e3d6000fd5b505050506040513d6020811015611a4d57600080fd5b50516001600160a01b03828116911614611a985760405162461bcd60e51b81526004018080602001828103825260308152602001806120e36030913960400191505060405180910390fd5b6040805163c64df69d60e01b815263b6f00dcf60e01b600482015260248101829052601c60448201527f2344414f2373657441737365742074797065206e6f74206d6174636800000000606482015290516001600160a01b0384169163c64df69d916084808301926000929190829003018186803b158015611b1957600080fd5b505afa158015611b2d573d6000803e3d6000fd5b5050600b80546001600160a01b0319166001600160a01b038616179055505060408051602080825260059082015264105cdcd95d60da1b818301529051600080516020612254833981519152916060908290030190a15050565b6008546001600160a01b031690565b6007546001600160a01b031690565b6003546001600160a01b031690565b6001600160e01b03198082161415611c13576040805162461bcd60e51b815260206004820152601c60248201527f4552433136353a20696e76616c696420696e7465726661636520696400000000604482015290519081900360640190fd5b6001600160e01b0319166000908152600160208190526040909120805460ff19169091179055565b6000611c50836001600160a01b038416611e1c565b90505b92915050565b6000611c50836001600160a01b038416611e34565b6000611c50836001600160a01b038416611efa565b611c8b611f44565b611c9b6336c6362d60e01b611bb4565b6040805163c64df69d60e01b81526363daa99b60e11b60048201818152602483019384526032604484018190526001600160a01b0388169463c64df69d94909160649091019061213582396040019250505060006040518083038186803b158015611d0557600080fd5b505afa158015611d19573d6000803e3d6000fd5b5050600380546001600160a01b0319166001600160a01b03871617905550508151611d4b90600490602085019061204f565b50611930815b6001600160a01b03811615611dfa57611d72816001600160a01b031661200d565b15611dfa576040805163c64df69d60e01b8152630ddf27bf60e01b60048201818152602483019384526038604484018190526001600160a01b0386169463c64df69d9490916064909101906121aa82396040019250505060006040518083038186803b158015611de157600080fd5b505afa158015611df5573d6000803e3d6000fd5b505050505b600280546001600160a01b0319166001600160a01b0392909216919091179055565b60009081526001919091016020526040902054151590565b60008181526001830160205260408120548015611ef05783546000198083019190810190600090879083908110611e6757fe5b9060005260206000200154905080876000018481548110611e8457fe5b600091825260208083209091019290925582815260018981019092526040902090840190558654879080611eb457fe5b60019003818190600052602060002001600090559055866001016000878152602001908152602001600020600090556001945050505050611c53565b6000915050611c53565b6000611f068383611e1c565b611f3c57508154600181810184556000848152602080822090930184905584548482528286019093526040902091909155611c53565b506000611c53565b600054600160a81b900460ff1680611f5f5750611f5f612049565b80611f745750600054600160a01b900460ff16155b611faf5760405162461bcd60e51b815260040180806020018281038252602e8152602001806121e2602e913960400191505060405180910390fd5b600054600160a81b900460ff16158015611fe6576000805460ff60a01b1960ff60a81b19909116600160a81b1716600160a01b1790555b611ff66301ffc9a760e01b611bb4565b801561200a576000805460ff60a81b191690555b50565b6000813f7fc5d2460186f7233c927e7db2dcc703c0e500b653ca82273b7bfad8045d85a47081811480159061204157508115155b949350505050565b303b1590565b828054600181600116156101000203166002900490600052602060002090601f016020900481019282601f1061209057805160ff19168380011785556120bd565b828001600101855582156120bd579182015b828111156120bd5782518255916020019190600101906120a2565b506120c99291506120cd565b5090565b5b808211156120c957600081556001016120ce56fe2355706772616465234f6e6c7944414f2063616c6c657220646f6573206e6f742068617665207065726d697373696f6e2344414f237365744173736574476c6f62616c2074797065206e6f74206d61746368234465706172746d656e7423696e69744465706172746d656e742064616f20686f73742074797065206e6f74206d617463682344414f237365744465706172746d656e74732074797065206e6f74206d617463682344414f23696e697444414f2061737365742074797065206e6f74206d61746368234465706172746d656e74237365744f70657261746f725f696e7465726e616c206f70657261746f722074797065206e6f74206d61746368436f6e747261637420696e7374616e63652068617320616c7265616479206265656e20696e697469616c697a65642344414f23696e697444414f206d656d6265722074797065206e6f74206d617463682344414f23696e697444414f206c65646765722074797065206e6f74206d617463686545debb088bd81af091fb3bbd8a005c9f7a28af228177ba1b794fbffd33fe472344414f23696e697444414f206173736574476c6f62616c2074797065206e6f74206d61746368a26469706673582212206204e9b924a2b1b9c199f3d5b082357ce7cd9bec228b04f3507bbe8a36fb70e564736f6c634300060c0033",
  "immutableReferences": {},
  "source": "\npragma solidity >=0.6.0 <=0.8.15;\n\nimport \"./Department.sol\";\nimport \"../openzeppelin/contracts-ethereum-package/contracts/utils/EnumerableSet.sol\";\n\ncontract DAO is IDAO, Department {\n\tusing EnumerableSet for EnumerableSet.AddressSet;\n\n\tstring internal _name;\n\tstring internal _mission;\n\tIVotePool private _root;\n\tIMember private _member;\n\tILedger private _ledger;\n\tIAssetGlobal private _assetGlobal;\n\tIAsset private _asset;\n\taddress private __exchange;\n\tEnumerableSet.AddressSet private _departments;\n\tuint256[50] private __gap;\n\n\tfunction name() view external returns (string memory) { return _name; }\n\tfunction mission() view external returns (string memory) { return _mission; }\n\tfunction root() view external override returns (IVotePool) { return _root; }\n\tfunction member() view external override returns (IMember) { return _member; }\n\tfunction ledger() view external override returns (ILedger) { return _ledger; }\n\tfunction assetGlobal() view external override returns (IAssetGlobal) { return _assetGlobal; }\n\tfunction asset() view external override returns (IAsset) { return _asset; }\n\n\tfunction initInterfaceID() external {\n\t\trequire(!supportsInterface(DAO_ID), \"Can only be called once\");\n\t\t_registerInterface(DAO_ID);\n\t}\n\n\tfunction initDAO(\n\t\tstring memory name,\n\t\tstring memory mission,\n\t\tstring memory description,\n\t\taddress operator, address root,\n\t\taddress member, address ledger,\n\t\taddress assetGlobal, address asset\n\t) external {\n\t\tinitDepartment(address(this), description, operator);\n\n\t\tERC165(root).checkInterface(VotePool_ID, \"#DAO#initDAO root type not match\");\n\t\tERC165(member).checkInterface(Member_ID, \"#DAO#initDAO member type not match\");\n\t\tERC165(ledger).checkInterface(Ledger_ID, \"#DAO#initDAO ledger type not match\");\n\t\tERC165(assetGlobal).checkInterface(AssetGlobal_ID, \"#DAO#initDAO assetGlobal type not match\");\n\t\tERC165(asset).checkInterface(Asset_ID, \"#DAO#initDAO asset type not match\");\n\n\t\t_name = name;\n\t\t_mission = mission;\n\t\t_root = IVotePool(root);\n\t\t_member = IMember(member);\n\t\t_ledger = ILedger(ledger);\n\t\t_assetGlobal = IAssetGlobal(assetGlobal);\n\t\t_asset = IAsset(asset);\n\n\t\temit Change(\"Init\");\n\t}\n\n\tfunction setMissionAndDesc(string memory mission, string memory description) external OnlyDAO {\n\t\t_description = description;\n\t\t_mission = mission;\n\t\temit Change(\"MissionAndDesc\");\n\t}\n\n\tfunction setLedger(address addr) external OnlyDAO {\n\t\tERC165(addr).checkInterface(Ledger_ID, \"#DAO#setLedger type not match\");\n\t\t_ledger = ILedger(addr);\n\t\temit Change(\"Ledger\");\n\t}\n\n\tfunction setAssetGlobal(address addr) external OnlyDAO {\n\t\tERC165(addr).checkInterface(AssetGlobal_ID, \"#DAO#setAssetGlobal type not match\");\n\t\t_assetGlobal = IAssetGlobal(addr);\n\t\temit Change(\"AssetGlobal\");\n\t}\n\n\tfunction setAsset(address addr) external OnlyDAO {\n\t\tERC165(addr).checkInterface(Asset_ID, \"#DAO#setAsset type not match\");\n\t\t_asset = IAsset(addr);\n\t\temit Change(\"Asset\");\n\t}\n\n\tfunction setDepartments(address addr, bool isDel) external OnlyDAO {\n\t\tERC165(addr).checkInterface(Department_ID, \"#DAO#setDepartments type not match\");\n\n\t\tif (_departments.contains(addr)) {\n\t\t\tif (isDel) _departments.remove(addr);\n\t\t} else {\n\t\t\tif (!isDel) _departments.add(addr);\n\t\t}\n\t\temit Change(\"Department\");\n\t}\n\n}",
  "sourcePath": "/Users/louis/Project/hc/NFTSwap/SmartHolder/contracts/DAO.sol",
  "compiler": {
    "name": "solc",
    "version": "0.6.12+commit.27d51765.Emscripten.clang"
  },
  "schemaVersion": "3.4.8",
  "updatedAt": "2022-07-23T09:43:56.479Z",
  "devdoc": {
    "kind": "dev",
    "methods": {
      "supportsInterface(bytes4)": {
        "details": "See {IERC165-supportsInterface}. Time complexity O(1), guaranteed to always use less than 30 000 gas."
      }
    },
    "version": 1
  },
  "userdoc": {
    "kind": "user",
    "methods": {},
    "version": 1
  }
}