{
  "contractName": "Department",
  "abi": [
    {
      "inputs": [
        {
          "internalType": "bytes4",
          "name": "interfaceId",
          "type": "bytes4"
        },
        {
          "internalType": "string",
          "name": "message",
          "type": "string"
        }
      ],
      "name": "checkInterface",
      "outputs": [],
      "stateMutability": "view",
      "type": "function"
    },
    {
      "inputs": [
        {
          "internalType": "bytes4",
          "name": "interfaceId",
          "type": "bytes4"
        }
      ],
      "name": "supportsInterface",
      "outputs": [
        {
          "internalType": "bool",
          "name": "",
          "type": "bool"
        }
      ],
      "stateMutability": "view",
      "type": "function"
    },
    {
      "inputs": [],
      "name": "impl",
      "outputs": [
        {
          "internalType": "address",
          "name": "",
          "type": "address"
        }
      ],
      "stateMutability": "view",
      "type": "function"
    },
    {
      "inputs": [],
      "name": "host",
      "outputs": [
        {
          "internalType": "contract IDAO",
          "name": "",
          "type": "address"
        }
      ],
      "stateMutability": "view",
      "type": "function"
    },
    {
      "inputs": [],
      "name": "operator",
      "outputs": [
        {
          "internalType": "contract IVotePool",
          "name": "",
          "type": "address"
        }
      ],
      "stateMutability": "view",
      "type": "function"
    },
    {
      "inputs": [],
      "name": "describe",
      "outputs": [
        {
          "internalType": "string",
          "name": "",
          "type": "string"
        }
      ],
      "stateMutability": "view",
      "type": "function"
    },
    {
      "inputs": [
        {
          "internalType": "address",
          "name": "vote",
          "type": "address"
        }
      ],
      "name": "setOperator",
      "outputs": [],
      "stateMutability": "nonpayable",
      "type": "function"
    },
    {
      "inputs": [
        {
          "internalType": "address",
          "name": "impl",
          "type": "address"
        }
      ],
      "name": "upgrade",
      "outputs": [],
      "stateMutability": "nonpayable",
      "type": "function"
    }
  ],
  "bytecode": "0x608060405234801561001057600080fd5b50610893806100206000396000f3fe608060405234801561001057600080fd5b50600436106100885760003560e01c80638abf60771161005b5780638abf607714610191578063b3ab15fb14610199578063c64df69d146101bf578063f437bc591461027657610088565b806301ffc9a71461008d5780630900f010146100c85780631ad184ff146100f0578063570ca7351461016d575b600080fd5b6100b4600480360360208110156100a357600080fd5b50356001600160e01b03191661027e565b604080519115158252519081900360200190f35b6100ee600480360360208110156100de57600080fd5b50356001600160a01b031661029d565b005b6100f8610423565b6040805160208082528351818301528351919283929083019185019080838360005b8381101561013257818101518382015260200161011a565b50505050905090810190601f16801561015f5780820380516001836020036101000a031916815260200191505b509250505060405180910390f35b6101756104b9565b604080516001600160a01b039092168252519081900360200190f35b6101756104c8565b6100ee600480360360208110156101af57600080fd5b50356001600160a01b03166104d7565b6100ee600480360360408110156101d557600080fd5b6001600160e01b0319823516919081019060408101602082013564010000000081111561020157600080fd5b82018360208201111561021357600080fd5b8035906020019184600183028401116401000000008311171561023557600080fd5b91908080601f016020809104026020016040519081016040528093929190818152602001838380828437600092019190915250929550610647945050505050565b6101756106df565b6001600160e01b03191660009081526001602052604090205460ff1690565b60025433906001600160a01b0316811461040057600360009054906101000a90046001600160a01b03166001600160a01b031663570ca7356040518163ffffffff1660e01b815260040160206040518083038186803b1580156102ff57600080fd5b505afa158015610313573d6000803e3d6000fd5b505050506040513d602081101561032957600080fd5b50516001600160a01b0382811691161461040057600360009054906101000a90046001600160a01b03166001600160a01b031663ebf0c7176040518163ffffffff1660e01b815260040160206040518083038186803b15801561038b57600080fd5b505afa15801561039f573d6000803e3d6000fd5b505050506040513d60208110156103b557600080fd5b50516001600160a01b038281169116146104005760405162461bcd60e51b81526004018080602001828103825260308152602001806107f66030913960400191505060405180910390fd5b50600080546001600160a01b0319166001600160a01b0392909216919091179055565b60048054604080516020601f60026000196101006001881615020190951694909404938401819004810282018101909252828152606093909290918301828280156104af5780601f10610484576101008083540402835291602001916104af565b820191906000526020600020905b81548152906001019060200180831161049257829003601f168201915b5050505050905090565b6002546001600160a01b031690565b6000546001600160a01b031690565b60025433906001600160a01b0316811461063a57600360009054906101000a90046001600160a01b03166001600160a01b031663570ca7356040518163ffffffff1660e01b815260040160206040518083038186803b15801561053957600080fd5b505afa15801561054d573d6000803e3d6000fd5b505050506040513d602081101561056357600080fd5b50516001600160a01b0382811691161461063a57600360009054906101000a90046001600160a01b03166001600160a01b031663ebf0c7176040518163ffffffff1660e01b815260040160206040518083038186803b1580156105c557600080fd5b505afa1580156105d9573d6000803e3d6000fd5b505050506040513d60208110156105ef57600080fd5b50516001600160a01b0382811691161461063a5760405162461bcd60e51b81526004018080602001828103825260308152602001806107f66030913960400191505060405180910390fd5b610643826106ee565b5050565b6106508261027e565b81906106da5760405162461bcd60e51b81526004018080602001828103825283818151815260200191508051906020019080838360005b8381101561069f578181015183820152602001610687565b50505050905090810190601f1680156106cc5780820380516001836020036101000a031916815260200191505b509250505060405180910390fd5b505050565b6003546001600160a01b031690565b6001600160a01b038116156107975761070f816001600160a01b03166107b9565b15610797576040805163c64df69d60e01b8152630ddf27bf60e01b60048201818152602483019384526038604484018190526001600160a01b0386169463c64df69d94909160649091019061082682396040019250505060006040518083038186803b15801561077e57600080fd5b505afa158015610792573d6000803e3d6000fd5b505050505b600280546001600160a01b0319166001600160a01b0392909216919091179055565b6000813f7fc5d2460186f7233c927e7db2dcc703c0e500b653ca82273b7bfad8045d85a4708181148015906107ed57508115155b94935050505056fe2355706772616465234f6e6c7944414f2063616c6c657220646f6573206e6f742068617665207065726d697373696f6e234465706172746d656e74237365744f70657261746f725f696e7465726e616c206f70657261746f722074797065206e6f74206d61746368a26469706673582212208b27e4b73c3d78e8335b8b8840a8da72ed3eb1230ec9de316a3cc939930bec6664736f6c634300060c0033",
  "immutableReferences": {},
  "source": "\npragma solidity >=0.6.0 <=0.8.15;\n\nimport \"./Upgrade.sol\";\nimport \"./Interface.sol\";\nimport \"./VotePool.sol\";\nimport \"./ERC165.sol\";\nimport \"./AddressExp.sol\";\n\ncontract Department is Upgrade, IDepartment, ERC165 {\n\tusing Address for address;\n\tusing AddressExp for address;\n\n\t/*\n\t\t* bytes4(keccak256('initDepartment(address,string,address)')) == 0x36c6362d\n\t\t*/\n\tbytes4 internal constant Department_ID = 0x36c6362d;\n\t/*\n\t\t* bytes4(keccak256('initAssetGlobal(address,string,address)')) == 0x711cc62c\n\t\t*/\n\tbytes4 internal constant AssetGlobal_ID = 0x711cc62c;\n\t/*\n\t\t* bytes4(keccak256('initAsset(address,string,address)')) == 0xb6f00dcf\n\t\t*/\n\tbytes4 internal constant Asset_ID = 0xb6f00dcf;\n\t/*\n\t\t* bytes4(keccak256('initDAO(string,address,address,address,address,address,address)')) == 0xc7b55336\n\t\t*/\n\tbytes4 internal constant DAO_ID = 0xc7b55336;\n\t/*\n\t\t* bytes4(keccak256('initLedger(address,string,address)')) == 0xf4c38e51\n\t\t*/\n\tbytes4 internal constant Ledger_ID = 0xf4c38e51;\n\t/*\n\t\t* bytes4(keccak256('initMember(address,string,address)')) == 0x23fc76b9\n\t\t*/\n\tbytes4 internal constant Member_ID = 0x23fc76b9;\n\t/*\n\t\t* bytes4(keccak256('initVotePool(address,string)')) == 0x0ddf27bf\n\t\t*/\n\tbytes4 internal constant VotePool_ID = 0x0ddf27bf;\n\n\tIVotePool internal _operator; // address\n\tIDAO internal _host; // address\n\tstring internal _describe;\n\n\t/**\n\t\t* @dev Throws if called by any account other than the owner.\n\t\t*/\n\tmodifier OnlyDAO() {\n\t\taddress sender = msg.sender;\n\t\tif (sender != address(_operator)) {\n\t\t\tif (sender != address(_host.operator())) {\n\t\t\t\trequire(sender == address(_host.root()), \"#Upgrade#OnlyDAO caller does not have permission\");\n\t\t\t}\n\t\t}\n\t\t_;\n\t}\n\n\tfunction initDepartment(address host, string memory describe, address operator) internal {\n\t\tinitERC165();\n\t\t_registerInterface(Department_ID);\n\n\t\tERC165(host).checkInterface(DAO_ID, \"#Department#initDepartment dao host type not match\");\n\n\t\t_host = IDAO(host);\n\t\t_describe = describe;\n\n\t\tsetOperator_internal(operator);\n\t}\n\n\tfunction impl() view external returns (address) {\n\t\treturn _impl;\n\t}\n\n\tfunction host() view external returns (IDAO) {\n\t\treturn _host;\n\t}\n\n\tfunction operator() view external override returns (IVotePool) {\n\t\treturn _operator;\n\t}\n\n\tfunction describe() view external returns (string memory) {\n\t\treturn _describe;\n\t}\n\n\tfunction setOperator_internal(address vote) internal {\n\t\tif (vote != address(0)) {\n\t\t\tif (address(vote).isContract()) {\n\t\t\t\tERC165(vote).checkInterface(VotePool_ID, \"#Department#setOperator_internal operator type not match\");\n\t\t\t}\n\t\t}\n\t\t_operator = IVotePool(vote);\n\t}\n\n\tfunction setOperator(address vote) external override OnlyDAO {\n\t\tsetOperator_internal(vote);\n\t}\n\n\tfunction upgrade(address impl) external override OnlyDAO {\n\t\t_impl = impl;\n\t}\n}",
  "sourcePath": "/Users/louis/Project/hc/NFTSwap/SmartHolder/contracts/Department.sol",
  "compiler": {
    "name": "solc",
    "version": "0.6.12+commit.27d51765.Emscripten.clang"
  },
  "schemaVersion": "3.4.8",
  "updatedAt": "2022-07-18T02:00:04.235Z",
  "devdoc": {
    "kind": "dev",
    "methods": {
      "supportsInterface(bytes4)": {
        "details": "See {IERC165-supportsInterface}. Time complexity O(1), guaranteed to always use less than 30 000 gas."
      }
    },
    "version": 1
  },
  "userdoc": {
    "kind": "user",
    "methods": {},
    "version": 1
  }
}