{
  "contractName": "ERC165",
  "abi": [
    {
      "inputs": [
        {
          "internalType": "bytes4",
          "name": "interfaceId",
          "type": "bytes4"
        },
        {
          "internalType": "string",
          "name": "message",
          "type": "string"
        }
      ],
      "name": "checkInterface",
      "outputs": [],
      "stateMutability": "view",
      "type": "function"
    },
    {
      "inputs": [
        {
          "internalType": "bytes4",
          "name": "interfaceId",
          "type": "bytes4"
        }
      ],
      "name": "supportsInterface",
      "outputs": [
        {
          "internalType": "bool",
          "name": "",
          "type": "bool"
        }
      ],
      "stateMutability": "view",
      "type": "function"
    }
  ],
  "bytecode": "0x608060405234801561001057600080fd5b5061021c806100206000396000f3fe608060405234801561001057600080fd5b50600436106100365760003560e01c806301ffc9a71461003b578063c64df69d14610076575b600080fd5b6100626004803603602081101561005157600080fd5b50356001600160e01b03191661012f565b604080519115158252519081900360200190f35b61012d6004803603604081101561008c57600080fd5b6001600160e01b031982351691908101906040810160208201356401000000008111156100b857600080fd5b8201836020820111156100ca57600080fd5b803590602001918460018302840111640100000000831117156100ec57600080fd5b91908080601f01602080910402602001604051908101604052809392919081815260200183838082843760009201919091525092955061014e945050505050565b005b6001600160e01b03191660009081526001602052604090205460ff1690565b6101578261012f565b81906101e15760405162461bcd60e51b81526004018080602001828103825283818151815260200191508051906020019080838360005b838110156101a657818101518382015260200161018e565b50505050905090810190601f1680156101d35780820380516001836020036101000a031916815260200191505b509250505060405180910390fd5b50505056fea264697066735822122071a541631094909d8ff6d201d71ff6bd83f6b60621f34a99105337ea743f4c4c64736f6c634300060c0033",
  "immutableReferences": {},
  "source": "pragma solidity >=0.6.0 <=0.8.15;\n\nimport \"../openzeppelin/contracts-ethereum-package/contracts/introspection/IERC165.sol\";\nimport \"./Initializable.sol\";\nimport \"./Interface.sol\";\n\n/**\n * @dev Implementation of the {IERC165} interface.\n *\n * Contracts may inherit from this and call {_registerInterface} to declare\n * their support of an interface.\n */\ncontract ERC165 is Initializable, IERC165, IERC1651 {\n\t/*\n\t * bytes4(keccak256('supportsInterface(bytes4)')) == 0x01ffc9a7\n\t */\n\tbytes4 private constant _INTERFACE_ID_ERC165 = 0x01ffc9a7;\n\n\t/**\n\t * @dev Mapping of interface ids to whether or not it's supported.\n\t */\n\tmapping(bytes4 => bool) private _supportedInterfaces;\n\n\tfunction initERC165() internal initializer {\n\t\t// Derived contracts need only register support for their own interfaces,\n\t\t// we register support for ERC165 itself here\n\t\t_registerInterface(_INTERFACE_ID_ERC165);\n\t}\n\n\tfunction checkInterface(bytes4 interfaceId, string memory message) view external override {\n\t\trequire(supportsInterface(interfaceId), message);\n\t}\n\n\t/**\n\t\t* @dev See {IERC165-supportsInterface}.\n\t\t*\n\t\t* Time complexity O(1), guaranteed to always use less than 30 000 gas.\n\t\t*/\n\tfunction supportsInterface(bytes4 interfaceId) public view override returns (bool) {\n\t\treturn _supportedInterfaces[interfaceId];\n\t}\n\n\n\t/**\n\t * @dev Registers the contract as an implementer of the interface defined by\n\t * `interfaceId`. Support of the actual ERC165 interface is automatic and\n\t * registering its interface id is not required.\n\t *\n\t * See {IERC165-supportsInterface}.\n\t *\n\t * Requirements:\n\t *\n\t * - `interfaceId` cannot be the ERC165 invalid interface (`0xffffffff`).\n\t */\n\tfunction _registerInterface(bytes4 interfaceId) internal virtual {\n\t\trequire(interfaceId != 0xffffffff, \"ERC165: invalid interface id\");\n\t\t_supportedInterfaces[interfaceId] = true;\n\t}\n\n\t//uint256[49] private __gap;\n}\n",
  "sourcePath": "/Users/louis/Project/hc/NFTSwap/SmartHolder/contracts/ERC165.sol",
  "compiler": {
    "name": "solc",
    "version": "0.6.12+commit.27d51765.Emscripten.clang"
  },
  "schemaVersion": "3.4.8",
  "updatedAt": "2022-07-18T02:00:04.239Z",
  "devdoc": {
    "details": "Implementation of the {IERC165} interface. Contracts may inherit from this and call {_registerInterface} to declare their support of an interface.",
    "kind": "dev",
    "methods": {
      "supportsInterface(bytes4)": {
        "details": "See {IERC165-supportsInterface}. Time complexity O(1), guaranteed to always use less than 30 000 gas."
      }
    },
    "stateVariables": {
      "_supportedInterfaces": {
        "details": "Mapping of interface ids to whether or not it's supported."
      }
    },
    "version": 1
  },
  "userdoc": {
    "kind": "user",
    "methods": {},
    "version": 1
  }
}