{
  "contractName": "Ledger",
  "abi": [
    {
      "anonymous": false,
      "inputs": [
        {
          "indexed": true,
          "internalType": "address",
          "name": "from",
          "type": "address"
        },
        {
          "indexed": false,
          "internalType": "uint256",
          "name": "balance",
          "type": "uint256"
        },
        {
          "indexed": false,
          "internalType": "string",
          "name": "name",
          "type": "string"
        },
        {
          "indexed": false,
          "internalType": "string",
          "name": "description",
          "type": "string"
        }
      ],
      "name": "Deposit",
      "type": "event"
    },
    {
      "anonymous": false,
      "inputs": [
        {
          "indexed": true,
          "internalType": "address",
          "name": "from",
          "type": "address"
        },
        {
          "indexed": false,
          "internalType": "uint256",
          "name": "balance",
          "type": "uint256"
        }
      ],
      "name": "Receive",
      "type": "event"
    },
    {
      "anonymous": false,
      "inputs": [
        {
          "indexed": true,
          "internalType": "uint256",
          "name": "member",
          "type": "uint256"
        },
        {
          "indexed": true,
          "internalType": "address",
          "name": "to",
          "type": "address"
        },
        {
          "indexed": false,
          "internalType": "uint256",
          "name": "balance",
          "type": "uint256"
        }
      ],
      "name": "Release",
      "type": "event"
    },
    {
      "anonymous": false,
      "inputs": [
        {
          "indexed": true,
          "internalType": "address",
          "name": "operator",
          "type": "address"
        },
        {
          "indexed": false,
          "internalType": "uint256",
          "name": "balance",
          "type": "uint256"
        },
        {
          "indexed": false,
          "internalType": "string",
          "name": "log",
          "type": "string"
        }
      ],
      "name": "ReleaseLog",
      "type": "event"
    },
    {
      "anonymous": false,
      "inputs": [
        {
          "indexed": true,
          "internalType": "address",
          "name": "target",
          "type": "address"
        },
        {
          "indexed": false,
          "internalType": "uint256",
          "name": "balance",
          "type": "uint256"
        },
        {
          "indexed": false,
          "internalType": "string",
          "name": "description",
          "type": "string"
        }
      ],
      "name": "Withdraw",
      "type": "event"
    },
    {
      "stateMutability": "payable",
      "type": "fallback"
    },
    {
      "inputs": [
        {
          "internalType": "bytes4",
          "name": "interfaceId",
          "type": "bytes4"
        },
        {
          "internalType": "string",
          "name": "message",
          "type": "string"
        }
      ],
      "name": "checkInterface",
      "outputs": [],
      "stateMutability": "view",
      "type": "function"
    },
    {
      "inputs": [],
      "name": "description",
      "outputs": [
        {
          "internalType": "string",
          "name": "",
          "type": "string"
        }
      ],
      "stateMutability": "view",
      "type": "function"
    },
    {
      "inputs": [],
      "name": "host",
      "outputs": [
        {
          "internalType": "contract IDAO",
          "name": "",
          "type": "address"
        }
      ],
      "stateMutability": "view",
      "type": "function"
    },
    {
      "inputs": [],
      "name": "impl",
      "outputs": [
        {
          "internalType": "address",
          "name": "",
          "type": "address"
        }
      ],
      "stateMutability": "view",
      "type": "function"
    },
    {
      "inputs": [],
      "name": "operator",
      "outputs": [
        {
          "internalType": "contract IVotePool",
          "name": "",
          "type": "address"
        }
      ],
      "stateMutability": "view",
      "type": "function"
    },
    {
      "inputs": [
        {
          "internalType": "address",
          "name": "vote",
          "type": "address"
        }
      ],
      "name": "setOperator",
      "outputs": [],
      "stateMutability": "nonpayable",
      "type": "function"
    },
    {
      "inputs": [
        {
          "internalType": "bytes4",
          "name": "interfaceId",
          "type": "bytes4"
        }
      ],
      "name": "supportsInterface",
      "outputs": [
        {
          "internalType": "bool",
          "name": "",
          "type": "bool"
        }
      ],
      "stateMutability": "view",
      "type": "function"
    },
    {
      "inputs": [
        {
          "internalType": "address",
          "name": "impl",
          "type": "address"
        }
      ],
      "name": "upgrade",
      "outputs": [],
      "stateMutability": "nonpayable",
      "type": "function"
    },
    {
      "stateMutability": "payable",
      "type": "receive"
    },
    {
      "inputs": [
        {
          "internalType": "address",
          "name": "host",
          "type": "address"
        },
        {
          "internalType": "string",
          "name": "description",
          "type": "string"
        },
        {
          "internalType": "address",
          "name": "operator",
          "type": "address"
        }
      ],
      "name": "initLedger",
      "outputs": [],
      "stateMutability": "nonpayable",
      "type": "function"
    },
    {
      "inputs": [],
      "name": "getBalance",
      "outputs": [
        {
          "internalType": "uint256",
          "name": "",
          "type": "uint256"
        }
      ],
      "stateMutability": "view",
      "type": "function"
    },
    {
      "inputs": [
        {
          "internalType": "uint256",
          "name": "amount",
          "type": "uint256"
        },
        {
          "internalType": "string",
          "name": "description",
          "type": "string"
        }
      ],
      "name": "release",
      "outputs": [],
      "stateMutability": "payable",
      "type": "function"
    },
    {
      "inputs": [
        {
          "internalType": "string",
          "name": "name",
          "type": "string"
        },
        {
          "internalType": "string",
          "name": "description",
          "type": "string"
        }
      ],
      "name": "deposit",
      "outputs": [],
      "stateMutability": "payable",
      "type": "function"
    },
    {
      "inputs": [
        {
          "internalType": "uint256",
          "name": "amount",
          "type": "uint256"
        },
        {
          "internalType": "address",
          "name": "target",
          "type": "address"
        },
        {
          "internalType": "string",
          "name": "description",
          "type": "string"
        }
      ],
      "name": "withdraw",
      "outputs": [],
      "stateMutability": "payable",
      "type": "function"
    }
  ],
  "bytecode": "0x608060405234801561001057600080fd5b50611cb3806100206000396000f3fe6080604052600436106100c65760003560e01c80638abf60771161007f578063e0626f7e11610059578063e0626f7e14610201578063f108a7d214610214578063f437bc5914610227578063f4c38e511461023c576100d5565b80638abf6077146101ac578063b3ab15fb146101c1578063c64df69d146101e1576100d5565b806301ffc9a7146100dd5780630900f0101461011357806312065fe014610133578063570ca735146101555780637284e416146101775780637a9b486d14610199576100d5565b366100d5576100d361025c565b005b6100d361025c565b3480156100e957600080fd5b506100fd6100f83660046115a6565b6102a6565b60405161010a9190611845565b60405180910390f35b34801561011f57600080fd5b506100d361012e366004611505565b6102c5565b34801561013f57600080fd5b50610148610459565b60405161010a9190611b80565b34801561016157600080fd5b5061016a61045e565b60405161010a9190611831565b34801561018357600080fd5b5061018c61046d565b60405161010a9190611925565b6100d36101a7366004611610565b610503565b3480156101b857600080fd5b5061016a610553565b3480156101cd57600080fd5b506100d36101dc366004611505565b610562565b3480156101ed57600080fd5b506100d36101fc3660046115c2565b6106d3565b6100d361020f3660046117d3565b610700565b6100d361022236600461177c565b610d88565b34801561023357600080fd5b5061016a610f7a565b34801561024857600080fd5b506100d3610257366004611544565b610f89565b34156102a457336001600160a01b03167fd6717f327e0cb88b4a97a7f67a453e9258252c34937ccbdd86de7cb840e7def33460405161029b9190611b80565b60405180910390a25b565b6001600160e01b03191660009081526001602052604090205460ff1690565b60025433906001600160a01b0316811461043657600360009054906101000a90046001600160a01b03166001600160a01b031663570ca7356040518163ffffffff1660e01b815260040160206040518083038186803b15801561032757600080fd5b505afa15801561033b573d6000803e3d6000fd5b505050506040513d601f19601f8201168201806040525081019061035f9190611528565b6001600160a01b0316816001600160a01b03161461043657600360009054906101000a90046001600160a01b03166001600160a01b031663ebf0c7176040518163ffffffff1660e01b815260040160206040518083038186803b1580156103c557600080fd5b505afa1580156103d9573d6000803e3d6000fd5b505050506040513d601f19601f820116820180604052508101906103fd9190611528565b6001600160a01b0316816001600160a01b0316146104365760405162461bcd60e51b815260040161042d90611938565b60405180910390fd5b50600080546001600160a01b0319166001600160a01b0392909216919091179055565b303190565b6002546001600160a01b031690565b60048054604080516020601f60026000196101006001881615020190951694909404938401819004810282018101909252828152606093909290918301828280156104f95780601f106104ce576101008083540402835291602001916104f9565b820191906000526020600020905b8154815290600101906020018083116104dc57829003601f168201915b5050505050905090565b341561054f57336001600160a01b03167f7c13173c065e3a307058ee9baa4a75e787d82d38348af6720b8aca2c2c5222fd34848460405161054693929190611ba2565b60405180910390a25b5050565b6000546001600160a01b031690565b60025433906001600160a01b031681146106ca57600360009054906101000a90046001600160a01b03166001600160a01b031663570ca7356040518163ffffffff1660e01b815260040160206040518083038186803b1580156105c457600080fd5b505afa1580156105d8573d6000803e3d6000fd5b505050506040513d601f19601f820116820180604052508101906105fc9190611528565b6001600160a01b0316816001600160a01b0316146106ca57600360009054906101000a90046001600160a01b03166001600160a01b031663ebf0c7176040518163ffffffff1660e01b815260040160206040518083038186803b15801561066257600080fd5b505afa158015610676573d6000803e3d6000fd5b505050506040513d601f19601f8201168201806040525081019061069a9190611528565b6001600160a01b0316816001600160a01b0316146106ca5760405162461bcd60e51b815260040161042d90611938565b61054f82610fa4565b6106dc826102a6565b81906106fb5760405162461bcd60e51b815260040161042d9190611925565b505050565b60025433906001600160a01b0316811461086857600360009054906101000a90046001600160a01b03166001600160a01b031663570ca7356040518163ffffffff1660e01b815260040160206040518083038186803b15801561076257600080fd5b505afa158015610776573d6000803e3d6000fd5b505050506040513d601f19601f8201168201806040525081019061079a9190611528565b6001600160a01b0316816001600160a01b03161461086857600360009054906101000a90046001600160a01b03166001600160a01b031663ebf0c7176040518163ffffffff1660e01b815260040160206040518083038186803b15801561080057600080fd5b505afa158015610814573d6000803e3d6000fd5b505050506040513d601f19601f820116820180604052508101906108389190611528565b6001600160a01b0316816001600160a01b0316146108685760405162461bcd60e51b815260040161042d90611938565b61087061025c565b3031838110156108925760405162461bcd60e51b815260040161042d90611aa2565b600354604080516338fdad5160e21b815290516000926001600160a01b03169163e3f6b544916004808301926020929190829003018186803b1580156108d757600080fd5b505afa1580156108eb573d6000803e3d6000fd5b505050506040513d601f19601f8201168201806040525081019061090f9190611528565b6001600160a01b031663e168c3ec6040518163ffffffff1660e01b815260040160206040518083038186803b15801561094757600080fd5b505afa15801561095b573d6000803e3d6000fd5b505050506040513d601f19601f8201168201806040525081019061097f9190611764565b9050600081868161098c57fe5b049050806109ac5760405162461bcd60e51b815260040161042d90611b34565b600354604080516338fdad5160e21b815290516000926001600160a01b03169163e3f6b544916004808301926020929190829003018186803b1580156109f157600080fd5b505afa158015610a05573d6000803e3d6000fd5b505050506040513d601f19601f82011682018060405250810190610a299190611528565b6001600160a01b0316632ddbd13a6040518163ffffffff1660e01b815260040160206040518083038186803b158015610a6157600080fd5b505afa158015610a75573d6000803e3d6000fd5b505050506040513d601f19601f82011682018060405250810190610a999190611764565b9050610aa36112de565b60005b82811015610d3a57600360009054906101000a90046001600160a01b03166001600160a01b031663e3f6b5446040518163ffffffff1660e01b815260040160206040518083038186803b158015610afc57600080fd5b505afa158015610b10573d6000803e3d6000fd5b505050506040513d601f19601f82011682018060405250810190610b349190611528565b6001600160a01b031663a42bbccd826040518263ffffffff1660e01b8152600401610b5f9190611b80565b60006040518083038186803b158015610b7757600080fd5b505afa158015610b8b573d6000803e3d6000fd5b505050506040513d6000823e601f3d908101601f19168201604052610bb39190810190611667565b91506000600360009054906101000a90046001600160a01b03166001600160a01b031663e3f6b5446040518163ffffffff1660e01b815260040160206040518083038186803b158015610c0557600080fd5b505afa158015610c19573d6000803e3d6000fd5b505050506040513d601f19601f82011682018060405250810190610c3d9190611528565b83516040516331a9108f60e11b81526001600160a01b039290921691636352211e91610c6b91600401611b80565b60206040518083038186803b158015610c8357600080fd5b505afa158015610c97573d6000803e3d6000fd5b505050506040513d601f19601f82011682018060405250810190610cbb9190611528565b90506000858460a0015163ffffffff16029050610cea81836001600160a01b031661105090919063ffffffff16565b816001600160a01b031684600001517fe332e9963bc980fb82ccd3e7e181d76bddde349eec46b4ba393f3444529cd17f83604051610d289190611b80565b60405180910390a35050600101610aa6565b50336001600160a01b03167f4509e941867cecb397984b952fe483965c463c0bbbee9f617173d844bbf677908989604051610d76929190611b89565b60405180910390a25050505050505050565b60025433906001600160a01b03168114610ef057600360009054906101000a90046001600160a01b03166001600160a01b031663570ca7356040518163ffffffff1660e01b815260040160206040518083038186803b158015610dea57600080fd5b505afa158015610dfe573d6000803e3d6000fd5b505050506040513d601f19601f82011682018060405250810190610e229190611528565b6001600160a01b0316816001600160a01b031614610ef057600360009054906101000a90046001600160a01b03166001600160a01b031663ebf0c7176040518163ffffffff1660e01b815260040160206040518083038186803b158015610e8857600080fd5b505afa158015610e9c573d6000803e3d6000fd5b505050506040513d601f19601f82011682018060405250810190610ec09190611528565b6001600160a01b0316816001600160a01b031614610ef05760405162461bcd60e51b815260040161042d90611938565b6001600160a01b038316610f165760405162461bcd60e51b815260040161042d90611a53565b610f1e61025c565b610f316001600160a01b03841685611050565b826001600160a01b03167f485f1bb6524c663555797e00171a10f341656e59b02d6b557a0a38ba7d5d97518584604051610f6c929190611b89565b60405180910390a250505050565b6003546001600160a01b031690565b610f948383836110ed565b6106fb63f4c38e5160e01b6111a0565b6001600160a01b0381161561102e57610fc5816001600160a01b03166111f2565b1561102e5760405163c64df69d60e01b81526001600160a01b0382169063c64df69d90610ffd90630ddf27bf60e01b906004016118b5565b60006040518083038186803b15801561101557600080fd5b505afa158015611029573d6000803e3d6000fd5b505050505b600280546001600160a01b0319166001600160a01b0392909216919091179055565b30318111156110715760405162461bcd60e51b815260040161042d90611a1c565b6000826001600160a01b03168260405161108a9061182e565b60006040518083038185875af1925050503d80600081146110c7576040519150601f19603f3d011682016040523d82523d6000602084013e6110cc565b606091505b50509050806106fb5760405162461bcd60e51b815260040161042d906119bf565b6110f561122e565b6111056336c6362d60e01b6111a0565b60405163c64df69d60e01b81526001600160a01b0384169063c64df69d90611138906363daa99b60e11b90600401611850565b60006040518083038186803b15801561115057600080fd5b505afa158015611164573d6000803e3d6000fd5b5050600380546001600160a01b0319166001600160a01b03871617905550508151611196906004906020850190611332565b506106fb81610fa4565b6001600160e01b031980821614156111ca5760405162461bcd60e51b815260040161042d90611988565b6001600160e01b0319166000908152600160208190526040909120805460ff19169091179055565b6000813f7fc5d2460186f7233c927e7db2dcc703c0e500b653ca82273b7bfad8045d85a47081811480159061122657508115155b949350505050565b600054600160a81b900460ff168061124957506112496112d8565b8061125e5750600054600160a01b900460ff16155b61127a5760405162461bcd60e51b815260040161042d90611ae6565b600054600160a81b900460ff161580156112b1576000805460ff60a01b1960ff60a81b19909116600160a81b1716600160a01b1790555b6112c16301ffc9a760e01b6111a0565b80156112d5576000805460ff60a81b191690555b50565b303b1590565b6040518061010001604052806000815260200160608152602001606081526020016060815260200160008081111561131257fe5b8152600060208201819052604082015260600161132d6113b0565b905290565b828054600181600116156101000203166002900490600052602060002090601f016020900481019282601f1061137357805160ff19168380011785556113a0565b828001600101855582156113a0579182015b828111156113a0578251825591602001919060010190611385565b506113ac9291506113ce565b5090565b60405180604001604052806002906020820280368337509192915050565b5b808211156113ac57600081556001016113cf565b600082601f8301126113f3578081fd5b6113fd6040611bd7565b905080828460408501111561141157600080fd5b60005b6002811015611433578151835260209283019290910190600101611414565b50505092915050565b80516001811061144b57600080fd5b92915050565b600082601f830112611461578081fd5b813561147461146f82611bfe565b611bd7565b915080825283602082850101111561148b57600080fd5b8060208401602084013760009082016020015292915050565b600082601f8301126114b4578081fd5b81516114c261146f82611bfe565b91508082528360208285010111156114d957600080fd5b6114ea816020840160208601611c22565b5092915050565b805163ffffffff8116811461144b57600080fd5b600060208284031215611516578081fd5b813561152181611c52565b9392505050565b600060208284031215611539578081fd5b815161152181611c52565b600080600060608486031215611558578182fd5b833561156381611c52565b9250602084013567ffffffffffffffff81111561157e578283fd5b61158a86828701611451565b925050604084013561159b81611c52565b809150509250925092565b6000602082840312156115b7578081fd5b813561152181611c67565b600080604083850312156115d4578182fd5b82356115df81611c67565b9150602083013567ffffffffffffffff8111156115fa578182fd5b61160685828601611451565b9150509250929050565b60008060408385031215611622578182fd5b823567ffffffffffffffff80821115611639578384fd5b61164586838701611451565b9350602085013591508082111561165a578283fd5b5061160685828601611451565b600060208284031215611678578081fd5b815167ffffffffffffffff8082111561168f578283fd5b9083019061012082860312156116a3578283fd5b6116ae610100611bd7565b825181526020830151828111156116c3578485fd5b6116cf878286016114a4565b6020830152506040830151828111156116e6578485fd5b6116f2878286016114a4565b604083015250606083015182811115611709578485fd5b611715878286016114a4565b606083015250611728866080850161143c565b608082015261173a8660a085016114f1565b60a082015260c083015160c08201526117568660e085016113e3565b60e082015295945050505050565b600060208284031215611775578081fd5b5051919050565b600080600060608486031215611790578283fd5b8335925060208401356117a281611c52565b9150604084013567ffffffffffffffff8111156117bd578182fd5b6117c986828701611451565b9150509250925092565b600080604083850312156117e5578182fd5b82359150602083013567ffffffffffffffff8111156115fa578182fd5b6000815180845261181a816020860160208601611c22565b601f01601f19169290920160200192915050565b90565b6001600160a01b0391909116815260200190565b901515815260200190565b6001600160e01b03199190911681526040602082018190526032908201527f234465706172746d656e7423696e69744465706172746d656e742064616f20686060820152710dee6e840e8f2e0ca40dcdee840dac2e8c6d60731b608082015260a00190565b6001600160e01b03199190911681526040602082018190526038908201527f234465706172746d656e74237365744f70657261746f725f696e7465726e616c60608201527f206f70657261746f722074797065206e6f74206d617463680000000000000000608082015260a00190565b6000602082526115216020830184611802565b60208082526030908201527f2355706772616465234f6e6c7944414f2063616c6c657220646f6573206e6f7460408201526f103430bb32903832b936b4b9b9b4b7b760811b606082015260800190565b6020808252601c908201527f4552433136353a20696e76616c696420696e7465726661636520696400000000604082015260600190565b6020808252603a908201527f416464726573733a20756e61626c6520746f2073656e642076616c75652c207260408201527f6563697069656e74206d61792068617665207265766572746564000000000000606082015260800190565b6020808252601d908201527f416464726573733a20696e73756666696369656e742062616c616e6365000000604082015260600190565b6020808252602f908201527f234c65646765722377697468647261772072656365697665206173737265737360408201526e206e6f74206164647265737328302960881b606082015260800190565b60208082526024908201527f234c65646765722372656c6561736520696e73756666696369656e742062616c604082015263616e636560e01b606082015260800190565b6020808252602e908201527f436f6e747261637420696e7374616e63652068617320616c726561647920626560408201526d195b881a5b9a5d1a585b1a5e995960921b606082015260800190565b6020808252602c908201527f234c65646765722372656c6561736520696e73756666696369656e742062616c60408201526b616e63652072656c6561736560a01b606082015260800190565b90815260200190565b6000838252604060208301526112266040830184611802565b600084825260606020830152611bbb6060830185611802565b8281036040840152611bcd8185611802565b9695505050505050565b60405181810167ffffffffffffffff81118282101715611bf657600080fd5b604052919050565b600067ffffffffffffffff821115611c14578081fd5b50601f01601f191660200190565b60005b83811015611c3d578181015183820152602001611c25565b83811115611c4c576000848401525b50505050565b6001600160a01b03811681146112d557600080fd5b6001600160e01b0319811681146112d557600080fdfea26469706673582212205c46e6cc1e29e542528107ce24456f4b602bef7d7653203ec8c41f9a7417500d64736f6c634300060c0033",
  "immutableReferences": {},
  "source": "\npragma solidity >=0.6.0 <=0.8.15;\n\npragma experimental ABIEncoderV2;\n\nimport \"./Interface.sol\";\nimport \"./Department.sol\";\n\ncontract Ledger is ILedger, Department {\n\n\tfunction initLedger(address host, string memory description, address operator) external {\n\t\tinitDepartment(host, description, operator);\n\t\t_registerInterface(Ledger_ID);\n\t}\n\n\tfunction receiveBalance() internal {\n\t\tif (msg.value != 0) {\n\t\t\temit Receive(msg.sender, msg.value);\n\t\t}\n\t}\n\n\tfunction getBalance() view public returns (uint256) {\n\t\treturn address(this).balance;\n\t}\n\n\tfunction release(uint256 amount, string memory description) external payable OnlyDAO {\n\t\treceiveBalance();\n\n\t\tuint256 curamount = address(this).balance;\n\t\trequire(curamount >= amount, \"#Ledger#release insufficient balance\");\n\n\t\tuint256 votes = _host.member().votes();\n\t\tuint256 unit = amount / votes;\n\n\t\trequire(unit != 0 , \"#Ledger#release insufficient balance release\");\n\n\t\tuint256 total = _host.member().total();\n\n\t\tIMember.Info memory info;\n\n\t\tfor (uint256 i = 0; i < total; i++) {\n\t\t\tinfo = _host.member().indexAt(i);\n\t\t\taddress owner = _host.member().ownerOf(info.id);\n\t\t\tuint256 balance = info.votes * unit;\n\t\t\towner.sendValue(balance);\n\t\t\temit Release(info.id, owner, balance);\n\t\t}\n\n\t\temit ReleaseLog(msg.sender, amount, description);\n\t}\n\n\tfunction deposit(string memory name, string memory description) public payable {\n\t\tif (msg.value != 0) {\n\t\t\temit Deposit(msg.sender, msg.value, name, description);\n\t\t}\n\t}\n\n\tfunction withdraw(uint256 amount, address target, string memory description) external payable override OnlyDAO {\n\t\trequire(target != address(0), \"#Ledger#withdraw receive assress not address(0)\");\n\t\treceiveBalance();\n\t\ttarget.sendValue(amount);\n\t\temit Withdraw(target, amount, description);\n\t}\n\n\treceive() external payable {\n\t\treceiveBalance();\n\t}\n\n\tfallback() external payable {\n\t\treceiveBalance();\n\t}\n\n}",
  "sourcePath": "/Users/louis/Project/hc/NFTSwap/SmartHolder/contracts/Ledger.sol",
  "compiler": {
    "name": "solc",
    "version": "0.6.12+commit.27d51765.Emscripten.clang"
  },
  "schemaVersion": "3.4.8",
  "updatedAt": "2022-07-23T09:43:56.553Z",
  "devdoc": {
    "kind": "dev",
    "methods": {
      "supportsInterface(bytes4)": {
        "details": "See {IERC165-supportsInterface}. Time complexity O(1), guaranteed to always use less than 30 000 gas."
      }
    },
    "version": 1
  },
  "userdoc": {
    "kind": "user",
    "methods": {},
    "version": 1
  }
}