{
  "contractName": "Ledger",
  "abi": [
    {
      "anonymous": false,
      "inputs": [
        {
          "indexed": true,
          "internalType": "address",
          "name": "from",
          "type": "address"
        },
        {
          "indexed": false,
          "internalType": "uint256",
          "name": "balance",
          "type": "uint256"
        },
        {
          "indexed": false,
          "internalType": "string",
          "name": "name",
          "type": "string"
        },
        {
          "indexed": false,
          "internalType": "string",
          "name": "description",
          "type": "string"
        }
      ],
      "name": "Deposit",
      "type": "event"
    },
    {
      "anonymous": false,
      "inputs": [
        {
          "indexed": true,
          "internalType": "address",
          "name": "from",
          "type": "address"
        },
        {
          "indexed": false,
          "internalType": "uint256",
          "name": "balance",
          "type": "uint256"
        }
      ],
      "name": "Receive",
      "type": "event"
    },
    {
      "anonymous": false,
      "inputs": [
        {
          "indexed": true,
          "internalType": "uint256",
          "name": "member",
          "type": "uint256"
        },
        {
          "indexed": true,
          "internalType": "address",
          "name": "to",
          "type": "address"
        },
        {
          "indexed": false,
          "internalType": "uint256",
          "name": "balance",
          "type": "uint256"
        }
      ],
      "name": "Release",
      "type": "event"
    },
    {
      "anonymous": false,
      "inputs": [
        {
          "indexed": true,
          "internalType": "address",
          "name": "operator",
          "type": "address"
        },
        {
          "indexed": false,
          "internalType": "uint256",
          "name": "balance",
          "type": "uint256"
        },
        {
          "indexed": false,
          "internalType": "string",
          "name": "log",
          "type": "string"
        }
      ],
      "name": "ReleaseLog",
      "type": "event"
    },
    {
      "anonymous": false,
      "inputs": [
        {
          "indexed": true,
          "internalType": "address",
          "name": "target",
          "type": "address"
        },
        {
          "indexed": false,
          "internalType": "uint256",
          "name": "balance",
          "type": "uint256"
        },
        {
          "indexed": false,
          "internalType": "string",
          "name": "description",
          "type": "string"
        }
      ],
      "name": "Withdraw",
      "type": "event"
    },
    {
      "stateMutability": "payable",
      "type": "fallback",
      "payable": true
    },
    {
      "inputs": [
        {
          "internalType": "bytes4",
          "name": "interfaceId",
          "type": "bytes4"
        },
        {
          "internalType": "string",
          "name": "message",
          "type": "string"
        }
      ],
      "name": "checkInterface",
      "outputs": [],
      "stateMutability": "view",
      "type": "function",
      "constant": true
    },
    {
      "inputs": [],
      "name": "description",
      "outputs": [
        {
          "internalType": "string",
          "name": "",
          "type": "string"
        }
      ],
      "stateMutability": "view",
      "type": "function",
      "constant": true
    },
    {
      "inputs": [],
      "name": "host",
      "outputs": [
        {
          "internalType": "contract IDAO",
          "name": "",
          "type": "address"
        }
      ],
      "stateMutability": "view",
      "type": "function",
      "constant": true
    },
    {
      "inputs": [],
      "name": "impl",
      "outputs": [
        {
          "internalType": "address",
          "name": "",
          "type": "address"
        }
      ],
      "stateMutability": "view",
      "type": "function",
      "constant": true
    },
    {
      "inputs": [],
      "name": "operator",
      "outputs": [
        {
          "internalType": "contract IVotePool",
          "name": "",
          "type": "address"
        }
      ],
      "stateMutability": "view",
      "type": "function",
      "constant": true
    },
    {
      "inputs": [
        {
          "internalType": "address",
          "name": "vote",
          "type": "address"
        }
      ],
      "name": "setOperator",
      "outputs": [],
      "stateMutability": "nonpayable",
      "type": "function"
    },
    {
      "inputs": [
        {
          "internalType": "bytes4",
          "name": "interfaceId",
          "type": "bytes4"
        }
      ],
      "name": "supportsInterface",
      "outputs": [
        {
          "internalType": "bool",
          "name": "",
          "type": "bool"
        }
      ],
      "stateMutability": "view",
      "type": "function",
      "constant": true
    },
    {
      "inputs": [
        {
          "internalType": "address",
          "name": "impl",
          "type": "address"
        }
      ],
      "name": "upgrade",
      "outputs": [],
      "stateMutability": "nonpayable",
      "type": "function"
    },
    {
      "stateMutability": "payable",
      "type": "receive",
      "payable": true
    },
    {
      "inputs": [
        {
          "internalType": "address",
          "name": "host",
          "type": "address"
        },
        {
          "internalType": "string",
          "name": "description",
          "type": "string"
        },
        {
          "internalType": "address",
          "name": "operator",
          "type": "address"
        }
      ],
      "name": "initLedger",
      "outputs": [],
      "stateMutability": "nonpayable",
      "type": "function"
    },
    {
      "inputs": [],
      "name": "getBalance",
      "outputs": [
        {
          "internalType": "uint256",
          "name": "",
          "type": "uint256"
        }
      ],
      "stateMutability": "view",
      "type": "function",
      "constant": true
    },
    {
      "inputs": [
        {
          "internalType": "uint256",
          "name": "amount",
          "type": "uint256"
        },
        {
          "internalType": "string",
          "name": "description",
          "type": "string"
        }
      ],
      "name": "release",
      "outputs": [],
      "stateMutability": "payable",
      "type": "function",
      "payable": true
    },
    {
      "inputs": [
        {
          "internalType": "string",
          "name": "name",
          "type": "string"
        },
        {
          "internalType": "string",
          "name": "description",
          "type": "string"
        }
      ],
      "name": "deposit",
      "outputs": [],
      "stateMutability": "payable",
      "type": "function",
      "payable": true
    },
    {
      "inputs": [
        {
          "internalType": "uint256",
          "name": "amount",
          "type": "uint256"
        },
        {
          "internalType": "address",
          "name": "target",
          "type": "address"
        },
        {
          "internalType": "string",
          "name": "description",
          "type": "string"
        }
      ],
      "name": "withdraw",
      "outputs": [],
      "stateMutability": "payable",
      "type": "function",
      "payable": true
    }
  ],
  "bytecode": "0x608060405234801561001057600080fd5b50611902806100206000396000f3fe6080604052600436106100c65760003560e01c80638abf60771161007f578063e0626f7e11610059578063e0626f7e14610201578063f108a7d214610214578063f437bc5914610227578063f4c38e511461023c576100d5565b80638abf6077146101ac578063b3ab15fb146101c1578063c64df69d146101e1576100d5565b806301ffc9a7146100dd5780630900f0101461011357806312065fe014610133578063570ca735146101555780637284e416146101775780637a9b486d14610199576100d5565b366100d5576100d361025c565b005b6100d361025c565b3480156100e957600080fd5b506100fd6100f83660046111f5565b6102a6565b60405161010a9190611491565b60405180910390f35b34801561011f57600080fd5b506100d361012e366004611154565b6102c5565b34801561013f57600080fd5b50610148610314565b60405161010a91906117cf565b34801561016157600080fd5b5061016a61031a565b60405161010a919061147d565b34801561018357600080fd5b5061018c610329565b60405161010a9190611571565b6100d36101a736600461125f565b6103bf565b3480156101b857600080fd5b5061016a61040f565b3480156101cd57600080fd5b506100d36101dc366004611154565b61041e565b3480156101ed57600080fd5b506100d36101fc366004611211565b61044e565b6100d361020f366004611422565b61047b565b6100d36102223660046113cb565b6109be565b34801561023357600080fd5b5061016a610a6b565b34801561024857600080fd5b506100d3610257366004611193565b610a7a565b34156102a457336001600160a01b03167fd6717f327e0cb88b4a97a7f67a453e9258252c34937ccbdd86de7cb840e7def33460405161029b91906117cf565b60405180910390a25b565b6001600160e01b03191660009081526001602052604090205460ff1690565b6102cd610a95565b6102f25760405162461bcd60e51b81526004016102e990611584565b60405180910390fd5b600080546001600160a01b0319166001600160a01b0392909216919091179055565b30315b90565b6002546001600160a01b031690565b60048054604080516020601f60026000196101006001881615020190951694909404938401819004810282018101909252828152606093909290918301828280156103b55780601f1061038a576101008083540402835291602001916103b5565b820191906000526020600020905b81548152906001019060200180831161039857829003601f168201915b5050505050905090565b341561040b57336001600160a01b03167f7c13173c065e3a307058ee9baa4a75e787d82d38348af6720b8aca2c2c5222fd348484604051610402939291906117f1565b60405180910390a25b5050565b6000546001600160a01b031690565b610426610a95565b6104425760405162461bcd60e51b81526004016102e990611584565b61044b81610bf4565b50565b610457826102a6565b81906104765760405162461bcd60e51b81526004016102e99190611571565b505050565b610483610a95565b61049f5760405162461bcd60e51b81526004016102e990611584565b6104a761025c565b3031828110156104c95760405162461bcd60e51b81526004016102e9906116f1565b600354604080516338fdad5160e21b815290516000926001600160a01b03169163e3f6b544916004808301926020929190829003018186803b15801561050e57600080fd5b505afa158015610522573d6000803e3d6000fd5b505050506040513d601f19601f820116820180604052508101906105469190611177565b6001600160a01b031663e168c3ec6040518163ffffffff1660e01b815260040160206040518083038186803b15801561057e57600080fd5b505afa158015610592573d6000803e3d6000fd5b505050506040513d601f19601f820116820180604052508101906105b691906113b3565b905060008185816105c357fe5b049050806105e35760405162461bcd60e51b81526004016102e990611783565b600354604080516338fdad5160e21b815290516000926001600160a01b03169163e3f6b544916004808301926020929190829003018186803b15801561062857600080fd5b505afa15801561063c573d6000803e3d6000fd5b505050506040513d601f19601f820116820180604052508101906106609190611177565b6001600160a01b0316632ddbd13a6040518163ffffffff1660e01b815260040160206040518083038186803b15801561069857600080fd5b505afa1580156106ac573d6000803e3d6000fd5b505050506040513d601f19601f820116820180604052508101906106d091906113b3565b90506106da610f2d565b60005b8281101561097157600360009054906101000a90046001600160a01b03166001600160a01b031663e3f6b5446040518163ffffffff1660e01b815260040160206040518083038186803b15801561073357600080fd5b505afa158015610747573d6000803e3d6000fd5b505050506040513d601f19601f8201168201806040525081019061076b9190611177565b6001600160a01b031663a42bbccd826040518263ffffffff1660e01b815260040161079691906117cf565b60006040518083038186803b1580156107ae57600080fd5b505afa1580156107c2573d6000803e3d6000fd5b505050506040513d6000823e601f3d908101601f191682016040526107ea91908101906112b6565b91506000600360009054906101000a90046001600160a01b03166001600160a01b031663e3f6b5446040518163ffffffff1660e01b815260040160206040518083038186803b15801561083c57600080fd5b505afa158015610850573d6000803e3d6000fd5b505050506040513d601f19601f820116820180604052508101906108749190611177565b83516040516331a9108f60e11b81526001600160a01b039290921691636352211e916108a2916004016117cf565b60206040518083038186803b1580156108ba57600080fd5b505afa1580156108ce573d6000803e3d6000fd5b505050506040513d601f19601f820116820180604052508101906108f29190611177565b90506000858460a0015163ffffffff1602905061092181836001600160a01b0316610ca090919063ffffffff16565b816001600160a01b031684600001517fe332e9963bc980fb82ccd3e7e181d76bddde349eec46b4ba393f3444529cd17f8360405161095f91906117cf565b60405180910390a350506001016106dd565b50336001600160a01b03167f4509e941867cecb397984b952fe483965c463c0bbbee9f617173d844bbf6779088886040516109ad9291906117d8565b60405180910390a250505050505050565b6109c6610a95565b6109e25760405162461bcd60e51b81526004016102e990611584565b6001600160a01b038216610a085760405162461bcd60e51b81526004016102e9906116a2565b610a1061025c565b610a236001600160a01b03831684610ca0565b816001600160a01b03167f485f1bb6524c663555797e00171a10f341656e59b02d6b557a0a38ba7d5d97518483604051610a5e9291906117d8565b60405180910390a2505050565b6003546001600160a01b031690565b610a85838383610d3d565b61047663f4c38e5160e01b610df0565b60025460009033906001600160a01b03168114610bec57600360009054906101000a90046001600160a01b03166001600160a01b031663570ca7356040518163ffffffff1660e01b815260040160206040518083038186803b158015610afa57600080fd5b505afa158015610b0e573d6000803e3d6000fd5b505050506040513d601f19601f82011682018060405250810190610b329190611177565b6001600160a01b0316816001600160a01b031614610bec57600360009054906101000a90046001600160a01b03166001600160a01b031663ebf0c7176040518163ffffffff1660e01b815260040160206040518083038186803b158015610b9857600080fd5b505afa158015610bac573d6000803e3d6000fd5b505050506040513d601f19601f82011682018060405250810190610bd09190611177565b6001600160a01b0316816001600160a01b031614915050610317565b600191505090565b6001600160a01b03811615610c7e57610c15816001600160a01b0316610e42565b15610c7e5760405163c64df69d60e01b81526001600160a01b0382169063c64df69d90610c4d90630ddf27bf60e01b90600401611501565b60006040518083038186803b158015610c6557600080fd5b505afa158015610c79573d6000803e3d6000fd5b505050505b600280546001600160a01b0319166001600160a01b0392909216919091179055565b3031811115610cc15760405162461bcd60e51b81526004016102e99061166b565b6000826001600160a01b031682604051610cda90610317565b60006040518083038185875af1925050503d8060008114610d17576040519150601f19603f3d011682016040523d82523d6000602084013e610d1c565b606091505b50509050806104765760405162461bcd60e51b81526004016102e99061160e565b610d45610e7e565b610d556336c6362d60e01b610df0565b60405163c64df69d60e01b81526001600160a01b0384169063c64df69d90610d88906363daa99b60e11b9060040161149c565b60006040518083038186803b158015610da057600080fd5b505afa158015610db4573d6000803e3d6000fd5b5050600380546001600160a01b0319166001600160a01b03871617905550508151610de6906004906020850190610f81565b5061047681610bf4565b6001600160e01b03198082161415610e1a5760405162461bcd60e51b81526004016102e9906115d7565b6001600160e01b0319166000908152600160208190526040909120805460ff19169091179055565b6000813f7fc5d2460186f7233c927e7db2dcc703c0e500b653ca82273b7bfad8045d85a470818114801590610e7657508115155b949350505050565b600054600160a81b900460ff1680610e995750610e99610f27565b80610eae5750600054600160a01b900460ff16155b610eca5760405162461bcd60e51b81526004016102e990611735565b600054600160a81b900460ff16158015610f01576000805460ff60a01b1960ff60a81b19909116600160a81b1716600160a01b1790555b610f116301ffc9a760e01b610df0565b801561044b576000805460ff60a81b1916905550565b303b1590565b60405180610100016040528060008152602001606081526020016060815260200160608152602001600080811115610f6157fe5b81526000602082018190526040820152606001610f7c610fff565b905290565b828054600181600116156101000203166002900490600052602060002090601f016020900481019282601f10610fc257805160ff1916838001178555610fef565b82800160010185558215610fef579182015b82811115610fef578251825591602001919060010190610fd4565b50610ffb92915061101d565b5090565b60405180604001604052806002906020820280368337509192915050565b5b80821115610ffb576000815560010161101e565b600082601f830112611042578081fd5b61104c6040611826565b905080828460408501111561106057600080fd5b60005b6002811015611082578151835260209283019290910190600101611063565b50505092915050565b80516001811061109a57600080fd5b92915050565b600082601f8301126110b0578081fd5b81356110c36110be8261184d565b611826565b91508082528360208285010111156110da57600080fd5b8060208401602084013760009082016020015292915050565b600082601f830112611103578081fd5b81516111116110be8261184d565b915080825283602082850101111561112857600080fd5b611139816020840160208601611871565b5092915050565b805163ffffffff8116811461109a57600080fd5b600060208284031215611165578081fd5b8135611170816118a1565b9392505050565b600060208284031215611188578081fd5b8151611170816118a1565b6000806000606084860312156111a7578182fd5b83356111b2816118a1565b9250602084013567ffffffffffffffff8111156111cd578283fd5b6111d9868287016110a0565b92505060408401356111ea816118a1565b809150509250925092565b600060208284031215611206578081fd5b8135611170816118b6565b60008060408385031215611223578182fd5b823561122e816118b6565b9150602083013567ffffffffffffffff811115611249578182fd5b611255858286016110a0565b9150509250929050565b60008060408385031215611271578182fd5b823567ffffffffffffffff80821115611288578384fd5b611294868387016110a0565b935060208501359150808211156112a9578283fd5b50611255858286016110a0565b6000602082840312156112c7578081fd5b815167ffffffffffffffff808211156112de578283fd5b9083019061012082860312156112f2578283fd5b6112fd610100611826565b82518152602083015182811115611312578485fd5b61131e878286016110f3565b602083015250604083015182811115611335578485fd5b611341878286016110f3565b604083015250606083015182811115611358578485fd5b611364878286016110f3565b606083015250611377866080850161108b565b60808201526113898660a08501611140565b60a082015260c083015160c08201526113a58660e08501611032565b60e082015295945050505050565b6000602082840312156113c4578081fd5b5051919050565b6000806000606084860312156113df578283fd5b8335925060208401356113f1816118a1565b9150604084013567ffffffffffffffff81111561140c578182fd5b611418868287016110a0565b9150509250925092565b60008060408385031215611434578182fd5b82359150602083013567ffffffffffffffff811115611249578182fd5b60008151808452611469816020860160208601611871565b601f01601f19169290920160200192915050565b6001600160a01b0391909116815260200190565b901515815260200190565b6001600160e01b03199190911681526040602082018190526032908201527f234465706172746d656e7423696e69744465706172746d656e742064616f20686060820152710dee6e840e8f2e0ca40dcdee840dac2e8c6d60731b608082015260a00190565b6001600160e01b03199190911681526040602082018190526038908201527f234465706172746d656e74237365744f70657261746f725f696e7465726e616c60608201527f206f70657261746f722074797065206e6f74206d617463680000000000000000608082015260a00190565b6000602082526111706020830184611451565b60208082526033908201527f234465706172746d656e74234f6e6c7944414f2063616c6c657220646f6573206040820152723737ba103430bb32903832b936b4b9b9b4b7b760691b606082015260800190565b6020808252601c908201527f4552433136353a20696e76616c696420696e7465726661636520696400000000604082015260600190565b6020808252603a908201527f416464726573733a20756e61626c6520746f2073656e642076616c75652c207260408201527f6563697069656e74206d61792068617665207265766572746564000000000000606082015260800190565b6020808252601d908201527f416464726573733a20696e73756666696369656e742062616c616e6365000000604082015260600190565b6020808252602f908201527f234c65646765722377697468647261772072656365697665206173737265737360408201526e206e6f74206164647265737328302960881b606082015260800190565b60208082526024908201527f234c65646765722372656c6561736520696e73756666696369656e742062616c604082015263616e636560e01b606082015260800190565b6020808252602e908201527f436f6e747261637420696e7374616e63652068617320616c726561647920626560408201526d195b881a5b9a5d1a585b1a5e995960921b606082015260800190565b6020808252602c908201527f234c65646765722372656c6561736520696e73756666696369656e742062616c60408201526b616e63652072656c6561736560a01b606082015260800190565b90815260200190565b600083825260406020830152610e766040830184611451565b60008482526060602083015261180a6060830185611451565b828103604084015261181c8185611451565b9695505050505050565b60405181810167ffffffffffffffff8111828210171561184557600080fd5b604052919050565b600067ffffffffffffffff821115611863578081fd5b50601f01601f191660200190565b60005b8381101561188c578181015183820152602001611874565b8381111561189b576000848401525b50505050565b6001600160a01b038116811461044b57600080fd5b6001600160e01b03198116811461044b57600080fdfea26469706673582212207e34a9e213058fc0d7230abbf1a3a99ba6f0e0bef61f3815fecb05ab2194a10964736f6c634300060c0033",
  "immutableReferences": {},
  "source": "\npragma solidity >=0.6.0 <=0.8.15;\n\npragma experimental ABIEncoderV2;\n\nimport \"./Interface.sol\";\nimport \"./Department.sol\";\n\ncontract Ledger is ILedger, Department {\n\n\tfunction initLedger(address host, string memory description, address operator) external {\n\t\tinitDepartment(host, description, operator);\n\t\t_registerInterface(Ledger_ID);\n\t}\n\n\tfunction receiveBalance() internal {\n\t\tif (msg.value != 0) {\n\t\t\temit Receive(msg.sender, msg.value);\n\t\t}\n\t}\n\n\tfunction getBalance() view public returns (uint256) {\n\t\treturn address(this).balance;\n\t}\n\n\tfunction release(uint256 amount, string memory description) external payable OnlyDAO {\n\t\treceiveBalance();\n\n\t\tuint256 curamount = address(this).balance;\n\t\trequire(curamount >= amount, \"#Ledger#release insufficient balance\");\n\n\t\tuint256 votes = _host.member().votes();\n\t\tuint256 unit = amount / votes;\n\n\t\trequire(unit != 0 , \"#Ledger#release insufficient balance release\");\n\n\t\tuint256 total = _host.member().total();\n\n\t\tIMember.Info memory info;\n\n\t\tfor (uint256 i = 0; i < total; i++) {\n\t\t\tinfo = _host.member().indexAt(i);\n\t\t\taddress owner = _host.member().ownerOf(info.id);\n\t\t\tuint256 balance = info.votes * unit;\n\t\t\towner.sendValue(balance);\n\t\t\temit Release(info.id, owner, balance);\n\t\t}\n\n\t\temit ReleaseLog(msg.sender, amount, description);\n\t}\n\n\tfunction deposit(string memory name, string memory description) public payable {\n\t\tif (msg.value != 0) {\n\t\t\temit Deposit(msg.sender, msg.value, name, description);\n\t\t}\n\t}\n\n\tfunction withdraw(uint256 amount, address target, string memory description) external payable override OnlyDAO {\n\t\trequire(target != address(0), \"#Ledger#withdraw receive assress not address(0)\");\n\t\treceiveBalance();\n\t\ttarget.sendValue(amount);\n\t\temit Withdraw(target, amount, description);\n\t}\n\n\treceive() external payable {\n\t\treceiveBalance();\n\t}\n\n\tfallback() external payable {\n\t\treceiveBalance();\n\t}\n\n}",
  "sourcePath": "/Users/louis/Project/hc/NFTSwap/SmartHolder/contracts/Ledger.sol",
  "compiler": {
    "name": "solc",
    "version": "0.6.12+commit.27d51765.Emscripten.clang"
  },
  "schemaVersion": "3.4.8",
  "updatedAt": "2022-08-15T05:13:53.602Z",
  "networkType": "ethereum",
  "devdoc": {
    "kind": "dev",
    "methods": {
      "supportsInterface(bytes4)": {
        "details": "See {IERC165-supportsInterface}. Time complexity O(1), guaranteed to always use less than 30 000 gas."
      }
    },
    "version": 1
  },
  "userdoc": {
    "kind": "user",
    "methods": {},
    "version": 1
  }
}