{
  "contractName": "Ledger",
  "abi": [
    {
      "anonymous": false,
      "inputs": [
        {
          "indexed": true,
          "internalType": "address",
          "name": "from",
          "type": "address"
        },
        {
          "indexed": false,
          "internalType": "uint256",
          "name": "balance",
          "type": "uint256"
        }
      ],
      "name": "Receive",
      "type": "event"
    },
    {
      "anonymous": false,
      "inputs": [
        {
          "indexed": true,
          "internalType": "uint256",
          "name": "member",
          "type": "uint256"
        },
        {
          "indexed": false,
          "internalType": "address",
          "name": "addr",
          "type": "address"
        },
        {
          "indexed": false,
          "internalType": "uint256",
          "name": "balance",
          "type": "uint256"
        }
      ],
      "name": "Release",
      "type": "event"
    },
    {
      "anonymous": false,
      "inputs": [
        {
          "indexed": true,
          "internalType": "address",
          "name": "target",
          "type": "address"
        },
        {
          "indexed": false,
          "internalType": "uint256",
          "name": "balance",
          "type": "uint256"
        }
      ],
      "name": "Withdraw",
      "type": "event"
    },
    {
      "stateMutability": "payable",
      "type": "fallback",
      "payable": true
    },
    {
      "inputs": [
        {
          "internalType": "bytes4",
          "name": "interfaceId",
          "type": "bytes4"
        },
        {
          "internalType": "string",
          "name": "message",
          "type": "string"
        }
      ],
      "name": "checkInterface",
      "outputs": [],
      "stateMutability": "view",
      "type": "function",
      "constant": true
    },
    {
      "inputs": [],
      "name": "describe",
      "outputs": [
        {
          "internalType": "string",
          "name": "",
          "type": "string"
        }
      ],
      "stateMutability": "view",
      "type": "function",
      "constant": true
    },
    {
      "inputs": [],
      "name": "host",
      "outputs": [
        {
          "internalType": "contract IDAO",
          "name": "",
          "type": "address"
        }
      ],
      "stateMutability": "view",
      "type": "function",
      "constant": true
    },
    {
      "inputs": [],
      "name": "impl",
      "outputs": [
        {
          "internalType": "address",
          "name": "",
          "type": "address"
        }
      ],
      "stateMutability": "view",
      "type": "function",
      "constant": true
    },
    {
      "inputs": [],
      "name": "operator",
      "outputs": [
        {
          "internalType": "contract IVotePool",
          "name": "",
          "type": "address"
        }
      ],
      "stateMutability": "view",
      "type": "function",
      "constant": true
    },
    {
      "inputs": [
        {
          "internalType": "address",
          "name": "vote",
          "type": "address"
        }
      ],
      "name": "setOperator",
      "outputs": [],
      "stateMutability": "nonpayable",
      "type": "function"
    },
    {
      "inputs": [
        {
          "internalType": "bytes4",
          "name": "interfaceId",
          "type": "bytes4"
        }
      ],
      "name": "supportsInterface",
      "outputs": [
        {
          "internalType": "bool",
          "name": "",
          "type": "bool"
        }
      ],
      "stateMutability": "view",
      "type": "function",
      "constant": true
    },
    {
      "inputs": [
        {
          "internalType": "address",
          "name": "impl",
          "type": "address"
        }
      ],
      "name": "upgrade",
      "outputs": [],
      "stateMutability": "nonpayable",
      "type": "function"
    },
    {
      "stateMutability": "payable",
      "type": "receive",
      "payable": true
    },
    {
      "inputs": [
        {
          "internalType": "address",
          "name": "host",
          "type": "address"
        },
        {
          "internalType": "string",
          "name": "describe",
          "type": "string"
        },
        {
          "internalType": "address",
          "name": "operator",
          "type": "address"
        }
      ],
      "name": "initLedger",
      "outputs": [],
      "stateMutability": "nonpayable",
      "type": "function"
    },
    {
      "inputs": [],
      "name": "getBalance",
      "outputs": [
        {
          "internalType": "uint256",
          "name": "",
          "type": "uint256"
        }
      ],
      "stateMutability": "view",
      "type": "function",
      "constant": true
    },
    {
      "inputs": [
        {
          "internalType": "uint256",
          "name": "amount",
          "type": "uint256"
        }
      ],
      "name": "release",
      "outputs": [],
      "stateMutability": "payable",
      "type": "function",
      "payable": true
    },
    {
      "inputs": [
        {
          "internalType": "uint256",
          "name": "amount",
          "type": "uint256"
        },
        {
          "internalType": "address",
          "name": "target",
          "type": "address"
        }
      ],
      "name": "withdraw",
      "outputs": [],
      "stateMutability": "payable",
      "type": "function",
      "payable": true
    }
  ],
  "bytecode": "0x608060405234801561001057600080fd5b50611b52806100206000396000f3fe6080604052600436106100aa5760003560e01c8063570ca73511610064578063570ca735146101815780638abf6077146101a3578063b3ab15fb146101b8578063c64df69d146101d8578063f437bc59146101f8578063f4c38e511461020d576100b9565b8062f714ce146100c157806301ffc9a7146100d45780630900f0101461010a57806312065fe01461012a5780631ad184ff1461014c57806337bdc99b1461016e576100b9565b366100b9576100b761022d565b005b6100b761022d565b6100b76100cf3660046116b3565b610277565b3480156100e057600080fd5b506100f46100ef36600461151c565b61046f565b6040516101019190611712565b60405180910390f35b34801561011657600080fd5b506100b761012536600461147b565b61048e565b34801561013657600080fd5b5061013f610619565b6040516101019190611a6d565b34801561015857600080fd5b5061016161061e565b60405161010191906117f2565b6100b761017c366004611683565b6106b4565b34801561018d57600080fd5b50610196610d30565b60405161010191906116e5565b3480156101af57600080fd5b50610196610d3f565b3480156101c457600080fd5b506100b76101d336600461147b565b610d4e565b3480156101e457600080fd5b506100b76101f3366004611538565b610ec3565b34801561020457600080fd5b50610196610ef0565b34801561021957600080fd5b506100b76102283660046114ba565b610eff565b341561027557336001600160a01b03167fd6717f327e0cb88b4a97a7f67a453e9258252c34937ccbdd86de7cb840e7def33460405161026c9190611a6d565b60405180910390a25b565b60025433906001600160a01b031681146103e857600360009054906101000a90046001600160a01b03166001600160a01b031663570ca7356040518163ffffffff1660e01b815260040160206040518083038186803b1580156102d957600080fd5b505afa1580156102ed573d6000803e3d6000fd5b505050506040513d601f19601f82011682018060405250810190610311919061149e565b6001600160a01b0316816001600160a01b0316146103e857600360009054906101000a90046001600160a01b03166001600160a01b031663ebf0c7176040518163ffffffff1660e01b815260040160206040518083038186803b15801561037757600080fd5b505afa15801561038b573d6000803e3d6000fd5b505050506040513d601f19601f820116820180604052508101906103af919061149e565b6001600160a01b0316816001600160a01b0316146103e85760405162461bcd60e51b81526004016103df90611825565b60405180910390fd5b6001600160a01b03821661040e5760405162461bcd60e51b81526004016103df90611940565b61041661022d565b6104296001600160a01b03831684610f1a565b816001600160a01b03167f884edad9ce6fa2440d8a54cc123490eb96d2768479d49ff9c7366125a9424364846040516104629190611a6d565b60405180910390a2505050565b6001600160e01b03191660009081526001602052604090205460ff1690565b60025433906001600160a01b031681146105f657600360009054906101000a90046001600160a01b03166001600160a01b031663570ca7356040518163ffffffff1660e01b815260040160206040518083038186803b1580156104f057600080fd5b505afa158015610504573d6000803e3d6000fd5b505050506040513d601f19601f82011682018060405250810190610528919061149e565b6001600160a01b0316816001600160a01b0316146105f657600360009054906101000a90046001600160a01b03166001600160a01b031663ebf0c7176040518163ffffffff1660e01b815260040160206040518083038186803b15801561058e57600080fd5b505afa1580156105a2573d6000803e3d6000fd5b505050506040513d601f19601f820116820180604052508101906105c6919061149e565b6001600160a01b0316816001600160a01b0316146105f65760405162461bcd60e51b81526004016103df90611825565b50600080546001600160a01b0319166001600160a01b0392909216919091179055565b303190565b60048054604080516020601f60026000196101006001881615020190951694909404938401819004810282018101909252828152606093909290918301828280156106aa5780601f1061067f576101008083540402835291602001916106aa565b820191906000526020600020905b81548152906001019060200180831161068d57829003601f168201915b5050505050905090565b60025433906001600160a01b0316811461081c57600360009054906101000a90046001600160a01b03166001600160a01b031663570ca7356040518163ffffffff1660e01b815260040160206040518083038186803b15801561071657600080fd5b505afa15801561072a573d6000803e3d6000fd5b505050506040513d601f19601f8201168201806040525081019061074e919061149e565b6001600160a01b0316816001600160a01b03161461081c57600360009054906101000a90046001600160a01b03166001600160a01b031663ebf0c7176040518163ffffffff1660e01b815260040160206040518083038186803b1580156107b457600080fd5b505afa1580156107c8573d6000803e3d6000fd5b505050506040513d601f19601f820116820180604052508101906107ec919061149e565b6001600160a01b0316816001600160a01b03161461081c5760405162461bcd60e51b81526004016103df90611825565b61082461022d565b3031828110156108465760405162461bcd60e51b81526004016103df9061198f565b600354604080516338fdad5160e21b815290516000926001600160a01b03169163e3f6b544916004808301926020929190829003018186803b15801561088b57600080fd5b505afa15801561089f573d6000803e3d6000fd5b505050506040513d601f19601f820116820180604052508101906108c3919061149e565b6001600160a01b031663e168c3ec6040518163ffffffff1660e01b815260040160206040518083038186803b1580156108fb57600080fd5b505afa15801561090f573d6000803e3d6000fd5b505050506040513d601f19601f82011682018060405250810190610933919061169b565b9050600081858161094057fe5b049050806109605760405162461bcd60e51b81526004016103df90611a21565b600354604080516338fdad5160e21b815290516000926001600160a01b03169163e3f6b544916004808301926020929190829003018186803b1580156109a557600080fd5b505afa1580156109b9573d6000803e3d6000fd5b505050506040513d601f19601f820116820180604052508101906109dd919061149e565b6001600160a01b0316632ddbd13a6040518163ffffffff1660e01b815260040160206040518083038186803b158015610a1557600080fd5b505afa158015610a29573d6000803e3d6000fd5b505050506040513d601f19601f82011682018060405250810190610a4d919061169b565b9050610a57611254565b60005b82811015610ce457600360009054906101000a90046001600160a01b03166001600160a01b031663e3f6b5446040518163ffffffff1660e01b815260040160206040518083038186803b158015610ab057600080fd5b505afa158015610ac4573d6000803e3d6000fd5b505050506040513d601f19601f82011682018060405250810190610ae8919061149e565b6001600160a01b031663a42bbccd826040518263ffffffff1660e01b8152600401610b139190611a6d565b60006040518083038186803b158015610b2b57600080fd5b505afa158015610b3f573d6000803e3d6000fd5b505050506040513d6000823e601f3d908101601f19168201604052610b679190810190611586565b91506000600360009054906101000a90046001600160a01b03166001600160a01b031663e3f6b5446040518163ffffffff1660e01b815260040160206040518083038186803b158015610bb957600080fd5b505afa158015610bcd573d6000803e3d6000fd5b505050506040513d601f19601f82011682018060405250810190610bf1919061149e565b83516040516331a9108f60e11b81526001600160a01b039290921691636352211e91610c1f91600401611a6d565b60206040518083038186803b158015610c3757600080fd5b505afa158015610c4b573d6000803e3d6000fd5b505050506040513d601f19601f82011682018060405250810190610c6f919061149e565b90506000858460a0015163ffffffff16029050610c9e81836001600160a01b0316610f1a90919063ffffffff16565b83516040517fe332e9963bc980fb82ccd3e7e181d76bddde349eec46b4ba393f3444529cd17f90610cd290859085906116f9565b60405180910390a25050600101610a5a565b5060006001600160a01b03167f884edad9ce6fa2440d8a54cc123490eb96d2768479d49ff9c7366125a942436488604051610d1f9190611a6d565b60405180910390a250505050505050565b6002546001600160a01b031690565b6000546001600160a01b031690565b60025433906001600160a01b03168114610eb657600360009054906101000a90046001600160a01b03166001600160a01b031663570ca7356040518163ffffffff1660e01b815260040160206040518083038186803b158015610db057600080fd5b505afa158015610dc4573d6000803e3d6000fd5b505050506040513d601f19601f82011682018060405250810190610de8919061149e565b6001600160a01b0316816001600160a01b031614610eb657600360009054906101000a90046001600160a01b03166001600160a01b031663ebf0c7176040518163ffffffff1660e01b815260040160206040518083038186803b158015610e4e57600080fd5b505afa158015610e62573d6000803e3d6000fd5b505050506040513d601f19601f82011682018060405250810190610e86919061149e565b6001600160a01b0316816001600160a01b031614610eb65760405162461bcd60e51b81526004016103df90611825565b610ebf82610fb7565b5050565b610ecc8261046f565b8190610eeb5760405162461bcd60e51b81526004016103df91906117f2565b505050565b6003546001600160a01b031690565b610f0a838383611063565b610eeb63f4c38e5160e01b611116565b3031811115610f3b5760405162461bcd60e51b81526004016103df90611909565b6000826001600160a01b031682604051610f54906116e2565b60006040518083038185875af1925050503d8060008114610f91576040519150601f19603f3d011682016040523d82523d6000602084013e610f96565b606091505b5050905080610eeb5760405162461bcd60e51b81526004016103df906118ac565b6001600160a01b0381161561104157610fd8816001600160a01b0316611168565b156110415760405163c64df69d60e01b81526001600160a01b0382169063c64df69d9061101090630ddf27bf60e01b90600401611782565b60006040518083038186803b15801561102857600080fd5b505afa15801561103c573d6000803e3d6000fd5b505050505b600280546001600160a01b0319166001600160a01b0392909216919091179055565b61106b6111a4565b61107b6336c6362d60e01b611116565b60405163c64df69d60e01b81526001600160a01b0384169063c64df69d906110ae906363daa99b60e11b9060040161171d565b60006040518083038186803b1580156110c657600080fd5b505afa1580156110da573d6000803e3d6000fd5b5050600380546001600160a01b0319166001600160a01b0387161790555050815161110c9060049060208501906112a8565b50610eeb81610fb7565b6001600160e01b031980821614156111405760405162461bcd60e51b81526004016103df90611875565b6001600160e01b0319166000908152600160208190526040909120805460ff19169091179055565b6000813f7fc5d2460186f7233c927e7db2dcc703c0e500b653ca82273b7bfad8045d85a47081811480159061119c57508115155b949350505050565b600054600160a81b900460ff16806111bf57506111bf61124e565b806111d45750600054600160a01b900460ff16155b6111f05760405162461bcd60e51b81526004016103df906119d3565b600054600160a81b900460ff16158015611227576000805460ff60a01b1960ff60a81b19909116600160a81b1716600160a01b1790555b6112376301ffc9a760e01b611116565b801561124b576000805460ff60a81b191690555b50565b303b1590565b6040518061010001604052806000815260200160608152602001606081526020016060815260200160008081111561128857fe5b815260006020820181905260408201526060016112a3611326565b905290565b828054600181600116156101000203166002900490600052602060002090601f016020900481019282601f106112e957805160ff1916838001178555611316565b82800160010185558215611316579182015b828111156113165782518255916020019190600101906112fb565b50611322929150611344565b5090565b60405180604001604052806002906020820280368337509192915050565b5b808211156113225760008155600101611345565b600082601f830112611369578081fd5b6113736040611a76565b905080828460408501111561138757600080fd5b60005b60028110156113a957815183526020928301929091019060010161138a565b50505092915050565b8051600181106113c157600080fd5b92915050565b600082601f8301126113d7578081fd5b81356113ea6113e582611a9d565b611a76565b915080825283602082850101111561140157600080fd5b8060208401602084013760009082016020015292915050565b600082601f83011261142a578081fd5b81516114386113e582611a9d565b915080825283602082850101111561144f57600080fd5b611460816020840160208601611ac1565b5092915050565b805163ffffffff811681146113c157600080fd5b60006020828403121561148c578081fd5b813561149781611af1565b9392505050565b6000602082840312156114af578081fd5b815161149781611af1565b6000806000606084860312156114ce578182fd5b83356114d981611af1565b9250602084013567ffffffffffffffff8111156114f4578283fd5b611500868287016113c7565b925050604084013561151181611af1565b809150509250925092565b60006020828403121561152d578081fd5b813561149781611b06565b6000806040838503121561154a578182fd5b823561155581611b06565b9150602083013567ffffffffffffffff811115611570578182fd5b61157c858286016113c7565b9150509250929050565b600060208284031215611597578081fd5b815167ffffffffffffffff808211156115ae578283fd5b9083019061012082860312156115c2578283fd5b6115cd610100611a76565b825181526020830151828111156115e2578485fd5b6115ee8782860161141a565b602083015250604083015182811115611605578485fd5b6116118782860161141a565b604083015250606083015182811115611628578485fd5b6116348782860161141a565b60608301525061164786608085016113b2565b60808201526116598660a08501611467565b60a082015260c083015160c08201526116758660e08501611359565b60e082015295945050505050565b600060208284031215611694578081fd5b5035919050565b6000602082840312156116ac578081fd5b5051919050565b600080604083850312156116c5578182fd5b8235915060208301356116d781611af1565b809150509250929050565b90565b6001600160a01b0391909116815260200190565b6001600160a01b03929092168252602082015260400190565b901515815260200190565b6001600160e01b03199190911681526040602082018190526032908201527f234465706172746d656e7423696e69744465706172746d656e742064616f20686060820152710dee6e840e8f2e0ca40dcdee840dac2e8c6d60731b608082015260a00190565b6001600160e01b03199190911681526040602082018190526038908201527f234465706172746d656e74237365744f70657261746f725f696e7465726e616c60608201527f206f70657261746f722074797065206e6f74206d617463680000000000000000608082015260a00190565b6000602082528251806020840152611811816040850160208701611ac1565b601f01601f19169190910160400192915050565b60208082526030908201527f2355706772616465234f6e6c7944414f2063616c6c657220646f6573206e6f7460408201526f103430bb32903832b936b4b9b9b4b7b760811b606082015260800190565b6020808252601c908201527f4552433136353a20696e76616c696420696e7465726661636520696400000000604082015260600190565b6020808252603a908201527f416464726573733a20756e61626c6520746f2073656e642076616c75652c207260408201527f6563697069656e74206d61792068617665207265766572746564000000000000606082015260800190565b6020808252601d908201527f416464726573733a20696e73756666696369656e742062616c616e6365000000604082015260600190565b6020808252602f908201527f234c65646765722377697468647261772072656365697665206173737265737360408201526e206e6f74206164647265737328302960881b606082015260800190565b60208082526024908201527f234c65646765722372656c6561736520696e73756666696369656e742062616c604082015263616e636560e01b606082015260800190565b6020808252602e908201527f436f6e747261637420696e7374616e63652068617320616c726561647920626560408201526d195b881a5b9a5d1a585b1a5e995960921b606082015260800190565b6020808252602c908201527f234c65646765722372656c6561736520696e73756666696369656e742062616c60408201526b616e63652072656c6561736560a01b606082015260800190565b90815260200190565b60405181810167ffffffffffffffff81118282101715611a9557600080fd5b604052919050565b600067ffffffffffffffff821115611ab3578081fd5b50601f01601f191660200190565b60005b83811015611adc578181015183820152602001611ac4565b83811115611aeb576000848401525b50505050565b6001600160a01b038116811461124b57600080fd5b6001600160e01b03198116811461124b57600080fdfea2646970667358221220d494ae4b0338a3264ef49d6ed4c28ba7db92714fe99bd41ae8a800ba79a9374e64736f6c634300060c0033",
  "immutableReferences": {},
  "source": "\npragma solidity >=0.6.0 <=0.8.15;\n\npragma experimental ABIEncoderV2;\n\nimport \"./Interface.sol\";\nimport \"./Department.sol\";\n\ncontract Ledger is ILedger, Department {\n\n\tfunction initLedger(address host, string memory describe, address operator) external {\n\t\tinitDepartment(host, describe, operator);\n\t\t_registerInterface(Ledger_ID);\n\t}\n\n\tfunction receiveBalance() internal {\n\t\tif (msg.value != 0) {\n\t\t\temit Receive(msg.sender, msg.value);\n\t\t}\n\t}\n\n\tfunction getBalance() view public returns (uint256) {\n\t\treturn address(this).balance;\n\t}\n\n\tfunction release(uint256 amount) external payable OnlyDAO {\n\t\treceiveBalance();\n\n\t\tuint256 curamount = address(this).balance;\n\t\trequire(curamount >= amount, \"#Ledger#release insufficient balance\");\n\n\t\tuint256 votes = _host.member().votes();\n\t\tuint256 unit = amount / votes;\n\n\t\trequire(unit != 0 , \"#Ledger#release insufficient balance release\");\n\n\t\tuint256 total = _host.member().total();\n\n\t\tIMember.Info memory info;\n\n\t\tfor (uint256 i = 0; i < total; i++) {\n\t\t\tinfo = _host.member().indexAt(i);\n\t\t\taddress owner = _host.member().ownerOf(info.id);\n\t\t\tuint256 balance = info.votes * unit;\n\t\t\towner.sendValue(balance);\n\t\t\temit Release(info.id, owner, balance);\n\t\t}\n\n\t\temit Withdraw(address(0), amount);\n\t}\n\n\tfunction withdraw(uint256 amount, address target) external payable override OnlyDAO {\n\t\trequire(target != address(0), \"#Ledger#withdraw receive assress not address(0)\");\n\t\treceiveBalance();\n\t\ttarget.sendValue(amount);\n\t\temit Withdraw(target, amount);\n\t}\n\n\treceive() external payable {\n\t\treceiveBalance();\n\t}\n\n\tfallback() external payable {\n\t\treceiveBalance();\n\t}\n\n}",
  "sourcePath": "/Users/louis/Project/hc/NFTSwap/SmartHolder/contracts/Ledger.sol",
  "compiler": {
    "name": "solc",
    "version": "0.6.12+commit.27d51765.Emscripten.clang"
  },
  "schemaVersion": "3.4.8",
  "updatedAt": "2022-07-18T02:17:43.332Z",
  "networkType": "ethereum",
  "devdoc": {
    "kind": "dev",
    "methods": {
      "supportsInterface(bytes4)": {
        "details": "See {IERC165-supportsInterface}. Time complexity O(1), guaranteed to always use less than 30 000 gas."
      }
    },
    "version": 1
  },
  "userdoc": {
    "kind": "user",
    "methods": {},
    "version": 1
  }
}