{
  "contractName": "Member",
  "abi": [
    {
      "anonymous": false,
      "inputs": [
        {
          "indexed": true,
          "internalType": "address",
          "name": "owner",
          "type": "address"
        },
        {
          "indexed": true,
          "internalType": "address",
          "name": "approved",
          "type": "address"
        },
        {
          "indexed": true,
          "internalType": "uint256",
          "name": "tokenId",
          "type": "uint256"
        }
      ],
      "name": "Approval",
      "type": "event"
    },
    {
      "anonymous": false,
      "inputs": [
        {
          "indexed": true,
          "internalType": "address",
          "name": "owner",
          "type": "address"
        },
        {
          "indexed": true,
          "internalType": "address",
          "name": "operator",
          "type": "address"
        },
        {
          "indexed": false,
          "internalType": "bool",
          "name": "approved",
          "type": "bool"
        }
      ],
      "name": "ApprovalForAll",
      "type": "event"
    },
    {
      "anonymous": false,
      "inputs": [
        {
          "indexed": true,
          "internalType": "address",
          "name": "from",
          "type": "address"
        },
        {
          "indexed": true,
          "internalType": "address",
          "name": "to",
          "type": "address"
        },
        {
          "indexed": true,
          "internalType": "uint256",
          "name": "tokenId",
          "type": "uint256"
        }
      ],
      "name": "Transfer",
      "type": "event"
    },
    {
      "anonymous": false,
      "inputs": [
        {
          "indexed": false,
          "internalType": "uint256",
          "name": "id",
          "type": "uint256"
        }
      ],
      "name": "UpdateInfo",
      "type": "event"
    },
    {
      "inputs": [
        {
          "internalType": "address",
          "name": "to",
          "type": "address"
        },
        {
          "internalType": "uint256",
          "name": "tokenId",
          "type": "uint256"
        }
      ],
      "name": "approve",
      "outputs": [],
      "stateMutability": "nonpayable",
      "type": "function"
    },
    {
      "inputs": [
        {
          "internalType": "address",
          "name": "owner",
          "type": "address"
        }
      ],
      "name": "balanceOf",
      "outputs": [
        {
          "internalType": "uint256",
          "name": "",
          "type": "uint256"
        }
      ],
      "stateMutability": "view",
      "type": "function",
      "constant": true
    },
    {
      "inputs": [],
      "name": "baseURI",
      "outputs": [
        {
          "internalType": "string",
          "name": "",
          "type": "string"
        }
      ],
      "stateMutability": "view",
      "type": "function",
      "constant": true
    },
    {
      "inputs": [
        {
          "internalType": "bytes4",
          "name": "interfaceId",
          "type": "bytes4"
        },
        {
          "internalType": "string",
          "name": "message",
          "type": "string"
        }
      ],
      "name": "checkInterface",
      "outputs": [],
      "stateMutability": "view",
      "type": "function",
      "constant": true
    },
    {
      "inputs": [],
      "name": "description",
      "outputs": [
        {
          "internalType": "string",
          "name": "",
          "type": "string"
        }
      ],
      "stateMutability": "view",
      "type": "function",
      "constant": true
    },
    {
      "inputs": [
        {
          "internalType": "uint256",
          "name": "tokenId",
          "type": "uint256"
        }
      ],
      "name": "getApproved",
      "outputs": [
        {
          "internalType": "address",
          "name": "",
          "type": "address"
        }
      ],
      "stateMutability": "view",
      "type": "function",
      "constant": true
    },
    {
      "inputs": [],
      "name": "host",
      "outputs": [
        {
          "internalType": "contract IDAO",
          "name": "",
          "type": "address"
        }
      ],
      "stateMutability": "view",
      "type": "function",
      "constant": true
    },
    {
      "inputs": [],
      "name": "impl",
      "outputs": [
        {
          "internalType": "address",
          "name": "",
          "type": "address"
        }
      ],
      "stateMutability": "view",
      "type": "function",
      "constant": true
    },
    {
      "inputs": [
        {
          "internalType": "address",
          "name": "owner",
          "type": "address"
        },
        {
          "internalType": "address",
          "name": "operator",
          "type": "address"
        }
      ],
      "name": "isApprovedForAll",
      "outputs": [
        {
          "internalType": "bool",
          "name": "",
          "type": "bool"
        }
      ],
      "stateMutability": "view",
      "type": "function",
      "constant": true
    },
    {
      "inputs": [],
      "name": "name",
      "outputs": [
        {
          "internalType": "string",
          "name": "",
          "type": "string"
        }
      ],
      "stateMutability": "view",
      "type": "function",
      "constant": true
    },
    {
      "inputs": [],
      "name": "operator",
      "outputs": [
        {
          "internalType": "contract IVotePool",
          "name": "",
          "type": "address"
        }
      ],
      "stateMutability": "view",
      "type": "function",
      "constant": true
    },
    {
      "inputs": [
        {
          "internalType": "uint256",
          "name": "tokenId",
          "type": "uint256"
        }
      ],
      "name": "ownerOf",
      "outputs": [
        {
          "internalType": "address",
          "name": "",
          "type": "address"
        }
      ],
      "stateMutability": "view",
      "type": "function",
      "constant": true
    },
    {
      "inputs": [
        {
          "internalType": "address",
          "name": "from",
          "type": "address"
        },
        {
          "internalType": "address",
          "name": "to",
          "type": "address"
        },
        {
          "internalType": "uint256",
          "name": "tokenId",
          "type": "uint256"
        }
      ],
      "name": "safeTransferFrom",
      "outputs": [],
      "stateMutability": "nonpayable",
      "type": "function"
    },
    {
      "inputs": [
        {
          "internalType": "address",
          "name": "from",
          "type": "address"
        },
        {
          "internalType": "address",
          "name": "to",
          "type": "address"
        },
        {
          "internalType": "uint256",
          "name": "tokenId",
          "type": "uint256"
        },
        {
          "internalType": "bytes",
          "name": "_data",
          "type": "bytes"
        }
      ],
      "name": "safeTransferFrom",
      "outputs": [],
      "stateMutability": "nonpayable",
      "type": "function"
    },
    {
      "inputs": [
        {
          "internalType": "address",
          "name": "operator",
          "type": "address"
        },
        {
          "internalType": "bool",
          "name": "approved",
          "type": "bool"
        }
      ],
      "name": "setApprovalForAll",
      "outputs": [],
      "stateMutability": "nonpayable",
      "type": "function"
    },
    {
      "inputs": [
        {
          "internalType": "address",
          "name": "vote",
          "type": "address"
        }
      ],
      "name": "setOperator",
      "outputs": [],
      "stateMutability": "nonpayable",
      "type": "function"
    },
    {
      "inputs": [
        {
          "internalType": "bytes4",
          "name": "interfaceId",
          "type": "bytes4"
        }
      ],
      "name": "supportsInterface",
      "outputs": [
        {
          "internalType": "bool",
          "name": "",
          "type": "bool"
        }
      ],
      "stateMutability": "view",
      "type": "function",
      "constant": true
    },
    {
      "inputs": [],
      "name": "symbol",
      "outputs": [
        {
          "internalType": "string",
          "name": "",
          "type": "string"
        }
      ],
      "stateMutability": "view",
      "type": "function",
      "constant": true
    },
    {
      "inputs": [
        {
          "internalType": "uint256",
          "name": "index",
          "type": "uint256"
        }
      ],
      "name": "tokenByIndex",
      "outputs": [
        {
          "internalType": "uint256",
          "name": "",
          "type": "uint256"
        }
      ],
      "stateMutability": "view",
      "type": "function",
      "constant": true
    },
    {
      "inputs": [
        {
          "internalType": "address",
          "name": "owner",
          "type": "address"
        },
        {
          "internalType": "uint256",
          "name": "index",
          "type": "uint256"
        }
      ],
      "name": "tokenOfOwnerByIndex",
      "outputs": [
        {
          "internalType": "uint256",
          "name": "",
          "type": "uint256"
        }
      ],
      "stateMutability": "view",
      "type": "function",
      "constant": true
    },
    {
      "inputs": [
        {
          "internalType": "uint256",
          "name": "tokenId",
          "type": "uint256"
        }
      ],
      "name": "tokenURI",
      "outputs": [
        {
          "internalType": "string",
          "name": "",
          "type": "string"
        }
      ],
      "stateMutability": "view",
      "type": "function",
      "constant": true
    },
    {
      "inputs": [],
      "name": "totalSupply",
      "outputs": [
        {
          "internalType": "uint256",
          "name": "",
          "type": "uint256"
        }
      ],
      "stateMutability": "view",
      "type": "function",
      "constant": true
    },
    {
      "inputs": [
        {
          "internalType": "address",
          "name": "from",
          "type": "address"
        },
        {
          "internalType": "address",
          "name": "to",
          "type": "address"
        },
        {
          "internalType": "uint256",
          "name": "tokenId",
          "type": "uint256"
        }
      ],
      "name": "transferFrom",
      "outputs": [],
      "stateMutability": "nonpayable",
      "type": "function"
    },
    {
      "inputs": [
        {
          "internalType": "address",
          "name": "impl",
          "type": "address"
        }
      ],
      "name": "upgrade",
      "outputs": [],
      "stateMutability": "nonpayable",
      "type": "function"
    },
    {
      "inputs": [
        {
          "internalType": "address",
          "name": "host",
          "type": "address"
        },
        {
          "internalType": "string",
          "name": "description",
          "type": "string"
        },
        {
          "internalType": "address",
          "name": "operator",
          "type": "address"
        }
      ],
      "name": "initMember",
      "outputs": [],
      "stateMutability": "nonpayable",
      "type": "function"
    },
    {
      "inputs": [
        {
          "internalType": "address",
          "name": "owner",
          "type": "address"
        },
        {
          "components": [
            {
              "internalType": "uint256",
              "name": "id",
              "type": "uint256"
            },
            {
              "internalType": "string",
              "name": "name",
              "type": "string"
            },
            {
              "internalType": "string",
              "name": "description",
              "type": "string"
            },
            {
              "internalType": "string",
              "name": "avatar",
              "type": "string"
            },
            {
              "internalType": "enum IMember.Role",
              "name": "role",
              "type": "uint8"
            },
            {
              "internalType": "uint32",
              "name": "votes",
              "type": "uint32"
            },
            {
              "internalType": "uint256",
              "name": "idx",
              "type": "uint256"
            },
            {
              "internalType": "uint256[2]",
              "name": "__ext",
              "type": "uint256[2]"
            }
          ],
          "internalType": "struct IMember.Info",
          "name": "info",
          "type": "tuple"
        }
      ],
      "name": "create",
      "outputs": [],
      "stateMutability": "nonpayable",
      "type": "function"
    },
    {
      "inputs": [
        {
          "internalType": "address",
          "name": "owner",
          "type": "address"
        },
        {
          "internalType": "uint256",
          "name": "id",
          "type": "uint256"
        },
        {
          "internalType": "uint32",
          "name": "votes",
          "type": "uint32"
        },
        {
          "internalType": "string",
          "name": "name",
          "type": "string"
        },
        {
          "internalType": "string",
          "name": "description",
          "type": "string"
        },
        {
          "internalType": "string",
          "name": "avatar",
          "type": "string"
        }
      ],
      "name": "create2",
      "outputs": [],
      "stateMutability": "nonpayable",
      "type": "function"
    },
    {
      "inputs": [],
      "name": "votes",
      "outputs": [
        {
          "internalType": "uint256",
          "name": "",
          "type": "uint256"
        }
      ],
      "stateMutability": "view",
      "type": "function",
      "constant": true
    },
    {
      "inputs": [
        {
          "internalType": "string",
          "name": "baseURI",
          "type": "string"
        }
      ],
      "name": "setBaseURI",
      "outputs": [],
      "stateMutability": "nonpayable",
      "type": "function"
    },
    {
      "inputs": [
        {
          "internalType": "uint256",
          "name": "id",
          "type": "uint256"
        },
        {
          "internalType": "string",
          "name": "uri",
          "type": "string"
        }
      ],
      "name": "setTokenURI",
      "outputs": [],
      "stateMutability": "nonpayable",
      "type": "function"
    },
    {
      "inputs": [
        {
          "internalType": "uint256",
          "name": "id",
          "type": "uint256"
        },
        {
          "components": [
            {
              "internalType": "uint256",
              "name": "id",
              "type": "uint256"
            },
            {
              "internalType": "string",
              "name": "name",
              "type": "string"
            },
            {
              "internalType": "string",
              "name": "description",
              "type": "string"
            },
            {
              "internalType": "string",
              "name": "avatar",
              "type": "string"
            },
            {
              "internalType": "enum IMember.Role",
              "name": "role",
              "type": "uint8"
            },
            {
              "internalType": "uint32",
              "name": "votes",
              "type": "uint32"
            },
            {
              "internalType": "uint256",
              "name": "idx",
              "type": "uint256"
            },
            {
              "internalType": "uint256[2]",
              "name": "__ext",
              "type": "uint256[2]"
            }
          ],
          "internalType": "struct IMember.Info",
          "name": "info",
          "type": "tuple"
        }
      ],
      "name": "setInfo",
      "outputs": [],
      "stateMutability": "nonpayable",
      "type": "function"
    },
    {
      "inputs": [
        {
          "internalType": "uint256",
          "name": "id",
          "type": "uint256"
        }
      ],
      "name": "getInfo",
      "outputs": [
        {
          "components": [
            {
              "internalType": "uint256",
              "name": "id",
              "type": "uint256"
            },
            {
              "internalType": "string",
              "name": "name",
              "type": "string"
            },
            {
              "internalType": "string",
              "name": "description",
              "type": "string"
            },
            {
              "internalType": "string",
              "name": "avatar",
              "type": "string"
            },
            {
              "internalType": "enum IMember.Role",
              "name": "role",
              "type": "uint8"
            },
            {
              "internalType": "uint32",
              "name": "votes",
              "type": "uint32"
            },
            {
              "internalType": "uint256",
              "name": "idx",
              "type": "uint256"
            },
            {
              "internalType": "uint256[2]",
              "name": "__ext",
              "type": "uint256[2]"
            }
          ],
          "internalType": "struct IMember.Info",
          "name": "",
          "type": "tuple"
        }
      ],
      "stateMutability": "view",
      "type": "function",
      "constant": true
    },
    {
      "inputs": [
        {
          "internalType": "uint256",
          "name": "index",
          "type": "uint256"
        }
      ],
      "name": "indexAt",
      "outputs": [
        {
          "components": [
            {
              "internalType": "uint256",
              "name": "id",
              "type": "uint256"
            },
            {
              "internalType": "string",
              "name": "name",
              "type": "string"
            },
            {
              "internalType": "string",
              "name": "description",
              "type": "string"
            },
            {
              "internalType": "string",
              "name": "avatar",
              "type": "string"
            },
            {
              "internalType": "enum IMember.Role",
              "name": "role",
              "type": "uint8"
            },
            {
              "internalType": "uint32",
              "name": "votes",
              "type": "uint32"
            },
            {
              "internalType": "uint256",
              "name": "idx",
              "type": "uint256"
            },
            {
              "internalType": "uint256[2]",
              "name": "__ext",
              "type": "uint256[2]"
            }
          ],
          "internalType": "struct IMember.Info",
          "name": "",
          "type": "tuple"
        }
      ],
      "stateMutability": "view",
      "type": "function",
      "constant": true
    },
    {
      "inputs": [
        {
          "internalType": "uint256",
          "name": "id",
          "type": "uint256"
        }
      ],
      "name": "exists",
      "outputs": [
        {
          "internalType": "bool",
          "name": "",
          "type": "bool"
        }
      ],
      "stateMutability": "view",
      "type": "function",
      "constant": true
    },
    {
      "inputs": [
        {
          "internalType": "address",
          "name": "spender",
          "type": "address"
        },
        {
          "internalType": "uint256",
          "name": "id",
          "type": "uint256"
        }
      ],
      "name": "isApprovedOrOwner",
      "outputs": [
        {
          "internalType": "bool",
          "name": "",
          "type": "bool"
        }
      ],
      "stateMutability": "view",
      "type": "function",
      "constant": true
    },
    {
      "inputs": [],
      "name": "total",
      "outputs": [
        {
          "internalType": "uint256",
          "name": "",
          "type": "uint256"
        }
      ],
      "stateMutability": "view",
      "type": "function",
      "constant": true
    }
  ],
  "bytecode": "0x608060405234801561001057600080fd5b50613745806100206000396000f3fe608060405234801561001057600080fd5b506004361061021c5760003560e01c8063570ca73511610125578063a8fbb403116100ad578063c87b56dd1161007c578063c87b56dd14610462578063d02c9fa814610475578063e168c3ec14610488578063e985e9c514610490578063f437bc59146104a35761021c565b8063a8fbb40314610416578063b3ab15fb14610429578063b88d4fde1461043c578063c64df69d1461044f5761021c565b80637284e416116100f45780637284e416146103d85780638abf6077146103e057806395d89b41146103e8578063a22cb465146103f0578063a42bbccd146104035761021c565b8063570ca735146103a25780636352211e146103aa5780636c0360eb146103bd57806370a08231146103c55761021c565b806323fc76b9116101a857806342842e0e1161017757806342842e0e14610343578063430c2081146103565780634f558e79146103695780634f6ccce71461037c57806355f804b31461038f5761021c565b806323fc76b9146103025780632ddbd13a146103155780632f745c591461031d5780633fd7a0f0146103305761021c565b8063095ea7b3116101ef578063095ea7b314610294578063162094c4146102a757806318160ddd146102ba5780631a3cd59a146102cf57806323b872dd146102ef5761021c565b806301ffc9a71461022157806306fdde031461024a578063081812fc1461025f5780630900f0101461027f575b600080fd5b61023461022f366004612ba4565b6104ab565b6040516102419190612e3a565b60405180910390f35b6102526104ce565b6040516102419190612f1a565b61027261026d366004612c6f565b610564565b6040516102419190612de9565b61029261028d3660046128e0565b6105b0565b005b6102926102a2366004612abf565b61073b565b6102926102b5366004612c87565b6107d3565b6102c2610821565b604051610241919061362d565b6102e26102dd366004612c6f565b610832565b6040516102419190613583565b6102926102fd366004612934565b610ab9565b610292610310366004612a0f565b610b01565b6102c2610bb9565b6102c261032b366004612abf565b610bbf565b61029261033e366004612a71565b610bea565b610292610351366004612934565b610e7b565b610234610364366004612abf565b610e96565b610234610377366004612c6f565b610ea2565b6102c261038a366004612c6f565b610ead565b61029261039d366004612c3c565b610ec3565b610272611034565b6102726103b8366004612c6f565b611043565b61025261106b565b6102c26103d33660046128e0565b6110cc565b610252611115565b610272611176565b610252611185565b6102926103fe3660046129de565b6111e6565b6102e2610411366004612c6f565b6112b4565b610292610424366004612cb6565b61138b565b6102926104373660046128e0565b61146b565b61029261044a366004612974565b6115dc565b61029261045d366004612bdc565b611615565b610252610470366004612c6f565b61163d565b610292610483366004612aea565b611648565b6102c26117df565b61023461049e3660046128fc565b6117e5565b610272611813565b6001600160e01b0319811660009081526001602052604090205460ff165b919050565b600a8054604080516020601f600260001961010060018816150201909516949094049384018190048102820181019092528281526060939092909183018282801561055a5780601f1061052f5761010080835404028352916020019161055a565b820191906000526020600020905b81548152906001019060200180831161053d57829003601f168201915b5050505050905090565b600061056f82611822565b6105945760405162461bcd60e51b815260040161058b90613330565b60405180910390fd5b506000908152600860205260409020546001600160a01b031690565b60025433906001600160a01b0316811461071857600360009054906101000a90046001600160a01b03166001600160a01b031663570ca7356040518163ffffffff1660e01b815260040160206040518083038186803b15801561061257600080fd5b505afa158015610626573d6000803e3d6000fd5b505050506040513d601f19601f8201168201806040525081019061064a9190612c20565b6001600160a01b0316816001600160a01b03161461071857600360009054906101000a90046001600160a01b03166001600160a01b031663ebf0c7176040518163ffffffff1660e01b815260040160206040518083038186803b1580156106b057600080fd5b505afa1580156106c4573d6000803e3d6000fd5b505050506040513d601f19601f820116820180604052508101906106e89190612c20565b6001600160a01b0316816001600160a01b0316146107185760405162461bcd60e51b815260040161058b90612f6f565b50600080546001600160a01b0319166001600160a01b0392909216919091179055565b600061074682611043565b9050806001600160a01b0316836001600160a01b0316141561077a5760405162461bcd60e51b815260040161058b906134f1565b806001600160a01b031661078c61182f565b6001600160a01b031614806107a857506107a88161049e61182f565b6107c45760405162461bcd60e51b815260040161058b906131db565b6107ce8383611839565b505050565b6107db6118a7565b6001600160a01b03166107ed83611043565b6001600160a01b0316146108135760405162461bcd60e51b815260040161058b906134ae565b61081d82826118ab565b5050565b600061082d60066118ef565b905090565b61083a612615565b61084382611822565b61085f5760405162461bcd60e51b815260040161058b90613140565b6000828152600e60209081526040918290208251610100808201855282548252600180840180548751600293821615909402600019011691909104601f810186900486028301860190965285825291949293858101939192919083018282801561090a5780601f106108df5761010080835404028352916020019161090a565b820191906000526020600020905b8154815290600101906020018083116108ed57829003601f168201915b5050509183525050600282810180546040805160206001841615610100026000190190931694909404601f8101839004830285018301909152808452938101939083018282801561099c5780601f106109715761010080835404028352916020019161099c565b820191906000526020600020905b81548152906001019060200180831161097f57829003601f168201915b505050918352505060038201805460408051602060026001851615610100026000190190941693909304601f8101849004840282018401909252818152938201939291830182828015610a305780601f10610a0557610100808354040283529160200191610a30565b820191906000526020600020905b815481529060010190602001808311610a1357829003601f168201915b5050509183525050600482015460209091019060ff168015610a4e57fe5b8015610a5657fe5b81526004820154610100900463ffffffff166020820152600582015460408083019190915280518082019182905260609092019190600684019060029082845b815481526020019060010190808311610a96575050505050815250509050919050565b610aca610ac461182f565b826118fa565b610ae65760405162461bcd60e51b815260040161058b90613532565b6107ce8383836040518060200160405280600081525061197f565b600054600160a81b900460ff1680610b1c5750610b1c611a8f565b80610b315750600054600160a01b900460ff16155b610b4d5760405162461bcd60e51b815260040161058b906133c8565b600054600160a81b900460ff16158015610b84576000805460ff60a01b1960ff60a81b19909116600160a81b1716600160a01b1790555b610b8f848484611a95565b610b9f6323fc76b960e01b611b2d565b8015610bb3576000805460ff60a81b191690555b50505050565b600f5490565b6001600160a01b0382166000908152600560205260408120610be19083611b7f565b90505b92915050565b60025433906001600160a01b03168114610d5257600360009054906101000a90046001600160a01b03166001600160a01b031663570ca7356040518163ffffffff1660e01b815260040160206040518083038186803b158015610c4c57600080fd5b505afa158015610c60573d6000803e3d6000fd5b505050506040513d601f19601f82011682018060405250810190610c849190612c20565b6001600160a01b0316816001600160a01b031614610d5257600360009054906101000a90046001600160a01b03166001600160a01b031663ebf0c7176040518163ffffffff1660e01b815260040160206040518083038186803b158015610cea57600080fd5b505afa158015610cfe573d6000803e3d6000fd5b505050506040513d601f19601f82011682018060405250810190610d229190612c20565b6001600160a01b0316816001600160a01b031614610d525760405162461bcd60e51b815260040161058b90612f6f565b610d60838360000151611b8b565b81516000908152600e60209081526040909120835181558184015180519192610d9192600185019290910190612669565b5060408301518051610dad916002840191602090910190612669565b5060608301518051610dc9916003840191602090910190612669565b50608083015160048201805460ff19166001838015610de457fe5b021790555060a083015163ffffffff1615610e03578260a00151610e06565b60015b60048201805464ffffffff00191661010063ffffffff93841681029190911791829055600f80546005909501859055601080549290930490931601905592516001820184556000939093527f8d1108e10bcb7c27dddfc02ed9d693a074039d026cf4ea4240b40f7d581ac80201919091555050565b6107ce838383604051806020016040528060008152506115dc565b6000610be183836118fa565b6000610be482611822565b600080610ebb600684611c5f565b509392505050565b60025433906001600160a01b0316811461102b57600360009054906101000a90046001600160a01b03166001600160a01b031663570ca7356040518163ffffffff1660e01b815260040160206040518083038186803b158015610f2557600080fd5b505afa158015610f39573d6000803e3d6000fd5b505050506040513d601f19601f82011682018060405250810190610f5d9190612c20565b6001600160a01b0316816001600160a01b03161461102b57600360009054906101000a90046001600160a01b03166001600160a01b031663ebf0c7176040518163ffffffff1660e01b815260040160206040518083038186803b158015610fc357600080fd5b505afa158015610fd7573d6000803e3d6000fd5b505050506040513d601f19601f82011682018060405250810190610ffb9190612c20565b6001600160a01b0316816001600160a01b03161461102b5760405162461bcd60e51b815260040161058b90612f6f565b61081d82611c7b565b6002546001600160a01b031690565b6000610be4826040518060600160405280602981526020016136e76029913960069190611c8e565b600d8054604080516020601f600260001961010060018816150201909516949094049384018190048102820181019092528281526060939092909183018282801561055a5780601f1061052f5761010080835404028352916020019161055a565b60006001600160a01b0382166110f45760405162461bcd60e51b815260040161058b90613238565b6001600160a01b0382166000908152600560205260409020610be4906118ef565b60048054604080516020601f600260001961010060018816150201909516949094049384018190048102820181019092528281526060939092909183018282801561055a5780601f1061052f5761010080835404028352916020019161055a565b6000546001600160a01b031690565b600b8054604080516020601f600260001961010060018816150201909516949094049384018190048102820181019092528281526060939092909183018282801561055a5780601f1061052f5761010080835404028352916020019161055a565b6111ee61182f565b6001600160a01b0316826001600160a01b0316141561121f5760405162461bcd60e51b815260040161058b90613109565b806009600061122c61182f565b6001600160a01b03908116825260208083019390935260409182016000908120918716808252919093529120805460ff19169215159290921790915561127061182f565b6001600160a01b03167f17307eab39ab6107e8899845ad3d59bd9653f200f220920489ca2b5937696c31836040516112a89190612e3a565b60405180910390a35050565b6112bc612615565b600f5482106112dd5760405162461bcd60e51b815260040161058b9061304b565b600e6000600f84815481106112ee57fe5b906000526020600020015481526020019081526020016000206040518061010001604052908160008201548152602001600182018054600181600116156101000203166002900480601f01602080910402602001604051908101604052809291908181526020018280546001816001161561010002031660029004801561090a5780601f106108df5761010080835404028352916020019161090a565b6113936118a7565b6001600160a01b03166113a583611043565b6001600160a01b0316146113cb5760405162461bcd60e51b815260040161058b906132c4565b6000828152600e6020908152604090912082820151805191926113f692600185019290910190612669565b5060408201518051611412916002840191602090910190612669565b506060820151805161142e916003840191602090910190612669565b507f85efaa4a50aadbc9da043a8d0f46b0871e450af310339a43b862dd81b70272818360405161145e919061362d565b60405180910390a1505050565b60025433906001600160a01b031681146115d357600360009054906101000a90046001600160a01b03166001600160a01b031663570ca7356040518163ffffffff1660e01b815260040160206040518083038186803b1580156114cd57600080fd5b505afa1580156114e1573d6000803e3d6000fd5b505050506040513d601f19601f820116820180604052508101906115059190612c20565b6001600160a01b0316816001600160a01b0316146115d357600360009054906101000a90046001600160a01b03166001600160a01b031663ebf0c7176040518163ffffffff1660e01b815260040160206040518083038186803b15801561156b57600080fd5b505afa15801561157f573d6000803e3d6000fd5b505050506040513d601f19601f820116820180604052508101906115a39190612c20565b6001600160a01b0316816001600160a01b0316146115d35760405162461bcd60e51b815260040161058b90612f6f565b61081d82611ca5565b6115ed6115e761182f565b836118fa565b6116095760405162461bcd60e51b815260040161058b90613532565b610bb384848484611d51565b61161e826104ab565b81906107ce5760405162461bcd60e51b815260040161058b9190612f1a565b6060610be482611d85565b60025433906001600160a01b031681146117b057600360009054906101000a90046001600160a01b03166001600160a01b031663570ca7356040518163ffffffff1660e01b815260040160206040518083038186803b1580156116aa57600080fd5b505afa1580156116be573d6000803e3d6000fd5b505050506040513d601f19601f820116820180604052508101906116e29190612c20565b6001600160a01b0316816001600160a01b0316146117b057600360009054906101000a90046001600160a01b03166001600160a01b031663ebf0c7176040518163ffffffff1660e01b815260040160206040518083038186803b15801561174857600080fd5b505afa15801561175c573d6000803e3d6000fd5b505050506040513d601f19601f820116820180604052508101906117809190612c20565b6001600160a01b0316816001600160a01b0316146117b05760405162461bcd60e51b815260040161058b90612f6f565b6117b8612615565b95865250602085019290925263ffffffff90921660a0840152606083015260409091015250565b60105490565b6001600160a01b03918216600090815260096020908152604080832093909416825291909152205460ff1690565b6003546001600160a01b031690565b6000610be4600683611ecf565b600061082d6118a7565b600081815260086020526040902080546001600160a01b0319166001600160a01b038416908117909155819061186e82611043565b6001600160a01b03167f8c5be1e5ebec7d5bd14f71427d1e84f3dd0314c0f7b2291e5b200ac8c7c3b92560405160405180910390a45050565b3390565b6118b482611822565b6118d05760405162461bcd60e51b815260040161058b9061337c565b6000828152600c6020908152604090912082516107ce92840190612669565b6000610be482611edb565b600061190582611822565b6119215760405162461bcd60e51b815260040161058b9061318f565b600061192c83611043565b9050806001600160a01b0316846001600160a01b031614806119675750836001600160a01b031661195c84610564565b6001600160a01b0316145b80611977575061197781856117e5565b949350505050565b836001600160a01b031661199283611043565b6001600160a01b0316146119b85760405162461bcd60e51b815260040161058b90613416565b6001600160a01b0383166119de5760405162461bcd60e51b815260040161058b906130c5565b6119ea84848484610bb3565b6119f5600083611839565b6001600160a01b0384166000908152600560205260409020611a179083611edf565b506001600160a01b0383166000908152600560205260409020611a3a9083611eeb565b50611a4760068385611ef7565b5081836001600160a01b0316856001600160a01b03167fddf252ad1be2c89b69c2b068fc378daa952ba7f163c4a11628f55a4df523b3ef60405160405180910390a450505050565b303b1590565b600054600160a81b900460ff1680611ab05750611ab0611a8f565b80611ac55750600054600160a01b900460ff16155b611ae15760405162461bcd60e51b815260040161058b906133c8565b600054600160a81b900460ff16158015611b18576000805460ff60a01b1960ff60a81b19909116600160a81b1716600160a01b1790555b611b23848484611f0d565b610b9f8384611fc0565b6001600160e01b03198082161415611b575760405162461bcd60e51b815260040161058b90613014565b6001600160e01b0319166000908152600160208190526040909120805460ff19169091179055565b6000610be18383612018565b6001600160a01b038216611bb15760405162461bcd60e51b815260040161058b906132fb565b611bba81611822565b15611bd75760405162461bcd60e51b815260040161058b9061308e565b611bf36000838360405180602001604052806000815250610bb3565b6001600160a01b0382166000908152600560205260409020611c159082611eeb565b50611c2260068284611ef7565b5060405181906001600160a01b038416906000907fddf252ad1be2c89b69c2b068fc378daa952ba7f163c4a11628f55a4df523b3ef908290a45050565b6000808080611c6e868661205d565b9097909650945050505050565b805161081d90600d906020840190612669565b6000611c9b8484846120b9565b90505b9392505050565b6001600160a01b03811615611d2f57611cc6816001600160a01b0316612118565b15611d2f5760405163c64df69d60e01b81526001600160a01b0382169063c64df69d90611cfe90630ddf27bf60e01b90600401612eaa565b60006040518083038186803b158015611d1657600080fd5b505afa158015611d2a573d6000803e3d6000fd5b505050505b600280546001600160a01b0319166001600160a01b0392909216919091179055565b611d5d8484848461197f565b611d6984848484612151565b610bb35760405162461bcd60e51b815260040161058b90612fc2565b6060611d9082611822565b611dac5760405162461bcd60e51b815260040161058b9061345f565b6000828152600c602090815260409182902080548351601f6002600019610100600186161502019093169290920491820184900484028101840190945280845260609392830182828015611e415780601f10611e1657610100808354040283529160200191611e41565b820191906000526020600020905b815481529060010190602001808311611e2457829003601f168201915b5050600d5493945050505060026000196101006001841615020190911604611e6a5790506104c9565b805115611e9c57600d81604051602001611e85929190612d68565b6040516020818303038152906040529150506104c9565b600d611ea784612218565b604051602001611eb8929190612d68565b604051602081830303815290604052915050919050565b6000610be183836122f3565b5490565b6000610be1838361230b565b6000610be183836123d1565b6000611c9b84846001600160a01b03851661241b565b611f156124b2565b611f256336c6362d60e01b611b2d565b60405163c64df69d60e01b81526001600160a01b0384169063c64df69d90611f58906363daa99b60e11b90600401612e45565b60006040518083038186803b158015611f7057600080fd5b505afa158015611f84573d6000803e3d6000fd5b5050600380546001600160a01b0319166001600160a01b03871617905550508151611fb6906004906020850190612669565b506107ce81611ca5565b8151611fd390600a906020850190612669565b508051611fe790600b906020840190612669565b50611ff86380ac58cd60e01b61255c565b612008635b5e139f60e01b61255c565b61081d63780e9d6360e01b61255c565b8154600090821061203b5760405162461bcd60e51b815260040161058b90612f2d565b82600001828154811061204a57fe5b9060005260206000200154905092915050565b8154600090819083106120825760405162461bcd60e51b815260040161058b90613282565b600084600001848154811061209357fe5b906000526020600020906002020190508060000154816001015492509250509250929050565b600082815260018401602052604081205482816120e95760405162461bcd60e51b815260040161058b9190612f1a565b508460000160018203815481106120fc57fe5b9060005260206000209060020201600101549150509392505050565b6000813f7fc5d2460186f7233c927e7db2dcc703c0e500b653ca82273b7bfad8045d85a470818114801590611977575050151592915050565b6000612165846001600160a01b0316612118565b61217157506001611977565b6060630a85bd0160e11b61218361182f565b8786866040516024016121999493929190612dfd565b604051602081830303815290604052906001600160e01b0319166020820180516001600160e01b038381831617835250505050905063150b7a0260e01b6001600160e01b03191661220386836040518060600160405280603281526020016136b560329139612565565b6001600160e01b031916149695505050505050565b60608161223d57506040805180820190915260018152600360fc1b60208201526104c9565b8160005b811561225557600101600a82049150612241565b60608167ffffffffffffffff8111801561226e57600080fd5b506040519080825280601f01601f191660200182016040528015612299576020820181803683370190505b50859350905060001982015b83156122ea57600a840660300160f81b828280600190039350815181106122c857fe5b60200101906001600160f81b031916908160001a905350600a840493506122a5565b50949350505050565b60009081526001919091016020526040902054151590565b600081815260018301602052604081205480156123c7578354600019808301919081019060009087908390811061233e57fe5b906000526020600020015490508087600001848154811061235b57fe5b60009182526020808320909101929092558281526001898101909252604090209084019055865487908061238b57fe5b60019003818190600052602060002001600090559055866001016000878152602001908152602001600020600090556001945050505050610be4565b6000915050610be4565b60006123dd83836122f3565b61241357508154600181810184556000848152602080822090930184905584548482528286019093526040902091909155610be4565b506000610be4565b600082815260018401602052604081205480612480575050604080518082018252838152602080820184815286546001818101895560008981528481209551600290930290950191825591519082015586548684528188019092529290912055611c9e565b8285600001600183038154811061249357fe5b9060005260206000209060020201600101819055506000915050611c9e565b600054600160a81b900460ff16806124cd57506124cd611a8f565b806124e25750600054600160a01b900460ff16155b6124fe5760405162461bcd60e51b815260040161058b906133c8565b600054600160a81b900460ff16158015612535576000805460ff60a01b1960ff60a81b19909116600160a81b1716600160a01b1790555b6125456301ffc9a760e01b611b2d565b8015612559576000805460ff60a81b191690555b50565b61255981611b2d565b6000806060856001600160a01b0316856040516125829190612d4c565b6000604051808303816000865af19150503d80600081146125bf576040519150601f19603f3d011682016040523d82523d6000602084013e6125c4565b606091505b5091509150816125f8578051156125de5780518082602001fd5b8360405162461bcd60e51b815260040161058b9190612f1a565b8080602001905181019061260c9190612bc0565b92505050611c9e565b6040518061010001604052806000815260200160608152602001606081526020016060815260200160008081111561264957fe5b815260006020820181905260408201526060016126646126e7565b905290565b828054600181600116156101000203166002900490600052602060002090601f016020900481019282601f106126aa57805160ff19168380011785556126d7565b828001600101855582156126d7579182015b828111156126d75782518255916020019190600101906126bc565b506126e3929150612705565b5090565b60405180604001604052806002906020820280368337509192915050565b5b808211156126e35760008155600101612706565b600082601f83011261272a578081fd5b6127346040613636565b905080828460408501111561274857600080fd5b60005b600281101561276a57813583526020928301929091019060010161274b565b50505092915050565b600082601f830112612783578081fd5b813567ffffffffffffffff811115612799578182fd5b6127ac601f8201601f1916602001613636565b91508082528360208285010111156127c357600080fd5b8060208401602084013760009082016020015292915050565b803560018110610be457600080fd5b600061012082840312156127fd578081fd5b612808610100613636565b905081358152602082013567ffffffffffffffff8082111561282957600080fd5b61283585838601612773565b6020840152604084013591508082111561284e57600080fd5b61285a85838601612773565b6040840152606084013591508082111561287357600080fd5b5061288084828501612773565b60608301525061289383608084016127dc565b60808201526128a58360a084016128cc565b60a082015260c082013560c08201526128c18360e0840161271a565b60e082015292915050565b803563ffffffff81168114610be457600080fd5b6000602082840312156128f1578081fd5b8135611c9e81613689565b6000806040838503121561290e578081fd5b823561291981613689565b9150602083013561292981613689565b809150509250929050565b600080600060608486031215612948578081fd5b833561295381613689565b9250602084013561296381613689565b929592945050506040919091013590565b60008060008060808587031215612989578081fd5b843561299481613689565b935060208501356129a481613689565b925060408501359150606085013567ffffffffffffffff8111156129c6578182fd5b6129d287828801612773565b91505092959194509250565b600080604083850312156129f0578182fd5b82356129fb81613689565b915060208301358015158114612929578182fd5b600080600060608486031215612a23578283fd5b8335612a2e81613689565b9250602084013567ffffffffffffffff811115612a49578283fd5b612a5586828701612773565b9250506040840135612a6681613689565b809150509250925092565b60008060408385031215612a83578182fd5b8235612a8e81613689565b9150602083013567ffffffffffffffff811115612aa9578182fd5b612ab5858286016127eb565b9150509250929050565b60008060408385031215612ad1578182fd5b8235612adc81613689565b946020939093013593505050565b60008060008060008060c08789031215612b02578182fd5b8635612b0d81613689565b955060208701359450604087013563ffffffff81168114612b2c578283fd5b9350606087013567ffffffffffffffff80821115612b48578384fd5b612b548a838b01612773565b94506080890135915080821115612b69578384fd5b612b758a838b01612773565b935060a0890135915080821115612b8a578283fd5b50612b9789828a01612773565b9150509295509295509295565b600060208284031215612bb5578081fd5b8135611c9e8161369e565b600060208284031215612bd1578081fd5b8151611c9e8161369e565b60008060408385031215612bee578182fd5b8235612bf98161369e565b9150602083013567ffffffffffffffff811115612c14578182fd5b612ab585828601612773565b600060208284031215612c31578081fd5b8151611c9e81613689565b600060208284031215612c4d578081fd5b813567ffffffffffffffff811115612c63578182fd5b61197784828501612773565b600060208284031215612c80578081fd5b5035919050565b60008060408385031215612c99578182fd5b82359150602083013567ffffffffffffffff811115612c14578182fd5b60008060408385031215612cc8578182fd5b82359150602083013567ffffffffffffffff811115612aa9578182fd5b8060005b6002811015610bb3578151845260209384019390910190600101612ce9565b60008151808452612d2081602086016020860161365d565b601f01601f19169290920160200192915050565b60018110612d3e57fe5b9052565b63ffffffff169052565b60008251612d5e81846020870161365d565b9190910192915050565b6000808454600180821660008114612d875760018114612d9e57612dcd565b60ff198316865260028304607f1686019350612dcd565b600283048886526020808720875b83811015612dc55781548a820152908501908201612dac565b505050860193505b5050508351612de081836020880161365d565b01949350505050565b6001600160a01b0391909116815260200190565b6001600160a01b0385811682528416602082015260408101839052608060608201819052600090612e3090830184612d08565b9695505050505050565b901515815260200190565b6001600160e01b03199190911681526040602082018190526032908201527f234465706172746d656e7423696e69744465706172746d656e742064616f20686060820152710dee6e840e8f2e0ca40dcdee840dac2e8c6d60731b608082015260a00190565b6001600160e01b03199190911681526040602082018190526038908201527f234465706172746d656e74237365744f70657261746f725f696e7465726e616c60608201527f206f70657261746f722074797065206e6f74206d617463680000000000000000608082015260a00190565b600060208252610be16020830184612d08565b60208082526022908201527f456e756d657261626c655365743a20696e646578206f7574206f6620626f756e604082015261647360f01b606082015260800190565b60208082526033908201527f234465706172746d656e74234f6e6c7944414f2063616c6c657220646f6573206040820152723737ba103430bb32903832b936b4b9b9b4b7b760691b606082015260800190565b60208082526032908201527f4552433732313a207472616e7366657220746f206e6f6e20455243373231526560408201527131b2b4bb32b91034b6b83632b6b2b73a32b960711b606082015260800190565b6020808252601c908201527f4552433136353a20696e76616c696420696e7465726661636520696400000000604082015260600190565b60208082526023908201527f234d656d62657223696e646578417420496e646578206f7574206f6620626f756040820152626e647360e81b606082015260800190565b6020808252601c908201527f4552433732313a20746f6b656e20616c7265616479206d696e74656400000000604082015260600190565b60208082526024908201527f4552433732313a207472616e7366657220746f20746865207a65726f206164646040820152637265737360e01b606082015260800190565b60208082526019908201527f4552433732313a20617070726f766520746f2063616c6c657200000000000000604082015260600190565b6020808252602f908201527f234d656d62657223696e666f3a20696e666f20717565727920666f72206e6f6e60408201526e32bc34b9ba32b73a1036b2b6b132b960891b606082015260800190565b6020808252602c908201527f4552433732313a206f70657261746f7220717565727920666f72206e6f6e657860408201526b34b9ba32b73a103a37b5b2b760a11b606082015260800190565b60208082526038908201527f4552433732313a20617070726f76652063616c6c6572206973206e6f74206f7760408201527f6e6572206e6f7220617070726f76656420666f7220616c6c0000000000000000606082015260800190565b6020808252602a908201527f4552433732313a2062616c616e636520717565727920666f7220746865207a65604082015269726f206164647265737360b01b606082015260800190565b60208082526022908201527f456e756d657261626c654d61703a20696e646578206f7574206f6620626f756e604082015261647360f01b606082015260800190565b6020808252601f908201527f234d656d62657223736574496e666f3a206f776e6572206e6f206d6174636800604082015260600190565b6020808252818101527f4552433732313a206d696e7420746f20746865207a65726f2061646472657373604082015260600190565b6020808252602c908201527f4552433732313a20617070726f76656420717565727920666f72206e6f6e657860408201526b34b9ba32b73a103a37b5b2b760a11b606082015260800190565b6020808252602c908201527f4552433732314d657461646174613a2055524920736574206f66206e6f6e657860408201526b34b9ba32b73a103a37b5b2b760a11b606082015260800190565b6020808252602e908201527f436f6e747261637420696e7374616e63652068617320616c726561647920626560408201526d195b881a5b9a5d1a585b1a5e995960921b606082015260800190565b60208082526029908201527f4552433732313a207472616e73666572206f6620746f6b656e2074686174206960408201526839903737ba1037bbb760b91b606082015260800190565b6020808252602f908201527f4552433732314d657461646174613a2055524920717565727920666f72206e6f60408201526e3732bc34b9ba32b73a103a37b5b2b760891b606082015260800190565b60208082526023908201527f234d656d62657223736574546f6b656e5552493a206f776e6572206e6f206d616040820152620e8c6d60eb1b606082015260800190565b60208082526021908201527f4552433732313a20617070726f76616c20746f2063757272656e74206f776e656040820152603960f91b606082015260800190565b60208082526031908201527f4552433732313a207472616e736665722063616c6c6572206973206e6f74206f6040820152701ddb995c881b9bdc88185c1c1c9bdd9959607a1b606082015260800190565b60006020825282516020830152602083015161012060408401526135ab610140840182612d08565b90506040840151601f19808584030160608601526135c98383612d08565b92506060860151915080858403016080860152506135e78282612d08565b91505060808401516135fc60a0850182612d34565b5060a084015161360f60c0850182612d42565b5060c084015160e084015260e0840151610ebb610100850182612ce5565b90815260200190565b60405181810167ffffffffffffffff8111828210171561365557600080fd5b604052919050565b60005b83811015613678578181015183820152602001613660565b83811115610bb35750506000910152565b6001600160a01b038116811461255957600080fd5b6001600160e01b03198116811461255957600080fdfe4552433732313a207472616e7366657220746f206e6f6e20455243373231526563656976657220696d706c656d656e7465724552433732313a206f776e657220717565727920666f72206e6f6e6578697374656e7420746f6b656ea2646970667358221220e9f4010f47e5ea6e248a05b80b557b1c6d760aca21658eb6ba85f4fd937247a464736f6c634300060c0033",
  "immutableReferences": {},
  "source": "\npragma solidity >=0.6.0 <=0.8.15;\n\npragma experimental ABIEncoderV2;\n\nimport \"./ERC721.sol\";\n\ncontract Member is IMember, ERC721 {\n\n\t// event UpdateInfo(uint256 id);\n\n\t// member id => member info\n\tmapping(uint256 => Info) private _infoMap; // \n\tuint256[] private _infoList; // \n\tuint256 private _votes; // \n\n\tfunction initMember(address host, string memory description, address operator) external initializer {\n\t\tinitERC721(host, description, operator);\n\t\t_registerInterface(Member_ID);\n\t}\n\n\tfunction create(address owner, Info memory info) external OnlyDAO {\n\t\t_mint(owner, info.id);\n\n\t\tInfo storage info_ = _infoMap[info.id];\n\t\tinfo_.id = info.id;\n\t\tinfo_.name = info.name;\n\t\tinfo_.description = info.description;\n\t\tinfo_.avatar = info.avatar;\n\t\tinfo_.role = info.role;\n\t\tinfo_.votes = info.votes == 0 ? 1: info.votes;\n\t\t// info_.extended = info.extended;\n\t\tinfo_.idx = _infoList.length;\n\n\t\t_votes += info_.votes;\n\n\t\t_infoList.push(info.id);\n\t}\n\n\tfunction create2(address owner, uint256 id, uint32 votes, string memory name, string memory description, string memory avatar) external OnlyDAO {\n\t\tInfo memory info;\n\t\tinfo.id = id;\n\t\tinfo.name = name;\n\t\tinfo.votes = votes;\n\t\tinfo.avatar = avatar;\n\t\tinfo.description = description;\n\t}\n\n\tfunction votes() view external override returns (uint256) {\n\t\treturn _votes;\n\t}\n\n\tfunction setBaseURI(string memory baseURI) external OnlyDAO {\n\t\t_setBaseURI(baseURI);\n\t}\n\n\tfunction setTokenURI(uint256 id, string memory uri) external {\n\t\trequire(ownerOf(id) == _msgSender(), \"#Member#setTokenURI: owner no match\");\n\t\t_setTokenURI(id, uri);\n\t}\n\n\tfunction setInfo(uint256 id, Info memory info) external {\n\t\trequire(ownerOf(id) == _msgSender(), \"#Member#setInfo: owner no match\");\n\t\tInfo storage info_ = _infoMap[id];\n\t\tinfo_.name = info.name;\n\t\tinfo_.description = info.description;\n\t\tinfo_.avatar = info.avatar;\n\t\t// info_.extended = info.extended;\n\t\temit UpdateInfo(id);\n\t}\n\n\tfunction getInfo(uint256 id) view external override returns (Info memory) {\n\t\trequire(_exists(id), \"#Member#info: info query for nonexistent member\");\n\t\treturn _infoMap[id];\n\t}\n\n\tfunction indexAt(uint256 index) view public override returns (Info memory) {\n\t\trequire(index < _infoList.length, \"#Member#indexAt Index out of bounds\");\n\t\treturn _infoMap[_infoList[index]];\n\t}\n\n\tfunction exists(uint256 id) view public override returns (bool) {\n\t\treturn _exists(id);\n\t}\n\n\tfunction isApprovedOrOwner(address spender, uint256 id) view public returns (bool) {\n\t\treturn _havePermission(spender, id);\n\t}\n\n\tfunction total() view public override returns (uint256) {\n\t\treturn _infoList.length;\n\t}\n\n}",
  "sourcePath": "/Users/louis/Project/hc/NFTSwap/SmartHolder/contracts/Member.sol",
  "compiler": {
    "name": "solc",
    "version": "0.6.12+commit.27d51765.Emscripten.clang"
  },
  "schemaVersion": "3.4.8",
  "updatedAt": "2022-08-11T08:04:52.673Z",
  "networkType": "ethereum",
  "devdoc": {
    "kind": "dev",
    "methods": {
      "approve(address,uint256)": {
        "details": "Approves another address to transfer the given token ID The zero address indicates there is no approved address. There can only be one approved address per token at a given time. Can only be called by the token owner or an approved operator.",
        "params": {
          "to": "address to be approved for the given token ID",
          "tokenId": "uint256 ID of the token to be approved"
        }
      },
      "balanceOf(address)": {
        "details": "Gets the balance of the specified address.",
        "params": {
          "owner": "address to query the balance of"
        },
        "returns": {
          "_0": "uint256 representing the amount owned by the passed address"
        }
      },
      "baseURI()": {
        "details": "Returns the base URI set via {_setBaseURI}. This will be automatically added as a prefix in {tokenURI} to each token's URI, or to the token ID if no specific URI is set for that token ID."
      },
      "getApproved(uint256)": {
        "details": "Gets the approved address for a token ID, or zero if no address set Reverts if the token ID does not exist.",
        "params": {
          "tokenId": "uint256 ID of the token to query the approval of"
        },
        "returns": {
          "_0": "address currently approved for the given token ID"
        }
      },
      "isApprovedForAll(address,address)": {
        "details": "Tells whether an operator is approved by a given owner.",
        "params": {
          "operator": "operator address which you want to query the approval of",
          "owner": "owner address which you want to query the approval of"
        },
        "returns": {
          "_0": "bool whether the given operator is approved by the given owner"
        }
      },
      "name()": {
        "details": "Gets the token name.",
        "returns": {
          "_0": "string representing the token name"
        }
      },
      "ownerOf(uint256)": {
        "details": "Gets the owner of the specified token ID.",
        "params": {
          "tokenId": "uint256 ID of the token to query the owner of"
        },
        "returns": {
          "_0": "address currently marked as the owner of the given token ID"
        }
      },
      "safeTransferFrom(address,address,uint256)": {
        "details": "Safely transfers the ownership of a given token ID to another address If the target address is a contract, it must implement {IERC721Receiver-onERC721Received}, which is called upon a safe transfer, and return the magic value `bytes4(keccak256(\"onERC721Received(address,address,uint256,bytes)\"))`; otherwise, the transfer is reverted. Requires the msg.sender to be the owner, approved, or operator",
        "params": {
          "from": "current owner of the token",
          "to": "address to receive the ownership of the given token ID",
          "tokenId": "uint256 ID of the token to be transferred"
        }
      },
      "safeTransferFrom(address,address,uint256,bytes)": {
        "details": "Safely transfers the ownership of a given token ID to another address If the target address is a contract, it must implement {IERC721Receiver-onERC721Received}, which is called upon a safe transfer, and return the magic value `bytes4(keccak256(\"onERC721Received(address,address,uint256,bytes)\"))`; otherwise, the transfer is reverted. Requires the _msgSender() to be the owner, approved, or operator",
        "params": {
          "_data": "bytes data to send along with a safe transfer check",
          "from": "current owner of the token",
          "to": "address to receive the ownership of the given token ID",
          "tokenId": "uint256 ID of the token to be transferred"
        }
      },
      "setApprovalForAll(address,bool)": {
        "details": "Sets or unsets the approval of a given operator An operator is allowed to transfer all tokens of the sender on their behalf.",
        "params": {
          "approved": "representing the status of the approval to be set",
          "operator": "operator address to set the approval"
        }
      },
      "supportsInterface(bytes4)": {
        "details": "See {IERC165-supportsInterface}. Time complexity O(1), guaranteed to always use less than 30 000 gas."
      },
      "symbol()": {
        "details": "Gets the token symbol.",
        "returns": {
          "_0": "string representing the token symbol"
        }
      },
      "tokenByIndex(uint256)": {
        "details": "Gets the token ID at a given index of all the tokens in this contract Reverts if the index is greater or equal to the total number of tokens.",
        "params": {
          "index": "uint256 representing the index to be accessed of the tokens list"
        },
        "returns": {
          "_0": "uint256 token ID at the given index of the tokens list"
        }
      },
      "tokenOfOwnerByIndex(address,uint256)": {
        "details": "Gets the token ID at a given index of the tokens list of the requested owner.",
        "params": {
          "index": "uint256 representing the index to be accessed of the requested tokens list",
          "owner": "address owning the tokens list to be accessed"
        },
        "returns": {
          "_0": "uint256 token ID at the given index of the tokens list owned by the requested address"
        }
      },
      "totalSupply()": {
        "details": "Gets the total amount of tokens stored by the contract.",
        "returns": {
          "_0": "uint256 representing the total amount of tokens"
        }
      },
      "transferFrom(address,address,uint256)": {
        "details": "Transfers the ownership of a given token ID to another address. Usage of this method is discouraged, use {safeTransferFrom} whenever possible. Requires the msg.sender to be the owner, approved, or operator.",
        "params": {
          "from": "current owner of the token",
          "to": "address to receive the ownership of the given token ID",
          "tokenId": "uint256 ID of the token to be transferred"
        }
      }
    },
    "version": 1
  },
  "userdoc": {
    "kind": "user",
    "methods": {},
    "version": 1
  }
}