{
  "contractName": "Member",
  "abi": [
    {
      "anonymous": false,
      "inputs": [
        {
          "indexed": true,
          "internalType": "address",
          "name": "owner",
          "type": "address"
        },
        {
          "indexed": true,
          "internalType": "address",
          "name": "approved",
          "type": "address"
        },
        {
          "indexed": true,
          "internalType": "uint256",
          "name": "tokenId",
          "type": "uint256"
        }
      ],
      "name": "Approval",
      "type": "event"
    },
    {
      "anonymous": false,
      "inputs": [
        {
          "indexed": true,
          "internalType": "address",
          "name": "owner",
          "type": "address"
        },
        {
          "indexed": true,
          "internalType": "address",
          "name": "operator",
          "type": "address"
        },
        {
          "indexed": false,
          "internalType": "bool",
          "name": "approved",
          "type": "bool"
        }
      ],
      "name": "ApprovalForAll",
      "type": "event"
    },
    {
      "anonymous": false,
      "inputs": [
        {
          "indexed": true,
          "internalType": "address",
          "name": "from",
          "type": "address"
        },
        {
          "indexed": true,
          "internalType": "address",
          "name": "to",
          "type": "address"
        },
        {
          "indexed": true,
          "internalType": "uint256",
          "name": "tokenId",
          "type": "uint256"
        }
      ],
      "name": "Transfer",
      "type": "event"
    },
    {
      "anonymous": false,
      "inputs": [
        {
          "indexed": false,
          "internalType": "uint256",
          "name": "id",
          "type": "uint256"
        }
      ],
      "name": "UpdateInfo",
      "type": "event"
    },
    {
      "inputs": [
        {
          "internalType": "address",
          "name": "to",
          "type": "address"
        },
        {
          "internalType": "uint256",
          "name": "tokenId",
          "type": "uint256"
        }
      ],
      "name": "approve",
      "outputs": [],
      "stateMutability": "nonpayable",
      "type": "function"
    },
    {
      "inputs": [
        {
          "internalType": "address",
          "name": "owner",
          "type": "address"
        }
      ],
      "name": "balanceOf",
      "outputs": [
        {
          "internalType": "uint256",
          "name": "",
          "type": "uint256"
        }
      ],
      "stateMutability": "view",
      "type": "function",
      "constant": true
    },
    {
      "inputs": [],
      "name": "baseURI",
      "outputs": [
        {
          "internalType": "string",
          "name": "",
          "type": "string"
        }
      ],
      "stateMutability": "view",
      "type": "function",
      "constant": true
    },
    {
      "inputs": [
        {
          "internalType": "bytes4",
          "name": "interfaceId",
          "type": "bytes4"
        },
        {
          "internalType": "string",
          "name": "message",
          "type": "string"
        }
      ],
      "name": "checkInterface",
      "outputs": [],
      "stateMutability": "view",
      "type": "function",
      "constant": true
    },
    {
      "inputs": [],
      "name": "describe",
      "outputs": [
        {
          "internalType": "string",
          "name": "",
          "type": "string"
        }
      ],
      "stateMutability": "view",
      "type": "function",
      "constant": true
    },
    {
      "inputs": [
        {
          "internalType": "uint256",
          "name": "tokenId",
          "type": "uint256"
        }
      ],
      "name": "getApproved",
      "outputs": [
        {
          "internalType": "address",
          "name": "",
          "type": "address"
        }
      ],
      "stateMutability": "view",
      "type": "function",
      "constant": true
    },
    {
      "inputs": [],
      "name": "host",
      "outputs": [
        {
          "internalType": "contract IDAO",
          "name": "",
          "type": "address"
        }
      ],
      "stateMutability": "view",
      "type": "function",
      "constant": true
    },
    {
      "inputs": [],
      "name": "impl",
      "outputs": [
        {
          "internalType": "address",
          "name": "",
          "type": "address"
        }
      ],
      "stateMutability": "view",
      "type": "function",
      "constant": true
    },
    {
      "inputs": [
        {
          "internalType": "address",
          "name": "owner",
          "type": "address"
        },
        {
          "internalType": "address",
          "name": "operator",
          "type": "address"
        }
      ],
      "name": "isApprovedForAll",
      "outputs": [
        {
          "internalType": "bool",
          "name": "",
          "type": "bool"
        }
      ],
      "stateMutability": "view",
      "type": "function",
      "constant": true
    },
    {
      "inputs": [],
      "name": "name",
      "outputs": [
        {
          "internalType": "string",
          "name": "",
          "type": "string"
        }
      ],
      "stateMutability": "view",
      "type": "function",
      "constant": true
    },
    {
      "inputs": [],
      "name": "operator",
      "outputs": [
        {
          "internalType": "contract IVotePool",
          "name": "",
          "type": "address"
        }
      ],
      "stateMutability": "view",
      "type": "function",
      "constant": true
    },
    {
      "inputs": [
        {
          "internalType": "uint256",
          "name": "tokenId",
          "type": "uint256"
        }
      ],
      "name": "ownerOf",
      "outputs": [
        {
          "internalType": "address",
          "name": "",
          "type": "address"
        }
      ],
      "stateMutability": "view",
      "type": "function",
      "constant": true
    },
    {
      "inputs": [
        {
          "internalType": "address",
          "name": "from",
          "type": "address"
        },
        {
          "internalType": "address",
          "name": "to",
          "type": "address"
        },
        {
          "internalType": "uint256",
          "name": "tokenId",
          "type": "uint256"
        }
      ],
      "name": "safeTransferFrom",
      "outputs": [],
      "stateMutability": "nonpayable",
      "type": "function"
    },
    {
      "inputs": [
        {
          "internalType": "address",
          "name": "from",
          "type": "address"
        },
        {
          "internalType": "address",
          "name": "to",
          "type": "address"
        },
        {
          "internalType": "uint256",
          "name": "tokenId",
          "type": "uint256"
        },
        {
          "internalType": "bytes",
          "name": "_data",
          "type": "bytes"
        }
      ],
      "name": "safeTransferFrom",
      "outputs": [],
      "stateMutability": "nonpayable",
      "type": "function"
    },
    {
      "inputs": [
        {
          "internalType": "address",
          "name": "operator",
          "type": "address"
        },
        {
          "internalType": "bool",
          "name": "approved",
          "type": "bool"
        }
      ],
      "name": "setApprovalForAll",
      "outputs": [],
      "stateMutability": "nonpayable",
      "type": "function"
    },
    {
      "inputs": [
        {
          "internalType": "address",
          "name": "vote",
          "type": "address"
        }
      ],
      "name": "setOperator",
      "outputs": [],
      "stateMutability": "nonpayable",
      "type": "function"
    },
    {
      "inputs": [
        {
          "internalType": "bytes4",
          "name": "interfaceId",
          "type": "bytes4"
        }
      ],
      "name": "supportsInterface",
      "outputs": [
        {
          "internalType": "bool",
          "name": "",
          "type": "bool"
        }
      ],
      "stateMutability": "view",
      "type": "function",
      "constant": true
    },
    {
      "inputs": [],
      "name": "symbol",
      "outputs": [
        {
          "internalType": "string",
          "name": "",
          "type": "string"
        }
      ],
      "stateMutability": "view",
      "type": "function",
      "constant": true
    },
    {
      "inputs": [
        {
          "internalType": "uint256",
          "name": "index",
          "type": "uint256"
        }
      ],
      "name": "tokenByIndex",
      "outputs": [
        {
          "internalType": "uint256",
          "name": "",
          "type": "uint256"
        }
      ],
      "stateMutability": "view",
      "type": "function",
      "constant": true
    },
    {
      "inputs": [
        {
          "internalType": "address",
          "name": "owner",
          "type": "address"
        },
        {
          "internalType": "uint256",
          "name": "index",
          "type": "uint256"
        }
      ],
      "name": "tokenOfOwnerByIndex",
      "outputs": [
        {
          "internalType": "uint256",
          "name": "",
          "type": "uint256"
        }
      ],
      "stateMutability": "view",
      "type": "function",
      "constant": true
    },
    {
      "inputs": [
        {
          "internalType": "uint256",
          "name": "tokenId",
          "type": "uint256"
        }
      ],
      "name": "tokenURI",
      "outputs": [
        {
          "internalType": "string",
          "name": "",
          "type": "string"
        }
      ],
      "stateMutability": "view",
      "type": "function",
      "constant": true
    },
    {
      "inputs": [],
      "name": "totalSupply",
      "outputs": [
        {
          "internalType": "uint256",
          "name": "",
          "type": "uint256"
        }
      ],
      "stateMutability": "view",
      "type": "function",
      "constant": true
    },
    {
      "inputs": [
        {
          "internalType": "address",
          "name": "from",
          "type": "address"
        },
        {
          "internalType": "address",
          "name": "to",
          "type": "address"
        },
        {
          "internalType": "uint256",
          "name": "tokenId",
          "type": "uint256"
        }
      ],
      "name": "transferFrom",
      "outputs": [],
      "stateMutability": "nonpayable",
      "type": "function"
    },
    {
      "inputs": [
        {
          "internalType": "address",
          "name": "impl",
          "type": "address"
        }
      ],
      "name": "upgrade",
      "outputs": [],
      "stateMutability": "nonpayable",
      "type": "function"
    },
    {
      "inputs": [
        {
          "internalType": "address",
          "name": "host",
          "type": "address"
        },
        {
          "internalType": "string",
          "name": "describe",
          "type": "string"
        },
        {
          "internalType": "address",
          "name": "operator",
          "type": "address"
        }
      ],
      "name": "initMember",
      "outputs": [],
      "stateMutability": "nonpayable",
      "type": "function"
    },
    {
      "inputs": [
        {
          "internalType": "address",
          "name": "owner",
          "type": "address"
        },
        {
          "components": [
            {
              "internalType": "uint256",
              "name": "id",
              "type": "uint256"
            },
            {
              "internalType": "string",
              "name": "name",
              "type": "string"
            },
            {
              "internalType": "string",
              "name": "info",
              "type": "string"
            },
            {
              "internalType": "string",
              "name": "avatar",
              "type": "string"
            },
            {
              "internalType": "enum IMember.Role",
              "name": "role",
              "type": "uint8"
            },
            {
              "internalType": "uint32",
              "name": "votes",
              "type": "uint32"
            },
            {
              "internalType": "uint256",
              "name": "idx",
              "type": "uint256"
            },
            {
              "internalType": "uint256[2]",
              "name": "__ext",
              "type": "uint256[2]"
            }
          ],
          "internalType": "struct IMember.Info",
          "name": "info",
          "type": "tuple"
        }
      ],
      "name": "create",
      "outputs": [],
      "stateMutability": "nonpayable",
      "type": "function"
    },
    {
      "inputs": [],
      "name": "votes",
      "outputs": [
        {
          "internalType": "uint256",
          "name": "",
          "type": "uint256"
        }
      ],
      "stateMutability": "view",
      "type": "function",
      "constant": true
    },
    {
      "inputs": [
        {
          "internalType": "string",
          "name": "baseURI",
          "type": "string"
        }
      ],
      "name": "setBaseURI",
      "outputs": [],
      "stateMutability": "nonpayable",
      "type": "function"
    },
    {
      "inputs": [
        {
          "internalType": "uint256",
          "name": "id",
          "type": "uint256"
        },
        {
          "internalType": "string",
          "name": "uri",
          "type": "string"
        }
      ],
      "name": "setTokenURI",
      "outputs": [],
      "stateMutability": "nonpayable",
      "type": "function"
    },
    {
      "inputs": [
        {
          "internalType": "uint256",
          "name": "id",
          "type": "uint256"
        },
        {
          "components": [
            {
              "internalType": "uint256",
              "name": "id",
              "type": "uint256"
            },
            {
              "internalType": "string",
              "name": "name",
              "type": "string"
            },
            {
              "internalType": "string",
              "name": "info",
              "type": "string"
            },
            {
              "internalType": "string",
              "name": "avatar",
              "type": "string"
            },
            {
              "internalType": "enum IMember.Role",
              "name": "role",
              "type": "uint8"
            },
            {
              "internalType": "uint32",
              "name": "votes",
              "type": "uint32"
            },
            {
              "internalType": "uint256",
              "name": "idx",
              "type": "uint256"
            },
            {
              "internalType": "uint256[2]",
              "name": "__ext",
              "type": "uint256[2]"
            }
          ],
          "internalType": "struct IMember.Info",
          "name": "info",
          "type": "tuple"
        }
      ],
      "name": "setInfo",
      "outputs": [],
      "stateMutability": "nonpayable",
      "type": "function"
    },
    {
      "inputs": [
        {
          "internalType": "uint256",
          "name": "id",
          "type": "uint256"
        }
      ],
      "name": "getInfo",
      "outputs": [
        {
          "components": [
            {
              "internalType": "uint256",
              "name": "id",
              "type": "uint256"
            },
            {
              "internalType": "string",
              "name": "name",
              "type": "string"
            },
            {
              "internalType": "string",
              "name": "info",
              "type": "string"
            },
            {
              "internalType": "string",
              "name": "avatar",
              "type": "string"
            },
            {
              "internalType": "enum IMember.Role",
              "name": "role",
              "type": "uint8"
            },
            {
              "internalType": "uint32",
              "name": "votes",
              "type": "uint32"
            },
            {
              "internalType": "uint256",
              "name": "idx",
              "type": "uint256"
            },
            {
              "internalType": "uint256[2]",
              "name": "__ext",
              "type": "uint256[2]"
            }
          ],
          "internalType": "struct IMember.Info",
          "name": "",
          "type": "tuple"
        }
      ],
      "stateMutability": "view",
      "type": "function",
      "constant": true
    },
    {
      "inputs": [
        {
          "internalType": "uint256",
          "name": "index",
          "type": "uint256"
        }
      ],
      "name": "indexAt",
      "outputs": [
        {
          "components": [
            {
              "internalType": "uint256",
              "name": "id",
              "type": "uint256"
            },
            {
              "internalType": "string",
              "name": "name",
              "type": "string"
            },
            {
              "internalType": "string",
              "name": "info",
              "type": "string"
            },
            {
              "internalType": "string",
              "name": "avatar",
              "type": "string"
            },
            {
              "internalType": "enum IMember.Role",
              "name": "role",
              "type": "uint8"
            },
            {
              "internalType": "uint32",
              "name": "votes",
              "type": "uint32"
            },
            {
              "internalType": "uint256",
              "name": "idx",
              "type": "uint256"
            },
            {
              "internalType": "uint256[2]",
              "name": "__ext",
              "type": "uint256[2]"
            }
          ],
          "internalType": "struct IMember.Info",
          "name": "",
          "type": "tuple"
        }
      ],
      "stateMutability": "view",
      "type": "function",
      "constant": true
    },
    {
      "inputs": [
        {
          "internalType": "uint256",
          "name": "id",
          "type": "uint256"
        }
      ],
      "name": "exists",
      "outputs": [
        {
          "internalType": "bool",
          "name": "",
          "type": "bool"
        }
      ],
      "stateMutability": "view",
      "type": "function",
      "constant": true
    },
    {
      "inputs": [
        {
          "internalType": "address",
          "name": "spender",
          "type": "address"
        },
        {
          "internalType": "uint256",
          "name": "id",
          "type": "uint256"
        }
      ],
      "name": "isApprovedOrOwner",
      "outputs": [
        {
          "internalType": "bool",
          "name": "",
          "type": "bool"
        }
      ],
      "stateMutability": "view",
      "type": "function",
      "constant": true
    },
    {
      "inputs": [],
      "name": "total",
      "outputs": [
        {
          "internalType": "uint256",
          "name": "",
          "type": "uint256"
        }
      ],
      "stateMutability": "view",
      "type": "function",
      "constant": true
    }
  ],
  "bytecode": "0x608060405234801561001057600080fd5b506134d3806100206000396000f3fe608060405234801561001057600080fd5b50600436106102115760003560e01c80634f6ccce711610125578063a42bbccd116100ad578063c64df69d1161007c578063c64df69d14610444578063c87b56dd14610457578063e168c3ec1461046a578063e985e9c514610472578063f437bc591461048557610211565b8063a42bbccd146103f8578063a8fbb4031461040b578063b3ab15fb1461041e578063b88d4fde1461043157610211565b80636c0360eb116100f45780636c0360eb146103ba57806370a08231146103c25780638abf6077146103d557806395d89b41146103dd578063a22cb465146103e557610211565b80634f6ccce71461037957806355f804b31461038c578063570ca7351461039f5780636352211e146103a757610211565b80631ad184ff116101a85780632f745c59116101775780632f745c591461031a5780633fd7a0f01461032d57806342842e0e14610340578063430c2081146103535780634f558e791461036657610211565b80631ad184ff146102e457806323b872dd146102ec57806323fc76b9146102ff5780632ddbd13a1461031257610211565b8063095ea7b3116101e4578063095ea7b314610289578063162094c41461029c57806318160ddd146102af5780631a3cd59a146102c457610211565b806301ffc9a71461021657806306fdde031461023f578063081812fc146102545780630900f01014610274575b600080fd5b610229610224366004612935565b61048d565b6040516102369190612bcb565b60405180910390f35b6102476104b0565b6040516102369190612cab565b610267610262366004612a00565b610546565b6040516102369190612b7a565b61028761028236600461272b565b610592565b005b61028761029736600461290a565b61071d565b6102876102aa366004612a18565b6107b5565b6102b7610803565b60405161023691906133bb565b6102d76102d2366004612a00565b610814565b6040516102369190613311565b610247610a9b565b6102876102fa36600461277f565b610afc565b61028761030d36600461285a565b610b44565b6102b7610bfc565b6102b761032836600461290a565b610c02565b61028761033b3660046128bc565b610c2d565b61028761034e36600461277f565b610ebe565b61022961036136600461290a565b610ed9565b610229610374366004612a00565b610ee5565b6102b7610387366004612a00565b610ef0565b61028761039a3660046129cd565b610f06565b610267611077565b6102676103b5366004612a00565b611086565b6102476110ae565b6102b76103d036600461272b565b61110f565b610267611158565b610247611167565b6102876103f3366004612829565b6111c8565b6102d7610406366004612a00565b611296565b610287610419366004612a47565b61136d565b61028761042c36600461272b565b61144d565b61028761043f3660046127bf565b6115be565b61028761045236600461296d565b6115f7565b610247610465366004612a00565b61161f565b6102b761162a565b610229610480366004612747565b611630565b61026761165e565b6001600160e01b0319811660009081526001602052604090205460ff165b919050565b600a8054604080516020601f600260001961010060018816150201909516949094049384018190048102820181019092528281526060939092909183018282801561053c5780601f106105115761010080835404028352916020019161053c565b820191906000526020600020905b81548152906001019060200180831161051f57829003601f168201915b5050505050905090565b60006105518261166d565b6105765760405162461bcd60e51b815260040161056d906130be565b60405180910390fd5b506000908152600860205260409020546001600160a01b031690565b60025433906001600160a01b031681146106fa57600360009054906101000a90046001600160a01b03166001600160a01b031663570ca7356040518163ffffffff1660e01b815260040160206040518083038186803b1580156105f457600080fd5b505afa158015610608573d6000803e3d6000fd5b505050506040513d601f19601f8201168201806040525081019061062c91906129b1565b6001600160a01b0316816001600160a01b0316146106fa57600360009054906101000a90046001600160a01b03166001600160a01b031663ebf0c7176040518163ffffffff1660e01b815260040160206040518083038186803b15801561069257600080fd5b505afa1580156106a6573d6000803e3d6000fd5b505050506040513d601f19601f820116820180604052508101906106ca91906129b1565b6001600160a01b0316816001600160a01b0316146106fa5760405162461bcd60e51b815260040161056d90612d52565b50600080546001600160a01b0319166001600160a01b0392909216919091179055565b600061072882611086565b9050806001600160a01b0316836001600160a01b0316141561075c5760405162461bcd60e51b815260040161056d9061327f565b806001600160a01b031661076e61167a565b6001600160a01b0316148061078a575061078a8161048061167a565b6107a65760405162461bcd60e51b815260040161056d90612f69565b6107b08383611684565b505050565b6107bd6116f2565b6001600160a01b03166107cf83611086565b6001600160a01b0316146107f55760405162461bcd60e51b815260040161056d9061323c565b6107ff82826116f6565b5050565b600061080f600661173a565b905090565b61081c612460565b6108258261166d565b6108415760405162461bcd60e51b815260040161056d90612ece565b6000828152600e60209081526040918290208251610100808201855282548252600180840180548751600293821615909402600019011691909104601f81018690048602830186019096528582529194929385810193919291908301828280156108ec5780601f106108c1576101008083540402835291602001916108ec565b820191906000526020600020905b8154815290600101906020018083116108cf57829003601f168201915b5050509183525050600282810180546040805160206001841615610100026000190190931694909404601f8101839004830285018301909152808452938101939083018282801561097e5780601f106109535761010080835404028352916020019161097e565b820191906000526020600020905b81548152906001019060200180831161096157829003601f168201915b505050918352505060038201805460408051602060026001851615610100026000190190941693909304601f8101849004840282018401909252818152938201939291830182828015610a125780601f106109e757610100808354040283529160200191610a12565b820191906000526020600020905b8154815290600101906020018083116109f557829003601f168201915b5050509183525050600482015460209091019060ff168015610a3057fe5b8015610a3857fe5b81526004820154610100900463ffffffff166020820152600582015460408083019190915280518082019182905260609092019190600684019060029082845b815481526020019060010190808311610a78575050505050815250509050919050565b60048054604080516020601f600260001961010060018816150201909516949094049384018190048102820181019092528281526060939092909183018282801561053c5780601f106105115761010080835404028352916020019161053c565b610b0d610b0761167a565b82611745565b610b295760405162461bcd60e51b815260040161056d906132c0565b6107b0838383604051806020016040528060008152506117ca565b600054600160a81b900460ff1680610b5f5750610b5f6118da565b80610b745750600054600160a01b900460ff16155b610b905760405162461bcd60e51b815260040161056d90613156565b600054600160a81b900460ff16158015610bc7576000805460ff60a01b1960ff60a81b19909116600160a81b1716600160a01b1790555b610bd28484846118e0565b610be26323fc76b960e01b611978565b8015610bf6576000805460ff60a81b191690555b50505050565b600f5490565b6001600160a01b0382166000908152600560205260408120610c2490836119ca565b90505b92915050565b60025433906001600160a01b03168114610d9557600360009054906101000a90046001600160a01b03166001600160a01b031663570ca7356040518163ffffffff1660e01b815260040160206040518083038186803b158015610c8f57600080fd5b505afa158015610ca3573d6000803e3d6000fd5b505050506040513d601f19601f82011682018060405250810190610cc791906129b1565b6001600160a01b0316816001600160a01b031614610d9557600360009054906101000a90046001600160a01b03166001600160a01b031663ebf0c7176040518163ffffffff1660e01b815260040160206040518083038186803b158015610d2d57600080fd5b505afa158015610d41573d6000803e3d6000fd5b505050506040513d601f19601f82011682018060405250810190610d6591906129b1565b6001600160a01b0316816001600160a01b031614610d955760405162461bcd60e51b815260040161056d90612d52565b610da38383600001516119d6565b81516000908152600e60209081526040909120835181558184015180519192610dd4926001850192909101906124b4565b5060408301518051610df09160028401916020909101906124b4565b5060608301518051610e0c9160038401916020909101906124b4565b50608083015160048201805460ff19166001838015610e2757fe5b021790555060a083015163ffffffff1615610e46578260a00151610e49565b60015b60048201805464ffffffff00191661010063ffffffff93841681029190911791829055600f80546005909501859055601080549290930490931601905592516001820184556000939093527f8d1108e10bcb7c27dddfc02ed9d693a074039d026cf4ea4240b40f7d581ac80201919091555050565b6107b0838383604051806020016040528060008152506115be565b6000610c248383611745565b6000610c278261166d565b600080610efe600684611aaa565b509392505050565b60025433906001600160a01b0316811461106e57600360009054906101000a90046001600160a01b03166001600160a01b031663570ca7356040518163ffffffff1660e01b815260040160206040518083038186803b158015610f6857600080fd5b505afa158015610f7c573d6000803e3d6000fd5b505050506040513d601f19601f82011682018060405250810190610fa091906129b1565b6001600160a01b0316816001600160a01b03161461106e57600360009054906101000a90046001600160a01b03166001600160a01b031663ebf0c7176040518163ffffffff1660e01b815260040160206040518083038186803b15801561100657600080fd5b505afa15801561101a573d6000803e3d6000fd5b505050506040513d601f19601f8201168201806040525081019061103e91906129b1565b6001600160a01b0316816001600160a01b03161461106e5760405162461bcd60e51b815260040161056d90612d52565b6107ff82611ac6565b6002546001600160a01b031690565b6000610c27826040518060600160405280602981526020016134756029913960069190611ad9565b600d8054604080516020601f600260001961010060018816150201909516949094049384018190048102820181019092528281526060939092909183018282801561053c5780601f106105115761010080835404028352916020019161053c565b60006001600160a01b0382166111375760405162461bcd60e51b815260040161056d90612fc6565b6001600160a01b0382166000908152600560205260409020610c279061173a565b6000546001600160a01b031690565b600b8054604080516020601f600260001961010060018816150201909516949094049384018190048102820181019092528281526060939092909183018282801561053c5780601f106105115761010080835404028352916020019161053c565b6111d061167a565b6001600160a01b0316826001600160a01b031614156112015760405162461bcd60e51b815260040161056d90612e97565b806009600061120e61167a565b6001600160a01b03908116825260208083019390935260409182016000908120918716808252919093529120805460ff19169215159290921790915561125261167a565b6001600160a01b03167f17307eab39ab6107e8899845ad3d59bd9653f200f220920489ca2b5937696c318360405161128a9190612bcb565b60405180910390a35050565b61129e612460565b600f5482106112bf5760405162461bcd60e51b815260040161056d90612dd9565b600e6000600f84815481106112d057fe5b906000526020600020015481526020019081526020016000206040518061010001604052908160008201548152602001600182018054600181600116156101000203166002900480601f0160208091040260200160405190810160405280929190818152602001828054600181600116156101000203166002900480156108ec5780601f106108c1576101008083540402835291602001916108ec565b6113756116f2565b6001600160a01b031661138783611086565b6001600160a01b0316146113ad5760405162461bcd60e51b815260040161056d90613052565b6000828152600e6020908152604090912082820151805191926113d8926001850192909101906124b4565b50604082015180516113f49160028401916020909101906124b4565b50606082015180516114109160038401916020909101906124b4565b507f85efaa4a50aadbc9da043a8d0f46b0871e450af310339a43b862dd81b70272818360405161144091906133bb565b60405180910390a1505050565b60025433906001600160a01b031681146115b557600360009054906101000a90046001600160a01b03166001600160a01b031663570ca7356040518163ffffffff1660e01b815260040160206040518083038186803b1580156114af57600080fd5b505afa1580156114c3573d6000803e3d6000fd5b505050506040513d601f19601f820116820180604052508101906114e791906129b1565b6001600160a01b0316816001600160a01b0316146115b557600360009054906101000a90046001600160a01b03166001600160a01b031663ebf0c7176040518163ffffffff1660e01b815260040160206040518083038186803b15801561154d57600080fd5b505afa158015611561573d6000803e3d6000fd5b505050506040513d601f19601f8201168201806040525081019061158591906129b1565b6001600160a01b0316816001600160a01b0316146115b55760405162461bcd60e51b815260040161056d90612d52565b6107ff82611af0565b6115cf6115c961167a565b83611745565b6115eb5760405162461bcd60e51b815260040161056d906132c0565b610bf684848484611b9c565b6116008261048d565b81906107b05760405162461bcd60e51b815260040161056d9190612cab565b6060610c2782611bd0565b60105490565b6001600160a01b03918216600090815260096020908152604080832093909416825291909152205460ff1690565b6003546001600160a01b031690565b6000610c27600683611d1a565b600061080f6116f2565b600081815260086020526040902080546001600160a01b0319166001600160a01b03841690811790915581906116b982611086565b6001600160a01b03167f8c5be1e5ebec7d5bd14f71427d1e84f3dd0314c0f7b2291e5b200ac8c7c3b92560405160405180910390a45050565b3390565b6116ff8261166d565b61171b5760405162461bcd60e51b815260040161056d9061310a565b6000828152600c6020908152604090912082516107b0928401906124b4565b6000610c2782611d26565b60006117508261166d565b61176c5760405162461bcd60e51b815260040161056d90612f1d565b600061177783611086565b9050806001600160a01b0316846001600160a01b031614806117b25750836001600160a01b03166117a784610546565b6001600160a01b0316145b806117c257506117c28185611630565b949350505050565b836001600160a01b03166117dd83611086565b6001600160a01b0316146118035760405162461bcd60e51b815260040161056d906131a4565b6001600160a01b0383166118295760405162461bcd60e51b815260040161056d90612e53565b61183584848484610bf6565b611840600083611684565b6001600160a01b03841660009081526005602052604090206118629083611d2a565b506001600160a01b03831660009081526005602052604090206118859083611d36565b5061189260068385611d42565b5081836001600160a01b0316856001600160a01b03167fddf252ad1be2c89b69c2b068fc378daa952ba7f163c4a11628f55a4df523b3ef60405160405180910390a450505050565b303b1590565b600054600160a81b900460ff16806118fb57506118fb6118da565b806119105750600054600160a01b900460ff16155b61192c5760405162461bcd60e51b815260040161056d90613156565b600054600160a81b900460ff16158015611963576000805460ff60a01b1960ff60a81b19909116600160a81b1716600160a01b1790555b61196e848484611d58565b610be28384611e0b565b6001600160e01b031980821614156119a25760405162461bcd60e51b815260040161056d90612da2565b6001600160e01b0319166000908152600160208190526040909120805460ff19169091179055565b6000610c248383611e63565b6001600160a01b0382166119fc5760405162461bcd60e51b815260040161056d90613089565b611a058161166d565b15611a225760405162461bcd60e51b815260040161056d90612e1c565b611a3e6000838360405180602001604052806000815250610bf6565b6001600160a01b0382166000908152600560205260409020611a609082611d36565b50611a6d60068284611d42565b5060405181906001600160a01b038416906000907fddf252ad1be2c89b69c2b068fc378daa952ba7f163c4a11628f55a4df523b3ef908290a45050565b6000808080611ab98686611ea8565b9097909650945050505050565b80516107ff90600d9060208401906124b4565b6000611ae6848484611f04565b90505b9392505050565b6001600160a01b03811615611b7a57611b11816001600160a01b0316611f63565b15611b7a5760405163c64df69d60e01b81526001600160a01b0382169063c64df69d90611b4990630ddf27bf60e01b90600401612c3b565b60006040518083038186803b158015611b6157600080fd5b505afa158015611b75573d6000803e3d6000fd5b505050505b600280546001600160a01b0319166001600160a01b0392909216919091179055565b611ba8848484846117ca565b611bb484848484611f9c565b610bf65760405162461bcd60e51b815260040161056d90612d00565b6060611bdb8261166d565b611bf75760405162461bcd60e51b815260040161056d906131ed565b6000828152600c602090815260409182902080548351601f6002600019610100600186161502019093169290920491820184900484028101840190945280845260609392830182828015611c8c5780601f10611c6157610100808354040283529160200191611c8c565b820191906000526020600020905b815481529060010190602001808311611c6f57829003601f168201915b5050600d5493945050505060026000196101006001841615020190911604611cb55790506104ab565b805115611ce757600d81604051602001611cd0929190612af9565b6040516020818303038152906040529150506104ab565b600d611cf284612063565b604051602001611d03929190612af9565b604051602081830303815290604052915050919050565b6000610c24838361213e565b5490565b6000610c248383612156565b6000610c24838361221c565b6000611ae684846001600160a01b038516612266565b611d606122fd565b611d706336c6362d60e01b611978565b60405163c64df69d60e01b81526001600160a01b0384169063c64df69d90611da3906363daa99b60e11b90600401612bd6565b60006040518083038186803b158015611dbb57600080fd5b505afa158015611dcf573d6000803e3d6000fd5b5050600380546001600160a01b0319166001600160a01b03871617905550508151611e019060049060208501906124b4565b506107b081611af0565b8151611e1e90600a9060208501906124b4565b508051611e3290600b9060208401906124b4565b50611e436380ac58cd60e01b6123a7565b611e53635b5e139f60e01b6123a7565b6107ff63780e9d6360e01b6123a7565b81546000908210611e865760405162461bcd60e51b815260040161056d90612cbe565b826000018281548110611e9557fe5b9060005260206000200154905092915050565b815460009081908310611ecd5760405162461bcd60e51b815260040161056d90613010565b6000846000018481548110611ede57fe5b906000526020600020906002020190508060000154816001015492509250509250929050565b60008281526001840160205260408120548281611f345760405162461bcd60e51b815260040161056d9190612cab565b50846000016001820381548110611f4757fe5b9060005260206000209060020201600101549150509392505050565b6000813f7fc5d2460186f7233c927e7db2dcc703c0e500b653ca82273b7bfad8045d85a4708181148015906117c2575050151592915050565b6000611fb0846001600160a01b0316611f63565b611fbc575060016117c2565b6060630a85bd0160e11b611fce61167a565b878686604051602401611fe49493929190612b8e565b604051602081830303815290604052906001600160e01b0319166020820180516001600160e01b038381831617835250505050905063150b7a0260e01b6001600160e01b03191661204e8683604051806060016040528060328152602001613443603291396123b0565b6001600160e01b031916149695505050505050565b60608161208857506040805180820190915260018152600360fc1b60208201526104ab565b8160005b81156120a057600101600a8204915061208c565b60608167ffffffffffffffff811180156120b957600080fd5b506040519080825280601f01601f1916602001820160405280156120e4576020820181803683370190505b50859350905060001982015b831561213557600a840660300160f81b8282806001900393508151811061211357fe5b60200101906001600160f81b031916908160001a905350600a840493506120f0565b50949350505050565b60009081526001919091016020526040902054151590565b60008181526001830160205260408120548015612212578354600019808301919081019060009087908390811061218957fe5b90600052602060002001549050808760000184815481106121a657fe5b6000918252602080832090910192909255828152600189810190925260409020908401905586548790806121d657fe5b60019003818190600052602060002001600090559055866001016000878152602001908152602001600020600090556001945050505050610c27565b6000915050610c27565b6000612228838361213e565b61225e57508154600181810184556000848152602080822090930184905584548482528286019093526040902091909155610c27565b506000610c27565b6000828152600184016020526040812054806122cb575050604080518082018252838152602080820184815286546001818101895560008981528481209551600290930290950191825591519082015586548684528188019092529290912055611ae9565b828560000160018303815481106122de57fe5b9060005260206000209060020201600101819055506000915050611ae9565b600054600160a81b900460ff168061231857506123186118da565b8061232d5750600054600160a01b900460ff16155b6123495760405162461bcd60e51b815260040161056d90613156565b600054600160a81b900460ff16158015612380576000805460ff60a01b1960ff60a81b19909116600160a81b1716600160a01b1790555b6123906301ffc9a760e01b611978565b80156123a4576000805460ff60a81b191690555b50565b6123a481611978565b6000806060856001600160a01b0316856040516123cd9190612add565b6000604051808303816000865af19150503d806000811461240a576040519150601f19603f3d011682016040523d82523d6000602084013e61240f565b606091505b509150915081612443578051156124295780518082602001fd5b8360405162461bcd60e51b815260040161056d9190612cab565b808060200190518101906124579190612951565b92505050611ae9565b6040518061010001604052806000815260200160608152602001606081526020016060815260200160008081111561249457fe5b815260006020820181905260408201526060016124af612532565b905290565b828054600181600116156101000203166002900490600052602060002090601f016020900481019282601f106124f557805160ff1916838001178555612522565b82800160010185558215612522579182015b82811115612522578251825591602001919060010190612507565b5061252e929150612550565b5090565b60405180604001604052806002906020820280368337509192915050565b5b8082111561252e5760008155600101612551565b600082601f830112612575578081fd5b61257f60406133c4565b905080828460408501111561259357600080fd5b60005b60028110156125b5578135835260209283019290910190600101612596565b50505092915050565b600082601f8301126125ce578081fd5b813567ffffffffffffffff8111156125e4578182fd5b6125f7601f8201601f19166020016133c4565b915080825283602082850101111561260e57600080fd5b8060208401602084013760009082016020015292915050565b803560018110610c2757600080fd5b60006101208284031215612648578081fd5b6126536101006133c4565b905081358152602082013567ffffffffffffffff8082111561267457600080fd5b612680858386016125be565b6020840152604084013591508082111561269957600080fd5b6126a5858386016125be565b604084015260608401359150808211156126be57600080fd5b506126cb848285016125be565b6060830152506126de8360808401612627565b60808201526126f08360a08401612717565b60a082015260c082013560c082015261270c8360e08401612565565b60e082015292915050565b803563ffffffff81168114610c2757600080fd5b60006020828403121561273c578081fd5b8135611ae981613417565b60008060408385031215612759578081fd5b823561276481613417565b9150602083013561277481613417565b809150509250929050565b600080600060608486031215612793578081fd5b833561279e81613417565b925060208401356127ae81613417565b929592945050506040919091013590565b600080600080608085870312156127d4578081fd5b84356127df81613417565b935060208501356127ef81613417565b925060408501359150606085013567ffffffffffffffff811115612811578182fd5b61281d878288016125be565b91505092959194509250565b6000806040838503121561283b578182fd5b823561284681613417565b915060208301358015158114612774578182fd5b60008060006060848603121561286e578283fd5b833561287981613417565b9250602084013567ffffffffffffffff811115612894578283fd5b6128a0868287016125be565b92505060408401356128b181613417565b809150509250925092565b600080604083850312156128ce578182fd5b82356128d981613417565b9150602083013567ffffffffffffffff8111156128f4578182fd5b61290085828601612636565b9150509250929050565b6000806040838503121561291c578182fd5b823561292781613417565b946020939093013593505050565b600060208284031215612946578081fd5b8135611ae98161342c565b600060208284031215612962578081fd5b8151611ae98161342c565b6000806040838503121561297f578182fd5b823561298a8161342c565b9150602083013567ffffffffffffffff8111156129a5578182fd5b612900858286016125be565b6000602082840312156129c2578081fd5b8151611ae981613417565b6000602082840312156129de578081fd5b813567ffffffffffffffff8111156129f4578182fd5b6117c2848285016125be565b600060208284031215612a11578081fd5b5035919050565b60008060408385031215612a2a578182fd5b82359150602083013567ffffffffffffffff8111156129a5578182fd5b60008060408385031215612a59578182fd5b82359150602083013567ffffffffffffffff8111156128f4578182fd5b8060005b6002811015610bf6578151845260209384019390910190600101612a7a565b60008151808452612ab18160208601602086016133eb565b601f01601f19169290920160200192915050565b60018110612acf57fe5b9052565b63ffffffff169052565b60008251612aef8184602087016133eb565b9190910192915050565b6000808454600180821660008114612b185760018114612b2f57612b5e565b60ff198316865260028304607f1686019350612b5e565b600283048886526020808720875b83811015612b565781548a820152908501908201612b3d565b505050860193505b5050508351612b718183602088016133eb565b01949350505050565b6001600160a01b0391909116815260200190565b6001600160a01b0385811682528416602082015260408101839052608060608201819052600090612bc190830184612a99565b9695505050505050565b901515815260200190565b6001600160e01b03199190911681526040602082018190526032908201527f234465706172746d656e7423696e69744465706172746d656e742064616f20686060820152710dee6e840e8f2e0ca40dcdee840dac2e8c6d60731b608082015260a00190565b6001600160e01b03199190911681526040602082018190526038908201527f234465706172746d656e74237365744f70657261746f725f696e7465726e616c60608201527f206f70657261746f722074797065206e6f74206d617463680000000000000000608082015260a00190565b600060208252610c246020830184612a99565b60208082526022908201527f456e756d657261626c655365743a20696e646578206f7574206f6620626f756e604082015261647360f01b606082015260800190565b60208082526032908201527f4552433732313a207472616e7366657220746f206e6f6e20455243373231526560408201527131b2b4bb32b91034b6b83632b6b2b73a32b960711b606082015260800190565b60208082526030908201527f2355706772616465234f6e6c7944414f2063616c6c657220646f6573206e6f7460408201526f103430bb32903832b936b4b9b9b4b7b760811b606082015260800190565b6020808252601c908201527f4552433136353a20696e76616c696420696e7465726661636520696400000000604082015260600190565b60208082526023908201527f234d656d62657223696e646578417420496e646578206f7574206f6620626f756040820152626e647360e81b606082015260800190565b6020808252601c908201527f4552433732313a20746f6b656e20616c7265616479206d696e74656400000000604082015260600190565b60208082526024908201527f4552433732313a207472616e7366657220746f20746865207a65726f206164646040820152637265737360e01b606082015260800190565b60208082526019908201527f4552433732313a20617070726f766520746f2063616c6c657200000000000000604082015260600190565b6020808252602f908201527f234d656d62657223696e666f3a20696e666f20717565727920666f72206e6f6e60408201526e32bc34b9ba32b73a1036b2b6b132b960891b606082015260800190565b6020808252602c908201527f4552433732313a206f70657261746f7220717565727920666f72206e6f6e657860408201526b34b9ba32b73a103a37b5b2b760a11b606082015260800190565b60208082526038908201527f4552433732313a20617070726f76652063616c6c6572206973206e6f74206f7760408201527f6e6572206e6f7220617070726f76656420666f7220616c6c0000000000000000606082015260800190565b6020808252602a908201527f4552433732313a2062616c616e636520717565727920666f7220746865207a65604082015269726f206164647265737360b01b606082015260800190565b60208082526022908201527f456e756d657261626c654d61703a20696e646578206f7574206f6620626f756e604082015261647360f01b606082015260800190565b6020808252601f908201527f234d656d62657223736574496e666f3a206f776e6572206e6f206d6174636800604082015260600190565b6020808252818101527f4552433732313a206d696e7420746f20746865207a65726f2061646472657373604082015260600190565b6020808252602c908201527f4552433732313a20617070726f76656420717565727920666f72206e6f6e657860408201526b34b9ba32b73a103a37b5b2b760a11b606082015260800190565b6020808252602c908201527f4552433732314d657461646174613a2055524920736574206f66206e6f6e657860408201526b34b9ba32b73a103a37b5b2b760a11b606082015260800190565b6020808252602e908201527f436f6e747261637420696e7374616e63652068617320616c726561647920626560408201526d195b881a5b9a5d1a585b1a5e995960921b606082015260800190565b60208082526029908201527f4552433732313a207472616e73666572206f6620746f6b656e2074686174206960408201526839903737ba1037bbb760b91b606082015260800190565b6020808252602f908201527f4552433732314d657461646174613a2055524920717565727920666f72206e6f60408201526e3732bc34b9ba32b73a103a37b5b2b760891b606082015260800190565b60208082526023908201527f234d656d62657223736574546f6b656e5552493a206f776e6572206e6f206d616040820152620e8c6d60eb1b606082015260800190565b60208082526021908201527f4552433732313a20617070726f76616c20746f2063757272656e74206f776e656040820152603960f91b606082015260800190565b60208082526031908201527f4552433732313a207472616e736665722063616c6c6572206973206e6f74206f6040820152701ddb995c881b9bdc88185c1c1c9bdd9959607a1b606082015260800190565b6000602082528251602083015260208301516101206040840152613339610140840182612a99565b90506040840151601f19808584030160608601526133578383612a99565b92506060860151915080858403016080860152506133758282612a99565b915050608084015161338a60a0850182612ac5565b5060a084015161339d60c0850182612ad3565b5060c084015160e084015260e0840151610efe610100850182612a76565b90815260200190565b60405181810167ffffffffffffffff811182821017156133e357600080fd5b604052919050565b60005b838110156134065781810151838201526020016133ee565b83811115610bf65750506000910152565b6001600160a01b03811681146123a457600080fd5b6001600160e01b0319811681146123a457600080fdfe4552433732313a207472616e7366657220746f206e6f6e20455243373231526563656976657220696d706c656d656e7465724552433732313a206f776e657220717565727920666f72206e6f6e6578697374656e7420746f6b656ea2646970667358221220c19a3316309c5693d05cffc78eb5038d6b0df32f11e3e584ca25bf46cb3c0b9d64736f6c634300060c0033",
  "immutableReferences": {},
  "source": "\npragma solidity >=0.6.0 <=0.8.15;\n\npragma experimental ABIEncoderV2;\n\nimport \"./ERC721.sol\";\n\ncontract Member is IMember, ERC721 {\n\n\tevent UpdateInfo(uint256 id);\n\n\t// member id => member info\n\tmapping(uint256 => Info) private _infoMap; // \n\tuint256[] private _infoList; // \n\tuint256 private _votes; // \n\n\tfunction initMember(address host, string memory describe, address operator) external initializer {\n\t\tinitERC721(host, describe, operator);\n\t\t_registerInterface(Member_ID);\n\t}\n\n\tfunction create(address owner, Info memory info) external OnlyDAO {\n\t\t_mint(owner, info.id);\n\n\t\tInfo storage info_ = _infoMap[info.id];\n\t\tinfo_.id = info.id;\n\t\tinfo_.name = info.name;\n\t\tinfo_.info = info.info;\n\t\tinfo_.avatar = info.avatar;\n\t\tinfo_.role = info.role;\n\t\tinfo_.votes = info.votes == 0 ? 1: info.votes;\n\t\t// info_.extended = info.extended;\n\t\tinfo_.idx = _infoList.length;\n\n\t\t_votes += info_.votes;\n\n\t\t_infoList.push(info.id);\n\t}\n\n\tfunction votes() view external override returns (uint256) {\n\t\treturn _votes;\n\t}\n\n\tfunction setBaseURI(string memory baseURI) external OnlyDAO {\n\t\t_setBaseURI(baseURI);\n\t}\n\n\tfunction setTokenURI(uint256 id, string memory uri) external {\n\t\trequire(ownerOf(id) == _msgSender(), \"#Member#setTokenURI: owner no match\");\n\t\t_setTokenURI(id, uri);\n\t}\n\n\tfunction setInfo(uint256 id, Info memory info) external {\n\t\trequire(ownerOf(id) == _msgSender(), \"#Member#setInfo: owner no match\");\n\t\tInfo storage info_ = _infoMap[id];\n\t\tinfo_.name = info.name;\n\t\tinfo_.info = info.info;\n\t\tinfo_.avatar = info.avatar;\n\t\t// info_.extended = info.extended;\n\t\temit UpdateInfo(id);\n\t}\n\n\tfunction getInfo(uint256 id) view external override returns (Info memory) {\n\t\trequire(_exists(id), \"#Member#info: info query for nonexistent member\");\n\t\treturn _infoMap[id];\n\t}\n\n\tfunction indexAt(uint256 index) view public override returns (Info memory) {\n\t\trequire(index < _infoList.length, \"#Member#indexAt Index out of bounds\");\n\t\treturn _infoMap[_infoList[index]];\n\t}\n\n\tfunction exists(uint256 id) view public override returns (bool) {\n\t\treturn _exists(id);\n\t}\n\n\tfunction isApprovedOrOwner(address spender, uint256 id) view public returns (bool) {\n\t\treturn _isCanTransfer(spender, id);\n\t}\n\n\tfunction total() view public override returns (uint256) {\n\t\treturn _infoList.length;\n\t}\n\n}",
  "sourcePath": "/Users/louis/Project/hc/NFTSwap/SmartHolder/contracts/Member.sol",
  "compiler": {
    "name": "solc",
    "version": "0.6.12+commit.27d51765.Emscripten.clang"
  },
  "schemaVersion": "3.4.8",
  "updatedAt": "2022-07-18T02:17:43.335Z",
  "networkType": "ethereum",
  "devdoc": {
    "kind": "dev",
    "methods": {
      "approve(address,uint256)": {
        "details": "Approves another address to transfer the given token ID The zero address indicates there is no approved address. There can only be one approved address per token at a given time. Can only be called by the token owner or an approved operator.",
        "params": {
          "to": "address to be approved for the given token ID",
          "tokenId": "uint256 ID of the token to be approved"
        }
      },
      "balanceOf(address)": {
        "details": "Gets the balance of the specified address.",
        "params": {
          "owner": "address to query the balance of"
        },
        "returns": {
          "_0": "uint256 representing the amount owned by the passed address"
        }
      },
      "baseURI()": {
        "details": "Returns the base URI set via {_setBaseURI}. This will be automatically added as a prefix in {tokenURI} to each token's URI, or to the token ID if no specific URI is set for that token ID."
      },
      "getApproved(uint256)": {
        "details": "Gets the approved address for a token ID, or zero if no address set Reverts if the token ID does not exist.",
        "params": {
          "tokenId": "uint256 ID of the token to query the approval of"
        },
        "returns": {
          "_0": "address currently approved for the given token ID"
        }
      },
      "isApprovedForAll(address,address)": {
        "details": "Tells whether an operator is approved by a given owner.",
        "params": {
          "operator": "operator address which you want to query the approval of",
          "owner": "owner address which you want to query the approval of"
        },
        "returns": {
          "_0": "bool whether the given operator is approved by the given owner"
        }
      },
      "name()": {
        "details": "Gets the token name.",
        "returns": {
          "_0": "string representing the token name"
        }
      },
      "ownerOf(uint256)": {
        "details": "Gets the owner of the specified token ID.",
        "params": {
          "tokenId": "uint256 ID of the token to query the owner of"
        },
        "returns": {
          "_0": "address currently marked as the owner of the given token ID"
        }
      },
      "safeTransferFrom(address,address,uint256)": {
        "details": "Safely transfers the ownership of a given token ID to another address If the target address is a contract, it must implement {IERC721Receiver-onERC721Received}, which is called upon a safe transfer, and return the magic value `bytes4(keccak256(\"onERC721Received(address,address,uint256,bytes)\"))`; otherwise, the transfer is reverted. Requires the msg.sender to be the owner, approved, or operator",
        "params": {
          "from": "current owner of the token",
          "to": "address to receive the ownership of the given token ID",
          "tokenId": "uint256 ID of the token to be transferred"
        }
      },
      "safeTransferFrom(address,address,uint256,bytes)": {
        "details": "Safely transfers the ownership of a given token ID to another address If the target address is a contract, it must implement {IERC721Receiver-onERC721Received}, which is called upon a safe transfer, and return the magic value `bytes4(keccak256(\"onERC721Received(address,address,uint256,bytes)\"))`; otherwise, the transfer is reverted. Requires the _msgSender() to be the owner, approved, or operator",
        "params": {
          "_data": "bytes data to send along with a safe transfer check",
          "from": "current owner of the token",
          "to": "address to receive the ownership of the given token ID",
          "tokenId": "uint256 ID of the token to be transferred"
        }
      },
      "setApprovalForAll(address,bool)": {
        "details": "Sets or unsets the approval of a given operator An operator is allowed to transfer all tokens of the sender on their behalf.",
        "params": {
          "approved": "representing the status of the approval to be set",
          "operator": "operator address to set the approval"
        }
      },
      "supportsInterface(bytes4)": {
        "details": "See {IERC165-supportsInterface}. Time complexity O(1), guaranteed to always use less than 30 000 gas."
      },
      "symbol()": {
        "details": "Gets the token symbol.",
        "returns": {
          "_0": "string representing the token symbol"
        }
      },
      "tokenByIndex(uint256)": {
        "details": "Gets the token ID at a given index of all the tokens in this contract Reverts if the index is greater or equal to the total number of tokens.",
        "params": {
          "index": "uint256 representing the index to be accessed of the tokens list"
        },
        "returns": {
          "_0": "uint256 token ID at the given index of the tokens list"
        }
      },
      "tokenOfOwnerByIndex(address,uint256)": {
        "details": "Gets the token ID at a given index of the tokens list of the requested owner.",
        "params": {
          "index": "uint256 representing the index to be accessed of the requested tokens list",
          "owner": "address owning the tokens list to be accessed"
        },
        "returns": {
          "_0": "uint256 token ID at the given index of the tokens list owned by the requested address"
        }
      },
      "totalSupply()": {
        "details": "Gets the total amount of tokens stored by the contract.",
        "returns": {
          "_0": "uint256 representing the total amount of tokens"
        }
      },
      "transferFrom(address,address,uint256)": {
        "details": "Transfers the ownership of a given token ID to another address. Usage of this method is discouraged, use {safeTransferFrom} whenever possible. Requires the msg.sender to be the owner, approved, or operator.",
        "params": {
          "from": "current owner of the token",
          "to": "address to receive the ownership of the given token ID",
          "tokenId": "uint256 ID of the token to be transferred"
        }
      }
    },
    "version": 1
  },
  "userdoc": {
    "kind": "user",
    "methods": {},
    "version": 1
  }
}