{
  "contractName": "NFTs",
  "abi": [
    {
      "anonymous": false,
      "inputs": [
        {
          "indexed": true,
          "internalType": "address",
          "name": "owner",
          "type": "address"
        },
        {
          "indexed": true,
          "internalType": "address",
          "name": "approved",
          "type": "address"
        },
        {
          "indexed": true,
          "internalType": "uint256",
          "name": "tokenId",
          "type": "uint256"
        }
      ],
      "name": "Approval",
      "type": "event"
    },
    {
      "anonymous": false,
      "inputs": [
        {
          "indexed": true,
          "internalType": "address",
          "name": "owner",
          "type": "address"
        },
        {
          "indexed": true,
          "internalType": "address",
          "name": "operator",
          "type": "address"
        },
        {
          "indexed": false,
          "internalType": "bool",
          "name": "approved",
          "type": "bool"
        }
      ],
      "name": "ApprovalForAll",
      "type": "event"
    },
    {
      "anonymous": false,
      "inputs": [
        {
          "indexed": true,
          "internalType": "address",
          "name": "from",
          "type": "address"
        },
        {
          "indexed": true,
          "internalType": "address",
          "name": "to",
          "type": "address"
        },
        {
          "indexed": true,
          "internalType": "uint256",
          "name": "tokenId",
          "type": "uint256"
        }
      ],
      "name": "Transfer",
      "type": "event"
    },
    {
      "inputs": [
        {
          "internalType": "address",
          "name": "to",
          "type": "address"
        },
        {
          "internalType": "uint256",
          "name": "tokenId",
          "type": "uint256"
        }
      ],
      "name": "approve",
      "outputs": [],
      "stateMutability": "nonpayable",
      "type": "function"
    },
    {
      "inputs": [
        {
          "internalType": "address",
          "name": "owner",
          "type": "address"
        }
      ],
      "name": "balanceOf",
      "outputs": [
        {
          "internalType": "uint256",
          "name": "",
          "type": "uint256"
        }
      ],
      "stateMutability": "view",
      "type": "function"
    },
    {
      "inputs": [],
      "name": "baseURI",
      "outputs": [
        {
          "internalType": "string",
          "name": "",
          "type": "string"
        }
      ],
      "stateMutability": "view",
      "type": "function"
    },
    {
      "inputs": [
        {
          "internalType": "bytes4",
          "name": "interfaceId",
          "type": "bytes4"
        },
        {
          "internalType": "string",
          "name": "message",
          "type": "string"
        }
      ],
      "name": "checkInterface",
      "outputs": [],
      "stateMutability": "view",
      "type": "function"
    },
    {
      "inputs": [
        {
          "internalType": "uint256",
          "name": "tokenId",
          "type": "uint256"
        }
      ],
      "name": "getApproved",
      "outputs": [
        {
          "internalType": "address",
          "name": "",
          "type": "address"
        }
      ],
      "stateMutability": "view",
      "type": "function"
    },
    {
      "inputs": [
        {
          "internalType": "address",
          "name": "owner",
          "type": "address"
        },
        {
          "internalType": "address",
          "name": "operator",
          "type": "address"
        }
      ],
      "name": "isApprovedForAll",
      "outputs": [
        {
          "internalType": "bool",
          "name": "",
          "type": "bool"
        }
      ],
      "stateMutability": "view",
      "type": "function"
    },
    {
      "inputs": [],
      "name": "name",
      "outputs": [
        {
          "internalType": "string",
          "name": "",
          "type": "string"
        }
      ],
      "stateMutability": "view",
      "type": "function"
    },
    {
      "inputs": [
        {
          "internalType": "uint256",
          "name": "tokenId",
          "type": "uint256"
        }
      ],
      "name": "ownerOf",
      "outputs": [
        {
          "internalType": "address",
          "name": "",
          "type": "address"
        }
      ],
      "stateMutability": "view",
      "type": "function"
    },
    {
      "inputs": [
        {
          "internalType": "address",
          "name": "from",
          "type": "address"
        },
        {
          "internalType": "address",
          "name": "to",
          "type": "address"
        },
        {
          "internalType": "uint256",
          "name": "tokenId",
          "type": "uint256"
        }
      ],
      "name": "safeTransferFrom",
      "outputs": [],
      "stateMutability": "nonpayable",
      "type": "function"
    },
    {
      "inputs": [
        {
          "internalType": "address",
          "name": "from",
          "type": "address"
        },
        {
          "internalType": "address",
          "name": "to",
          "type": "address"
        },
        {
          "internalType": "uint256",
          "name": "tokenId",
          "type": "uint256"
        },
        {
          "internalType": "bytes",
          "name": "_data",
          "type": "bytes"
        }
      ],
      "name": "safeTransferFrom",
      "outputs": [],
      "stateMutability": "nonpayable",
      "type": "function"
    },
    {
      "inputs": [
        {
          "internalType": "address",
          "name": "operator",
          "type": "address"
        },
        {
          "internalType": "bool",
          "name": "approved",
          "type": "bool"
        }
      ],
      "name": "setApprovalForAll",
      "outputs": [],
      "stateMutability": "nonpayable",
      "type": "function"
    },
    {
      "inputs": [
        {
          "internalType": "bytes4",
          "name": "interfaceId",
          "type": "bytes4"
        }
      ],
      "name": "supportsInterface",
      "outputs": [
        {
          "internalType": "bool",
          "name": "",
          "type": "bool"
        }
      ],
      "stateMutability": "view",
      "type": "function"
    },
    {
      "inputs": [],
      "name": "symbol",
      "outputs": [
        {
          "internalType": "string",
          "name": "",
          "type": "string"
        }
      ],
      "stateMutability": "view",
      "type": "function"
    },
    {
      "inputs": [
        {
          "internalType": "uint256",
          "name": "index",
          "type": "uint256"
        }
      ],
      "name": "tokenByIndex",
      "outputs": [
        {
          "internalType": "uint256",
          "name": "",
          "type": "uint256"
        }
      ],
      "stateMutability": "view",
      "type": "function"
    },
    {
      "inputs": [
        {
          "internalType": "address",
          "name": "owner",
          "type": "address"
        },
        {
          "internalType": "uint256",
          "name": "index",
          "type": "uint256"
        }
      ],
      "name": "tokenOfOwnerByIndex",
      "outputs": [
        {
          "internalType": "uint256",
          "name": "",
          "type": "uint256"
        }
      ],
      "stateMutability": "view",
      "type": "function"
    },
    {
      "inputs": [
        {
          "internalType": "uint256",
          "name": "tokenId",
          "type": "uint256"
        }
      ],
      "name": "tokenURI",
      "outputs": [
        {
          "internalType": "string",
          "name": "",
          "type": "string"
        }
      ],
      "stateMutability": "view",
      "type": "function"
    },
    {
      "inputs": [],
      "name": "totalSupply",
      "outputs": [
        {
          "internalType": "uint256",
          "name": "",
          "type": "uint256"
        }
      ],
      "stateMutability": "view",
      "type": "function"
    },
    {
      "inputs": [
        {
          "internalType": "address",
          "name": "from",
          "type": "address"
        },
        {
          "internalType": "address",
          "name": "to",
          "type": "address"
        },
        {
          "internalType": "uint256",
          "name": "tokenId",
          "type": "uint256"
        }
      ],
      "name": "transferFrom",
      "outputs": [],
      "stateMutability": "nonpayable",
      "type": "function"
    },
    {
      "inputs": [],
      "name": "initNFTs",
      "outputs": [],
      "stateMutability": "nonpayable",
      "type": "function"
    },
    {
      "inputs": [
        {
          "internalType": "uint256",
          "name": "tokenId",
          "type": "uint256"
        }
      ],
      "name": "mint",
      "outputs": [],
      "stateMutability": "nonpayable",
      "type": "function"
    },
    {
      "inputs": [
        {
          "internalType": "address",
          "name": "to",
          "type": "address"
        },
        {
          "internalType": "uint256",
          "name": "tokenId",
          "type": "uint256"
        },
        {
          "internalType": "string",
          "name": "_tokenURI",
          "type": "string"
        },
        {
          "internalType": "bytes",
          "name": "_data",
          "type": "bytes"
        }
      ],
      "name": "safeMintURI",
      "outputs": [],
      "stateMutability": "nonpayable",
      "type": "function"
    },
    {
      "inputs": [
        {
          "internalType": "address",
          "name": "to",
          "type": "address"
        },
        {
          "internalType": "uint256",
          "name": "tokenId",
          "type": "uint256"
        },
        {
          "internalType": "bytes",
          "name": "_data",
          "type": "bytes"
        }
      ],
      "name": "safeMint",
      "outputs": [],
      "stateMutability": "nonpayable",
      "type": "function"
    },
    {
      "inputs": [
        {
          "internalType": "uint256",
          "name": "tokenId",
          "type": "uint256"
        }
      ],
      "name": "burn",
      "outputs": [],
      "stateMutability": "nonpayable",
      "type": "function"
    },
    {
      "inputs": [
        {
          "internalType": "uint256",
          "name": "tokenId",
          "type": "uint256"
        },
        {
          "internalType": "string",
          "name": "_tokenURI",
          "type": "string"
        }
      ],
      "name": "setTokenURI",
      "outputs": [],
      "stateMutability": "nonpayable",
      "type": "function"
    },
    {
      "inputs": [
        {
          "internalType": "string",
          "name": "baseURI_",
          "type": "string"
        }
      ],
      "name": "setBaseURI",
      "outputs": [],
      "stateMutability": "nonpayable",
      "type": "function"
    },
    {
      "inputs": [
        {
          "internalType": "uint256",
          "name": "tokenId",
          "type": "uint256"
        }
      ],
      "name": "exists",
      "outputs": [
        {
          "internalType": "bool",
          "name": "",
          "type": "bool"
        }
      ],
      "stateMutability": "view",
      "type": "function"
    },
    {
      "inputs": [
        {
          "internalType": "address",
          "name": "spender",
          "type": "address"
        },
        {
          "internalType": "uint256",
          "name": "tokenId",
          "type": "uint256"
        }
      ],
      "name": "isApprovedOrOwner",
      "outputs": [
        {
          "internalType": "bool",
          "name": "",
          "type": "bool"
        }
      ],
      "stateMutability": "view",
      "type": "function"
    }
  ],
  "bytecode": "0x608060405234801561001057600080fd5b506126d5806100206000396000f3fe608060405234801561001057600080fd5b50600436106101a95760003560e01c80634f558e79116100f957806395d89b4111610097578063b88d4fde11610071578063b88d4fde146107ee578063c64df69d146108b2578063c87b56dd14610967578063e985e9c514610984576101a9565b806395d89b411461079b578063a0712d68146107a3578063a22cb465146107c0576101a9565b80636352211e116100d35780636352211e146106975780636c0360eb146106b457806370a08231146106bc5780638832e6e3146106e2576101a9565b80634f558e79146105b95780634f6ccce7146105d657806355f804b3146105f3576101a9565b806318160ddd116101665780633480f97a116101405780633480f97a1461053257806342842e0e1461053a57806342966c6814610570578063430c20811461058d576101a9565b806318160ddd146104b657806323b872dd146104d05780632f745c5914610506576101a9565b806301ffc9a7146101ae57806306fdde03146101e9578063081812fc14610266578063095ea7b31461029f5780630fa86d3d146102cd578063162094c41461040b575b600080fd5b6101d5600480360360208110156101c457600080fd5b50356001600160e01b0319166109b2565b604080519115158252519081900360200190f35b6101f16109d5565b6040805160208082528351818301528351919283929083019185019080838360005b8381101561022b578181015183820152602001610213565b50505050905090810190601f1680156102585780820380516001836020036101000a031916815260200191505b509250505060405180910390f35b6102836004803603602081101561027c57600080fd5b5035610a6b565b604080516001600160a01b039092168252519081900360200190f35b6102cb600480360360408110156102b557600080fd5b506001600160a01b038135169060200135610acd565b005b6102cb600480360360808110156102e357600080fd5b6001600160a01b0382351691602081013591810190606081016040820135600160201b81111561031257600080fd5b82018360208201111561032457600080fd5b803590602001918460018302840111600160201b8311171561034557600080fd5b91908080601f0160208091040260200160405190810160405280939291908181526020018383808284376000920191909152509295949360208101935035915050600160201b81111561039757600080fd5b8201836020820111156103a957600080fd5b803590602001918460018302840111600160201b831117156103ca57600080fd5b91908080601f016020809104026020016040519081016040528093929190818152602001838380828437600092019190915250929550610ba8945050505050565b6102cb6004803603604081101561042157600080fd5b81359190810190604081016020820135600160201b81111561044257600080fd5b82018360208201111561045457600080fd5b803590602001918460018302840111600160201b8311171561047557600080fd5b91908080601f016020809104026020016040519081016040528093929190818152602001838380828437600092019190915250929550610bce945050505050565b6104be610c3b565b60408051918252519081900360200190f35b6102cb600480360360608110156104e657600080fd5b506001600160a01b03813581169160208101359091169060400135610c4c565b6104be6004803603604081101561051c57600080fd5b506001600160a01b038135169060200135610cb3565b6102cb610cde565b6102cb6004803603606081101561055057600080fd5b506001600160a01b03813581169160208101359091169060400135610d2a565b6102cb6004803603602081101561058657600080fd5b5035610d45565b6101d5600480360360408110156105a357600080fd5b506001600160a01b038135169060200135610d51565b6101d5600480360360208110156105cf57600080fd5b5035610d5d565b6104be600480360360208110156105ec57600080fd5b5035610d68565b6102cb6004803603602081101561060957600080fd5b810190602081018135600160201b81111561062357600080fd5b82018360208201111561063557600080fd5b803590602001918460018302840111600160201b8311171561065657600080fd5b91908080601f016020809104026020016040519081016040528093929190818152602001838380828437600092019190915250929550610d7e945050505050565b610283600480360360208110156106ad57600080fd5b5035610d87565b6101f1610daf565b6104be600480360360208110156106d257600080fd5b50356001600160a01b0316610e10565b6102cb600480360360608110156106f857600080fd5b6001600160a01b0382351691602081013591810190606081016040820135600160201b81111561072757600080fd5b82018360208201111561073957600080fd5b803590602001918460018302840111600160201b8311171561075a57600080fd5b91908080601f016020809104026020016040519081016040528093929190818152602001838380828437600092019190915250929550610e78945050505050565b6101f1610e83565b6102cb600480360360208110156107b957600080fd5b5035610ee4565b6102cb600480360360408110156107d657600080fd5b506001600160a01b0381351690602001351515610eee565b6102cb6004803603608081101561080457600080fd5b6001600160a01b03823581169260208101359091169160408201359190810190608081016060820135600160201b81111561083e57600080fd5b82018360208201111561085057600080fd5b803590602001918460018302840111600160201b8311171561087157600080fd5b91908080601f016020809104026020016040519081016040528093929190818152602001838380828437600092019190915250929550610ff3945050505050565b6102cb600480360360408110156108c857600080fd5b6001600160e01b03198235169190810190604081016020820135600160201b8111156108f357600080fd5b82018360208201111561090557600080fd5b803590602001918460018302840111600160201b8311171561092657600080fd5b91908080601f01602080910402602001604051908101604052809392919081815260200183838082843760009201919091525092955061104b945050505050565b6101f16004803603602081101561097d57600080fd5b50356110de565b6101d56004803603604081101561099a57600080fd5b506001600160a01b03813581169160200135166110e9565b6001600160e01b0319811660009081526001602052604090205460ff165b919050565b60078054604080516020601f6002600019610100600188161502019095169490940493840181900481028201810190925282815260609390929091830182828015610a615780601f10610a3657610100808354040283529160200191610a61565b820191906000526020600020905b815481529060010190602001808311610a4457829003601f168201915b5050505050905090565b6000610a7682611117565b610ab15760405162461bcd60e51b815260040180806020018281038252602c815260200180612570602c913960400191505060405180910390fd5b506000908152600560205260409020546001600160a01b031690565b6000610ad882610d87565b9050806001600160a01b0316836001600160a01b03161415610b2b5760405162461bcd60e51b815260040180806020018281038252602181526020018061264e6021913960400191505060405180910390fd5b806001600160a01b0316610b3d611124565b6001600160a01b03161480610b5e5750610b5e81610b59611124565b6110e9565b610b995760405162461bcd60e51b81526004018080602001828103825260388152602001806124a26038913960400191505060405180910390fd5b610ba3838361112e565b505050565b610bb2338461119c565b610bbc83836112da565b610bc833858584610ff3565b50505050565b610bd661133d565b6001600160a01b0316610be883610d87565b6001600160a01b031614610c2d5760405162461bcd60e51b81526004018080602001828103825260218152602001806124da6021913960400191505060405180910390fd5b610c3782826112da565b5050565b6000610c476003611341565b905090565b610c5d610c57611124565b8261134c565b610c985760405162461bcd60e51b815260040180806020018281038252603181526020018061266f6031913960400191505060405180910390fd5b610ba3838383604051806020016040528060008152506113f0565b6001600160a01b0382166000908152600260205260408120610cd5908361153e565b90505b92915050565b610ce661154a565b610d28604051806040016040528060048152602001634e46547360e01b815250604051806040016040528060048152602001634e46547360e01b8152506115fb565b565b610ba383838360405180602001604052806000815250610ff3565b610d4e81611653565b50565b6000610cd5838361134c565b6000610cd882611117565b600080610d76600384611730565b509392505050565b610d4e8161174c565b6000610cd882604051806060016040528060298152602001612525602991396003919061175f565b600a8054604080516020601f6002600019610100600188161502019095169490940493840181900481028201810190925282815260609390929091830182828015610a615780601f10610a3657610100808354040283529160200191610a61565b60006001600160a01b038216610e575760405162461bcd60e51b815260040180806020018281038252602a8152602001806124fb602a913960400191505060405180910390fd5b6001600160a01b0382166000908152600260205260409020610cd890611341565b610ba3838383611776565b60088054604080516020601f6002600019610100600188161502019095169490940493840181900481028201810190925282815260609390929091830182828015610a615780601f10610a3657610100808354040283529160200191610a61565b610d4e338261119c565b610ef6611124565b6001600160a01b0316826001600160a01b03161415610f5c576040805162461bcd60e51b815260206004820152601960248201527f4552433732313a20617070726f766520746f2063616c6c657200000000000000604482015290519081900360640190fd5b8060066000610f69611124565b6001600160a01b03908116825260208083019390935260409182016000908120918716808252919093529120805460ff191692151592909217909155610fad611124565b6001600160a01b03167f17307eab39ab6107e8899845ad3d59bd9653f200f220920489ca2b5937696c318360405180821515815260200191505060405180910390a35050565b611004610ffe611124565b8361134c565b61103f5760405162461bcd60e51b815260040180806020018281038252603181526020018061266f6031913960400191505060405180910390fd5b610bc8848484846117c8565b611054826109b2565b8190610ba35760405162461bcd60e51b81526004018080602001828103825283818151815260200191508051906020019080838360005b838110156110a357818101518382015260200161108b565b50505050905090810190601f1680156110d05780820380516001836020036101000a031916815260200191505b509250505060405180910390fd5b6060610cd88261181b565b6001600160a01b03918216600090815260066020908152604080832093909416825291909152205460ff1690565b6000610cd8600383611ac2565b6000610c4761133d565b600081815260056020526040902080546001600160a01b0319166001600160a01b038416908117909155819061116382610d87565b6001600160a01b03167f8c5be1e5ebec7d5bd14f71427d1e84f3dd0314c0f7b2291e5b200ac8c7c3b92560405160405180910390a45050565b6001600160a01b0382166111f7576040805162461bcd60e51b815260206004820181905260248201527f4552433732313a206d696e7420746f20746865207a65726f2061646472657373604482015290519081900360640190fd5b61120081611117565b15611252576040805162461bcd60e51b815260206004820152601c60248201527f4552433732313a20746f6b656e20616c7265616479206d696e74656400000000604482015290519081900360640190fd5b61126e6000838360405180602001604052806000815250610bc8565b6001600160a01b03821660009081526002602052604090206112909082611ace565b5061129d60038284611ada565b5060405181906001600160a01b038416906000907fddf252ad1be2c89b69c2b068fc378daa952ba7f163c4a11628f55a4df523b3ef908290a45050565b6112e382611117565b61131e5760405162461bcd60e51b815260040180806020018281038252602c81526020018061259c602c913960400191505060405180910390fd5b60008281526009602090815260409091208251610ba39284019061232a565b3390565b6000610cd882611af0565b600061135782611117565b6113925760405162461bcd60e51b815260040180806020018281038252602c815260200180612476602c913960400191505060405180910390fd5b600061139d83610d87565b9050806001600160a01b0316846001600160a01b031614806113d85750836001600160a01b03166113cd84610a6b565b6001600160a01b0316145b806113e857506113e881856110e9565b949350505050565b836001600160a01b031661140383610d87565b6001600160a01b0316146114485760405162461bcd60e51b81526004018080602001828103825260298152602001806125f66029913960400191505060405180910390fd5b6001600160a01b03831661148d5760405162461bcd60e51b81526004018080602001828103825260248152602001806124526024913960400191505060405180910390fd5b61149984848484610bc8565b6114a460008361112e565b6001600160a01b03841660009081526002602052604090206114c69083611af4565b506001600160a01b03831660009081526002602052604090206114e99083611ace565b506114f660038385611ada565b5081836001600160a01b0316856001600160a01b03167fddf252ad1be2c89b69c2b068fc378daa952ba7f163c4a11628f55a4df523b3ef60405160405180910390a450505050565b6000610cd58383611b00565b600054610100900460ff16806115635750611563611b64565b80611571575060005460ff16155b6115ac5760405162461bcd60e51b815260040180806020018281038252602e8152602001806125c8602e913960400191505060405180910390fd5b600054610100900460ff161580156115d7576000805460ff1961ff0019909116610100171660011790555b6115e76301ffc9a760e01b611b6a565b8015610d4e576000805461ff001916905550565b815161160e90600790602085019061232a565b50805161162290600890602084019061232a565b506116336380ac58cd60e01b611bf1565b611643635b5e139f60e01b611bf1565b610c3763780e9d6360e01b611bf1565b600061165e82610d87565b905061167c8160008460405180602001604052806000815250610bc8565b61168760008361112e565b60008281526009602052604090205460026000196101006001841615020190911604156116c55760008281526009602052604081206116c5916123a8565b6001600160a01b03811660009081526002602052604090206116e79083611af4565b506116f3600383611bfa565b5060405182906000906001600160a01b038416907fddf252ad1be2c89b69c2b068fc378daa952ba7f163c4a11628f55a4df523b3ef908390a45050565b600080808061173f8686611c06565b9097909650945050505050565b8051610c3790600a90602084019061232a565b600061176c848484611c81565b90505b9392505050565b611780838361119c565b61178d6000848484611d0e565b610ba35760405162461bcd60e51b81526004018080602001828103825260328152602001806124206032913960400191505060405180910390fd5b6117d4848484846113f0565b6117e084848484611d0e565b610bc85760405162461bcd60e51b81526004018080602001828103825260328152602001806124206032913960400191505060405180910390fd5b606061182682611117565b6118615760405162461bcd60e51b815260040180806020018281038252602f81526020018061261f602f913960400191505060405180910390fd5b60008281526009602090815260409182902080548351601f60026000196101006001861615020190931692909204918201849004840281018401909452808452606093928301828280156118f65780601f106118cb576101008083540402835291602001916118f6565b820191906000526020600020905b8154815290600101906020018083116118d957829003601f168201915b5050600a549394505050506002600019610100600184161502019091160461191f5790506109d0565b8051156119f057600a8160405160200180838054600181600116156101000203166002900480156119875780601f10611965576101008083540402835291820191611987565b820191906000526020600020905b815481529060010190602001808311611973575b5050825160208401908083835b602083106119b35780518252601f199092019160209182019101611994565b6001836020036101000a038019825116818451168082178552505050505050905001925050506040516020818303038152906040529150506109d0565b600a6119fb84611e5b565b6040516020018083805460018160011615610100020316600290048015611a595780601f10611a37576101008083540402835291820191611a59565b820191906000526020600020905b815481529060010190602001808311611a45575b5050825160208401908083835b60208310611a855780518252601f199092019160209182019101611a66565b6001836020036101000a03801982511681845116808217855250505050505090500192505050604051602081830303815290604052915050919050565b6000610cd58383611f36565b6000610cd58383611f4e565b600061176c84846001600160a01b038516611f98565b5490565b6000610cd5838361202f565b81546000908210611b425760405162461bcd60e51b81526004018080602001828103825260228152602001806123fe6022913960400191505060405180910390fd5b826000018281548110611b5157fe5b9060005260206000200154905092915050565b303b1590565b6001600160e01b03198082161415611bc9576040805162461bcd60e51b815260206004820152601c60248201527f4552433136353a20696e76616c696420696e7465726661636520696400000000604482015290519081900360640190fd5b6001600160e01b0319166000908152600160208190526040909120805460ff19169091179055565b610d4e81611b6a565b6000610cd583836120f5565b815460009081908310611c4a5760405162461bcd60e51b815260040180806020018281038252602281526020018061254e6022913960400191505060405180910390fd5b6000846000018481548110611c5b57fe5b906000526020600020906002020190508060000154816001015492509250509250929050565b60008281526001840160205260408120548281611cdf5760405162461bcd60e51b81526020600482018181528351602484015283519092839260449091019190850190808383600083156110a357818101518382015260200161108b565b50846000016001820381548110611cf257fe5b9060005260206000209060020201600101549150509392505050565b6000611d22846001600160a01b03166121c9565b611d2e575060016113e8565b6060630a85bd0160e11b611d40611124565b87868660405160240180856001600160a01b03168152602001846001600160a01b0316815260200183815260200180602001828103825283818151815260200191508051906020019080838360005b83811015611da7578181015183820152602001611d8f565b50505050905090810190601f168015611dd45780820380516001836020036101000a031916815260200191505b5095505050505050604051602081830303815290604052906001600160e01b0319166020820180516001600160e01b038381831617835250505050905063150b7a0260e01b6001600160e01b031916611e46868360405180606001604052806032815260200161242060329139612202565b6001600160e01b031916149695505050505050565b606081611e8057506040805180820190915260018152600360fc1b60208201526109d0565b8160005b8115611e9857600101600a82049150611e84565b60608167ffffffffffffffff81118015611eb157600080fd5b506040519080825280601f01601f191660200182016040528015611edc576020820181803683370190505b50859350905060001982015b8315611f2d57600a840660300160f81b82828060019003935081518110611f0b57fe5b60200101906001600160f81b031916908160001a905350600a84049350611ee8565b50949350505050565b60009081526001919091016020526040902054151590565b6000611f5a8383611f36565b611f9057508154600181810184556000848152602080822090930184905584548482528286019093526040902091909155610cd8565b506000610cd8565b600082815260018401602052604081205480611ffd57505060408051808201825283815260208082018481528654600181810189556000898152848120955160029093029095019182559151908201558654868452818801909252929091205561176f565b8285600001600183038154811061201057fe5b906000526020600020906002020160010181905550600091505061176f565b600081815260018301602052604081205480156120eb578354600019808301919081019060009087908390811061206257fe5b906000526020600020015490508087600001848154811061207f57fe5b6000918252602080832090910192909255828152600189810190925260409020908401905586548790806120af57fe5b60019003818190600052602060002001600090559055866001016000878152602001908152602001600020600090556001945050505050610cd8565b6000915050610cd8565b600081815260018301602052604081205480156120eb578354600019808301919081019060009087908390811061212857fe5b906000526020600020906002020190508087600001848154811061214857fe5b60009182526020808320845460029093020191825560019384015491840191909155835482528983019052604090209084019055865487908061218757fe5b6000828152602080822060026000199094019384020182815560019081018390559290935588815289820190925260408220919091559450610cd89350505050565b6000813f7fc5d2460186f7233c927e7db2dcc703c0e500b653ca82273b7bfad8045d85a4708181148015906113e8575050151592915050565b6000806060856001600160a01b0316856040518082805190602001908083835b602083106122415780518252601f199092019160209182019101612222565b6001836020036101000a0380198251168184511680821785525050505050509050019150506000604051808303816000865af19150503d80600081146122a3576040519150601f19603f3d011682016040523d82523d6000602084013e6122a8565b606091505b509150915081612309578051156122c25780518082602001fd5b60405162461bcd60e51b81526020600482018181528651602484015286518793919283926044019190850190808383600083156110a357818101518382015260200161108b565b80806020019051602081101561231e57600080fd5b5051925061176f915050565b828054600181600116156101000203166002900490600052602060002090601f016020900481019282601f1061236b57805160ff1916838001178555612398565b82800160010185558215612398579182015b8281111561239857825182559160200191906001019061237d565b506123a49291506123e8565b5090565b50805460018160011615610100020316600290046000825580601f106123ce5750610d4e565b601f016020900490600052602060002090810190610d4e91905b5b808211156123a457600081556001016123e956fe456e756d657261626c655365743a20696e646578206f7574206f6620626f756e64734552433732313a207472616e7366657220746f206e6f6e20455243373231526563656976657220696d706c656d656e7465724552433732313a207472616e7366657220746f20746865207a65726f20616464726573734552433732313a206f70657261746f7220717565727920666f72206e6f6e6578697374656e7420746f6b656e4552433732313a20617070726f76652063616c6c6572206973206e6f74206f776e6572206e6f7220617070726f76656420666f7220616c6c234e46547323736574546f6b656e5552493a206f776e6572206e6f206d617463684552433732313a2062616c616e636520717565727920666f7220746865207a65726f20616464726573734552433732313a206f776e657220717565727920666f72206e6f6e6578697374656e7420746f6b656e456e756d657261626c654d61703a20696e646578206f7574206f6620626f756e64734552433732313a20617070726f76656420717565727920666f72206e6f6e6578697374656e7420746f6b656e4552433732314d657461646174613a2055524920736574206f66206e6f6e6578697374656e7420746f6b656e436f6e747261637420696e7374616e63652068617320616c7265616479206265656e20696e697469616c697a65644552433732313a207472616e73666572206f6620746f6b656e2074686174206973206e6f74206f776e4552433732314d657461646174613a2055524920717565727920666f72206e6f6e6578697374656e7420746f6b656e4552433732313a20617070726f76616c20746f2063757272656e74206f776e65724552433732313a207472616e736665722063616c6c6572206973206e6f74206f776e6572206e6f7220617070726f766564a26469706673582212205c4c33bfc21906bdc125e5c89a21abf2550318078dac67e0d847180f4d9ace9d64736f6c634300060c0033",
  "immutableReferences": {},
  "source": "\npragma solidity >=0.6.0 <=0.8.15;\n\nimport \"./ERC721.sol\";\nimport \"./ERC165.sol\";\n\ncontract NFTs is ERC165, ERC721_Base {\n\n\tfunction initNFTs() external {\n\t\tinitERC165();\n\t\tinitERC721_Base(\"NFTs\", \"NFTs\");\n\t}\n\n\tfunction mint(uint256 tokenId) public {\n\t\t_mint(msg.sender, tokenId);\n\t}\n\n\tfunction safeMintURI(address to, uint256 tokenId, string memory _tokenURI, bytes memory _data) public {\n\t\t_mint(msg.sender, tokenId);\n\t\t_setTokenURI(tokenId, _tokenURI);\n\t\tsafeTransferFrom(msg.sender, to, tokenId, _data);\n\t}\n\n\tfunction safeMint(address to, uint256 tokenId, bytes memory _data) public {\n\t\t_safeMint(to, tokenId, _data);\n\t}\n\n\tfunction burn(uint256 tokenId) public {\n\t\t_burn(tokenId);\n\t}\n\n\tfunction setTokenURI(uint256 tokenId, string memory _tokenURI) public {\n\t\trequire(ownerOf(tokenId) == _msgSender(), \"#NFTs#setTokenURI: owner no match\");\n\t\t_setTokenURI(tokenId, _tokenURI);\n\t}\n\n\tfunction setBaseURI(string memory baseURI_) public {\n\t\t_setBaseURI(baseURI_);\n\t}\n\n\tfunction exists(uint256 tokenId) view public returns (bool) {\n\t\treturn _exists(tokenId);\n\t}\n\n\tfunction isApprovedOrOwner(address spender, uint256 tokenId) view public returns (bool) {\n\t\treturn _isCanTransfer(spender, tokenId);\n\t}\n\n\tfunction _msgSender721() internal view virtual override returns (address) {\n\t\treturn super._msgSender();\n\t}\n\n\tfunction _msgData721() internal view virtual override returns (bytes memory) {\n\t\treturn super._msgData();\n\t}\n\n\tfunction _registerInterface721(bytes4 interfaceId) internal virtual override {\n\t\tsuper._registerInterface(interfaceId);\n\t}\n\n}\n",
  "sourcePath": "/Users/louis/Project/hc/NFTSwap/SmartHolder/contracts/NFTs.sol",
  "compiler": {
    "name": "solc",
    "version": "0.6.12+commit.27d51765.Emscripten.clang"
  },
  "schemaVersion": "3.4.8",
  "updatedAt": "2022-07-18T02:00:04.322Z",
  "devdoc": {
    "kind": "dev",
    "methods": {
      "approve(address,uint256)": {
        "details": "Approves another address to transfer the given token ID The zero address indicates there is no approved address. There can only be one approved address per token at a given time. Can only be called by the token owner or an approved operator.",
        "params": {
          "to": "address to be approved for the given token ID",
          "tokenId": "uint256 ID of the token to be approved"
        }
      },
      "balanceOf(address)": {
        "details": "Gets the balance of the specified address.",
        "params": {
          "owner": "address to query the balance of"
        },
        "returns": {
          "_0": "uint256 representing the amount owned by the passed address"
        }
      },
      "baseURI()": {
        "details": "Returns the base URI set via {_setBaseURI}. This will be automatically added as a prefix in {tokenURI} to each token's URI, or to the token ID if no specific URI is set for that token ID."
      },
      "getApproved(uint256)": {
        "details": "Gets the approved address for a token ID, or zero if no address set Reverts if the token ID does not exist.",
        "params": {
          "tokenId": "uint256 ID of the token to query the approval of"
        },
        "returns": {
          "_0": "address currently approved for the given token ID"
        }
      },
      "isApprovedForAll(address,address)": {
        "details": "Tells whether an operator is approved by a given owner.",
        "params": {
          "operator": "operator address which you want to query the approval of",
          "owner": "owner address which you want to query the approval of"
        },
        "returns": {
          "_0": "bool whether the given operator is approved by the given owner"
        }
      },
      "name()": {
        "details": "Gets the token name.",
        "returns": {
          "_0": "string representing the token name"
        }
      },
      "ownerOf(uint256)": {
        "details": "Gets the owner of the specified token ID.",
        "params": {
          "tokenId": "uint256 ID of the token to query the owner of"
        },
        "returns": {
          "_0": "address currently marked as the owner of the given token ID"
        }
      },
      "safeTransferFrom(address,address,uint256)": {
        "details": "Safely transfers the ownership of a given token ID to another address If the target address is a contract, it must implement {IERC721Receiver-onERC721Received}, which is called upon a safe transfer, and return the magic value `bytes4(keccak256(\"onERC721Received(address,address,uint256,bytes)\"))`; otherwise, the transfer is reverted. Requires the msg.sender to be the owner, approved, or operator",
        "params": {
          "from": "current owner of the token",
          "to": "address to receive the ownership of the given token ID",
          "tokenId": "uint256 ID of the token to be transferred"
        }
      },
      "safeTransferFrom(address,address,uint256,bytes)": {
        "details": "Safely transfers the ownership of a given token ID to another address If the target address is a contract, it must implement {IERC721Receiver-onERC721Received}, which is called upon a safe transfer, and return the magic value `bytes4(keccak256(\"onERC721Received(address,address,uint256,bytes)\"))`; otherwise, the transfer is reverted. Requires the _msgSender() to be the owner, approved, or operator",
        "params": {
          "_data": "bytes data to send along with a safe transfer check",
          "from": "current owner of the token",
          "to": "address to receive the ownership of the given token ID",
          "tokenId": "uint256 ID of the token to be transferred"
        }
      },
      "setApprovalForAll(address,bool)": {
        "details": "Sets or unsets the approval of a given operator An operator is allowed to transfer all tokens of the sender on their behalf.",
        "params": {
          "approved": "representing the status of the approval to be set",
          "operator": "operator address to set the approval"
        }
      },
      "supportsInterface(bytes4)": {
        "details": "See {IERC165-supportsInterface}. Time complexity O(1), guaranteed to always use less than 30 000 gas."
      },
      "symbol()": {
        "details": "Gets the token symbol.",
        "returns": {
          "_0": "string representing the token symbol"
        }
      },
      "tokenByIndex(uint256)": {
        "details": "Gets the token ID at a given index of all the tokens in this contract Reverts if the index is greater or equal to the total number of tokens.",
        "params": {
          "index": "uint256 representing the index to be accessed of the tokens list"
        },
        "returns": {
          "_0": "uint256 token ID at the given index of the tokens list"
        }
      },
      "tokenOfOwnerByIndex(address,uint256)": {
        "details": "Gets the token ID at a given index of the tokens list of the requested owner.",
        "params": {
          "index": "uint256 representing the index to be accessed of the requested tokens list",
          "owner": "address owning the tokens list to be accessed"
        },
        "returns": {
          "_0": "uint256 token ID at the given index of the tokens list owned by the requested address"
        }
      },
      "totalSupply()": {
        "details": "Gets the total amount of tokens stored by the contract.",
        "returns": {
          "_0": "uint256 representing the total amount of tokens"
        }
      },
      "transferFrom(address,address,uint256)": {
        "details": "Transfers the ownership of a given token ID to another address. Usage of this method is discouraged, use {safeTransferFrom} whenever possible. Requires the msg.sender to be the owner, approved, or operator.",
        "params": {
          "from": "current owner of the token",
          "to": "address to receive the ownership of the given token ID",
          "tokenId": "uint256 ID of the token to be transferred"
        }
      }
    },
    "version": 1
  },
  "userdoc": {
    "kind": "user",
    "methods": {},
    "version": 1
  }
}