{
  "contractName": "VotePool",
  "abi": [
    {
      "anonymous": false,
      "inputs": [
        {
          "indexed": false,
          "internalType": "uint256",
          "name": "id",
          "type": "uint256"
        }
      ],
      "name": "Close",
      "type": "event"
    },
    {
      "anonymous": false,
      "inputs": [
        {
          "indexed": false,
          "internalType": "uint256",
          "name": "",
          "type": "uint256"
        }
      ],
      "name": "Created",
      "type": "event"
    },
    {
      "anonymous": false,
      "inputs": [
        {
          "indexed": true,
          "internalType": "uint256",
          "name": "id",
          "type": "uint256"
        }
      ],
      "name": "Execute",
      "type": "event"
    },
    {
      "anonymous": false,
      "inputs": [
        {
          "indexed": true,
          "internalType": "uint256",
          "name": "id",
          "type": "uint256"
        },
        {
          "indexed": false,
          "internalType": "uint256",
          "name": "member",
          "type": "uint256"
        },
        {
          "indexed": false,
          "internalType": "int256",
          "name": "votes",
          "type": "int256"
        }
      ],
      "name": "Vote",
      "type": "event"
    },
    {
      "inputs": [
        {
          "internalType": "bytes4",
          "name": "interfaceId",
          "type": "bytes4"
        },
        {
          "internalType": "string",
          "name": "message",
          "type": "string"
        }
      ],
      "name": "checkInterface",
      "outputs": [],
      "stateMutability": "view",
      "type": "function",
      "constant": true
    },
    {
      "inputs": [
        {
          "internalType": "bytes4",
          "name": "interfaceId",
          "type": "bytes4"
        }
      ],
      "name": "supportsInterface",
      "outputs": [
        {
          "internalType": "bool",
          "name": "",
          "type": "bool"
        }
      ],
      "stateMutability": "view",
      "type": "function",
      "constant": true
    },
    {
      "inputs": [
        {
          "internalType": "address",
          "name": "host",
          "type": "address"
        },
        {
          "internalType": "string",
          "name": "describe",
          "type": "string"
        }
      ],
      "name": "initVotePool",
      "outputs": [],
      "stateMutability": "nonpayable",
      "type": "function"
    },
    {
      "inputs": [],
      "name": "host",
      "outputs": [
        {
          "internalType": "contract IDAO",
          "name": "",
          "type": "address"
        }
      ],
      "stateMutability": "view",
      "type": "function",
      "constant": true
    },
    {
      "inputs": [],
      "name": "describe",
      "outputs": [
        {
          "internalType": "string",
          "name": "",
          "type": "string"
        }
      ],
      "stateMutability": "view",
      "type": "function",
      "constant": true
    },
    {
      "inputs": [],
      "name": "current",
      "outputs": [
        {
          "internalType": "uint256",
          "name": "",
          "type": "uint256"
        }
      ],
      "stateMutability": "view",
      "type": "function",
      "constant": true
    },
    {
      "inputs": [
        {
          "internalType": "uint256",
          "name": "id",
          "type": "uint256"
        }
      ],
      "name": "getProposal",
      "outputs": [
        {
          "components": [
            {
              "internalType": "uint256",
              "name": "id",
              "type": "uint256"
            },
            {
              "internalType": "string",
              "name": "name",
              "type": "string"
            },
            {
              "internalType": "string",
              "name": "info",
              "type": "string"
            },
            {
              "internalType": "address",
              "name": "target",
              "type": "address"
            },
            {
              "internalType": "uint256",
              "name": "lifespan",
              "type": "uint256"
            },
            {
              "internalType": "uint256",
              "name": "expiry",
              "type": "uint256"
            },
            {
              "internalType": "uint256",
              "name": "voteRate",
              "type": "uint256"
            },
            {
              "internalType": "uint256",
              "name": "passRate",
              "type": "uint256"
            },
            {
              "internalType": "int256",
              "name": "loop",
              "type": "int256"
            },
            {
              "internalType": "uint256",
              "name": "loopTime",
              "type": "uint256"
            },
            {
              "internalType": "uint256",
              "name": "voteTotal",
              "type": "uint256"
            },
            {
              "internalType": "uint256",
              "name": "agreeTotal",
              "type": "uint256"
            },
            {
              "internalType": "uint256",
              "name": "executeTime",
              "type": "uint256"
            },
            {
              "internalType": "uint256",
              "name": "idx",
              "type": "uint256"
            },
            {
              "internalType": "bool",
              "name": "isAgree",
              "type": "bool"
            },
            {
              "internalType": "bool",
              "name": "isClose",
              "type": "bool"
            },
            {
              "internalType": "bool",
              "name": "isExecuted",
              "type": "bool"
            },
            {
              "internalType": "bytes",
              "name": "data",
              "type": "bytes"
            }
          ],
          "internalType": "struct IVotePool.Proposal",
          "name": "",
          "type": "tuple"
        }
      ],
      "stateMutability": "view",
      "type": "function",
      "constant": true
    },
    {
      "inputs": [
        {
          "internalType": "uint256",
          "name": "id",
          "type": "uint256"
        }
      ],
      "name": "exists",
      "outputs": [
        {
          "internalType": "bool",
          "name": "",
          "type": "bool"
        }
      ],
      "stateMutability": "view",
      "type": "function",
      "constant": true
    },
    {
      "inputs": [
        {
          "components": [
            {
              "internalType": "uint256",
              "name": "id",
              "type": "uint256"
            },
            {
              "internalType": "string",
              "name": "name",
              "type": "string"
            },
            {
              "internalType": "string",
              "name": "info",
              "type": "string"
            },
            {
              "internalType": "address",
              "name": "target",
              "type": "address"
            },
            {
              "internalType": "uint256",
              "name": "lifespan",
              "type": "uint256"
            },
            {
              "internalType": "uint256",
              "name": "expiry",
              "type": "uint256"
            },
            {
              "internalType": "uint256",
              "name": "voteRate",
              "type": "uint256"
            },
            {
              "internalType": "uint256",
              "name": "passRate",
              "type": "uint256"
            },
            {
              "internalType": "int256",
              "name": "loop",
              "type": "int256"
            },
            {
              "internalType": "uint256",
              "name": "loopTime",
              "type": "uint256"
            },
            {
              "internalType": "uint256",
              "name": "voteTotal",
              "type": "uint256"
            },
            {
              "internalType": "uint256",
              "name": "agreeTotal",
              "type": "uint256"
            },
            {
              "internalType": "uint256",
              "name": "executeTime",
              "type": "uint256"
            },
            {
              "internalType": "uint256",
              "name": "idx",
              "type": "uint256"
            },
            {
              "internalType": "bool",
              "name": "isAgree",
              "type": "bool"
            },
            {
              "internalType": "bool",
              "name": "isClose",
              "type": "bool"
            },
            {
              "internalType": "bool",
              "name": "isExecuted",
              "type": "bool"
            },
            {
              "internalType": "bytes",
              "name": "data",
              "type": "bytes"
            }
          ],
          "internalType": "struct IVotePool.Proposal",
          "name": "proposal",
          "type": "tuple"
        }
      ],
      "name": "create",
      "outputs": [],
      "stateMutability": "nonpayable",
      "type": "function"
    },
    {
      "inputs": [
        {
          "internalType": "uint256",
          "name": "id",
          "type": "uint256"
        },
        {
          "internalType": "uint256",
          "name": "member",
          "type": "uint256"
        },
        {
          "internalType": "int256",
          "name": "votes",
          "type": "int256"
        }
      ],
      "name": "vote",
      "outputs": [],
      "stateMutability": "nonpayable",
      "type": "function"
    },
    {
      "inputs": [
        {
          "internalType": "uint256",
          "name": "id",
          "type": "uint256"
        }
      ],
      "name": "tryClose",
      "outputs": [],
      "stateMutability": "nonpayable",
      "type": "function"
    },
    {
      "inputs": [
        {
          "internalType": "uint256",
          "name": "id",
          "type": "uint256"
        }
      ],
      "name": "execute",
      "outputs": [],
      "stateMutability": "nonpayable",
      "type": "function"
    },
    {
      "inputs": [],
      "name": "total",
      "outputs": [
        {
          "internalType": "uint256",
          "name": "",
          "type": "uint256"
        }
      ],
      "stateMutability": "view",
      "type": "function",
      "constant": true
    }
  ],
  "bytecode": "0x608060405234801561001057600080fd5b506120a0806100206000396000f3fe608060405234801561001057600080fd5b50600436106100cf5760003560e01c80632ddbd13a1161008c578063c64df69d11610066578063c64df69d14610190578063c7f758a8146101a3578063f437bc59146101c3578063fe0d94c1146101d8576100cf565b80632ddbd13a146101605780634f558e79146101755780639fa6a6e314610188576100cf565b806301ffc9a7146100d45780630ddf27bf146100fd5780631ad184ff146101125780631c9e551c1461012757806320b7c3171461013a5780632b84a9461461014d575b600080fd5b6100e76100e2366004611584565b6101eb565b6040516100f49190611955565b60405180910390f35b61011061010b366004611536565b61020a565b005b61011a6102b8565b6040516100f491906119d7565b610110610135366004611832565b61034e565b610110610148366004611862565b610550565b61011061015b3660046116ba565b6108c8565b610168610c1e565b6040516100f49190611fad565b6100e7610183366004611832565b610c24565b610168610c3e565b61011061019e3660046115a0565b610c44565b6101b66101b1366004611832565b610c6c565b6040516100f49190611e70565b6101cb610f48565b6040516100f491906119c3565b6101106101e6366004611832565b610f57565b6001600160e01b03191660009081526001602052604090205460ff1690565b61021261106e565b610222630ddf27bf60e01b611101565b60405163c64df69d60e01b81526001600160a01b0383169063c64df69d90610255906363daa99b60e11b90600401611960565b60006040518083038186803b15801561026d57600080fd5b505afa158015610281573d6000803e3d6000fd5b5050600280546001600160a01b0319166001600160a01b038616179055505080516102b390600390602084019061123d565b505050565b60038054604080516020601f60026000196101006001881615020190951694909404938401819004810282018101909252828152606093909290918301828280156103445780601f1061031957610100808354040283529160200191610344565b820191906000526020600020905b81548152906001019060200180831161032757829003601f168201915b5050505050905090565b600061035982611153565b600e810154909150610100900460ff161561038f5760405162461bcd60e51b815260040161038690611bcd565b60405180910390fd5b600254604080516338fdad5160e21b815290516000926001600160a01b03169163e3f6b544916004808301926020929190829003018186803b1580156103d457600080fd5b505afa1580156103e8573d6000803e3d6000fd5b505050506040513d601f19601f8201168201806040525081019061040c9190611513565b6001600160a01b031663e168c3ec6040518163ffffffff1660e01b815260040160206040518083038186803b15801561044457600080fd5b505afa158015610458573d6000803e3d6000fd5b505050506040513d601f19601f8201168201806040525081019061047c919061184a565b905081600501546000141580156104965750428260050154105b156104b157600e8201805461ff001916610100179055610502565b81600601548183600a015461271002816104c757fe5b04111561050257600b820154816127108202816104e057fe5b04111561050257600e8201805460ff1961ff0019909116610100171660011790555b600e820154610100900460ff16156102b3577fbf67515a38ee520223d32c1266d52101c30d936ed1f3e436c8caeb0a43cb06bf836040516105439190611fad565b60405180910390a1505050565b600061055b84611153565b90506105656112bb565b600260009054906101000a90046001600160a01b03166001600160a01b031663e3f6b5446040518163ffffffff1660e01b815260040160206040518083038186803b1580156105b357600080fd5b505afa1580156105c7573d6000803e3d6000fd5b505050506040513d601f19601f820116820180604052508101906105eb9190611513565b6001600160a01b0316631a3cd59a856040518263ffffffff1660e01b81526004016106169190611fad565b60006040518083038186803b15801561062e57600080fd5b505afa158015610642573d6000803e3d6000fd5b505050506040513d6000823e601f3d908101601f1916820160405261066a91908101906115bd565b9050821561068a5760405162461bcd60e51b815260040161038690611d38565b600e820154610100900460ff16156106b45760405162461bcd60e51b815260040161038690611e2b565b600254604080516338fdad5160e21b8152905133926001600160a01b03169163e3f6b544916004808301926020929190829003018186803b1580156106f857600080fd5b505afa15801561070c573d6000803e3d6000fd5b505050506040513d601f19601f820116820180604052508101906107309190611513565b6001600160a01b0316636352211e866040518263ffffffff1660e01b815260040161075b9190611fad565b60206040518083038186803b15801561077357600080fd5b505afa158015610787573d6000803e3d6000fd5b505050506040513d601f19601f820116820180604052508101906107ab9190611513565b6001600160a01b0316146107d15760405162461bcd60e51b815260040161038690611a32565b6000858152600760209081526040808320878452909152902054156108085760405162461bcd60e51b815260040161038690611c16565b8060a0015163ffffffff1661081c8461118c565b111561083a5760405162461bcd60e51b815260040161038690611a73565b6000858152600760209081526040808320878452909152902083905561085f8361118c565b600a830180549091019055600083131561087e57600b82018054840190555b847f1ad6cbfa9912ec69279a6634788918d5c8e0236b45609178636427bee8756ed785856040516108b0929190611fb6565b60405180910390a26108c18561034e565b5050505050565b80516108d390610c24565b156108f05760405162461bcd60e51b8152600401610386906119ea565b6113888160c00151116109155760405162461bcd60e51b815260040161038690611afb565b6113888160e001511161093a5760405162461bcd60e51b815260040161038690611afb565b600260009054906101000a90046001600160a01b03166001600160a01b031663e3f6b5446040518163ffffffff1660e01b815260040160206040518083038186803b15801561098857600080fd5b505afa15801561099c573d6000803e3d6000fd5b505050506040513d601f19601f820116820180604052508101906109c09190611513565b6001600160a01b0316632f745c593360006040518363ffffffff1660e01b81526004016109ee92919061193c565b60206040518083038186803b158015610a0657600080fd5b505afa158015610a1a573d6000803e3d6000fd5b505050506040513d601f19601f82011682018060405250810190610a3e919061184a565b610a5a5760405162461bcd60e51b815260040161038690611cac565b8051600090815260056020526040902061010082015115610a9b57603c8261012001511015610a9b5760405162461bcd60e51b815260040161038690611dce565b815181556020808301518051610ab7926001850192019061123d565b5060408201518051610ad391600284019160209091019061123d565b5060608201516003820180546001600160a01b0319166001600160a01b039092169190911790556102208201518051610b1691600f84019160209091019061123d565b50608082015160048201819055603c024201600582015560c082015161271010610b44578160c00151610b48565b6127105b600682015560e082015161271010610b64578160e00151610b68565b6127105b6007820155610100820151600882015561012082015160098201556000600a8201819055600b8201819055600c820181905560068054600d840155600e8301805462ffffff1916905583518154600181018355919092527ff652222313e28459528d920b65115c16c04f3efc82aaedc97be59f3f377c0d3f015581516040517f06acbfb32bcf8383f3b0a768b70ac9ec234ea0f2d3b9c77fa6a2de69b919aad191610c1291611fad565b60405180910390a15050565b60065490565b600654600091825260056020526040909120600d01541090565b60045490565b610c4d826101eb565b81906102b35760405162461bcd60e51b815260040161038691906119d7565b610c7461130f565b610c7d82610c24565b610c995760405162461bcd60e51b815260040161038690611b87565b600560008381526020019081526020016000206040518061024001604052908160008201548152602001600182018054600181600116156101000203166002900480601f016020809104026020016040519081016040528092919081815260200182805460018160011615610100020316600290048015610d5b5780601f10610d3057610100808354040283529160200191610d5b565b820191906000526020600020905b815481529060010190602001808311610d3e57829003601f168201915b5050509183525050600282810180546040805160206001841615610100026000190190931694909404601f81018390048302850183019091528084529381019390830182828015610ded5780601f10610dc257610100808354040283529160200191610ded565b820191906000526020600020905b815481529060010190602001808311610dd057829003601f168201915b505050918352505060038201546001600160a01b031660208083019190915260048301546040808401919091526005840154606084015260068401546080840152600784015460a0840152600884015460c0840152600984015460e0840152600a84015461010080850191909152600b850154610120850152600c850154610140850152600d850154610160850152600e85015460ff8082161515610180870152828204811615156101a0870152620100009091041615156101c0850152600f850180548351600260018316159094026000190190911692909204601f81018590048502830185019093528282526101e0909401939092909190830182828015610f385780601f10610f0d57610100808354040283529160200191610f38565b820191906000526020600020905b815481529060010190602001808311610f1b57829003601f168201915b5050505050815250509050919050565b6002546001600160a01b031690565b6000610f6282611153565b600e81015490915060ff16610f895760405162461bcd60e51b815260040161038690611cef565b600e81015462010000900460ff1615610fb45760405162461bcd60e51b815260040161038690611aaa565b60088101541561101c5742816009015482600c01540110610fe75760405162461bcd60e51b815260040161038690611c5b565b60008160080154131561100e57610ffd816111a6565b600881018054600019019055611017565b611017816111a6565b611039565b611025816111a6565b600e8101805462ff00001916620100001790555b42600c82015560405182907fddb556f1d2c1ec821e910b019d3685b229db152a0ecd517ca7e24b8bd713928990600090a25050565b600054610100900460ff16806110875750611087611237565b80611095575060005460ff16155b6110b15760405162461bcd60e51b815260040161038690611d80565b600054610100900460ff161580156110dc576000805460ff1961ff0019909116610100171660011790555b6110ec6301ffc9a760e01b611101565b80156110fe576000805461ff00191690555b50565b6001600160e01b0319808216141561112b5760405162461bcd60e51b815260040161038690611b50565b6001600160e01b0319166000908152600160208190526040909120805460ff19169091179055565b600061115e82610c24565b61117a5760405162461bcd60e51b815260040161038690611b87565b50600090815260056020526040902090565b600080821261119b57816111a0565b816000035b92915050565b805460045560038101546040516000916060916001600160a01b039091169034906111d590600f8701906118cc565b60006040518083038185875af1925050503d8060008114611212576040519150601f19603f3d011682016040523d82523d6000602084013e611217565b606091505b5060006004558051919350915060208201838015611233578282f35b8282fd5b303b1590565b828054600181600116156101000203166002900490600052602060002090601f016020900481019282601f1061127e57805160ff19168380011785556112ab565b828001600101855582156112ab579182015b828111156112ab578251825591602001919060010190611290565b506112b79291506113a9565b5090565b604051806101000160405280600081526020016060815260200160608152602001606081526020016000808111156112ef57fe5b8152600060208201819052604082015260600161130a6113be565b905290565b60405180610240016040528060008152602001606081526020016060815260200160006001600160a01b0316815260200160008152602001600081526020016000815260200160008152602001600081526020016000815260200160008152602001600081526020016000815260200160008152602001600015158152602001600015158152602001600015158152602001606081525090565b5b808211156112b757600081556001016113aa565b60405180604001604052806002906020820280368337509192915050565b80356111a08161203f565b600082601f8301126113f7578081fd5b6114016040611fc4565b905080828460408501111561141557600080fd5b60005b6002811015611437578151835260209283019290910190600101611418565b50505092915050565b803580151581146111a057600080fd5b600082601f830112611460578081fd5b813561147361146e82611feb565b611fc4565b915080825283602082850101111561148a57600080fd5b8060208401602084013760009082016020015292915050565b8051600181106111a057600080fd5b600082601f8301126114c2578081fd5b81516114d061146e82611feb565b91508082528360208285010111156114e757600080fd5b6114f881602084016020860161200f565b5092915050565b805163ffffffff811681146111a057600080fd5b600060208284031215611524578081fd5b815161152f8161203f565b9392505050565b60008060408385031215611548578081fd5b82356115538161203f565b9150602083013567ffffffffffffffff81111561156e578182fd5b61157a85828601611450565b9150509250929050565b600060208284031215611595578081fd5b813561152f81612054565b600080604083850312156115b2578182fd5b823561155381612054565b6000602082840312156115ce578081fd5b815167ffffffffffffffff808211156115e5578283fd5b9083019061012082860312156115f9578283fd5b611604610100611fc4565b82518152602083015182811115611619578485fd5b611625878286016114b2565b60208301525060408301518281111561163c578485fd5b611648878286016114b2565b60408301525060608301518281111561165f578485fd5b61166b878286016114b2565b60608301525061167e86608085016114a3565b60808201526116908660a085016114ff565b60a082015260c083015160c08201526116ac8660e085016113e7565b60e082015295945050505050565b6000602082840312156116cb578081fd5b813567ffffffffffffffff808211156116e2578283fd5b81840191506102408083870312156116f8578384fd5b61170181611fc4565b905082358152602083013582811115611718578485fd5b61172487828601611450565b60208301525060408301358281111561173b578485fd5b61174787828601611450565b60408301525061175a86606085016113dc565b60608201526080838101359082015260a0808401359082015260c0808401359082015260e08084013590820152610100808401359082015261012080840135908201526101408084013590820152610160808401359082015261018080840135908201526101a080840135908201526101c06117d887828601611440565b908201526101e06117eb87858301611440565b908201526102006117fe87858301611440565b908201526102208381013583811115611815578586fd5b61182188828701611450565b918301919091525095945050505050565b600060208284031215611843578081fd5b5035919050565b60006020828403121561185b578081fd5b5051919050565b600080600060608486031215611876578081fd5b505081359360208301359350604090920135919050565b6001600160a01b03169052565b15159052565b600081518084526118b881602086016020860161200f565b601f01601f19169290920160200192915050565b60008083546001808216600081146118eb576001811461190257611931565b60ff198316865260028304607f1686019350611931565b600283048786526020808720875b838110156119295781548a820152908501908201611910565b505050860193505b509195945050505050565b6001600160a01b03929092168252602082015260400190565b901515815260200190565b6001600160e01b03199190911681526040602082018190526030908201527f234465706172746d656e7423696e6974566f7465506f6f6c2064616f20686f7360608201526f0e840e8f2e0ca40dcdee840dac2e8c6d60831b608082015260a00190565b6001600160a01b0391909116815260200190565b60006020825261152f60208301846118a0565b60208082526028908201527f23566f7465506f6f6c236372656174652070726f706f73616c20616c72656164604082015267792065786973747360c01b606082015260800190565b60208082526021908201527f23566f7465506f6f6c23766f7465204e6f2063616c6c207065726d697373696f6040820152603760f91b606082015260800190565b6020808252601b908201527f23566f7465506f6f6c23766f746520566f74696e67206c696d69740000000000604082015260600190565b60208082526031908201527f23566f7465506f6f6c2365786563757465205265736f6c7574696f6e20686173604082015270081899595b881a5b5c1b195b595b9d1959607a1b606082015260800190565b60208082526035908201527f23566f7465506f6f6c236372656174652070726f706f73616c20766f74652072604082015274617465206e6f74206c657373207468616e2035302560581b606082015260800190565b6020808252601c908201527f4552433136353a20696e76616c696420696e7465726661636520696400000000604082015260600190565b60208082526026908201527f23566f7465506f6f6c2370726f706f73616c2070726f706f73616c206e6f742060408201526565786973747360d01b606082015260800190565b60208082526029908201527f23566f7465506f6f6c23747279436c6f736520566f74696e6720686173206265604082015268195b8818db1bdcd95960ba1b606082015260800190565b60208082526025908201527f23566f7465506f6f6c23766f74652043616e6e6f7420766f74652072657065616040820152647465646c7960d81b606082015260800190565b60208082526031908201527f23566f7465506f6f6c236578656375746520457865637574696f6e20696e74656040820152701c9d985b081a5cc81d1bdbc81cda1bdc9d607a1b606082015260800190565b60208082526023908201527f23566f7465506f6f6c23637265617465204e6f2063616c6c207065726d69737360408201526234b7b760e91b606082015260800190565b60208082526029908201527f23566f7465506f6f6c23657865637574652050726f706f73616c20776173206e6040820152681bdd081c185cdcd95960ba1b606082015260800190565b60208082526028908201527f23566f7465506f6f6c23766f746520706172616d65746572206572726f722c206040820152670766f7465733d3d360c41b606082015260800190565b6020808252602e908201527f436f6e747261637420696e7374616e63652068617320616c726561647920626560408201526d195b881a5b9a5d1a585b1a5e995960921b606082015260800190565b60208082526038908201527f23566f7465506f6f6c23637265617465204c6f6f702074696d65206d7573742060408201527f62652067726561746572207468616e2031206d696e7574650000000000000000606082015260800190565b60208082526025908201527f23566f7465506f6f6c23766f746520566f74696e6720686173206265656e20636040820152641b1bdcd95960da1b606082015260800190565b600060208252825160208301526020830151610240806040850152611e996102608501836118a0565b91506040850151601f1980868503016060870152611eb784836118a0565b935060608701519150611ecd608087018361188d565b608087015160a08781019190915287015160c08088019190915287015160e08088019190915287015161010080880191909152870151610120808801919091528701516101408088019190915287015161016080880191909152870151610180808801919091528701516101a0808801919091528701516101c08088019190915287015191506101e0611f628188018461189a565b8701519150610200611f768782018461189a565b8701519150610220611f8a8782018461189a565b870151868503909101838701529050611fa383826118a0565b9695505050505050565b90815260200190565b918252602082015260400190565b60405181810167ffffffffffffffff81118282101715611fe357600080fd5b604052919050565b600067ffffffffffffffff821115612001578081fd5b50601f01601f191660200190565b60005b8381101561202a578181015183820152602001612012565b83811115612039576000848401525b50505050565b6001600160a01b03811681146110fe57600080fd5b6001600160e01b0319811681146110fe57600080fdfea26469706673582212203a55b13de4aca8bc4479c2fbd1329218d21c2d3bc4f979b82c02798f2b2a998064736f6c634300060c0033",
  "immutableReferences": {},
  "source": "\npragma solidity >=0.6.0 <=0.8.15;\n\npragma experimental ABIEncoderV2;\n\nimport \"./Interface.sol\";\nimport \"./ERC165.sol\";\nimport \"../openzeppelin/contracts-ethereum-package/contracts/math/SafeMath.sol\";\nimport \"../openzeppelin/contracts-ethereum-package/contracts/utils/Address.sol\";\n\ncontract VotePool is IVotePool, ERC165 {\n\tusing Address for address;\n\tusing SafeMath for uint256;\n\n\tbytes4 internal constant DAO_ID = 0xc7b55336;\n\tbytes4 internal constant VotePool_ID = 0x0ddf27bf;\n\n\t// define events\n\tevent Created(uint256);\n\tevent Vote(uint256 indexed id, uint256 member, int256 votes);\n\tevent Close(uint256 id);\n\tevent Execute(uint256 indexed id);\n\n\t// define props\n\tIDAO private _host;\n\tstring private _describe;\n\tuint256 private _current; // \n\t// proposal id => Proposal\n\tmapping(uint256 => Proposal) private _proposalMap; // \n\tuint256[] private _proposalList; // \n\t// proposal id => map( member id => votes )\n\tmapping(uint256 => mapping(uint256 => int256)) private _votes; // \n\n\tfunction initVotePool(address host, string memory describe) external {\n\t\tinitERC165();\n\t\t_registerInterface(VotePool_ID);\n\n\t\tIDAO(host).checkInterface(DAO_ID, \"#Department#initVotePool dao host type not match\");\n\t\t_host = IDAO(host);\n\t\t_describe = describe;\n\t}\n\n\tfunction host() view external returns (IDAO) {\n\t\treturn _host;\n\t}\n\n\tfunction describe() view external returns (string memory) {\n\t\treturn _describe;\n\t}\n\n\tfunction current() view public returns (uint256) {\n\t\treturn _current;\n\t}\n\n\tfunction getProposal(uint256 id) view public returns (Proposal memory) {\n\t\trequire(exists(id), \"#VotePool#proposal proposal not exists\");\n\t\treturn _proposalMap[id];\n\t}\n\n\tfunction proposal(uint256 id) private returns (Proposal storage) {\n\t\trequire(exists(id), \"#VotePool#proposal proposal not exists\");\n\t\treturn _proposalMap[id];\n\t}\n\n\tfunction exists(uint256 id) view public returns (bool) {\n\t\treturn _proposalMap[id].idx < _proposalList.length;\n\t}\n\n\tfunction create(Proposal memory proposal) external {\n\n\t\trequire(!exists(proposal.id), \"#VotePool#create proposal already exists\");\n\n\t\trequire(proposal.voteRate > 5000, \"#VotePool#create proposal vote rate not less than 50%\");\n\t\trequire(proposal.passRate > 5000, \"#VotePool#create proposal vote rate not less than 50%\");\n\t\trequire(_host.member().tokenOfOwnerByIndex(msg.sender, 0) != 0, \"#VotePool#create No call permission\");\n\n\t\tProposal storage obj = _proposalMap[proposal.id];\n\n\t\tif (proposal.loop != 0) {\n\t\t\trequire(proposal.loopTime >= 1 minutes, \"#VotePool#create Loop time must be greater than 1 minute\");\n\t\t}\n\n\t\tobj.id = proposal.id;\n\t\tobj.name = proposal.name;\n\t\tobj.info = proposal.info;\n\t\tobj.target = proposal.target;\n\t\t// obj.signature = proposal.signature;\n\t\tobj.data = proposal.data;\n\t\tobj.lifespan = proposal.lifespan;\n\t\tobj.expiry = block.timestamp + (proposal.lifespan * 1 minutes);\n\t\tobj.voteRate = proposal.voteRate > 10000 ? 10000: proposal.voteRate;\n\t\tobj.passRate = proposal.passRate > 10000 ? 10000: proposal.passRate;\n\t\tobj.loop = proposal.loop;\n\t\tobj.loopTime = proposal.loopTime;\n\t\tobj.voteTotal = 0;\n\t\tobj.agreeTotal = 0;\n\t\tobj.executeTime = 0;\n\t\tobj.idx = _proposalList.length;\n\t\tobj.isAgree = false;\n\t\tobj.isClose = false;\n\t\tobj.isExecuted = false;\n\n\t\t_proposalList.push(proposal.id);\n\n\t\temit Created(proposal.id);\n\t}\n\n\tfunction abs(int256 value) pure internal returns (uint256) {\n\t\treturn value < 0 ? uint256(-value): uint256(value);\n\t}\n\n\tfunction vote(uint256 id, uint256 member, int256 votes) external {\n\t\tProposal storage obj = proposal(id);\n\t\tIMember.Info memory info = _host.member().getInfo(member);\n\n\t\trequire(votes == 0, \"#VotePool#vote parameter error, votes==0\");\n\t\trequire(!obj.isClose, \"#VotePool#vote Voting has been closed\");\n\t\trequire(_host.member().ownerOf(member) == msg.sender, \"#VotePool#vote No call permission\");\n\t\trequire(_votes[id][member] == 0, \"#VotePool#vote Cannot vote repeatedly\");\n\t\trequire(abs(votes) <= info.votes, \"#VotePool#vote Voting limit\");\n\n\t\t_votes[id][member] = votes;\n\n\t\tobj.voteTotal += abs(votes);\n\n\t\tif (votes > 0) {\n\t\t\tobj.agreeTotal += uint256(votes);\n\t\t}\n\n\t\temit Vote(id, member, votes);\n\n\t\ttryClose(id); // try close\n\t}\n\n\t/**\n\t* @dev try close proposal\n\t*/\n\tfunction tryClose(uint256 id) public override {\n\t\tProposal storage obj = proposal(id);\n\n\t\trequire(!obj.isClose, \"#VotePool#tryClose Voting has been closed\");\n\n\t\tuint256 votes = _host.member().votes();\n\n\t\t// is expiry\n\t\tif (obj.expiry != 0 && obj.expiry < block.timestamp) {\n\t\t\tobj.isClose = true; //\n\t\t} else {\n\t\t\tif (obj.voteTotal * 10000 / votes > obj.voteRate) { // test voteTotal\n\t\t\t\tif (obj.agreeTotal * 10000 / votes > obj.agreeTotal) { // test agreeTotal\n\t\t\t\t\t// complete\n\t\t\t\t\tobj.isClose = true;\n\t\t\t\t\tobj.isAgree = true;\n\t\t\t\t}\n\t\t\t}\n\t\t}\n\n\t\tif (obj.isClose) {\n\t\t\temit Close(id);\n\t\t}\n\t}\n\n\tfunction execute(uint256 id) public {\n\t\tProposal storage obj = proposal(id);\n\n\t\trequire(obj.isAgree, \"#VotePool#execute Proposal was not passed\");\n\t\trequire(!obj.isExecuted, \"#VotePool#execute Resolution has been implemented\");\n\n\t\tif (obj.loop != 0) {\n\t\t\trequire(obj.executeTime + obj.loopTime < block.timestamp, \"#VotePool#execute Execution interval is too short\");\n\t\t\tif (obj.loop > 0) {\n\t\t\t\texecCall(obj);\n\t\t\t\tobj.loop--;\n\t\t\t} else { // permanent loop\n\t\t\t\texecCall(obj);\n\t\t\t}\n\t\t} else { // execute once\n\t\t\texecCall(obj);\n\t\t\tobj.isExecuted = true;\n\t\t}\n\n\t\tobj.executeTime = block.timestamp;\n\n\t\temit Execute(id);\n\t}\n\n\tfunction execCall(Proposal storage obj) internal {\n\t\t_current = obj.id;\n\t\t(bool suc, bytes memory _data) = obj.target.call{ value: msg.value }(obj.data);\n\t\t_current = 0;\n\t\tassembly {\n\t\t\tlet len := mload(_data)\n\t\t\tlet data := add(_data, 0x20)\n\t\t\tswitch suc\n\t\t\tcase 0 { revert(data, len) }\n\t\t\tdefault { return(data, len) }\n\t\t}\n\t}\n\n\tfunction total() view public returns (uint256) {\n\t\treturn _proposalList.length;\n\t}\n\n}",
  "sourcePath": "/Users/louis/Project/hc/NFTSwap/SmartHolder/contracts/VotePool.sol",
  "compiler": {
    "name": "solc",
    "version": "0.6.12+commit.27d51765.Emscripten.clang"
  },
  "schemaVersion": "3.4.8",
  "updatedAt": "2022-07-18T02:17:43.341Z",
  "networkType": "ethereum",
  "devdoc": {
    "kind": "dev",
    "methods": {
      "supportsInterface(bytes4)": {
        "details": "See {IERC165-supportsInterface}. Time complexity O(1), guaranteed to always use less than 30 000 gas."
      },
      "tryClose(uint256)": {
        "details": "try close proposal"
      }
    },
    "version": 1
  },
  "userdoc": {
    "kind": "user",
    "methods": {},
    "version": 1
  }
}