{
  "contractName": "VotePool",
  "abi": [
    {
      "anonymous": false,
      "inputs": [
        {
          "indexed": false,
          "internalType": "uint256",
          "name": "id",
          "type": "uint256"
        }
      ],
      "name": "Close",
      "type": "event"
    },
    {
      "anonymous": false,
      "inputs": [
        {
          "indexed": false,
          "internalType": "uint256",
          "name": "",
          "type": "uint256"
        }
      ],
      "name": "Created",
      "type": "event"
    },
    {
      "anonymous": false,
      "inputs": [
        {
          "indexed": true,
          "internalType": "uint256",
          "name": "id",
          "type": "uint256"
        }
      ],
      "name": "Execute",
      "type": "event"
    },
    {
      "anonymous": false,
      "inputs": [
        {
          "indexed": true,
          "internalType": "uint256",
          "name": "id",
          "type": "uint256"
        },
        {
          "indexed": false,
          "internalType": "uint256",
          "name": "member",
          "type": "uint256"
        },
        {
          "indexed": false,
          "internalType": "int256",
          "name": "votes",
          "type": "int256"
        }
      ],
      "name": "Vote",
      "type": "event"
    },
    {
      "inputs": [
        {
          "internalType": "bytes4",
          "name": "interfaceId",
          "type": "bytes4"
        },
        {
          "internalType": "string",
          "name": "message",
          "type": "string"
        }
      ],
      "name": "checkInterface",
      "outputs": [],
      "stateMutability": "view",
      "type": "function"
    },
    {
      "inputs": [
        {
          "internalType": "bytes4",
          "name": "interfaceId",
          "type": "bytes4"
        }
      ],
      "name": "supportsInterface",
      "outputs": [
        {
          "internalType": "bool",
          "name": "",
          "type": "bool"
        }
      ],
      "stateMutability": "view",
      "type": "function"
    },
    {
      "inputs": [
        {
          "internalType": "address",
          "name": "host",
          "type": "address"
        },
        {
          "internalType": "string",
          "name": "description",
          "type": "string"
        }
      ],
      "name": "initVotePool",
      "outputs": [],
      "stateMutability": "nonpayable",
      "type": "function"
    },
    {
      "inputs": [],
      "name": "host",
      "outputs": [
        {
          "internalType": "contract IDAO",
          "name": "",
          "type": "address"
        }
      ],
      "stateMutability": "view",
      "type": "function"
    },
    {
      "inputs": [],
      "name": "description",
      "outputs": [
        {
          "internalType": "string",
          "name": "",
          "type": "string"
        }
      ],
      "stateMutability": "view",
      "type": "function"
    },
    {
      "inputs": [],
      "name": "current",
      "outputs": [
        {
          "internalType": "uint256",
          "name": "",
          "type": "uint256"
        }
      ],
      "stateMutability": "view",
      "type": "function"
    },
    {
      "inputs": [
        {
          "internalType": "uint256",
          "name": "id",
          "type": "uint256"
        }
      ],
      "name": "getProposal",
      "outputs": [
        {
          "components": [
            {
              "internalType": "uint256",
              "name": "id",
              "type": "uint256"
            },
            {
              "internalType": "string",
              "name": "name",
              "type": "string"
            },
            {
              "internalType": "string",
              "name": "description",
              "type": "string"
            },
            {
              "internalType": "address",
              "name": "origin",
              "type": "address"
            },
            {
              "internalType": "address",
              "name": "target",
              "type": "address"
            },
            {
              "internalType": "uint256",
              "name": "lifespan",
              "type": "uint256"
            },
            {
              "internalType": "uint256",
              "name": "expiry",
              "type": "uint256"
            },
            {
              "internalType": "uint256",
              "name": "voteRate",
              "type": "uint256"
            },
            {
              "internalType": "uint256",
              "name": "passRate",
              "type": "uint256"
            },
            {
              "internalType": "int256",
              "name": "loop",
              "type": "int256"
            },
            {
              "internalType": "uint256",
              "name": "loopTime",
              "type": "uint256"
            },
            {
              "internalType": "uint256",
              "name": "voteTotal",
              "type": "uint256"
            },
            {
              "internalType": "uint256",
              "name": "agreeTotal",
              "type": "uint256"
            },
            {
              "internalType": "uint256",
              "name": "executeTime",
              "type": "uint256"
            },
            {
              "internalType": "uint256",
              "name": "idx",
              "type": "uint256"
            },
            {
              "internalType": "bool",
              "name": "isAgree",
              "type": "bool"
            },
            {
              "internalType": "bool",
              "name": "isClose",
              "type": "bool"
            },
            {
              "internalType": "bool",
              "name": "isExecuted",
              "type": "bool"
            },
            {
              "internalType": "bytes",
              "name": "data",
              "type": "bytes"
            }
          ],
          "internalType": "struct IVotePool.Proposal",
          "name": "",
          "type": "tuple"
        }
      ],
      "stateMutability": "view",
      "type": "function"
    },
    {
      "inputs": [
        {
          "internalType": "uint256",
          "name": "id",
          "type": "uint256"
        }
      ],
      "name": "exists",
      "outputs": [
        {
          "internalType": "bool",
          "name": "",
          "type": "bool"
        }
      ],
      "stateMutability": "view",
      "type": "function"
    },
    {
      "inputs": [
        {
          "components": [
            {
              "internalType": "uint256",
              "name": "id",
              "type": "uint256"
            },
            {
              "internalType": "string",
              "name": "name",
              "type": "string"
            },
            {
              "internalType": "string",
              "name": "description",
              "type": "string"
            },
            {
              "internalType": "address",
              "name": "origin",
              "type": "address"
            },
            {
              "internalType": "address",
              "name": "target",
              "type": "address"
            },
            {
              "internalType": "uint256",
              "name": "lifespan",
              "type": "uint256"
            },
            {
              "internalType": "uint256",
              "name": "expiry",
              "type": "uint256"
            },
            {
              "internalType": "uint256",
              "name": "voteRate",
              "type": "uint256"
            },
            {
              "internalType": "uint256",
              "name": "passRate",
              "type": "uint256"
            },
            {
              "internalType": "int256",
              "name": "loop",
              "type": "int256"
            },
            {
              "internalType": "uint256",
              "name": "loopTime",
              "type": "uint256"
            },
            {
              "internalType": "uint256",
              "name": "voteTotal",
              "type": "uint256"
            },
            {
              "internalType": "uint256",
              "name": "agreeTotal",
              "type": "uint256"
            },
            {
              "internalType": "uint256",
              "name": "executeTime",
              "type": "uint256"
            },
            {
              "internalType": "uint256",
              "name": "idx",
              "type": "uint256"
            },
            {
              "internalType": "bool",
              "name": "isAgree",
              "type": "bool"
            },
            {
              "internalType": "bool",
              "name": "isClose",
              "type": "bool"
            },
            {
              "internalType": "bool",
              "name": "isExecuted",
              "type": "bool"
            },
            {
              "internalType": "bytes",
              "name": "data",
              "type": "bytes"
            }
          ],
          "internalType": "struct IVotePool.Proposal",
          "name": "proposal",
          "type": "tuple"
        }
      ],
      "name": "create",
      "outputs": [],
      "stateMutability": "nonpayable",
      "type": "function"
    },
    {
      "inputs": [
        {
          "internalType": "uint256",
          "name": "id",
          "type": "uint256"
        },
        {
          "internalType": "uint256",
          "name": "member",
          "type": "uint256"
        },
        {
          "internalType": "int256",
          "name": "votes",
          "type": "int256"
        }
      ],
      "name": "vote",
      "outputs": [],
      "stateMutability": "nonpayable",
      "type": "function"
    },
    {
      "inputs": [
        {
          "internalType": "uint256",
          "name": "id",
          "type": "uint256"
        }
      ],
      "name": "tryClose",
      "outputs": [],
      "stateMutability": "nonpayable",
      "type": "function"
    },
    {
      "inputs": [
        {
          "internalType": "uint256",
          "name": "id",
          "type": "uint256"
        }
      ],
      "name": "execute",
      "outputs": [],
      "stateMutability": "nonpayable",
      "type": "function"
    },
    {
      "inputs": [],
      "name": "total",
      "outputs": [
        {
          "internalType": "uint256",
          "name": "",
          "type": "uint256"
        }
      ],
      "stateMutability": "view",
      "type": "function"
    }
  ],
  "bytecode": "0x608060405234801561001057600080fd5b5061210e806100206000396000f3fe608060405234801561001057600080fd5b50600436106100cf5760003560e01c80634f558e791161008c578063c64df69d11610066578063c64df69d14610190578063c7f758a8146101a3578063f437bc59146101c3578063fe0d94c1146101d8576100cf565b80634f558e79146101605780637284e416146101735780639fa6a6e314610188576100cf565b806301ffc9a7146100d45780630ddf27bf146100fd5780631c9e551c1461011257806320b7c317146101255780632ddbd13a146101385780633261e10b1461014d575b600080fd5b6100e76100e23660046115ca565b6101eb565b6040516100f491906119ae565b60405180910390f35b61011061010b36600461157c565b61020a565b005b61011061012036600461188b565b6102b8565b6101106101333660046118bb565b6104ba565b610140610832565b6040516100f4919061201b565b61011061015b366004611700565b610838565b6100e761016e36600461188b565b610b9d565b61017b610bb7565b6040516100f49190611a30565b610140610c4d565b61011061019e3660046115e6565b610c53565b6101b66101b136600461188b565b610c7b565b6040516100f49190611ec9565b6101cb610f67565b6040516100f49190611a1c565b6101106101e636600461188b565b610f76565b6001600160e01b03191660009081526001602052604090205460ff1690565b61021261108d565b610222630ddf27bf60e01b611137565b60405163c64df69d60e01b81526001600160a01b0383169063c64df69d90610255906363daa99b60e11b906004016119b9565b60006040518083038186803b15801561026d57600080fd5b505afa158015610281573d6000803e3d6000fd5b5050600280546001600160a01b0319166001600160a01b038616179055505080516102b3906003906020840190611273565b505050565b60006102c382611189565b600f810154909150610100900460ff16156102f95760405162461bcd60e51b81526004016102f090611c26565b60405180910390fd5b600254604080516338fdad5160e21b815290516000926001600160a01b03169163e3f6b544916004808301926020929190829003018186803b15801561033e57600080fd5b505afa158015610352573d6000803e3d6000fd5b505050506040513d601f19601f820116820180604052508101906103769190611559565b6001600160a01b031663e168c3ec6040518163ffffffff1660e01b815260040160206040518083038186803b1580156103ae57600080fd5b505afa1580156103c2573d6000803e3d6000fd5b505050506040513d601f19601f820116820180604052508101906103e691906118a3565b905081600601546000141580156104005750428260060154105b1561041b57600f8201805461ff00191661010017905561046c565b81600701548183600b0154612710028161043157fe5b04111561046c57600c8201548161271082028161044a57fe5b04111561046c57600f8201805460ff1961ff0019909116610100171660011790555b600f820154610100900460ff16156102b3577fbf67515a38ee520223d32c1266d52101c30d936ed1f3e436c8caeb0a43cb06bf836040516104ad919061201b565b60405180910390a1505050565b60006104c584611189565b90506104cf6112f1565b600260009054906101000a90046001600160a01b03166001600160a01b031663e3f6b5446040518163ffffffff1660e01b815260040160206040518083038186803b15801561051d57600080fd5b505afa158015610531573d6000803e3d6000fd5b505050506040513d601f19601f820116820180604052508101906105559190611559565b6001600160a01b0316631a3cd59a856040518263ffffffff1660e01b8152600401610580919061201b565b60006040518083038186803b15801561059857600080fd5b505afa1580156105ac573d6000803e3d6000fd5b505050506040513d6000823e601f3d908101601f191682016040526105d49190810190611603565b905082156105f45760405162461bcd60e51b81526004016102f090611d91565b600f820154610100900460ff161561061e5760405162461bcd60e51b81526004016102f090611e84565b600254604080516338fdad5160e21b8152905133926001600160a01b03169163e3f6b544916004808301926020929190829003018186803b15801561066257600080fd5b505afa158015610676573d6000803e3d6000fd5b505050506040513d601f19601f8201168201806040525081019061069a9190611559565b6001600160a01b0316636352211e866040518263ffffffff1660e01b81526004016106c5919061201b565b60206040518083038186803b1580156106dd57600080fd5b505afa1580156106f1573d6000803e3d6000fd5b505050506040513d601f19601f820116820180604052508101906107159190611559565b6001600160a01b03161461073b5760405162461bcd60e51b81526004016102f090611a8b565b6000858152600760209081526040808320878452909152902054156107725760405162461bcd60e51b81526004016102f090611c6f565b8060a0015163ffffffff16610786846111c2565b11156107a45760405162461bcd60e51b81526004016102f090611acc565b600085815260076020908152604080832087845290915290208390556107c9836111c2565b600b83018054909101905560008313156107e857600c82018054840190555b847f1ad6cbfa9912ec69279a6634788918d5c8e0236b45609178636427bee8756ed7858560405161081a929190612024565b60405180910390a261082b856102b8565b5050505050565b60065490565b805161084390610b9d565b156108605760405162461bcd60e51b81526004016102f090611a43565b6113888160e00151116108855760405162461bcd60e51b81526004016102f090611b54565b611388816101000151116108ab5760405162461bcd60e51b81526004016102f090611b54565b600260009054906101000a90046001600160a01b03166001600160a01b031663e3f6b5446040518163ffffffff1660e01b815260040160206040518083038186803b1580156108f957600080fd5b505afa15801561090d573d6000803e3d6000fd5b505050506040513d601f19601f820116820180604052508101906109319190611559565b6001600160a01b0316632f745c593360006040518363ffffffff1660e01b815260040161095f929190611995565b60206040518083038186803b15801561097757600080fd5b505afa15801561098b573d6000803e3d6000fd5b505050506040513d601f19601f820116820180604052508101906109af91906118a3565b6109cb5760405162461bcd60e51b81526004016102f090611d05565b8051600090815260056020526040902061012082015115610a0c57603c8261014001511015610a0c5760405162461bcd60e51b81526004016102f090611e27565b815181556020808301518051610a289260018501920190611273565b5060408201518051610a44916002840191602090910190611273565b5060808201516004820180546001600160a01b039092166001600160a01b0319928316179055600382018054909116331790556102408201518051610a93916010840191602090910190611273565b5060a082015160058201819055603c024201600682015560e082015161271010610ac1578160e00151610ac5565b6127105b600782015561010082015161271010610ae357816101000151610ae7565b6127105b60088201556101208201516009820155610140820151600a8201556000600b8201819055600c8201819055600d820181905560068054600e840155600f8301805462ffffff1916905583518154600181018355919092527ff652222313e28459528d920b65115c16c04f3efc82aaedc97be59f3f377c0d3f015581516040517f06acbfb32bcf8383f3b0a768b70ac9ec234ea0f2d3b9c77fa6a2de69b919aad191610b919161201b565b60405180910390a15050565b600654600091825260056020526040909120600e01541090565b60038054604080516020601f6002600019610100600188161502019095169490940493840181900481028201810190925282815260609390929091830182828015610c435780601f10610c1857610100808354040283529160200191610c43565b820191906000526020600020905b815481529060010190602001808311610c2657829003601f168201915b5050505050905090565b60045490565b610c5c826101eb565b81906102b35760405162461bcd60e51b81526004016102f09190611a30565b610c83611345565b610c8c82610b9d565b610ca85760405162461bcd60e51b81526004016102f090611be0565b600560008381526020019081526020016000206040518061026001604052908160008201548152602001600182018054600181600116156101000203166002900480601f016020809104026020016040519081016040528092919081815260200182805460018160011615610100020316600290048015610d6a5780601f10610d3f57610100808354040283529160200191610d6a565b820191906000526020600020905b815481529060010190602001808311610d4d57829003601f168201915b5050509183525050600282810180546040805160206001841615610100026000190190931694909404601f81018390048302850183019091528084529381019390830182828015610dfc5780601f10610dd157610100808354040283529160200191610dfc565b820191906000526020600020905b815481529060010190602001808311610ddf57829003601f168201915b505050918352505060038201546001600160a01b0390811660208084019190915260048401549091166040808401919091526005840154606084015260068401546080840152600784015460a0840152600884015460c0840152600984015460e0840152600a84015461010080850191909152600b850154610120850152600c850154610140850152600d850154610160850152600e850154610180850152600f85015460ff80821615156101a0870152828204811615156101c0870152620100009091041615156101e08501526010850180548351600260018316159094026000190190911692909204601f8101859004850283018501909352828252610200909401939092909190830182828015610f575780601f10610f2c57610100808354040283529160200191610f57565b820191906000526020600020905b815481529060010190602001808311610f3a57829003601f168201915b5050505050815250509050919050565b6002546001600160a01b031690565b6000610f8182611189565b600f81015490915060ff16610fa85760405162461bcd60e51b81526004016102f090611d48565b600f81015462010000900460ff1615610fd35760405162461bcd60e51b81526004016102f090611b03565b60098101541561103b574281600a015482600d015401106110065760405162461bcd60e51b81526004016102f090611cb4565b60008160090154131561102d5761101c816111dc565b600981018054600019019055611036565b611036816111dc565b611058565b611044816111dc565b600f8101805462ff00001916620100001790555b42600d82015560405182907fddb556f1d2c1ec821e910b019d3685b229db152a0ecd517ca7e24b8bd713928990600090a25050565b600054600160a81b900460ff16806110a857506110a861126d565b806110bd5750600054600160a01b900460ff16155b6110d95760405162461bcd60e51b81526004016102f090611dd9565b600054600160a81b900460ff16158015611110576000805460ff60a01b1960ff60a81b19909116600160a81b1716600160a01b1790555b6111206301ffc9a760e01b611137565b8015611134576000805460ff60a81b191690555b50565b6001600160e01b031980821614156111615760405162461bcd60e51b81526004016102f090611ba9565b6001600160e01b0319166000908152600160208190526040909120805460ff19169091179055565b600061119482610b9d565b6111b05760405162461bcd60e51b81526004016102f090611be0565b50600090815260056020526040902090565b60008082126111d157816111d6565b816000035b92915050565b805460049081558101546040516000916060916001600160a01b0390911690349061120b906010870190611925565b60006040518083038185875af1925050503d8060008114611248576040519150601f19603f3d011682016040523d82523d6000602084013e61124d565b606091505b5060006004558051919350915060208201838015611269578282f35b8282fd5b303b1590565b828054600181600116156101000203166002900490600052602060002090601f016020900481019282601f106112b457805160ff19168380011785556112e1565b828001600101855582156112e1579182015b828111156112e15782518255916020019190600101906112c6565b506112ed9291506113ef565b5090565b6040518061010001604052806000815260200160608152602001606081526020016060815260200160008081111561132557fe5b81526000602082018190526040820152606001611340611404565b905290565b60405180610260016040528060008152602001606081526020016060815260200160006001600160a01b0316815260200160006001600160a01b0316815260200160008152602001600081526020016000815260200160008152602001600081526020016000815260200160008152602001600081526020016000815260200160008152602001600015158152602001600015158152602001600015158152602001606081525090565b5b808211156112ed57600081556001016113f0565b60405180604001604052806002906020820280368337509192915050565b80356111d6816120ad565b600082601f83011261143d578081fd5b6114476040612032565b905080828460408501111561145b57600080fd5b60005b600281101561147d57815183526020928301929091019060010161145e565b50505092915050565b803580151581146111d657600080fd5b600082601f8301126114a6578081fd5b81356114b96114b482612059565b612032565b91508082528360208285010111156114d057600080fd5b8060208401602084013760009082016020015292915050565b8051600181106111d657600080fd5b600082601f830112611508578081fd5b81516115166114b482612059565b915080825283602082850101111561152d57600080fd5b61153e81602084016020860161207d565b5092915050565b805163ffffffff811681146111d657600080fd5b60006020828403121561156a578081fd5b8151611575816120ad565b9392505050565b6000806040838503121561158e578081fd5b8235611599816120ad565b9150602083013567ffffffffffffffff8111156115b4578182fd5b6115c085828601611496565b9150509250929050565b6000602082840312156115db578081fd5b8135611575816120c2565b600080604083850312156115f8578182fd5b8235611599816120c2565b600060208284031215611614578081fd5b815167ffffffffffffffff8082111561162b578283fd5b90830190610120828603121561163f578283fd5b61164a610100612032565b8251815260208301518281111561165f578485fd5b61166b878286016114f8565b602083015250604083015182811115611682578485fd5b61168e878286016114f8565b6040830152506060830151828111156116a5578485fd5b6116b1878286016114f8565b6060830152506116c486608085016114e9565b60808201526116d68660a08501611545565b60a082015260c083015160c08201526116f28660e0850161142d565b60e082015295945050505050565b600060208284031215611711578081fd5b813567ffffffffffffffff80821115611728578283fd5b818401915061026080838703121561173e578384fd5b61174781612032565b90508235815260208301358281111561175e578485fd5b61176a87828601611496565b602083015250604083013582811115611781578485fd5b61178d87828601611496565b6040830152506117a08660608501611422565b60608201526117b28660808501611422565b608082015260a0838101359082015260c0808401359082015260e08084013590820152610100808401359082015261012080840135908201526101408084013590820152610160808401359082015261018080840135908201526101a080840135908201526101c080840135908201526101e061183187828601611486565b9082015261020061184487858301611486565b9082015261022061185787858301611486565b90820152610240838101358381111561186e578586fd5b61187a88828701611496565b918301919091525095945050505050565b60006020828403121561189c578081fd5b5035919050565b6000602082840312156118b4578081fd5b5051919050565b6000806000606084860312156118cf578081fd5b505081359360208301359350604090920135919050565b6001600160a01b03169052565b15159052565b6000815180845261191181602086016020860161207d565b601f01601f19169290920160200192915050565b6000808354600180821660008114611944576001811461195b5761198a565b60ff198316865260028304607f168601935061198a565b600283048786526020808720875b838110156119825781548a820152908501908201611969565b505050860193505b509195945050505050565b6001600160a01b03929092168252602082015260400190565b901515815260200190565b6001600160e01b03199190911681526040602082018190526030908201527f234465706172746d656e7423696e6974566f7465506f6f6c2064616f20686f7360608201526f0e840e8f2e0ca40dcdee840dac2e8c6d60831b608082015260a00190565b6001600160a01b0391909116815260200190565b60006020825261157560208301846118f9565b60208082526028908201527f23566f7465506f6f6c236372656174652070726f706f73616c20616c72656164604082015267792065786973747360c01b606082015260800190565b60208082526021908201527f23566f7465506f6f6c23766f7465204e6f2063616c6c207065726d697373696f6040820152603760f91b606082015260800190565b6020808252601b908201527f23566f7465506f6f6c23766f746520566f74696e67206c696d69740000000000604082015260600190565b60208082526031908201527f23566f7465506f6f6c2365786563757465205265736f6c7574696f6e20686173604082015270081899595b881a5b5c1b195b595b9d1959607a1b606082015260800190565b60208082526035908201527f23566f7465506f6f6c236372656174652070726f706f73616c20766f74652072604082015274617465206e6f74206c657373207468616e2035302560581b606082015260800190565b6020808252601c908201527f4552433136353a20696e76616c696420696e7465726661636520696400000000604082015260600190565b60208082526026908201527f23566f7465506f6f6c2370726f706f73616c2070726f706f73616c206e6f742060408201526565786973747360d01b606082015260800190565b60208082526029908201527f23566f7465506f6f6c23747279436c6f736520566f74696e6720686173206265604082015268195b8818db1bdcd95960ba1b606082015260800190565b60208082526025908201527f23566f7465506f6f6c23766f74652043616e6e6f7420766f74652072657065616040820152647465646c7960d81b606082015260800190565b60208082526031908201527f23566f7465506f6f6c236578656375746520457865637574696f6e20696e74656040820152701c9d985b081a5cc81d1bdbc81cda1bdc9d607a1b606082015260800190565b60208082526023908201527f23566f7465506f6f6c23637265617465204e6f2063616c6c207065726d69737360408201526234b7b760e91b606082015260800190565b60208082526029908201527f23566f7465506f6f6c23657865637574652050726f706f73616c20776173206e6040820152681bdd081c185cdcd95960ba1b606082015260800190565b60208082526028908201527f23566f7465506f6f6c23766f746520706172616d65746572206572726f722c206040820152670766f7465733d3d360c41b606082015260800190565b6020808252602e908201527f436f6e747261637420696e7374616e63652068617320616c726561647920626560408201526d195b881a5b9a5d1a585b1a5e995960921b606082015260800190565b60208082526038908201527f23566f7465506f6f6c23637265617465204c6f6f702074696d65206d7573742060408201527f62652067726561746572207468616e2031206d696e7574650000000000000000606082015260800190565b60208082526025908201527f23566f7465506f6f6c23766f746520566f74696e6720686173206265656e20636040820152641b1bdcd95960da1b606082015260800190565b600060208252825160208301526020830151610260806040850152611ef26102808501836118f9565b91506040850151601f1980868503016060870152611f1084836118f9565b935060608701519150611f2660808701836118e6565b60808701519150611f3a60a08701836118e6565b60a087015160c08781019190915287015160e08088019190915287015161010080880191909152870151610120808801919091528701516101408088019190915287015161016080880191909152870151610180808801919091528701516101a0808801919091528701516101c0808801919091528701516101e0808801919091528701519150610200611fd0818801846118f3565b8701519150610220611fe4878201846118f3565b8701519150610240611ff8878201846118f3565b87015186850390910183870152905061201183826118f9565b9695505050505050565b90815260200190565b918252602082015260400190565b60405181810167ffffffffffffffff8111828210171561205157600080fd5b604052919050565b600067ffffffffffffffff82111561206f578081fd5b50601f01601f191660200190565b60005b83811015612098578181015183820152602001612080565b838111156120a7576000848401525b50505050565b6001600160a01b038116811461113457600080fd5b6001600160e01b03198116811461113457600080fdfea2646970667358221220028ce5f06257ff5b516cd974746c82676388638fc89fb49cb100e2190d599ec264736f6c634300060c0033",
  "immutableReferences": {},
  "source": "\npragma solidity >=0.6.0 <=0.8.15;\n\npragma experimental ABIEncoderV2;\n\nimport \"./Interface.sol\";\nimport \"./ERC165.sol\";\nimport \"./Upgrade.sol\";\nimport \"../openzeppelin/contracts-ethereum-package/contracts/math/SafeMath.sol\";\nimport \"../openzeppelin/contracts-ethereum-package/contracts/utils/Address.sol\";\n\ncontract VotePool is Upgrade, IVotePool, ERC165 {\n\tusing Address for address;\n\tusing SafeMath for uint256;\n\n\tbytes4 internal constant DAO_ID = 0xc7b55336;\n\tbytes4 internal constant VotePool_ID = 0x0ddf27bf;\n\n\t// define props\n\tIDAO private _host;\n\tstring private _description;\n\tuint256 private _current; // \n\t// proposal id => Proposal\n\tmapping(uint256 => Proposal) private _proposalMap; // \n\tuint256[] private _proposalList; // \n\t// proposal id => map( member id => votes )\n\tmapping(uint256 => mapping(uint256 => int256)) private _votes; // \n\n\tfunction initVotePool(address host, string memory description) external {\n\t\tinitERC165();\n\t\t_registerInterface(VotePool_ID);\n\n\t\tIDAO(host).checkInterface(DAO_ID, \"#Department#initVotePool dao host type not match\");\n\t\t_host = IDAO(host);\n\t\t_description = description;\n\t}\n\n\tfunction host() view external returns (IDAO) {\n\t\treturn _host;\n\t}\n\n\tfunction description() view external returns (string memory) {\n\t\treturn _description;\n\t}\n\n\tfunction current() view public returns (uint256) {\n\t\treturn _current;\n\t}\n\n\tfunction getProposal(uint256 id) view public returns (Proposal memory) {\n\t\trequire(exists(id), \"#VotePool#proposal proposal not exists\");\n\t\treturn _proposalMap[id];\n\t}\n\n\tfunction proposal(uint256 id) private returns (Proposal storage) {\n\t\trequire(exists(id), \"#VotePool#proposal proposal not exists\");\n\t\treturn _proposalMap[id];\n\t}\n\n\tfunction exists(uint256 id) view public returns (bool) {\n\t\treturn _proposalMap[id].idx < _proposalList.length;\n\t}\n\n\tfunction create(Proposal memory proposal) external {\n\n\t\trequire(!exists(proposal.id), \"#VotePool#create proposal already exists\");\n\n\t\trequire(proposal.voteRate > 5000, \"#VotePool#create proposal vote rate not less than 50%\");\n\t\trequire(proposal.passRate > 5000, \"#VotePool#create proposal vote rate not less than 50%\");\n\t\trequire(_host.member().tokenOfOwnerByIndex(msg.sender, 0) != 0, \"#VotePool#create No call permission\");\n\n\t\tProposal storage obj = _proposalMap[proposal.id];\n\n\t\tif (proposal.loop != 0) {\n\t\t\trequire(proposal.loopTime >= 1 minutes, \"#VotePool#create Loop time must be greater than 1 minute\");\n\t\t}\n\n\t\tobj.id = proposal.id;\n\t\tobj.name = proposal.name;\n\t\tobj.description = proposal.description;\n\t\tobj.target = proposal.target;\n\t\tobj.origin = msg.sender;\n\t\t// obj.signature = proposal.signature;\n\t\tobj.data = proposal.data;\n\t\tobj.lifespan = proposal.lifespan;\n\t\tobj.expiry = block.timestamp + (proposal.lifespan * 1 minutes);\n\t\tobj.voteRate = proposal.voteRate > 10000 ? 10000: proposal.voteRate;\n\t\tobj.passRate = proposal.passRate > 10000 ? 10000: proposal.passRate;\n\t\tobj.loop = proposal.loop;\n\t\tobj.loopTime = proposal.loopTime;\n\t\tobj.voteTotal = 0;\n\t\tobj.agreeTotal = 0;\n\t\tobj.executeTime = 0;\n\t\tobj.idx = _proposalList.length;\n\t\tobj.isAgree = false;\n\t\tobj.isClose = false;\n\t\tobj.isExecuted = false;\n\n\t\t_proposalList.push(proposal.id);\n\n\t\temit Created(proposal.id);\n\t}\n\n\tfunction abs(int256 value) pure internal returns (uint256) {\n\t\treturn value < 0 ? uint256(-value): uint256(value);\n\t}\n\n\tfunction vote(uint256 id, uint256 member, int256 votes) external {\n\t\tProposal storage obj = proposal(id);\n\t\tIMember.Info memory info = _host.member().getInfo(member);\n\n\t\trequire(votes == 0, \"#VotePool#vote parameter error, votes==0\");\n\t\trequire(!obj.isClose, \"#VotePool#vote Voting has been closed\");\n\t\trequire(_host.member().ownerOf(member) == msg.sender, \"#VotePool#vote No call permission\");\n\t\trequire(_votes[id][member] == 0, \"#VotePool#vote Cannot vote repeatedly\");\n\t\trequire(abs(votes) <= info.votes, \"#VotePool#vote Voting limit\");\n\n\t\t_votes[id][member] = votes;\n\n\t\tobj.voteTotal += abs(votes);\n\n\t\tif (votes > 0) {\n\t\t\tobj.agreeTotal += uint256(votes);\n\t\t}\n\n\t\temit Vote(id, member, votes);\n\n\t\ttryClose(id); // try close\n\t}\n\n\t/**\n\t* @dev try close proposal\n\t*/\n\tfunction tryClose(uint256 id) public override {\n\t\tProposal storage obj = proposal(id);\n\n\t\trequire(!obj.isClose, \"#VotePool#tryClose Voting has been closed\");\n\n\t\tuint256 votes = _host.member().votes();\n\n\t\t// is expiry\n\t\tif (obj.expiry != 0 && obj.expiry < block.timestamp) {\n\t\t\tobj.isClose = true; //\n\t\t} else {\n\t\t\tif (obj.voteTotal * 10000 / votes > obj.voteRate) { // test voteTotal\n\t\t\t\tif (obj.agreeTotal * 10000 / votes > obj.agreeTotal) { // test agreeTotal\n\t\t\t\t\t// complete\n\t\t\t\t\tobj.isClose = true;\n\t\t\t\t\tobj.isAgree = true;\n\t\t\t\t}\n\t\t\t}\n\t\t}\n\n\t\tif (obj.isClose) {\n\t\t\temit Close(id);\n\t\t}\n\t}\n\n\tfunction execute(uint256 id) public {\n\t\tProposal storage obj = proposal(id);\n\n\t\trequire(obj.isAgree, \"#VotePool#execute Proposal was not passed\");\n\t\trequire(!obj.isExecuted, \"#VotePool#execute Resolution has been implemented\");\n\n\t\tif (obj.loop != 0) {\n\t\t\trequire(obj.executeTime + obj.loopTime < block.timestamp, \"#VotePool#execute Execution interval is too short\");\n\t\t\tif (obj.loop > 0) {\n\t\t\t\texecCall(obj);\n\t\t\t\tobj.loop--;\n\t\t\t} else { // permanent loop\n\t\t\t\texecCall(obj);\n\t\t\t}\n\t\t} else { // execute once\n\t\t\texecCall(obj);\n\t\t\tobj.isExecuted = true;\n\t\t}\n\n\t\tobj.executeTime = block.timestamp;\n\n\t\temit Execute(id);\n\t}\n\n\tfunction execCall(Proposal storage obj) internal {\n\t\t_current = obj.id;\n\t\t(bool suc, bytes memory _data) = obj.target.call{ value: msg.value }(obj.data);\n\t\t_current = 0;\n\t\tassembly {\n\t\t\tlet len := mload(_data)\n\t\t\tlet data := add(_data, 0x20)\n\t\t\tswitch suc\n\t\t\tcase 0 { revert(data, len) }\n\t\t\tdefault { return(data, len) }\n\t\t}\n\t}\n\n\tfunction total() view public returns (uint256) {\n\t\treturn _proposalList.length;\n\t}\n\n}",
  "sourcePath": "/Users/louis/Project/hc/NFTSwap/SmartHolder/contracts/VotePool.sol",
  "compiler": {
    "name": "solc",
    "version": "0.6.12+commit.27d51765.Emscripten.clang"
  },
  "schemaVersion": "3.4.8",
  "updatedAt": "2022-07-23T09:43:56.572Z",
  "devdoc": {
    "kind": "dev",
    "methods": {
      "supportsInterface(bytes4)": {
        "details": "See {IERC165-supportsInterface}. Time complexity O(1), guaranteed to always use less than 30 000 gas."
      },
      "tryClose(uint256)": {
        "details": "try close proposal"
      }
    },
    "version": 1
  },
  "userdoc": {
    "kind": "user",
    "methods": {},
    "version": 1
  }
}