{
  "contractName": "VotePool",
  "abi": [
    {
      "anonymous": false,
      "inputs": [
        {
          "indexed": false,
          "internalType": "uint256",
          "name": "id",
          "type": "uint256"
        }
      ],
      "name": "Close",
      "type": "event"
    },
    {
      "anonymous": false,
      "inputs": [
        {
          "indexed": false,
          "internalType": "uint256",
          "name": "id",
          "type": "uint256"
        }
      ],
      "name": "Created",
      "type": "event"
    },
    {
      "anonymous": false,
      "inputs": [
        {
          "indexed": true,
          "internalType": "uint256",
          "name": "id",
          "type": "uint256"
        }
      ],
      "name": "Execute",
      "type": "event"
    },
    {
      "anonymous": false,
      "inputs": [
        {
          "indexed": true,
          "internalType": "uint256",
          "name": "id",
          "type": "uint256"
        },
        {
          "indexed": false,
          "internalType": "uint256",
          "name": "member",
          "type": "uint256"
        },
        {
          "indexed": false,
          "internalType": "int256",
          "name": "votes",
          "type": "int256"
        }
      ],
      "name": "Vote",
      "type": "event"
    },
    {
      "inputs": [
        {
          "internalType": "bytes4",
          "name": "interfaceId",
          "type": "bytes4"
        },
        {
          "internalType": "string",
          "name": "message",
          "type": "string"
        }
      ],
      "name": "checkInterface",
      "outputs": [],
      "stateMutability": "view",
      "type": "function",
      "constant": true
    },
    {
      "inputs": [
        {
          "internalType": "bytes4",
          "name": "interfaceId",
          "type": "bytes4"
        }
      ],
      "name": "supportsInterface",
      "outputs": [
        {
          "internalType": "bool",
          "name": "",
          "type": "bool"
        }
      ],
      "stateMutability": "view",
      "type": "function",
      "constant": true
    },
    {
      "inputs": [
        {
          "internalType": "address",
          "name": "host",
          "type": "address"
        },
        {
          "internalType": "string",
          "name": "description",
          "type": "string"
        }
      ],
      "name": "initVotePool",
      "outputs": [],
      "stateMutability": "nonpayable",
      "type": "function"
    },
    {
      "inputs": [],
      "name": "host",
      "outputs": [
        {
          "internalType": "contract IDAO",
          "name": "",
          "type": "address"
        }
      ],
      "stateMutability": "view",
      "type": "function",
      "constant": true
    },
    {
      "inputs": [],
      "name": "description",
      "outputs": [
        {
          "internalType": "string",
          "name": "",
          "type": "string"
        }
      ],
      "stateMutability": "view",
      "type": "function",
      "constant": true
    },
    {
      "inputs": [],
      "name": "current",
      "outputs": [
        {
          "internalType": "uint256",
          "name": "",
          "type": "uint256"
        }
      ],
      "stateMutability": "view",
      "type": "function",
      "constant": true
    },
    {
      "inputs": [
        {
          "internalType": "uint256",
          "name": "id",
          "type": "uint256"
        }
      ],
      "name": "getProposal",
      "outputs": [
        {
          "components": [
            {
              "internalType": "uint256",
              "name": "id",
              "type": "uint256"
            },
            {
              "internalType": "string",
              "name": "name",
              "type": "string"
            },
            {
              "internalType": "string",
              "name": "description",
              "type": "string"
            },
            {
              "internalType": "address",
              "name": "origin",
              "type": "address"
            },
            {
              "internalType": "address",
              "name": "target",
              "type": "address"
            },
            {
              "internalType": "uint256",
              "name": "lifespan",
              "type": "uint256"
            },
            {
              "internalType": "uint256",
              "name": "expiry",
              "type": "uint256"
            },
            {
              "internalType": "uint256",
              "name": "voteRate",
              "type": "uint256"
            },
            {
              "internalType": "uint256",
              "name": "passRate",
              "type": "uint256"
            },
            {
              "internalType": "int256",
              "name": "loopCount",
              "type": "int256"
            },
            {
              "internalType": "uint256",
              "name": "loopTime",
              "type": "uint256"
            },
            {
              "internalType": "uint256",
              "name": "voteTotal",
              "type": "uint256"
            },
            {
              "internalType": "uint256",
              "name": "agreeTotal",
              "type": "uint256"
            },
            {
              "internalType": "uint256",
              "name": "executeTime",
              "type": "uint256"
            },
            {
              "internalType": "uint256",
              "name": "idx",
              "type": "uint256"
            },
            {
              "internalType": "bool",
              "name": "isAgree",
              "type": "bool"
            },
            {
              "internalType": "bool",
              "name": "isClose",
              "type": "bool"
            },
            {
              "internalType": "bool",
              "name": "isExecuted",
              "type": "bool"
            },
            {
              "internalType": "bytes",
              "name": "data",
              "type": "bytes"
            }
          ],
          "internalType": "struct IVotePool.Proposal",
          "name": "",
          "type": "tuple"
        }
      ],
      "stateMutability": "view",
      "type": "function",
      "constant": true
    },
    {
      "inputs": [
        {
          "internalType": "uint256",
          "name": "id",
          "type": "uint256"
        }
      ],
      "name": "exists",
      "outputs": [
        {
          "internalType": "bool",
          "name": "",
          "type": "bool"
        }
      ],
      "stateMutability": "view",
      "type": "function",
      "constant": true
    },
    {
      "inputs": [
        {
          "components": [
            {
              "internalType": "uint256",
              "name": "id",
              "type": "uint256"
            },
            {
              "internalType": "string",
              "name": "name",
              "type": "string"
            },
            {
              "internalType": "string",
              "name": "description",
              "type": "string"
            },
            {
              "internalType": "address",
              "name": "origin",
              "type": "address"
            },
            {
              "internalType": "address",
              "name": "target",
              "type": "address"
            },
            {
              "internalType": "uint256",
              "name": "lifespan",
              "type": "uint256"
            },
            {
              "internalType": "uint256",
              "name": "expiry",
              "type": "uint256"
            },
            {
              "internalType": "uint256",
              "name": "voteRate",
              "type": "uint256"
            },
            {
              "internalType": "uint256",
              "name": "passRate",
              "type": "uint256"
            },
            {
              "internalType": "int256",
              "name": "loopCount",
              "type": "int256"
            },
            {
              "internalType": "uint256",
              "name": "loopTime",
              "type": "uint256"
            },
            {
              "internalType": "uint256",
              "name": "voteTotal",
              "type": "uint256"
            },
            {
              "internalType": "uint256",
              "name": "agreeTotal",
              "type": "uint256"
            },
            {
              "internalType": "uint256",
              "name": "executeTime",
              "type": "uint256"
            },
            {
              "internalType": "uint256",
              "name": "idx",
              "type": "uint256"
            },
            {
              "internalType": "bool",
              "name": "isAgree",
              "type": "bool"
            },
            {
              "internalType": "bool",
              "name": "isClose",
              "type": "bool"
            },
            {
              "internalType": "bool",
              "name": "isExecuted",
              "type": "bool"
            },
            {
              "internalType": "bytes",
              "name": "data",
              "type": "bytes"
            }
          ],
          "internalType": "struct IVotePool.Proposal",
          "name": "proposal",
          "type": "tuple"
        }
      ],
      "name": "create",
      "outputs": [],
      "stateMutability": "nonpayable",
      "type": "function"
    },
    {
      "inputs": [
        {
          "internalType": "uint256",
          "name": "id",
          "type": "uint256"
        },
        {
          "internalType": "address",
          "name": "target",
          "type": "address"
        },
        {
          "internalType": "uint256",
          "name": "lifespan",
          "type": "uint256"
        },
        {
          "internalType": "uint256",
          "name": "voteRate",
          "type": "uint256"
        },
        {
          "internalType": "uint256",
          "name": "passRate",
          "type": "uint256"
        },
        {
          "internalType": "int256",
          "name": "loopCount",
          "type": "int256"
        },
        {
          "internalType": "uint256",
          "name": "loopTime",
          "type": "uint256"
        },
        {
          "internalType": "string",
          "name": "name",
          "type": "string"
        },
        {
          "internalType": "string",
          "name": "description",
          "type": "string"
        },
        {
          "internalType": "bytes",
          "name": "data",
          "type": "bytes"
        }
      ],
      "name": "create2",
      "outputs": [],
      "stateMutability": "nonpayable",
      "type": "function"
    },
    {
      "inputs": [
        {
          "internalType": "uint256",
          "name": "id",
          "type": "uint256"
        },
        {
          "internalType": "uint256",
          "name": "member",
          "type": "uint256"
        },
        {
          "internalType": "int256",
          "name": "votes",
          "type": "int256"
        }
      ],
      "name": "vote",
      "outputs": [],
      "stateMutability": "nonpayable",
      "type": "function"
    },
    {
      "inputs": [
        {
          "internalType": "uint256",
          "name": "id",
          "type": "uint256"
        }
      ],
      "name": "tryClose",
      "outputs": [],
      "stateMutability": "nonpayable",
      "type": "function"
    },
    {
      "inputs": [
        {
          "internalType": "uint256",
          "name": "id",
          "type": "uint256"
        }
      ],
      "name": "execute",
      "outputs": [],
      "stateMutability": "nonpayable",
      "type": "function"
    },
    {
      "inputs": [],
      "name": "total",
      "outputs": [
        {
          "internalType": "uint256",
          "name": "",
          "type": "uint256"
        }
      ],
      "stateMutability": "view",
      "type": "function",
      "constant": true
    }
  ],
  "bytecode": "0x608060405234801561001057600080fd5b506122ca806100206000396000f3fe608060405234801561001057600080fd5b50600436106100ea5760003560e01c80634f558e791161008c578063c64df69d11610066578063c64df69d146101be578063c7f758a8146101d1578063f437bc59146101f1578063fe0d94c114610206576100ea565b80634f558e791461018e5780637284e416146101a15780639fa6a6e3146101b6576100ea565b806320b7c317116100c857806320b7c3171461014057806327f5d43d146101535780632ddbd13a146101665780633261e10b1461017b576100ea565b806301ffc9a7146100ef5780630ddf27bf146101185780631c9e551c1461012d575b600080fd5b6101026100fd3660046116b4565b610219565b60405161010f9190611b6a565b60405180910390f35b61012b610126366004611666565b610238565b005b61012b61013b366004611975565b6102e6565b61012b61014e366004611a77565b610536565b61012b6101613660046119a5565b6108ad565b61016e610919565b60405161010f91906121d7565b61012b6101893660046117ea565b61091f565b61010261019c366004611975565b610c84565b6101a9610c98565b60405161010f9190611bec565b61016e610d2e565b61012b6101cc3660046116d0565b610d34565b6101e46101df366004611975565b610d5c565b60405161010f9190612085565b6101f9611048565b60405161010f9190611bd8565b61012b610214366004611975565b611057565b6001600160e01b03191660009081526001602052604090205460ff1690565b61024061116e565b610250630ddf27bf60e01b611218565b60405163c64df69d60e01b81526001600160a01b0383169063c64df69d90610283906363daa99b60e11b90600401611b75565b60006040518083038186803b15801561029b57600080fd5b505afa1580156102af573d6000803e3d6000fd5b5050600280546001600160a01b0319166001600160a01b038616179055505080516102e190600390602084019061135d565b505050565b60006102f18261126a565b600f810154909150610100900460ff16156103275760405162461bcd60e51b815260040161031e90611de2565b60405180910390fd5b600254604080516338fdad5160e21b815290516000926001600160a01b03169163e3f6b544916004808301926020929190829003018186803b15801561036c57600080fd5b505afa158015610380573d6000803e3d6000fd5b505050506040513d601f19601f820116820180604052508101906103a49190611643565b6001600160a01b031663e168c3ec6040518163ffffffff1660e01b815260040160206040518083038186803b1580156103dc57600080fd5b505afa1580156103f0573d6000803e3d6000fd5b505050506040513d601f19601f82011682018060405250810190610414919061198d565b9050816006015460001415801561042e5750428260060154105b1561044957600f8201805461ff0019166101001790556104e8565b81600701548183600b0154612710028161045f57fe5b04111561049e5781600801548183600c0154612710028161047c57fe5b04111561049e57600f8201805460ff1961ff0019909116610100171660011790555b600f820154610100900460ff166104e8578160080154612710038183600c015484600b01540361271002816104cf57fe5b0411156104e857600f8201805461ff0019166101001790555b600f820154610100900460ff16156102e1577fbf67515a38ee520223d32c1266d52101c30d936ed1f3e436c8caeb0a43cb06bf8360405161052991906121d7565b60405180910390a1505050565b60006105418461126a565b905061054b6113db565b600260009054906101000a90046001600160a01b03166001600160a01b031663e3f6b5446040518163ffffffff1660e01b815260040160206040518083038186803b15801561059957600080fd5b505afa1580156105ad573d6000803e3d6000fd5b505050506040513d601f19601f820116820180604052508101906105d19190611643565b6001600160a01b0316631a3cd59a856040518263ffffffff1660e01b81526004016105fc91906121d7565b60006040518083038186803b15801561061457600080fd5b505afa158015610628573d6000803e3d6000fd5b505050506040513d6000823e601f3d908101601f1916820160405261065091908101906116ed565b90508261066f5760405162461bcd60e51b815260040161031e90611f4d565b600f820154610100900460ff16156106995760405162461bcd60e51b815260040161031e90612040565b600254604080516338fdad5160e21b8152905133926001600160a01b03169163e3f6b544916004808301926020929190829003018186803b1580156106dd57600080fd5b505afa1580156106f1573d6000803e3d6000fd5b505050506040513d601f19601f820116820180604052508101906107159190611643565b6001600160a01b0316636352211e866040518263ffffffff1660e01b815260040161074091906121d7565b60206040518083038186803b15801561075857600080fd5b505afa15801561076c573d6000803e3d6000fd5b505050506040513d601f19601f820116820180604052508101906107909190611643565b6001600160a01b0316146107b65760405162461bcd60e51b815260040161031e90611c47565b6000858152600760209081526040808320878452909152902054156107ed5760405162461bcd60e51b815260040161031e90611e2b565b8060a0015163ffffffff16610801846112a3565b111561081f5760405162461bcd60e51b815260040161031e90611c88565b60008581526007602090815260408083208784529091529020839055610844836112a3565b600b830180549091019055600083131561086357600c82018054840190555b847f1ad6cbfa9912ec69279a6634788918d5c8e0236b45609178636427bee8756ed785856040516108959291906121e0565b60405180910390a26108a6856102e6565b5050505050565b6108b561142f565b8a81526001600160a01b038a16608082015260a0810189905260e081018890526101008101879052610120810186905261014081018590526020810184905260408101839052610240810182905261090c8161091f565b5050505050505050505050565b60065490565b805161092a90610c84565b156109475760405162461bcd60e51b815260040161031e90611bff565b6113888160e001511161096c5760405162461bcd60e51b815260040161031e90611d10565b611388816101000151116109925760405162461bcd60e51b815260040161031e90611d10565b600260009054906101000a90046001600160a01b03166001600160a01b031663e3f6b5446040518163ffffffff1660e01b815260040160206040518083038186803b1580156109e057600080fd5b505afa1580156109f4573d6000803e3d6000fd5b505050506040513d601f19601f82011682018060405250810190610a189190611643565b6001600160a01b0316632f745c593360006040518363ffffffff1660e01b8152600401610a46929190611b51565b60206040518083038186803b158015610a5e57600080fd5b505afa158015610a72573d6000803e3d6000fd5b505050506040513d601f19601f82011682018060405250810190610a96919061198d565b610ab25760405162461bcd60e51b815260040161031e90611ec1565b8051600090815260056020526040902061012082015115610af357603c8261014001511015610af35760405162461bcd60e51b815260040161031e90611fe3565b815181556020808301518051610b0f926001850192019061135d565b5060408201518051610b2b91600284019160209091019061135d565b5060808201516004820180546001600160a01b039092166001600160a01b0319928316179055600382018054909116331790556102408201518051610b7a91601084019160209091019061135d565b5060a082015160058201819055603c024201600682015560e082015161271010610ba8578160e00151610bac565b6127105b600782015561010082015161271010610bca57816101000151610bce565b6127105b60088201556101208201516009820155610140820151600a8201556000600b8201819055600c8201819055600d820181905560068054600e840155600f8301805462ffffff1916905583518154600181018355919092527ff652222313e28459528d920b65115c16c04f3efc82aaedc97be59f3f377c0d3f015581516040517f06acbfb32bcf8383f3b0a768b70ac9ec234ea0f2d3b9c77fa6a2de69b919aad191610c78916121d7565b60405180910390a15050565b600090815260056020526040902054151590565b60038054604080516020601f6002600019610100600188161502019095169490940493840181900481028201810190925282815260609390929091830182828015610d245780601f10610cf957610100808354040283529160200191610d24565b820191906000526020600020905b815481529060010190602001808311610d0757829003601f168201915b5050505050905090565b60045490565b610d3d82610219565b81906102e15760405162461bcd60e51b815260040161031e9190611bec565b610d6461142f565b610d6d82610c84565b610d895760405162461bcd60e51b815260040161031e90611d9c565b600560008381526020019081526020016000206040518061026001604052908160008201548152602001600182018054600181600116156101000203166002900480601f016020809104026020016040519081016040528092919081815260200182805460018160011615610100020316600290048015610e4b5780601f10610e2057610100808354040283529160200191610e4b565b820191906000526020600020905b815481529060010190602001808311610e2e57829003601f168201915b5050509183525050600282810180546040805160206001841615610100026000190190931694909404601f81018390048302850183019091528084529381019390830182828015610edd5780601f10610eb257610100808354040283529160200191610edd565b820191906000526020600020905b815481529060010190602001808311610ec057829003601f168201915b505050918352505060038201546001600160a01b0390811660208084019190915260048401549091166040808401919091526005840154606084015260068401546080840152600784015460a0840152600884015460c0840152600984015460e0840152600a84015461010080850191909152600b850154610120850152600c850154610140850152600d850154610160850152600e850154610180850152600f85015460ff80821615156101a0870152828204811615156101c0870152620100009091041615156101e08501526010850180548351600260018316159094026000190190911692909204601f81018590048502830185019093528282526102009094019390929091908301828280156110385780601f1061100d57610100808354040283529160200191611038565b820191906000526020600020905b81548152906001019060200180831161101b57829003601f168201915b5050505050815250509050919050565b6002546001600160a01b031690565b60006110628261126a565b600f81015490915060ff166110895760405162461bcd60e51b815260040161031e90611f04565b600f81015462010000900460ff16156110b45760405162461bcd60e51b815260040161031e90611cbf565b60098101541561111c574281600a015482600d015401106110e75760405162461bcd60e51b815260040161031e90611e70565b60008160090154131561110e576110fd816112bd565b600981018054600019019055611117565b611117816112bd565b611139565b611125816112bd565b600f8101805462ff00001916620100001790555b42600d82015560405182907fddb556f1d2c1ec821e910b019d3685b229db152a0ecd517ca7e24b8bd713928990600090a25050565b600054600160a81b900460ff16806111895750611189611357565b8061119e5750600054600160a01b900460ff16155b6111ba5760405162461bcd60e51b815260040161031e90611f95565b600054600160a81b900460ff161580156111f1576000805460ff60a01b1960ff60a81b19909116600160a81b1716600160a01b1790555b6112016301ffc9a760e01b611218565b8015611215576000805460ff60a81b191690555b50565b6001600160e01b031980821614156112425760405162461bcd60e51b815260040161031e90611d65565b6001600160e01b0319166000908152600160208190526040909120805460ff19169091179055565b600061127582610c84565b6112915760405162461bcd60e51b815260040161031e90611d9c565b50600090815260056020526040902090565b60008082126112b257816112b7565b816000035b92915050565b805460049081558101546040516000916060916001600160a01b039091169034906112ec906010870190611ae1565b60006040518083038185875af1925050503d8060008114611329576040519150601f19603f3d011682016040523d82523d6000602084013e61132e565b606091505b506000600455805191935091506020820183801561134b5761134f565b8282fd5b505050505050565b303b1590565b828054600181600116156101000203166002900490600052602060002090601f016020900481019282601f1061139e57805160ff19168380011785556113cb565b828001600101855582156113cb579182015b828111156113cb5782518255916020019190600101906113b0565b506113d79291506114d9565b5090565b6040518061010001604052806000815260200160608152602001606081526020016060815260200160008081111561140f57fe5b8152600060208201819052604082015260600161142a6114ee565b905290565b60405180610260016040528060008152602001606081526020016060815260200160006001600160a01b0316815260200160006001600160a01b0316815260200160008152602001600081526020016000815260200160008152602001600081526020016000815260200160008152602001600081526020016000815260200160008152602001600015158152602001600015158152602001600015158152602001606081525090565b5b808211156113d757600081556001016114da565b60405180604001604052806002906020820280368337509192915050565b80356112b781612269565b600082601f830112611527578081fd5b61153160406121ee565b905080828460408501111561154557600080fd5b60005b6002811015611567578151835260209283019290910190600101611548565b50505092915050565b803580151581146112b757600080fd5b600082601f830112611590578081fd5b81356115a361159e82612215565b6121ee565b91508082528360208285010111156115ba57600080fd5b8060208401602084013760009082016020015292915050565b8051600181106112b757600080fd5b600082601f8301126115f2578081fd5b815161160061159e82612215565b915080825283602082850101111561161757600080fd5b611628816020840160208601612239565b5092915050565b805163ffffffff811681146112b757600080fd5b600060208284031215611654578081fd5b815161165f81612269565b9392505050565b60008060408385031215611678578081fd5b823561168381612269565b9150602083013567ffffffffffffffff81111561169e578182fd5b6116aa85828601611580565b9150509250929050565b6000602082840312156116c5578081fd5b813561165f8161227e565b600080604083850312156116e2578182fd5b82356116838161227e565b6000602082840312156116fe578081fd5b815167ffffffffffffffff80821115611715578283fd5b908301906101208286031215611729578283fd5b6117346101006121ee565b82518152602083015182811115611749578485fd5b611755878286016115e2565b60208301525060408301518281111561176c578485fd5b611778878286016115e2565b60408301525060608301518281111561178f578485fd5b61179b878286016115e2565b6060830152506117ae86608085016115d3565b60808201526117c08660a0850161162f565b60a082015260c083015160c08201526117dc8660e08501611517565b60e082015295945050505050565b6000602082840312156117fb578081fd5b813567ffffffffffffffff80821115611812578283fd5b8184019150610260808387031215611828578384fd5b611831816121ee565b905082358152602083013582811115611848578485fd5b61185487828601611580565b60208301525060408301358281111561186b578485fd5b61187787828601611580565b60408301525061188a866060850161150c565b606082015261189c866080850161150c565b608082015260a0838101359082015260c0808401359082015260e08084013590820152610100808401359082015261012080840135908201526101408084013590820152610160808401359082015261018080840135908201526101a080840135908201526101c080840135908201526101e061191b87828601611570565b9082015261020061192e87858301611570565b9082015261022061194187858301611570565b908201526102408381013583811115611958578586fd5b61196488828701611580565b918301919091525095945050505050565b600060208284031215611986578081fd5b5035919050565b60006020828403121561199e578081fd5b5051919050565b6000806000806000806000806000806101408b8d0312156119c4578586fd5b8a3599506119d58c60208d0161150c565b985060408b0135975060608b0135965060808b0135955060a08b0135945060c08b0135935060e08b013567ffffffffffffffff80821115611a14578485fd5b611a208e838f01611580565b94506101008d0135915080821115611a36578384fd5b611a428e838f01611580565b93506101208d0135915080821115611a58578283fd5b50611a658d828e01611580565b9150509295989b9194979a5092959850565b600080600060608486031215611a8b578081fd5b505081359360208301359350604090920135919050565b6001600160a01b03169052565b15159052565b60008151808452611acd816020860160208601612239565b601f01601f19169290920160200192915050565b6000808354600180821660008114611b005760018114611b1757611b46565b60ff198316865260028304607f1686019350611b46565b600283048786526020808720875b83811015611b3e5781548a820152908501908201611b25565b505050860193505b509195945050505050565b6001600160a01b03929092168252602082015260400190565b901515815260200190565b6001600160e01b03199190911681526040602082018190526030908201527f234465706172746d656e7423696e6974566f7465506f6f6c2064616f20686f7360608201526f0e840e8f2e0ca40dcdee840dac2e8c6d60831b608082015260a00190565b6001600160a01b0391909116815260200190565b60006020825261165f6020830184611ab5565b60208082526028908201527f23566f7465506f6f6c236372656174652070726f706f73616c20616c72656164604082015267792065786973747360c01b606082015260800190565b60208082526021908201527f23566f7465506f6f6c23766f7465204e6f2063616c6c207065726d697373696f6040820152603760f91b606082015260800190565b6020808252601b908201527f23566f7465506f6f6c23766f746520566f74696e67206c696d69740000000000604082015260600190565b60208082526031908201527f23566f7465506f6f6c2365786563757465205265736f6c7574696f6e20686173604082015270081899595b881a5b5c1b195b595b9d1959607a1b606082015260800190565b60208082526035908201527f23566f7465506f6f6c236372656174652070726f706f73616c20766f74652072604082015274617465206e6f74206c657373207468616e2035302560581b606082015260800190565b6020808252601c908201527f4552433136353a20696e76616c696420696e7465726661636520696400000000604082015260600190565b60208082526026908201527f23566f7465506f6f6c2370726f706f73616c2070726f706f73616c206e6f742060408201526565786973747360d01b606082015260800190565b60208082526029908201527f23566f7465506f6f6c23747279436c6f736520566f74696e6720686173206265604082015268195b8818db1bdcd95960ba1b606082015260800190565b60208082526025908201527f23566f7465506f6f6c23766f74652043616e6e6f7420766f74652072657065616040820152647465646c7960d81b606082015260800190565b60208082526031908201527f23566f7465506f6f6c236578656375746520457865637574696f6e20696e74656040820152701c9d985b081a5cc81d1bdbc81cda1bdc9d607a1b606082015260800190565b60208082526023908201527f23566f7465506f6f6c23637265617465204e6f2063616c6c207065726d69737360408201526234b7b760e91b606082015260800190565b60208082526029908201527f23566f7465506f6f6c23657865637574652050726f706f73616c20776173206e6040820152681bdd081c185cdcd95960ba1b606082015260800190565b60208082526028908201527f23566f7465506f6f6c23766f746520706172616d65746572206572726f722c206040820152670766f7465733d3d360c41b606082015260800190565b6020808252602e908201527f436f6e747261637420696e7374616e63652068617320616c726561647920626560408201526d195b881a5b9a5d1a585b1a5e995960921b606082015260800190565b60208082526038908201527f23566f7465506f6f6c23637265617465204c6f6f702074696d65206d7573742060408201527f62652067726561746572207468616e2031206d696e7574650000000000000000606082015260800190565b60208082526025908201527f23566f7465506f6f6c23766f746520566f74696e6720686173206265656e20636040820152641b1bdcd95960da1b606082015260800190565b6000602082528251602083015260208301516102608060408501526120ae610280850183611ab5565b91506040850151601f19808685030160608701526120cc8483611ab5565b9350606087015191506120e26080870183611aa2565b608087015191506120f660a0870183611aa2565b60a087015160c08781019190915287015160e08088019190915287015161010080880191909152870151610120808801919091528701516101408088019190915287015161016080880191909152870151610180808801919091528701516101a0808801919091528701516101c0808801919091528701516101e080880191909152870151915061020061218c81880184611aaf565b87015191506102206121a087820184611aaf565b87015191506102406121b487820184611aaf565b8701518685039091018387015290506121cd8382611ab5565b9695505050505050565b90815260200190565b918252602082015260400190565b60405181810167ffffffffffffffff8111828210171561220d57600080fd5b604052919050565b600067ffffffffffffffff82111561222b578081fd5b50601f01601f191660200190565b60005b8381101561225457818101518382015260200161223c565b83811115612263576000848401525b50505050565b6001600160a01b038116811461121557600080fd5b6001600160e01b03198116811461121557600080fdfea2646970667358221220512db5b1df04704874431356abbbd2bdb3e2e335a6d99f039b9a9c0eebdf815c64736f6c634300060c0033",
  "immutableReferences": {},
  "source": "\npragma solidity >=0.6.0 <=0.8.15;\n\npragma experimental ABIEncoderV2;\n\nimport \"./Interface.sol\";\nimport \"./ERC165.sol\";\nimport \"./Upgrade.sol\";\nimport \"../openzeppelin/contracts-ethereum-package/contracts/math/SafeMath.sol\";\nimport \"../openzeppelin/contracts-ethereum-package/contracts/utils/Address.sol\";\n\ncontract VotePool is Upgrade, IVotePool, ERC165 {\n\tusing Address for address;\n\tusing SafeMath for uint256;\n\n\tbytes4 internal constant DAO_ID = 0xc7b55336;\n\tbytes4 internal constant VotePool_ID = 0x0ddf27bf;\n\n\t// define props\n\tIDAO private _host;\n\tstring private _description;\n\tuint256 private _current; // \n\t// proposal id => Proposal\n\tmapping(uint256 => Proposal) private _proposalMap; // \n\tuint256[] private _proposalList; // \n\t// proposal id => map( member id => votes )\n\tmapping(uint256 => mapping(uint256 => int256)) private _votes; // \n\n\tfunction initVotePool(address host, string memory description) external {\n\t\tinitERC165();\n\t\t_registerInterface(VotePool_ID);\n\n\t\tIDAO(host).checkInterface(DAO_ID, \"#Department#initVotePool dao host type not match\");\n\t\t_host = IDAO(host);\n\t\t_description = description;\n\t}\n\n\tfunction host() view external returns (IDAO) {\n\t\treturn _host;\n\t}\n\n\tfunction description() view external returns (string memory) {\n\t\treturn _description;\n\t}\n\n\tfunction current() view public returns (uint256) {\n\t\treturn _current;\n\t}\n\n\tfunction getProposal(uint256 id) view public returns (Proposal memory) {\n\t\trequire(exists(id), \"#VotePool#proposal proposal not exists\");\n\t\treturn _proposalMap[id];\n\t}\n\n\tfunction proposal(uint256 id) private returns (Proposal storage) {\n\t\trequire(exists(id), \"#VotePool#proposal proposal not exists\");\n\t\treturn _proposalMap[id];\n\t}\n\n\tfunction exists(uint256 id) view public returns (bool) {\n\t\treturn _proposalMap[id].id != 0;\n\t}\n\n\tfunction create(Proposal memory proposal) public {\n\n\t\trequire(!exists(proposal.id), \"#VotePool#create proposal already exists\");\n\n\t\trequire(proposal.voteRate > 5000, \"#VotePool#create proposal vote rate not less than 50%\");\n\t\trequire(proposal.passRate > 5000, \"#VotePool#create proposal vote rate not less than 50%\");\n\t\trequire(_host.member().tokenOfOwnerByIndex(msg.sender, 0) != 0, \"#VotePool#create No call permission\");\n\n\t\tProposal storage obj = _proposalMap[proposal.id];\n\n\t\tif (proposal.loopCount != 0) {\n\t\t\trequire(proposal.loopTime >= 1 minutes, \"#VotePool#create Loop time must be greater than 1 minute\");\n\t\t}\n\n\t\tobj.id = proposal.id;\n\t\tobj.name = proposal.name;\n\t\tobj.description = proposal.description;\n\t\tobj.target = proposal.target;\n\t\tobj.origin = msg.sender;\n\t\t// obj.signature = proposal.signature;\n\t\tobj.data = proposal.data;\n\t\tobj.lifespan = proposal.lifespan;\n\t\tobj.expiry = block.timestamp + (proposal.lifespan * 1 minutes);\n\t\tobj.voteRate = proposal.voteRate > 10000 ? 10000: proposal.voteRate;\n\t\tobj.passRate = proposal.passRate > 10000 ? 10000: proposal.passRate;\n\t\tobj.loopCount = proposal.loopCount;\n\t\tobj.loopTime = proposal.loopTime;\n\t\tobj.voteTotal = 0;\n\t\tobj.agreeTotal = 0;\n\t\tobj.executeTime = 0;\n\t\tobj.idx = _proposalList.length;\n\t\tobj.isAgree = false;\n\t\tobj.isClose = false;\n\t\tobj.isExecuted = false;\n\n\t\t_proposalList.push(proposal.id);\n\n\t\temit Created(proposal.id);\n\t}\n\n\tfunction create2(\n\t\tuint256 id,\n\t\taddress target,\n\t\tuint256 lifespan,\n\t\tuint256 voteRate,\n\t\tuint256 passRate,\n\t\tint256 loopCount,\n\t\tuint256 loopTime,\n\t\tstring memory name,\n\t\tstring memory description,\n\t\tbytes memory data\n\t) external {\n\t\tProposal memory proposal;\n\t\tproposal.id = id;\n\t\tproposal.target = target;\n\t\tproposal.lifespan = lifespan;\n\t\tproposal.voteRate = voteRate;\n\t\tproposal.passRate = passRate;\n\t\tproposal.loopCount = loopCount;\n\t\tproposal.loopTime = loopTime;\n\t\tproposal.name = name;\n\t\tproposal.description = description;\n\t\tproposal.data = data;\n\t\tcreate(proposal);\n\t}\n\n\tfunction abs(int256 value) pure internal returns (uint256) {\n\t\treturn value < 0 ? uint256(-value): uint256(value);\n\t}\n\n\tfunction vote(uint256 id, uint256 member, int256 votes) external {\n\t\tProposal storage obj = proposal(id);\n\t\tIMember.Info memory info = _host.member().getInfo(member);\n\n\t\trequire(votes != 0, \"#VotePool#vote parameter error, votes==0\");\n\t\trequire(!obj.isClose, \"#VotePool#vote Voting has been closed\");\n\t\trequire(_host.member().ownerOf(member) == msg.sender, \"#VotePool#vote No call permission\");\n\t\trequire(_votes[id][member] == 0, \"#VotePool#vote Cannot vote repeatedly\");\n\t\trequire(abs(votes) <= info.votes, \"#VotePool#vote Voting limit\");\n\n\t\t_votes[id][member] = votes;\n\n\t\tobj.voteTotal += abs(votes);\n\n\t\tif (votes > 0) {\n\t\t\tobj.agreeTotal += uint256(votes);\n\t\t}\n\n\t\temit Vote(id, member, votes);\n\n\t\ttryClose(id); // try close\n\t}\n\n\t/**\n\t* @dev try close proposal\n\t*/\n\tfunction tryClose(uint256 id) public override {\n\t\tProposal storage obj = proposal(id);\n\n\t\trequire(!obj.isClose, \"#VotePool#tryClose Voting has been closed\");\n\n\t\tuint256 votes = _host.member().votes();\n\n\t\t// is expiry\n\t\tif (obj.expiry != 0 && obj.expiry < block.timestamp) {\n\t\t\tobj.isClose = true; //\n\t\t} else {\n\t\t\t// obj.voteTotal / votes * 10000\n\t\t\tif (obj.voteTotal * 10000 / votes > obj.voteRate) { // test voteTotal\n\t\t\t\tif (obj.agreeTotal * 10000 / votes > obj.passRate) { // test agreeTotal\n\t\t\t\t\t// complete\n\t\t\t\t\tobj.isClose = true;\n\t\t\t\t\tobj.isAgree = true;\n\t\t\t\t}\n\t\t\t}\n\n\t\t\tif (!obj.isClose) {\n\t\t\t\tif ((obj.voteTotal - obj.agreeTotal) * 10000 / votes > (10000 - obj.passRate)) { // Refuse to pass\n\t\t\t\t\tobj.isClose = true;\n\t\t\t\t}\n\t\t\t}\n\t\t}\n\n\t\tif (obj.isClose) {\n\t\t\temit Close(id);\n\t\t}\n\t}\n\n\tfunction execute(uint256 id) public {\n\t\tProposal storage obj = proposal(id);\n\n\t\trequire(obj.isAgree, \"#VotePool#execute Proposal was not passed\");\n\t\trequire(!obj.isExecuted, \"#VotePool#execute Resolution has been implemented\");\n\n\t\tif (obj.loopCount != 0) {\n\t\t\trequire(obj.executeTime + obj.loopTime < block.timestamp, \"#VotePool#execute Execution interval is too short\");\n\t\t\tif (obj.loopCount > 0) {\n\t\t\t\texecCall(obj);\n\t\t\t\tobj.loopCount--;\n\t\t\t} else { // permanent loop\n\t\t\t\texecCall(obj);\n\t\t\t}\n\t\t} else { // execute once\n\t\t\texecCall(obj);\n\t\t\tobj.isExecuted = true;\n\t\t}\n\n\t\tobj.executeTime = block.timestamp;\n\n\t\temit Execute(id);\n\t}\n\n\tfunction execCall(Proposal storage obj) internal {\n\t\t_current = obj.id;\n\t\t(bool suc, bytes memory _data) = obj.target.call{ value: msg.value }(obj.data);\n\t\t_current = 0;\n\n\t\tassembly {\n\t\t\tlet len := mload(_data)\n\t\t\tlet data := add(_data, 0x20)\n\t\t\tswitch suc\n\t\t\tcase 0 { revert(data, len) }\n\t\t\tdefault { \n\t\t\t\t// return(data, len) \n\t\t\t}\n\t\t}\n\t}\n\n\tfunction total() view public returns (uint256) {\n\t\treturn _proposalList.length;\n\t}\n\n}",
  "sourcePath": "/Users/louis/Project/hc/NFTSwap/SmartHolder/contracts/VotePool.sol",
  "compiler": {
    "name": "solc",
    "version": "0.6.12+commit.27d51765.Emscripten.clang"
  },
  "schemaVersion": "3.4.8",
  "updatedAt": "2022-08-15T05:13:53.615Z",
  "networkType": "ethereum",
  "devdoc": {
    "kind": "dev",
    "methods": {
      "supportsInterface(bytes4)": {
        "details": "See {IERC165-supportsInterface}. Time complexity O(1), guaranteed to always use less than 30 000 gas."
      },
      "tryClose(uint256)": {
        "details": "try close proposal"
      }
    },
    "version": 1
  },
  "userdoc": {
    "kind": "user",
    "methods": {},
    "version": 1
  }
}